S3150800000098A300205D020008AF680008675600083C
S31508000010BD670008AB140008BD7B0008000000009F
S315080000200000000000000000000000009D0100081C
S315080000306D22000800000000F9010008D9730008C5
S31508000040770200087702000877020008770200089E
S31508000050770200087702000877020008770200088E
S31508000060770200087B23000881230008770200082E
S315080000708D21000877020008770200087702000839
S31508000080770200087702000877020008551500086D
S31508000090C1140008770200087702000887230008C1
S315080000A0770200087702000877020008770200083E
S315080000B0770200087702000877020008770200082E
S315080000C0770200087702000877020008770200081E
S315080000D077020008757B0008770200088D7B000808
S315080000E077020008770200087702000877020008FE
S315080000F077020008770200087702000877020008EE
S3150800010077020008770200087702000877020008DD
S315080001107702000877020008B5740008770200081D
S31508000120770200089921000877020008770200087C
S3150800013077020008770200087702000829160008E7
S315080001408915000877020008770200087702000878
S31508000150A5210008B1210008BD210008A57B0008DB
S31508000160770200087702000877020008770200087D
S3150800017077020008770200087702000800000000EE
S315080001807702000877020008DFF80CD000F0F0FAD2
S3150800019000480047958F000898A300202C4B196843
S315080001A00868B0E8F04F80F30988BFF36F8F4FF007
S315080001B0000080F3118870470000000008480068B6
S315080001C0006880F308884FF0000080F3148862B650
S315080001D061B6BFF34F8FBFF36F8F00DF00BF00BF5D
S315080001E008ED00E0DFF80C00016841F470010160D9
S315080001F0704700BF88ED00E0EFF30980BFF36F8F0B
S31508000200134B1A681EF0100F08BF20ED108A20E95C
S31508000210F04F106009B44FF0500080F31188BFF317
S315080002204F8FBFF36F8F09F0F7FC4FF0000080F394
S31508000230118809BC19680868B0E8F04F1EF0100F5D
S3150800024008BFB0EC108A80F30988BFF36F8F704738
S3150800025018020020EFF30580704700000648804723
S3150800026006480047FEE7FEE7FEE7FEE7FEE7FEE78D
S31508000270FEE7FEE7FEE7FEE7997400088901000835
S315080002809FED1A1AF5EE000A40EE010ABDEEE00AE5
S31508000290F5EEC00A10EE100AF1EE10FA38BF401E4D
S315080002A000EE100A1349F7EE001AB8EEC00A30EE4F
S315080002B0C00ADFED0F0A20EE200AFCEEC00A10EE97
S315080002C0900AC0F3080000EE900A01EB8000F8EEF1
S315080002D0600A90ED011A70EE600A90ED000A71EE60
S315080002E0E01A21EE800A00EE810A704783F9223E61
S315080002F0000000446CA40008DFED190AB5EEC00A38
S3150800030060EE200ABDEEE01A11EE100AF1EE10FAC0
S3150800031038BF401E00EE100A1349F7EE001AB8EE71
S31508000320C00A30EEC00ADFED0F0A60EE200ABCEE06
S31508000330E00A10EE100AC0F3080000EE100A01EBFE
S315080003408000B8EE400A90ED011A70EEC00A90EDF2
S31508000350000A71EEE01A21EE800A00EE810A704763
S3150800036083F9223E000000446CA400082DE9F05FE2
S315080003700546002092469B46884606468146402406
S315080003801BE0284641464746224600F03AF95346BE
S315080003905A46C01A914110D311461846224600F013
S315080003A021F92D1A67EB01084F4622460120002144
S315080003B000F018F917EB00094E41201EA4F10104BC
S315080003C0DFDC484631462A464346BDE8F09F40EA08
S315080003D001039B0703D009E008C9121F08C0042AB5
S315080003E0FAD203E011F8013B00F8013B521EF9D29C
S315080003F07047D2B201E000F8012B491EFBD27047C4
S315080004000022F6E710B513460A4604461946FFF7D2
S31508000410F0FF204610BD2DE9FE4F804681EA030015
S31508000420C00F0C46009021F0004123F00045B8EBC0
S315080004300200A94105D24046214690461C460B4675
S31508000440024623F00040104347D0270DC7F30A00A1
S31508000450C3F30A510290401A019040286BDAC3F39D
S31508000460130040F4801B0098924620B10023D2EB7B
S31508000470030A63EB0B0B01985946C0F1400250463C
S3150800048000F0B0F806460D4650465946019A00F067
S31508000490C8F810EB08006141002487EA115284EA83
S315080004A0E7731A4340D0009A62B3019A012A4FEAC9
S315080004B0075215DC001B61EB02014FF0004202EA0D
S315080004C00752CDE90042001C41F5801132462B4601
S315080004D000F0FFF803B0BDE8F08F40462146F9E783
S315080004E0001B61EB0201001C41F5801300185B41FB
S315080004F02018A2F5001747EB030140EAD570B61994
S315080005006D4111E06D084FEA360645EAC0754FEAB7
S315080005100752001B61EB0201001C41F580114908D6
S315080005204FEA30000019514132462B4603B0BDE868
S31508000530F04F00F0BFB80098012240000023D0EB2E
S31508000540020263EBE073009821464FEAE074B8EBC9
S31508000550000061EB0401E9E783F000435BE781F003
S31508000560004158E70EB5C10F80EAE0700844CA0793
S31508000570002140F233438DE80E000A460B4600F090
S31508000580A8F803B000BD00F0004230F000400AD0E1
S31508000590C10D01F56071C0F3160042EA0151C208A7
S315080005A040071143704700200146704701F0004399
S315080005B030B421F0004150EA010206D00A0DA2F536
S315080005C06072C1F31301002A02DC30BC00207047B8
S315080005D0440F44EAC104C100E01830BC00EBC25025
S315080005E000F031B8202A04DB203A00FA02F1002094
S315080005F070479140C2F1200320FA03F31943904053
S315080006007047202A04DB203A21FA02F000217047BD
S3150800061021FA02F3D040C2F120029140084319465C
S315080006207047202A06DBCB17203A41FA02F043EA44
S31508000630E07306E041FA02F3D040C2F1200291408D
S315080006400843194670470029A8BF7047401C49004F
S3150800065008BF20F00100704710B4B0FA80FC00FA19
S315080006600CF050EA010404BF10BC704749B1CCF144
S31508000670200421FA04F411FA0CF118BF01212143D0
S315080006800843A3EB0C01CB1D4FEA00614FEA10208B
S3150800069042BF002010BC704700EBC350104400292D
S315080006A0A4BF10BC7047401C490008BF20F00100D9
S315080006B010BC704710B5141E73F1000408DA401C0C
S315080006C041F1000192185B411A4301D120F0010063
S315080006D010BD2DE9F04D92469B4611B1B1FA81F253
S315080006E002E0B0FA80F220329046FFF77BFF04461C
S315080006F00F4640EA0A0041EA0B0153465A460843A8
S3150800070013D0114653EA010019D0C8F140025046E9
S31508000710FFF777FF05460E46504659464246FFF70D
S3150800072061FF084305D0012004E020463946BDE8AC
S31508000730F08D0020054346EAE0762C4337430A98B5
S315080007406305E40AA0EB08000022FD0A44EA4754C0
S315080007500A3002D500200146E9E70105101969416A
S31508000760DDE9084500196941BDE8F04DA2E700003A
S31508000770064C074D06E0E06840F0010394E80700E0
S3150800078098471034AC42F6D3FFF702FDE4AC0008F4
S3150800079004AD000870B58C1810F8015B15F0070356
S315080007A001D110F8013B2A1106D110F8012B03E0FC
S315080007B010F8016B01F8016B5B1EF9D12B0705D404
S315080007C00023521E0DD401F8013BFAE710F8013B4D
S315080007D0CB1A921C03E013F8015B01F8015B521E69
S315080007E0F9D5A142D8D3002070BD07F031BA07F079
S315080007F0C5BAFFF745BDF0EE400AF5EEC00AF1EEC0
S3150800080010FA02DDB0EE600A7047B1EE600AFBE747
S31508000810002803D09FED020A80ED000A7047000009
S3150800082000000000002803D0B3EE060A80ED000A97
S315080008307047000070B52DED0C8B84B006460C464B
S3150800084015469FED990AF0EE408A9FED970AB0EE9D
S31508000850409A9FED950AF0EE40BA9FED930AF0EEA6
S31508000860409A9FED910AB0EE40AA0EB104B11DB9A7
S3150800087004B0BDEC0C8B70BD8C48FFF7C9FF8C48E3
S31508000880FFF7D0FF8A48D0ED000A9FED8A1A60EE7E
S31508000890810AB0EE600A00F025F9F0EE408A28EEEB
S315080008A0A80AF0EE408A8248D0ED000AB0EE001A97
S315080008B060EE810A9FED7F1A60EE810AB0EE600A4B
S315080008C000F010F9B0EE409A29EE090AB0EE409A07
S315080008D0DFED790AB7EE000A00EEA80ADFED770A1F
S315080008E000EEC90ADFED760A20EE200A754880ED8B
S315080008F0000A6E4890ED000ADFED730A80EE201AB2
S31508000900B7EE000A31EE000A20EE000A6D48D0ED77
S31508000910000A80EE801A6D4880ED001A94ED000AF0
S31508000920B5EEC00AF1EE10FA0DD194ED010AB5EE56
S31508000930C00AF1EE10FA06D194ED020AB5EEC00A25
S31508000940F1EE10FA46D09FED580AB0EE408A002024
S31508000950019002900390D4ED000A60EEA00A94ED8F
S31508000960011AD4ED011A41EE210A94ED021AD4EDCA
S31508000970021A41EE210AB0EE600A00F0A9F8B0EEBC
S31508000980408A94ED000A20EE080A8DED010A94EDDE
S31508000990010A20EE080A8DED020A94ED020A20EEFD
S315080009A0080A8DED030ADDED010AF1EE600AB0EEE4
S315080009B0600AFFF71AFFF0EE409A9DED031AF0EE73
S315080009C0410A9DED021AB0EE410AFFF710FFB0EE9C
S315080009D040AA07E09FED340AF0EE409A9FED320AEE
S315080009E0B0EE40AA95ED000AB5EEC00AF1EE10FA8F
S315080009F00DD195ED010AB5EEC00AF1EE10FA06D151
S31508000A0095ED020AB5EEC00AF1EE10FA3CD0B0EE4A
S31508000A10690A00F067F8B0EE408AB0EE690AFFF797
S31508000A20E8FEB0EE40DAB0EE4A0A00F05BF8F0EE07
S31508000A3040AAB0EE4A0AFFF7DCFEB0EE40BA28EE4E
S31508000A402A0AD5ED010A20EE200AD5ED000A0DEE98
S31508000A50200A68EE0B0A95ED021A00EE810AB0EE3E
S31508000A6040CA95ED010A20EE0B0AD5ED020A0AEEF8
S31508000A70E00AF0EE40CAF0EE6C0AB0EE4C0AFFF758
S31508000A80B6FEF0EE40BA03E09FED070AF0EE40BA74
S31508000A90B0EE4A1AF0EE690AB0EE6B0A304607F075
S31508000AA0D1FC00BFE4E6000000000000540200206C
S31508000AB05802002035FA8E3CC1BFAD3B9DF8C536BD
S31508000AC02F7C1C415C020020506CC24A6002002048
S31508000AD010B507F085FAB7EE001AC1EE000AB0EEB7
S31508000AE0600A10BDFFF708BC2DE9F0412DED028B19
S31508000AF09AB00546B0EE408A0E461746984600203C
S31508000B001790189019901490159016904DB146B1FB
S31508000B103FB1B8F1000F04D0B5EEC08AF1EE10FA75
S31508000B2005D100201AB0BDEC028BBDE8F08196ED28
S31508000B30000A8DED170A96ED010A8DED180A96ED55
S31508000B40020A8DED190A97ED000A8DED140A97ED44
S31508000B50010A8DED150A97ED020A8DED160A17AAF8
S31508000B6014A9284607F0C0FA402104A8FFF748FC54
S31508000B7000200090019002900390002417A904A871
S31508000B8008F061FE00BF30E004A800EB041090ED09
S31508000B90000AD5ED000A20EE200A04A800EB04108E
S31508000BA0D0ED010A95ED011A00EE810A04A800EBC2
S31508000BB00410D0ED020A95ED021A00EE810A04A887
S31508000BC000EB0410D0ED030A95ED031A00EE810A36
S31508000BD020EE080AF0EE000A80EE201A684600EBBE
S31508000BE0840080ED001A601CC4B2042CCCDB0024FF
S31508000BF010E005EB840090ED000A684600EB8400DF
S31508000C00D0ED000A30EE200A05EB840080ED000ADC
S31508000C10601CC4B2042CECDB284608F035FD012024
S31508000C2080E70000BDEEC01A4FF4B47111EE100A49
S31508000C30F8EEC11A90FBF1F201FB120001EE100A60
S31508000C4030EE610AB8EEC11A31EE001ABDEEE00ABE
S31508000C5010EE100AF8EEC01A90FBF1F201FB120032
S31508000C6000EE100A70EEE11A0C49B8EEC00A30EE32
S31508000C70210A31EE400A9FED0A1A10EE100A884240
S31508000C8002DD30EE410A06E010EE100A05498842F8
S31508000C9001D930EE010A30EE800A7047000034436D
S31508000CA00000B443000034C310B500F079FA1748C1
S31508000CB000F060FA164C30B1022020704FF47A70BA
S31508000CC002F022FD01E00120207006F047FB06F045
S31508000CD02FFB04F0EDFF01F0F9F901F069F801F0D6
S31508000CE015FB2078022807D001280DD100F0ECFC6E
S31508000CF0BDE8104000F0C6BE01F052FB06F0ECF865
S31508000D00BDE8104001F082BE10BD0000F05500207D
S31508000D100000002001221021014802F024BE000034
S31508000D200000024000221021014802F01CBE00000B
S31508000D30000002407047000001221146014802F0F7
S31508000D4012BE00000004024000220121014802F000
S31508000D500ABE000000040240704708F046B900F0D9
S31508000D60DBB910B5FFF7E6FFFFF7F6FF07F0D6FC8D
S31508000D7008B1802402E007F03DFC044607F09CFE1B
S31508000D8010B144F0400010BD07F028FE204310BD06
S31508000D902DE9FC410746002016460D4600900190B5
S31508000DA0FFF7C0FF922000F0BDF806226946122020
S31508000DB000F09AF8FFF7AEFF9DF801009DF80010C5
S31508000DC0000200B2084300EE100A464CB8EEC00A0C
S31508000DD0D4ED000A20EE200A85ED000A9DF80300EE
S31508000DE09DF80210000200B2084300EE100AD4ED86
S31508000DF0000AB8EEC00A20EE200A85ED010A9DF821
S31508000E0005009DF80410000200B2084300EE100A1F
S31508000E10B8EEC00A20EE200A85ED020AFFF794FF15
S31508000E2008226946002000F05FF8FFF785FF9DF865
S31508000E3000000F2830D19DF803009DF8021000022B
S31508000E4000B2084300EE100AD4ED010AB8EEC00A53
S31508000E5020EE200A87ED000A9DF805009DF804108B
S31508000E60000200B2084300EE100AD4ED010AB8EEFB
S31508000E70C00A20EE200A87ED010A9DF807009DF8B2
S31508000E800610000200B2084300EE100AB8EEC00AC7
S31508000E9020EE200A87ED020AFFF744FFA22000F0A1
S31508000EA041F802226946222000F01EF8FFF732FFB9
S31508000EB09DF800009DF80110C00040EA5110B0F5F9
S31508000EC0806F01DBA0F5006000EE100AB4EE001A90
S31508000ED0F8EEC00AB3EE070A00EE810A86ED000AAC
S31508000EE0BDE8FC813401002070B514460D4640F07B
S31508000EF0800000F017F806E0552000F013F8641E8D
S31508000F0005F8010BE4B2002CF6D170BD10B50C46FD
S31508000F1040F0800000F006F8552000F003F8207035
S31508000F2010BD000001B582B04FF47A70009001231D
S31508000F3001AA02A9024803F0DDFB9DF804000EBDD4
S31508000F40F45D002010B50C46FFF7ECFF2046BDE81F
S31508000F501040FFF7E7BF00B58BB0012205910021CD
S31508000F60CDE90612009101910291039104910E2197
S31508000F70CDE90821694601F00BFE002801D001F0F1
S31508000F8005FA0BB000BD000070B50D4604460068B2
S31508000F900E49884201D1002103E00D49884203D158
S31508000FA00E212046FFF7D7FF204602F073F908B155
S31508000FB001F0ECF92946204601F073FD002803D01C
S31508000FC0BDE8704001F0E2B970BD00000064004061
S31508000FD0006800402DE9F04115460E46040016D07B
S31508000FE00020266084F824002562A3624FF48073EB
S31508000FF010222946201D07F0E3FD0A4F002500BFF1
S3150800100057F8250030B16D1CEDB2022DF8D301203A
S31508001010BDE8F08103213046FFF7B6FF47F82540C3
S315080010200020F5E7E400002018B111B18162002024
S315080010307047012070472DE9FF471F4605464FF0C8
S31508001040010914460026EFF31088009172B64FF096
S31508001050080A20E0281D07F0C7FD18B1002085F80A
S3150800106024001AE0B81B082802DB8DF804A001E06A
S315080010708DF804002068CDF805006068CDF80900F1
S315080010809DF8040069460444304486B2281D07F0DA
S31508001090B1FD4FF00009BE42DCD388F3108895F8FD
S315080010A0240030B9281D07F099FD10B9284600F02C
S315080010B0C1FA04B04846BDE8F08700000648016852
S315080010C00648B1FBF0F2064802704FF47A72B1FB9B
S315080010D0F2F1416070470000DC01002040420F0039
S315080010E0EC00002070B54FF0E0240022656909493C
S315080010F0A36949684843A1699942FCD002D2A3EB87
S31508001100010302E0A5EB010633441A440B4682426A
S31508001110F1D370BDEC00002070B54FF0E02400223A
S3150800112065690949A36909784843A1699942FCD0C8
S3150800113002D2A3EB010302E0A5EB010633441A44ED
S315080011400B468242F1D370BDEC00002020B1C0E905
S31508001150002301720020704701207047034610B52E
S315080011600846C3E9000204211972114603F0E2FE9B
S31508001170002010BD8188006889B202F0EFBB05C85F
S3150800118000682AB1042A05D0082A05D001647047E8
S315080011904163704781637047C163704702F0E8BBDB
S315080011A038B5FFF78BFF4FF48053394A0321394886
S315080011B0FFF7CCFF3748082237491030FFF7CEFF34
S315080011C03448042234492030FFF7C8FF314800224A
S315080011D031493030FFF7C2FF2E4800222F494030F0
S315080011E0FFF7BCFF2B4808222D495030FFF7B6FF02
S315080011F0284808222B496030FFF7B0FF25482A49BE
S31508001200703000F0A5F84FF48064284B214865102B
S315080012102A46A3F500717030009400F0D3F81D48F3
S3150800122000232A462249703000F0ACF819482149B3
S31508001230AC3000F08DF8204B16482A46A3F500710D
S31508001240AC30009400F0BEF8124800232A461B4929
S31508001250AC3000F097F80F481949E83000F078F8F4
S315080012600C4800231E221749E83000F08BF8154A6F
S3150800127000231E3214491548FFF7ACFE01B0134887
S31508001280BDE830400023124A12492C30FFF7A2BEAF
S3150800129000040240F05500206C5F0020B45F002077
S315080012A0245F0020DC5E002084600020D027002018
S315080012B0D02B0020FC5F0020D02F0020D033002048
S315080012C040600020D0350020FC5A0020145700202A
S315080012D0EE450020245B0020F8B505460068016845
S315080012E0C9062DD5C068C0062AD5A86B006801684E
S315080012F021F001010160154E002400BF56F82400B4
S315080013002A6801680968914210D1AA6BC1881268D7
S315080013105268891AC26889B20AB18068904756F835
S315080013202400C2888168284604F0FEF8641CE4B2EA
S31508001330032CE3D3A86B0068016841F00101016042
S315080013402868016840680090F8BD00006C570020C6
S3150800135070B50D4604000CD03C21FFF751F808483B
S315080013600021256050F821202AB1491CC9B2032959
S31508001370F8D3012070BD40F82140002070BD000060
S315080013806C57002038B5A0B1012404718160C28071
S31508001390C360016809680A684A680092CA6842F028
S315080013A01002CA60C2888168006804F0BDF800208F
S315080013B038BD012038BD18B111B1C1600020704791
S315080013C00120704770B5049C78B101250574416108
S315080013D0028343630487002180F83A10224619469F
S315080013E01C3007F076FC002070BD012070BD00009F
S315080013F070B5FFF7D3FE40F6B831884223D31249B9
S3150800140040F6C4138A68821A9A4203D94A780A703F
S31508001410886017E00A78002A15D0CB684C88C31A6A
S31508001420A34203D296214FF4FA7005E08D882C4426
S31508001430A34205D200210846BDE8704000F036B840
S31508001440521E0A70C86070BD240100200149487008
S31508001450704700002401002010B504462DED028BCC
S31508001460B0EE408A02F084FA6168A1B12269411A95
S3150800147091420BD8B0EEC80A10EE101AB1F17E5F91
S315080014800ADA2168E268411A914206D9A060012069
S31508001490BDEC028B10BD606020600020F8E70023D9
S315080014A043608360C0E903127047FEE7034A126887
S315080014B01268D0620148FFF762BE0000405600205D
S315080014C0014801F077BC0000FC5A0020B0F5C06F57
S315080014D003D192B2014800F019BC7047E808002011
S315080014E010B5154BA0F50070053817D0012810D097
S315080014F0A0F50070FB3817D0B0F5007F1AD192B26C
S3150800150003F52F6000F002FC0C20BDE8104005F042
S31508001510DDB9186905F053F90620F6E7D3F8D400C3
S3150800152005F04DF90520F0E792B2044800F0EEFB0D
S315080015300D20EAE710BD0000EC130020301A002049
S315080015400B4602464FF4E0610148FFF774BD000000
S3150800155014570020014801F02DBC0000FC5A002059
S315080015600B4602464FF4A0610148FFF764BD000030
S31508001570145700200B4602464FF4C0610148FFF796
S315080015805ABD000014570020014801F013BC0000A2
S31508001590245B002010B5A0F50072013A05D0012A97
S315080015A003D0022A01D0032A0FD1401EC4B2074A2B
S315080015B004EB840002EB0010406A05F000F9641C95
S315080015C0E0B2BDE8104005F081B910BD6802002000
S315080015D010B5A0F500700C4601380FD0012814D0BC
S315080015E0022819D003281ED105F014F8214605F063
S315080015F0E6F80B20BDE8104005F068B900F0C8FE13
S31508001600214605F0DCF80820F4E700F0C5FE21467F
S3150800161005F0D5F80920EDE706F0EEF8214605F0C5
S31508001620CEF80A20E6E710BD014801F0C3BB00006A
S31508001630245B00202DE9F0418CB004000CD0EFF3B8
S31508001640108572B6201D07F0C9FA0026D8B184F8AD
S31508001650246000BF85F310880CB0BDE8F0816946A8
S31508001660201D07F08EFA0098069604909DF804004F
S315080016700796089084F824800AAB7A1D04A9206886
S3150800168001F021FA02E06F464FF00108206801F0E8
S315080016907BFB0028DED0201D07F0A0FA0028DED04C
S315080016A0D8E700000A4610B50146044800F02EFBAC
S315080016B0BDE810400C2005F009B9000040100020D4
S315080016C0704770477047000030B52DED048B81B028
S315080016D000F028FD544C206004F06EFA6060534810
S315080016E0A060002020739FED520A84ED040A9FED46
S315080016F0510A84ED050A9FED500A84ED060A9FED0E
S315080017004F8A054684ED078A84ED088ADFED4C8A00
S315080017109FED4C9ADFED4C9A284600F0D1F8014629
S3150800172005EB850004EB0010B0EE482A4162F0EEA6
S31508001730681AB1EE0A1AF0EE490AB0EE690A0321F0
S31508001740283007F057FD6D1CEDB2042DE4D3B0EE3A
S31508001750002AF0EE481AB2EE001ADFED3C0A9FEDB9
S315080017603C0A03213B4807F045FD0123642200217A
S31508001770184605F09DF8022364220021184605F054
S3150800178097F8032364220021184605F091F80423EC
S3150800179064220021184605F08BF8002364220121F3
S315080017A00F2005F085F82D494FF480642A4B224610
S315080017B0A1F1AC0000F076FB29482A4A009023469E
S315080017C0AA21A2F1AC0000F0C3FA28496410264BFE
S315080017D02246A1F1AC0000F065FB2548254A009099
S315080017E02346A521A2F1AC0000F0B2FA0A22002194
S315080017F0214805F051FD21492148FFF7DCFD214923
S315080018002148FFF7D8FD21492148FFF7D4FD214992
S315080018102148FFF709FC01B020490448BDEC048BB8
S31508001820BDE83040FFF700BC6802002040570020A2
S315080018300000EF430080C8430000AF4300000000EB
S31508001840CDCCCC3D0000FA4400007A460000484260
S3150800185000009643CC03002061150008E804002028
S31508001860C17B00089409002041150008400E00209D
S31508001870ED690008EC100020B97700082D21000852
S31508001880D8560020A516000860560020C316000882
S315080018909C560020CD140008145700209515000802
S315080018A006490868807938B1012805D0022803D08E
S315080018B0032801D0042800D1087370476802002065
S315080018C0024900EBC00001EB800070477C590020FC
S315080018D01648174A016891ED020A80ED6A0AD1EDA9
S315080018E0030AB0EEC00A10EE101AC0ED6B0A914258
S315080018F008DAB0EEE01A11EE101A914202DA9FEDFC
S315080019000D0A0CE010EE102A0B498A420ADAB0EEEC
S31508001910E00A10EE102A8A4204DA9FED080A80EDE2
S315080019206C0A70479FED060AF9E700006802002076
S315080019300000FA430000484300007A440000C84209
S31508001940000000001CB54C4C00F0BCFE50F8051F0A
S31508001950C4F8C4116168426891ED120A00EE902A33
S3150800196030EE600A84ED730A91ED130A84ED740A69
S315080019708068D1ED140A00EE100A30EEC00A84ED34
S31508001980720AFFF78DFF207B012806D002280BD0AC
S3150800199003281BD0042823D120E09FED380A84EDC4
S315080019A06A0A84ED6B0A0EE02068FFEE080A90EDDD
S315080019B0020A84ED6A0A90ED030A84ED6B0A90ED3B
S315080019C0040A20EE200A84ED6C0A09E0206890EDEE
S315080019D0020A84ED6A0A90ED040AF4E7FFF778FF35
S315080019E0254800F063F8002504EB8500D0ED6D0A64
S315080019F005EB850004EB0016C6ED1B0A706AB0F904
S31508001A00040000EE100A06F12800B8EEC00A07F036
S31508001A1035FBBDEEC00A6D1CEDB210EE100A042DA2
S31508001A20A6F87000E0D3144800F056F8207B58B9A1
S31508001A300020014600EB800204EB0212401CC0B2F3
S31508001A40A2F870100428F5D3B4F96011B4F970201F
S31508001A50B4F9C030B4F91001CDE900014FF40071B2
S31508001A60A06804F005FF0A2007F0BFFA002007F077
S31508001A703BFF0349086067E7680200200000000092
S31508001A802800002000B587B01C2206496846FEF7E4
S31508001A909EFC0021684607F0C7FA0349486007B06C
S31508001AA000BD000024A000082800002010B5094A3F
S31508001AB00446111F00F0E8F8064894ED6C1A203821
S31508001AC0D0ED080A90ED070A2046BDE8104004F05C
S31508001AD0A5BD00002400002070B504462DED048B3A
S31508001AE09FED5D8A04F07CFF050003D00C2000F012
S31508001AF003F910B1DFED598A4BE0022D25D00C2DE4
S31508001B0023D004F0E1FF406809EE900A04F0DCFFF8
S31508001B10008900EE100AB8EE409A04F0D9FF008B4F
S31508001B204F4900EE100A19EE100AB8EE400ADFED2A
S31508001B304D8A884211DA19EE100A4B49884207DDA8
S31508001B40DFED4A0A89EE200A04E0DFED498A20E043
S31508001B509FED480A60EE288A1BE019EE900A46496E
S31508001B60884214DDF4EEC09AF1EE10FA08D270EE4F
S31508001B70690A9FED421A30EE411A80EE810A01E0A9
S31508001B80B0EE480ADFED3E0A40EE208A01E0DFEDBE
S31508001B903D8A002505EB850004EB0010B0F97000BE
S31508001BA0FEF7E0FC41EC100B06F010FAB0EE409A96
S31508001BB0F0EE609A18EE100AFEF7E5FC53EC192BC6
S31508001BC0FEF729FCFEF7F2FC6D1C08EE100AEDB2D2
S31508001BD0042DDFD3B4EEE88AF1EE10FA38DD88EE8C
S31508001BE0880A34F9700F00EE900AF8EEE00A60EE03
S31508001BF0800AFDEEE00A10EE900A24F8500B34F93C
S31508001C00500B00EE900AF8EEE00A60EE800AFDEE50
S31508001C10E00A10EE900A24F8500CB4F9000000EE21
S31508001C20900AF8EEE00A60EE800AFDEEE00A10EE91
S31508001C30900A24F8500BB4F9000000EE900AF8EE6A
S31508001C40E00A20EE800ABDEEC00A10EE100A2080D7
S31508001C50BDEC048B70BD0000000000000000FA45D2
S31508001C600000484200007A460000A04000004842B2
S31508001C7000007A47CDCCCC3D00002042000020422F
S31508001C8000409C4600A00C472DE9F04116462DED74
S31508001C90028B0F46D0ED710A9FED158A044680EE39
S31508001CA0880AFEF729FB134D85ED000AD4ED710A63
S31508001CB080EE880AFEF7E4FA85ED010AD4ED6A0A91
S31508001CC0D4ED6B1A20EE801AD5ED000A00EEA11AA3
S31508001CD087ED001A94ED6B1A21EE000A94ED6A1A44
S31508001CE000EEC10A86ED000ABDEC028BBDE8F08164
S31508001CF03333654204000020034901EB0010C07825
S31508001D00012800D000207047EC12002070B5144658
S31508001D100D4600280CD00830064606F087FFA0427C
S31508001D2006DD224629463046BDE8704006F0DCBF8F
S31508001D3070BD000070B5054D6C6803E0204600F0E4
S31508001D40CDF86468AC42F9D170BD0000F4000020FB
S31508001D5070B51646049D040017D00C4A506802E078
S31508001D60A04212D040689042FAD1084802685460EE
S31508001D70C4E90020046084F820101A46314604F1AC
S31508001D80080006F0A6FFC4F8A85070BDF4000020AD
S31508001D90064C00BFFFF7CEFF00F056F8012007F00B
S31508001DA024F9002007F0A0FD2060F3E730000020AA
S31508001DB000B587B01C2206496846FEF708FB0021D5
S31508001DC0684607F031F90349486007B000BD0000CE
S31508001DD040A00008300000202DE9F84F99460A9ED9
S31508001DE01746884604002DD004F10800824606F0FE
S31508001DF01DFFB04226DD2546ADF8007006F1090044
S31508001E0087B22134802F01D9002714E084F8008096
S31508001E10A4F80160BDF80000E8840521204606F014
S31508001E20D8FB3246494605F12800FEF7D0FA39466E
S31508001E30204606F0BDFB3A4621465046BDE8F84F17
S31508001E4006F052BFBDE8F88FF0B5A1B0802168460C
S31508001E50FEF7D6FA124E74681EE000BF04F10800B9
S31508001E60074606F07BFF05042D0C14D0D4F8A8000D
S31508001E7018B18047A84200D20546802D00D9802592
S31508001E802A466946384606F0E9FED4F8A42012B177
S31508001E902946684690476468B442DFD121B0F0BD50
S31508001EA0FC00002070B51D46040013D00A4B586884
S31508001EB002E0A0420ED040689842FAD1064803686C
S31508001EC05C60C4E90030046004F1080006F001FF14
S31508001ED0C4F8A45070BD0000FC0000202DE9F041B4
S31508001EE0044600F12605002600F1080763E0384697
S31508001EF006F09EFE94F8211006293CD2DFE801F090
S31508001F00031118252D3E94F82010814207D101218E
S31508001F1084F82110618C4A1C628448554BE066841B
S31508001F2049E0A084628C511C61845055022011E05E
S31508001F30A18C41EA0021A184628C511C6184505510
S31508001F40A08C772817D2032004E0618C4A1C62848F
S31508001F504855042084F821002DE0618C4A1C6284CF
S31508001F604855608C052826D10521284607F09CFE91
S31508001F7008B10520EEE784F82160D0E7A18C628CD1
S31508001F8009318A4202D2511C61845055A18C608C59
S31508001F90093188420FD384F821606684284607F001
S31508001FA069FE40B12946D4F8A83031F8012F88884F
S31508001FB0E91D03B19847384606F0D0FE002896D1A9
S31508001FC0BDE8F081DFF8F48001273D4C3D4D4FF028
S31508001FD0000902262068B0F91400404501DA2F707E
S31508001FE00BE000F1DB01B1F5DB7F02D80320287096
S31508001FF003E0B0F5DC7F00DD2E7032482978401CFE
S3150800200004F0E6FC207920B1012815D002283ED13B
S3150800201033E000F057FB0078012808D000F052FBA7
S31508002020007820B1277104206071A67102E027713B
S315080020306771A771E6712AE02068007A032804D040
S31508002040012805D0022806D021E004F045FD1EE04F
S3150800205003F0F2FE1BE09FED1C0A484684ED020AD7
S3150800206084ED030A84ED040A84ED050A84ED060A64
S3150800207084F8069084F8059008E00F20FFF73CFEE8
S31508002080C0B184F80590484684F80690E0710F20A0
S31508002090FFF732FE00B12671094816222030216862
S315080020A0FEF795F9142006F0A0FF002007F01CFCA7
S315080020B068608FE784F80490E9E7000048FEFFFFB0
S315080020C020240020A00000200000000000B587B0F2
S315080020D004F07AFC104901220860002008718A7110
S315080020E04A710222CA7108774B210C4807F02AFB6D
S315080020F00A484B21143007F025FB1C22084968467C
S31508002100FEF765F90021684606F08EFF0349103987
S31508002110C86007B000BD000020240020B0000020E1
S31508002120CCA00008004870472024002038B50C468B
S31508002130054604F049FC2246294604F0D3FB2B4603
S315080021400122AA2104480094FFF746FEBDE838405C
S315080021500F2004F0BBBB00003C04002038B50C4639
S31508002160054604F031FC2246294604F0BBFB2B4603
S315080021700122AA2104480094FFF72EFEBDE8384044
S315080021800F2004F0A3BB000084150020014801F0CD
S3150800219049B9000088610020014801F043B90000F0
S315080021A0E8610020014801F03DB90000C860002040
S315080021B0014801F037B9000048620020014801F0E3
S315080021C031B900002861002001681823CAB2103A04
S315080021D0B2FBF3F2054B6FF30901032A9B5CC36557
S315080021E000D9091D816508467047000058A40008F3
S315080021F010B5014600208B698A6A4FF0C07453B146
S31508002200B3F5005F15D072B1012A0CD0022A0AD0A4
S31508002210032A09D104E01AB1012A06D0022A03D1F9
S31508002220C96AC90100D5012010BDC96AA142FAD000
S3150800223010BD002AF7D0012AF2D0022AF3D0032AC9
S31508002240F3D010BD30B50468256825F480252560CF
S31508002250046863608368402B036803D0996000684C
S31508002260C26030BD9A600068C16030BD704700002A
S31508002270234C00BFFEF792FF0025FF2301221746D5
S315080022804FEA050604EB0211D1F804C0D1F808E0BC
S31508002290A0EB0C0CF4450BD991F800C0BCF1000F6B
S315080022A006D0CF708978994203D20B46D5B200E0A2
S315080022B0CE70521C102AE5DB85B104EB0515287B88
S315080022C0FFF7C4F8A87810B1012802D00DE00D4830
S315080022D001E06FF0FF0005F0CDFE06E04FF0FF20AD
S315080022E005F0C8FE0020FFF7B1F8FFF781F80A20CD
S315080022F006F07BFE002007F0F7FA03490860B9E705
S31508002300EC1200200000FFFF3800002000B587B05F
S315080023101C2206496846FEF75AF80021684606F068
S3150800232083FE0349486007B000BD00005CA00008B2
S315080023303800002010B504462DED028BB0EE418A18
S31508002340B0EE601AF0EE400AC0ED220AB0EE410A7D
S3150800235080ED230A06F092FED4ED0B0AB0EE480A89
S31508002360C4ED240A84ED258A04F1440006F086FEAD
S3150800237094ED1C0ABDEC028B10BD082001F0ECB9E7
S31508002380102001F0E9B9202001F0E6B972B6FEE79F
S3150800239000487047545A002000487047785A002071
S315080023A010B52DED068B82B0FFF7BCFE6D4C206094
S315080023B003F002FC60606C48A0600120607300F0C6
S315080023C01DFA206100F016FAC4F8D40040F2046041
S315080023D0A08241F23010A4F8D8009FED640A84ED7B
S315080023E0060A84ED370A9FED620A84ED070A9FED17
S315080023F0610A84ED080AB3EE0E0A84ED380ABBEECC
S31508002400090A84ED390ADFED5C8AB0EE682A9FED89
S315080024105B8AB0EE681AF0EE481AF0EE480A9FEDAD
S31508002420589A032104F13800B0EE490A06F0E2FE94
S31508002430B0EE682ADFED531ADFED539AB0EE691A4B
S31508002440DFED520A9FED52AA032104F17C00B0EE9B
S315080024504A0A06F0CFFEB0EE482AF0EE481AB0EE69
S31508002460681AF0EE480AB0EE490A032104F1FC00A6
S3150800247006F0C0FEB0EE482AF6EE001AB0EE691A6B
S31508002480DFED440AB0EE4A0A032104F5A07006F00F
S31508002490B1FE052364220021184604F009FA062332
S315080024A064220021184604F003FA0123642200215D
S315080024B0082004F0FDF9022364220021092004F013
S315080024C0F7F90323642200210A2004F0F1F9042312
S315080024D0642200210B2004F0EBF90123642219463B
S315080024E00C2004F0E5F90023642201210F2004F0F2
S315080024F0DFF92A494FF48064274B2246A1F1AC0044
S31508002500FFF7D0FC2648274A00902346AA21A2F1C5
S31508002510AC00FFF71DFC14220021234804F0BCFE82
S315080025202248234A00906310A521A2F1AC00FFF7C8
S315080025300FFC20492048FEF73EFF20492048FEF7B9
S315080025403AFF20492048FEF736FF20490648FEF79D
S315080025506BFD02B01E491F48BDEC068BBDE8104056
S31508002560FEF762BDEC130020145700200000343D2E
S315080025700000B4420000B4C200002042000000007F
S315080025800000FA44CDCCCC3D0000704200803B45AB
S315080025900060EA460080BB45751500083016002025
S315080025A0C17B0008DC1A002071260008ED690008C6
S315080025B0881F00205D210008D8560020C116000893
S315080025C060560020C51600089C560020E114000835
S315080025D0D1150008405700200749487B88730868CA
S315080025E0407938B1012805D0022803D0032801D044
S315080025F0042800D148737047EC13002010B51B4C13
S3150800260001202DED028B84F8240084F8E800206868
S3150800261094ED0A0AD0ED060A90ED051A30EE200A66
S31508002620D4ED3B0A30EE818AD4ED0C0AFEF7FAFAAD
S3150800263084ED0A0AD4ED3D0AB0EE480AFEF7F2FA2E
S3150800264084ED3B0AD4ED390AB4EEE00AF1EE10FA4D
S3150800265006D9D4ED380AB4EEE00AF1EE10FA01DB39
S31508002660C4ED3B0ABDEC028B10BD0000EC13002044
S3150800267008B500F027F8114903460322487B18706D
S31508002680D1F8F000C3F80100C86AC3F80500D1F80C
S31508002690F400C3F80900086BC3F80D00D1F8F80078
S315080026A0C3F81100486BC3F8150019200090AA2139
S315080026B00348FFF791FB002008BD0000EC1300203B
S315080026C08415002000487047DE57002010B5224CBC
S315080026D02DED028BA07B012808D0FA211F4807F0B0
S315080026E031F81E48FA21143007F02CF8022084F835
S315080026F0240084F8E80094ED0B0A184884ED0A0AC9
S31508002700143007F003F8B7EE008A78EE400A94ED25
S315080027103C0A60EE800AB0EEC00A10EE100AC4ED5C
S315080027203B0AB0F1804F13DC0C4806F0EFFF78EE59
S31508002730400A94ED0B0A0A4960EE800AB0EEC00A18
S3150800274010EE100AC4ED0A0A884201DC0420607300
S31508002750BDEC028B10BD0000EC13002048000020E1
S3150800276000004040427D017D8A4213D021B10129F3
S3150800277009D002290AD00DE0B0F9C02000EE102ACF
S31508002780B8EEC00A04E090ED080A01E090ED070AE9
S3150800279080ED060A4175704710B50446FFF7E2FF5B
S315080027A0207D04F1280198B101281ED002280ED1F7
S315080027B094ED091AD4ED070A94ED060A084600F0C6
S315080027C043F9BDEEC00A10EE100AA4F8C00010BD09
S315080027D094ED060ABDEEC00A10EE100AA4F8C00071
S315080027E0BDE81040084600F052B994ED091AD4ED38
S315080027F0080AE1E700487047305A00200048704749
S315080028000C5A002010B5174C012084F82400022029
S3150800281084F8E800206894ED0A0AD0ED060A30EE3E
S31508002820200AD4ED0C0AFEF7FDF984ED0A0A2068A1
S3150800283094ED3B0AD0ED050A30EE200A84ED3B0AFA
S31508002840D4ED390AB4EEE00AF1EE10FA06D9D4ED61
S31508002850380AB4EEE00AF1EE10FA01DBC4ED3B0AE1
S3150800286010BD0000EC1300201B48022180F824103C
S3150800287080F8E810016890ED0A0AD1ED060A30EEF4
S31508002880200A80ED0A0AD0ED3B0A91ED051A70EE92
S31508002890810AC0ED3B0A90ED081AB4EEC10AF1EEC2
S315080028A010FA06D990ED071AB4EEC10AF1EE10FA3D
S315080028B001DB80ED0A1A90ED390AF4EEC00AF1EE52
S315080028C010FA06D990ED380AF4EEC00AF1EE10FABD
S315080028D001DB80ED3B0A7047EC13002010B51E4C57
S315080028E02069B4F91410B0F9000003F0ABFF00EE4C
S315080028F0100AD4ED060AB8EEC00A20EE200A84EDC6
S315080029000B0AD4F8D400B4F9D810B0F9000003F0D3
S3150800291099FF00EE100AD4ED370AB8EEC00A20EE89
S31508002920200A84ED3C0A606890ED140A84ED0C0ACE
S3150800293090ED120A84ED3D0AD0ED020A9FED070AD2
S3150800294060EE800AC4ED0D0AD0ED010A20EE800A79
S3150800295084ED3E0A10BD0000EC130020E12E65420E
S315080029601CB5274C002504F1100804F1D40640F2E2
S31508002970FF19244FFFF7B2FFFFF72EFE607B0128F1
S3150800298006D0022807D0032808D004280BD108E06F
S31508002990FFF79CFE07E0FFF731FE04E0FFF764FF50
S315080029A001E0FFF72FFF4046FFF7F6FE3046FFF738
S315080029B0F3FE607B90B91248383006F001FC1048E7
S315080029C07C3006F0FDFB0E48FC3006F0F9FB0E489D
S315080029D006F0F6FBA4F8D050A4F89451B4F9D03018
S315080029E0B4F99421009501954946A06803F040FF83
S315080029F00A2006F0FAFA002006F076FF3860B9E7F2
S31508002A00EC130020400000202C15002000B587B0EC
S31508002A10FA210B4806F096FE0948FA21143006F00A
S31508002A2091FE1C2207496846FDF7D1FC002168463D
S31508002A3006F0FAFA02490839486007B000BD0000F6
S31508002A404800002078A0000810B504462DED028B3A
S31508002A50B0EE418AB0EE601AF0EE400AC0ED220AE6
S31508002A60B0EE410A80ED230A06F008FBD4ED0B0A06
S31508002A70B0EE480AC4ED240A84ED258A04F1440020
S31508002A8006F0FCFA94ED1C0ABDEC028B10BD10B5DD
S31508002A90044606F095FB04F14400BDE8104006F034
S31508002AA08FBB90F82020012A07D0022A05D0416A58
S31508002AB041F48021416201207047006842690A4357
S31508002AC0426100207047F0B590F820500468A46869
S31508002AD0012D05D0022D03D0416A41F4802153E02F
S31508002AE014F0406F01D1E5004BD5C4F30164022C04
S31508002AF003D9416A41F4000146E00125A5401D605D
S31508002B008D684FF4C0739DB1CE6835434E6845EA6B
S31508002B10C605066803EB0417F5514FF4C275076836
S31508002B2005EB04150E697E51097D012905D009E0DA
S31508002B300E88CD6845EA4655EBE701684E5946F4D6
S31508002B4080764E511179D2F805504FF4C67641EA8F
S31508002B500525016806EB04168D511178D2F8012077
S31508002B604FF4C47541EA0221026805EB0415515178
S31508002B70006803EB0411425842F00102425000205B
S31508002B80F0BD416A41F4001141620120F0BD000028
S31508002B9010B590F82020012A07D0022A05D0416AEC
S31508002BA041F480214162012010BD3B48D0F8002243
S31508002BB042F00102C0F80022D0F8002222F47C522A
S31508002BC0C0F80022D0F800224B6A42EA0322C0F875
S31508002BD000220A7D02F01F0301229A40D0F81C3217
S31508002BE09343C0F81C32CB69B3B9D0F80C3293437F
S31508002BF0C0F80C328C894B6864F31F434C6900EBB0
S31508002C00C404C4F840320C890B6864F31F434C694A
S31508002C1000EBC404C4F84432CB69012B16D1D0F8B2
S31508002C200C321343C0F80C320C884B6864F31F430C
S31508002C304C6900EBC404C4F840320C89CB6864F3D1
S31508002C401F434C6900EBC404C4F844328B69002B5B
S31508002C50D0F804320ED01343C0F804320B69002BA7
S31508002C60D0F8143208D01343C0F81432096A01297F
S31508002C7004D008E09343EFE79343F5E7D0F81C1236
S31508002C801143C0F81C12D0F8001221F00101C0F857
S31508002C900012002010BD00000064004000F0A4BA35
S31508002CA030B590F82040012C05D0022C03D0416A9B
S31508002CB041F480215DE00468002955D02469A40701
S31508002CC054D04FF4D874056804EB01142D5915F047
S31508002CD00405956005682D594ED0ED0855600568C0
S31508002CE02C5904F00204D4604FF4DA74056804EB36
S31508002CF001142D5905F00F05156105682D59C5F301
S31508002D000725956105682C59240C54614FF4DC722B
S31508002D10046802EB0112A4581C700468A458240A1B
S31508002D205C700468A458240C9C700468A258120E9F
S31508002D30DA704FF4DE72046802EB0112A4581C71B3
S31508002D400468A458240A5C710468A458240C9C716D
S31508002D500468A258120EDA71006881B1016941F05F
S31508002D6020010161002030BDE468A8E7416A41F40A
S31508002D7000114162012030BD6D0D1560AFE7C168D5
S31508002D8041F02001C160EDE70246002092F82010CC
S31508002D90012901D002290CD111688A68520100D58F
S31508002DA001208A68120100D5401C8968C90000D52F
S31508002DB0401C70472DE9F05F054600680024466907
S31508002DC0D0F804908768D0F80CB0D0F810A0D0F8E6
S31508002DD01880F10748D0F90714D001218160B80797
S31508002DE003D5284600F084FA0CE0780702D54FF49C
S31508002DF0006407E0380702D54FF4805402E02846FD
S31508002E0000F074FAF80516D529684FF480708860C2
S31508002E10B80503D5284600F081FA0CE0780502D5F6
S31508002E2044F4005407E0380502D544F4804402E02F
S31508002E30284600F071FAF80316D529684FF4803051
S31508002E408860B80303D5284600F07EFA0CE07803BC
S31508002E5002D544F4004407E0380302D544F480342C
S31508002E6002E0284600F06EFA300707D55FEACB6025
S31508002E7004D52968102044F40074C86070074FF020
S31508002E80080707D55FEA0B7004D52868C760284687
S31508002E9000F0BBF9B00706D52868C068800702D0DD
S31508002EA0284600F0B3F9700607D55FEACA6004D56C
S31508002EB02968102044F480640861B00607D55FEAE3
S31508002EC00A7004D528680761284600F0BFF9F0069D
S31508002ED006D528680069800702D0284600F0B8F9A8
S31508002EE0B00308D55FEAC96005D52968102048608F
S31508002EF0284600F0CDF9F00307D55FEA097004D536
S31508002F0028684760284600F033FA300446D55FEA59
S31508002F10497040D5F00504D55FEAC87001D044F081
S31508002F200104B00504D55FEA887001D544F00204AF
S31508002F30700504D55FEA487001D544F004043005ED
S31508002F4029D518F0700F26D008F07000402815D043
S31508002F5006DC102809D020280AD0302816D10AE025
S31508002F6050280ED0602811D10EE044F008040DE078
S31508002F7044F010040AE044F0200407E044F040045A
S31508002F8004E044F0800401E044F480742868816910
S31508002F9021F070018161296804204860002C05D061
S31508002FA0686A204368622846FFF778FEBDE8F09F06
S31508002FB070B5040003D094F8200010B104E0012095
S31508002FC070BD204600F082F82068016821F00201F1
S31508002FD0016000F0CDFC0546052604E000F0C8FCBB
S31508002FE0401B0A2811D8206840688007F6D4206854
S31508002FF0016841F00101016000F0BAFC05460BE0EA
S3150800300000F0B6FC401B0A2806D9606A40F4003076
S31508003010606284F82060D2E720684068C007EFD075
S31508003020207E0128206801683DD021F080010160DA
S31508003030607E01282068016838D021F040010160CF
S31508003040A07E01282068016833D021F020010160A4
S31508003050E07E0128206801682ED041F01001016049
S31508003060207F01282068016829D021F00801016025
S31508003070607F01282068016824D021F004010160DE
S31508003080D4E902010843D4E90412114308436168EC
S31508003090491E08432168C86100206062012084F83F
S315080030A02000002070BD41F08001C0E741F04001DA
S315080030B0C5E741F02001CAE721F01001CFE741F04A
S315080030C00801D4E741F00401D9E70000F0B587B05C
S315080030D0044614216846FDF793F93E4B3E48DFF84F
S315080030E0F0E01968D4F800C03B4A032502260927F0
S315080030F010300024491CF4452AD11960012907D14A
S31508003100016841F000710160006800F000700590E8
S31508003110106840F0080010601068CDE9005600F00D
S315080031200800CDE9047069462C48CDE9024500F04F
S315080031301FFB00220521132000F042FF132000F098
S3150800314031FF00220521142000F03AFF14203AE04E
S31508003150DFF88CE0F44538D1D0F800C04CF0806C2C
S31508003160C0F800C0D0F800C001290CF0806CCDF87A
S3150800317014C0196007D1016841F000710160006848
S3150800318000F000700590106840F0020010601068AA
S3150800319002AB00F0020005906020CDE9000683E846
S315080031A0B00069460F4800F0E3FA002205213F20E7
S315080031B000F006FF3F2000F0F5FE00220521402022
S315080031C000F0FEFE402000F0EDFE07B0F0BD000066
S315080031D000640040D401002030380240000C024050
S315080031E0006800400004024090F820200021012ACF
S315080031F008D0022A06D0416A41F4802141620121A1
S315080032000846704700224262FAE7704770B58AB0EE
S31508003210054607AB6A460021FFF742FD0A4E002421
S315080032202A6856F8240001680968914205D1836A1C
S315080032301BB107A9049A00989847641CE4B2022CAB
S31508003240EED30AB070BD0000E4000020704700000D
S3150800325070B58AB0054607AB6A460021FFF720FD20
S315080032600A4E00242A6856F8240001680968914223
S3150800327005D1836A1BB107A9049A00989847641C6C
S31508003280E4B2022CEED30AB070BD0000E4000020C0
S315080032907047000070B5044690F82000012804D055
S315080032A0606A40F40020606218E0022084F820007A
S315080032B02068016821F00101016000F059FB05460C
S315080032C00EE000BF00F054FB401B0A2808D9606ACC
S315080032D040F400306062052084F82000012070BDAB
S315080032E020684068C007EDD1606270BD7047000075
S315080032F070B5084E054600242A6856F82400016869
S315080033000968914201D1FEF795F9641CE4B2022CD2
S31508003310F2D370BDE40000207047000070B5084E77
S31508003320054600242A6856F824000168096891426F
S3150800333001D1FEF77FF9641CE4B2022CF2D370BD0A
S31508003340E40000207047000070B5084E05460024CA
S315080033502A6856F8240001680968914201D1FEF7E7
S3150800336069F9641CE4B2022CF2D370BDE4000020B3
S3150800337070472DE9F0410446876D00F0F9FA0646D4
S3150800338094F835000025022806D08020606584F868
S3150800339034500120BDE8F0812068016821F016014B
S315080033A001602068416921F080014161206C08B9FB
S315080033B0A06C20B12068016821F00801016020682E
S315080033C0016821F0010101600BE000F0D1FA801BD1
S315080033D0052806D92020606504F8345F032060704C
S315080033E0D8E720680068C007EFD194F85C103F2042
S315080033F08840B86004F8345F012060700020C9E78F
S3150800340090F83510022903D08021416501207047C4
S31508003410052180F835100068016821F00101016076
S31508003420002070472DE9F84304464FF00009CDF80F
S31508003430009063484FF41651A56D0068B0FBF1F78C
S315080034402E6894F85C10082000FA01F131420FD07A
S3150800345021680A6852070BD50A6822F004020A6036
S3150800346094F85C108840A860606D40F001006065C3
S3150800347094F85C104FF0010808FA01F0304208D0C1
S3150800348021684969090604D5A860606D40F0020004
S31508003490606594F85C1004208840304208D02168A2
S315080034A00968890704D5A860606D40F00400606566
S315080034B094F85C1010208840304218D021680968BA
S315080034C0090714D5A86020680168490304D500686F
S315080034D0000308D5A16C07E00168C90503D4016893
S315080034E021F008010160216C09B12046884794F84B
S315080034F05C1020208840304231D021680968C9060E
S315080035002DD5A86094F8350005282068016806D0EE
S31508003510490347D5006800031DD4616C1CE021F0FF
S31508003520160101602068416921F080014161206C23
S3150800353008B9A06C20B12068016821F00801016073
S3150800354094F85C103F208840A86084F8349084F88A
S315080035503580216D1FE0E16B09B120468847606D13
S3150800356000282BD0606DC00714D0052084F83500DC
S315080035702068016821F0010101600098401C009054
S31508003580B84203D820680068C007F6D184F834909A
S3150800359084F83580E16C002910D001B02046BDE8DA
S315080035A0F04308470168C905D5D4016821F0100120
S315080035B0016084F8349084F83580CCE7BDE8F88358
S315080035C0DC0100202DE9F041044600F0D1F9064659
S315080035D05CB1002584F83450022084F83500206850
S315080035E0016821F0010101600DE00120BDE8F081CC
S315080035F000F0BEF9801B052805D920206065032048
S3150800360084F83500F2E720680068C007F0D1226820
S31508003610116820480140D4E901031843D4E9033668
S315080036203343184363691843A3691843E369184386
S31508003630236A18430843616A042903D1D4E90B13A2
S3150800364019430843106020684069666A20F007013C
S3150800365030460E43012704280CD1A06A0643E06AC7
S3150800366040B12046FEF7C4FD20B14020606584F8CD
S315080036703570BAE7206846612046FEF7A5FD94F83E
S315080036805C203F2191408160656584F83570002093
S31508003690ACE700003F8010F02DE9F0410446866D46
S315080036A090F83400002501280DD0012084F8340054
S315080036B094F835700020012F07D084F834000225CD
S315080036C02846BDE8F0810220FBE7022784F835701A
S315080036D060652046FEF7B6FD94F85C103F208840EA
S315080036E0B0602068016841F016010160206C20B1C5
S315080036F02068016841F0080101602068016841F00E
S3150800370001010160DCE7000070B5044600F030F9FD
S315080037100546601C02D004480078044400F028F9E5
S31508003720401BA042FAD370BDE001002070B5094ED7
S315080037300546002456F824104868A84204D1087A99
S31508003740052801D1C8688047641CE4B20A2CF1D365
S3150800375070BD0000A8250020044910B50A68024279
S3150800376002D00860FFF7E2FF10BD0000143C0140DC
S315080037702DE9F84FDFF8B8A1002201250AF1040B5C
S3150800378003264FF00F090BF1040E00BF0B6805FA6C
S3150800379002F42340A3426FD10F7907F00307012FE4
S315080037A001D0022F16D187684FEA420806FA08FCAC
S315080037B027EA0C07D1F80CC00CFA08FC4CEA070CEF
S315080037C0C0F808C04768A7430C79C4F300149440AE
S315080037D03C4344600C79E443A4070AD0C4684FEA22
S315080037E0420C06FA0CF7BC438F6807FA0CF7274316
S315080037F0C7600C7904F00304022C12D1D40800EB3C
S31508003800840CDCF820405707FF0E09FA07F824EA6B
S315080038100804D1F8108008FA07F848EA0408CCF832
S31508003820208004684FEA420C06FA0CF7BC430F796D
S3150800383007F0030707FA0CF7274307604C68E4000C
S3150800384070D53C4C276847F480472760246822F0E7
S31508003850030704F480440094374C07EB040CDCF8A7
S31508003860084897074FEA177809FA08F7BC43334F11
S31508003870B84202D1002724E054E0314FB84201D1C2
S3150800388001271EE02F4FB84201D1022719E02E4F1B
S31508003890B84201D1032714E02C4FB84201D10427BE
S315080038A00FE02B4FB84201D105270AE0294FB8424D
S315080038B001D1062705E0284FB84201D1072700E0C5
S315080038C0082707FA08F72743CCF80878DAF80040FB
S315080038D05746D1F804C09C435FEACC3C00D51C434C
S315080038E03C60DBF800405F46D1F804C09C435FEAC1
S315080038F08C3C00D51C433C60DEF800407746D1F886
S3150800390004C09C435FEACC2C00D51C433C60084F9E
S315080039100C373C68D1F804C09C435FEA8C2C00D570
S315080039201C433C60521C102AFFF430AFBDE8F88FE8
S31508003930003C01404438024000300140000002408B
S315080039400004024000080240000C02400010024039
S315080039500014024000180240001C0240006908409A
S3150800396000D0012070470AB1816170470904FBE75E
S315080039700148806870470000E001002070B5040027
S3150800398025D094F83D00002520B984F83C502046FF
S3150800399000F04CFA242084F83D002068016821F0E4
S315080039A0010101602068016841F400410160206856
S315080039B0016821F40041016000F0EEFB4D4A6168A0
S315080039C0914201D84C4900E04C49884201D2012075
S315080039D070BD4B492368B0FBF1F15E6826F03F06DF
S315080039E00E435E606368934206D94FF49673594353
S315080039F04FF47A73B1FBF3F12368491C1E6A26F06B
S31508003A003F06314319626168914210D84900401E49
S31508003A10B0FBF1F2521CC2F30B02042A01D20420B5
S31508003A2022E0B0FBF1F0401CC0F30B001CE0A268DA
S31508003A30F2B301EBC10303EB0116431EB3FBF6F326
S31508003A405B1C43F480431B0549D092B301EBC102CA
S31508003A5002EB0111401EB0FBF1F0401CC0F30B0055
S31508003A6040F4804040F400402168CA694CF6FF7370
S31508003A709A431043C861D4E90710014320680268D5
S31508003A8022F0C00211430160D4E903010143206812
S31508003A90826848F2FF339A4311438160D4E90501ED
S31508003AA008432168CA6822F0FF021043C86001E093
S31508003AB00EE016E02068016841F001010160256406
S31508003AC0202084F83D00256384F83E50002070BD10
S31508003AD001EB4106431EB3FBF6F35B1CB3E701207B
S31508003AE0C2E701EB4101401EB0FBF1F0401CC0F3F8
S31508003AF00B00B7E7A086010080841E0000093D0080
S31508003B0040420F002DE9FF4F83B09A46DDE9119731
S31508003B1093460446DDF84080FFF72AFF054694F8E9
S31508003B203D00202870D119230122714920460095AD
S31508003B3001F0AAFE0028F5D194F83C00012863D0CC
S31508003B40012084F83C0020680168C90703D1016890
S31508003B5041F0010101602068016821F400610160FB
S31508003B60222084F83D00402084F83E000026266482
S31508003B70C4F82480A4F82A90608D20855D48E06208
S31508003B80CDE9007553465A462046049901F084FD4E
S31508003B9000287CD1208DD0B1012821D002282068A8
S31508003BA024D0416980690090208D032869D80128AE
S31508003BB02BD0514902283B464FF00002009559D0B8
S31508003BC08846204601F060FE002860D13CE0206867
S31508003BD0416981690091016841F40071016077E0EB
S31508003BE02068016821F480610160F0E7016821F42A
S31508003BF0806101602068016841F400610160206805
S31508003C0041698069009063E06FE02A46394620469C
S31508003C1001F0B9FE98BB20680069616A08704EE039
S31508003C202068016841F40071016020680069616AD2
S31508003C300870606A401C6062218D491E2185618D6D
S31508003C40491E6185216838E02068016821F4806191
S31508003C50016020680069616A0870606A401C6062D9
S31508003C60208D401E2085608D401E60853B460022C3
S31508003C7041460095204601F007FE00B9D0E706E068
S31508003C80FFE72A463946204601F07DFE18B1012095
S31508003C9007B0BDE8F08F20680069616A0870606A3D
S31508003CA0401C6062218D491E2185618D491E6185F2
S31508003CB021684A69D24352070AD409690170606AC1
S31508003CC0401C6062208D401E2085608D401E6085E8
S31508003CD0208D00287FF468AF202084F83D0084F802
S31508003CE03E6084F83C600020D2E70220D0E700005E
S31508003CF0020010000000FFFF040001002DE9FF4F3D
S31508003D0083B09A46DDE9119793460446DDF840806C
S31508003D10FFF72EFE054694F83D0020287FD119238B
S31508003D20012240492046009501F0AEFD002876D1D3
S31508003D3094F83C00012872D0012084F83C002068E1
S31508003D400168C90703D1016841F0010101602068D3
S31508003D50016821F400610160212084F83D004020BB
S31508003D6084F83E0000262664C4F82480A4F82A9025
S31508003D70608D20852C48E062CDE9007553465A4689
S31508003D802046049901F006FD70B930E02A46394606
S31508003D90204601F02BFE58B1206C042804D1206877
S31508003DA0016841F400710160012007B0BDE8F08F99
S31508003DB0606A216800780861606A401C6062218D2B
S31508003DC0491E89B22185628D521E62852268536911
S31508003DD0DB435B070BD469B100781061606A401C4D
S31508003DE06062208D401E2085608D401E6085208D76
S31508003DF00028CBD12A463946204601F01FFD002867
S31508003E00CAD154F83D0B016841F4007101602020C5
S31508003E1004F81E09E67766770020C6E7FFE7022062
S31508003E20C3E70000020010000000FFFFF0B587B0EE
S31508003E30044614216846FCF7E3FA1A4920688842C2
S31508003E402DD11948016841F004010160016801F0AB
S31508003E5004010591016841F001010160006812241E
S31508003E6000F0010005904FF4007001250326042791
S31508003E708DE8F10069460D48FFF77AFC28028DE8BF
S31508003E80F10069460A48FFF773FC074810300168D5
S31508003E9041F400010160006800F40000059007B0D5
S31508003EA0F0BD0000005C00403038024000080240C7
S31508003EB00000024002488168027811448160704718
S31508003EC0E00100200B4810B5016841F4007101605B
S31508003ED0016841F480610160016841F48071016004
S31508003EE0032000F08DF8002000F006F800F03EF8F8
S31508003EF0002010BD003C024010B5014688B00022E3
S31508003F00362000F05DF8362000F04CF813480024FF
S31508003F10016841F010010160006805A900F0100071
S31508003F200690684600F018F900F036F90C4940008A
S31508003F30B0FBF1F10C480B4A491E026040F2E73229
S31508003F40C0E90324C0E9011400F010FD10B10120F6
S31508003F5008B010BD044800F073FDF9E74038024088
S31508003F6040420F00001000404C5E00200C4882B012
S31508003F70016841F480410160006800F480400090C7
S31508003F800748001F016841F080510160006800225F
S31508003F9000F0805000900F21901E02B000F010B87B
S31508003FA044380240002809DB00F01F020121914035
S31508003FB04009800000F1E020C0F8001170470000B9
S31508003FC0F0B40E4B1B680C46C3F30223C3F1070576
S31508003FD0042D00D90425191D072901D2002300E064
S31508003FE0DB1E012606FA05F1491E214099409E402E
S31508003FF0761E16403143F0BC03F019BE0CED00E006
S31508004000064900F0070208684FF6FF03184040EA21
S315080040100220034A10430860704700000CED00E0D8
S315080040200000FA052DE9F0470E46050065D0DFF8D1
S315080040301481D8F80000F7B200F00700B04207D2A2
S3150800404088F80070D8F8000000F00700B04254D194
S3150800405028683D4C810712D5400703D5206840F4EF
S31508004060E05020602878000703D5206840F46040B7
S3150800407020602068A96820F0F000084320602878AE
S31508004080C0072DD0304968680839012812D002289F
S3150800409013D0032811D00968890700292DDA216869
S315080040A021F0030101432160FFF762FC814641F2DA
S315080040B0883A0EE009688903EFE709688901ECE7A1
S315080040C0FFF756FCA0EB0901514502D90320BDE8CC
S315080040D0F0872068696800F00C00B0EB810FEFD11B
S315080040E0D8F80010404601F00701B14207D9077019
S315080040F0006800F00700B04201D00120E7E7287801
S31508004100400705D52068E96820F4E0500843206098
S315080041102878000706D52068296920F4604040EA17
S31508004120C100206000F058F82168084AC1F303115D
S31508004130515CC8400649086006480068FFF7DCFE7F
S315080041400020C4E7003C02400838024040A40008AA
S31508004150DC010020E40100200F2202600C4A1368EB
S3150800416003F003034360136803F0F00383601368E6
S3150800417003F4E053C36012684FF4E05303EAD20233
S3150800418002610448006800F00700086070470000F4
S3150800419008380240003C024004480549006809689E
S315080041A0044AC1F38221515CC8407047DC010020F3
S315080041B00838024050A40008044805490068096800
S315080041C0044AC1F34231515CC8407047DC01002003
S315080041D00838024050A40008154810B5006810F0C9
S315080041E00C02144813D01449042A0FD0082A0ED1F9
S315080041F00F4C241F2268236802F03F025B0207D592
S315080042002068C0F38810A0FB010106E0084610BD2F
S315080042102168C1F38811A1FB00010023FCF7A6F869
S315080042202168C1F30141491C4900B0FBF1F010BDFA
S31508004230083802400024F400001BB7002DE9F84FA7
S3150800424004006ED02078DFF84C93C007A9F1040566
S315080042504AD009F104000168C1F38101012908D097
S315080042600068C0F3810002280AD1D9F8000040028C
S3150800427006D52868800337D560680028E1D033E082
S315080042806068B0F5803F10D0B0F5A02F286810D030
S3150800429020F480302860286820F480202860606830
S315080042A0A8B1FFF765FB06460DE0286840F48030A4
S315080042B0F4E740F480202860F7E700BFFFF758FBD3
S315080042C0801B642873D828688003F7D50CE0FFF7AD
S315080042D04FFB064605E000BFFFF74AFB801B642834
S315080042E0F0D828688003F7D42078DFF8AC828007F6
S315080042F04FF0000A3ED5A748001D016811F00C0FC3
S3150800430008D00068C0F3810002280BD1D9F8000054
S31508004310400207D42868800716D5E068012800D12E
S3150800432012E033E1E068B8B10120C8F80000FFF7F1
S315080043301FFB064605E000BFFFF71AFB801B022895
S31508004340C0D828688007F7D52868216920F0F800C2
S3150800435040EAC10028600DE0C8F800A0FFF708FB96
S31508004360064604E0FFF704FB801B02281FD82868CE
S315080043708007F7D42078000722D5864F87486169D9
S31508004380703771B101210160FFF7F2FA064604E0C1
S31508004390FFF7EEFA801B022809D838688007F7D598
S315080043A00EE0C0F800A0FFF7E3FA064605E082E053
S315080043B0FFF7DEFA801B02287DD838688007F7D415
S315080043C02078400768D5DFF8CCB100270BF13C0B05
S315080043D0DBF80000C0000BD4DBF8001041F0805178
S315080043E0CBF80010DBF80000012700F080500090A1
S315080043F06B4E3068C00510D4306840F48070306069
S31508004400FFF7B6FA009005E0FFF7B2FA0099401AEE
S31508004410022850D83068C005F6D55E4EA0686C36BE
S3150800442001280FD00528306810D020F00100306030
S31508004430306820F004003060A068B8B1FFF798FA39
S3150800444000900FE0306840F00100F4E740F0040007
S315080044503060F7E7FFF78CFA0099411A41F2883085
S31508004460814266D830688007F4D50EE0FFF780FAF7
S31508004470009007E0FFF77CFA0099411A41F288306C
S31508004480814256D830688007F4D42FB1DBF8001083
S3150800449021F08051CBF80010A069C8B33D49091D29
S315080044A00968C1F3810102294AD00228504607D07B
S315080044B0C8F8600000E03CE0FFF75AFA04463BE023
S315080044C04746C8F86000FFF753FA064605E000BFFE
S315080044D0FFF74EFA801B02282BD828688001F7D4EC
S315080044E0D4E907010843A16A2E4A490802EB0141AB
S315080044F0626A41EA8211084394F82C1040EA016185
S31508004500C9F8001001203866FFF732FA044606E0BB
S315080045103EE000BFFFF72CFA001B022809D82868DE
S315080045208001F7D534E000BFFFF722FA001B022806
S3150800453002D90320BDE8F88F28688001F4D427E063
S315080045400128F7D0D9F80000E26900F48001914209
S315080045501CD1226A00F03F01914217D147F6C0717B
S31508004560626A0140B1EB821F10D1A26A4FF0FF3395
S3150800457000F4403103EB5202B1EB024F06D194F836
S315080045802C1000F07060B0EB016F01D00120D1E76C
S315080045900020CFE70438024000004742800E474219
S315080045A0007000400000FFFF70B5040009D0606A83
S315080045B0002540B125616561A56294F8510040B1B6
S315080045C00CE0012070BD6068B0F5827FF4D0E5612B
S315080045D0F2E784F85050204600F044F8022084F8A8
S315080045E051002068016821F040010160A0882189F6
S315080045F000F4827001F404410843A18901F40061C2
S315080046000843217C01F002010843217D01F00101E4
S315080046100843218B01F400710843217F01F038011A
S31508004620084394F8201001F080010843218D01F415
S315080046300051084321680860A069042101EA104076
S3150800464094F8241001F01001084321684860206896
S31508004650C16921F40061C1616565012084F85100D2
S31508004660002070BDF0B587B0044614216846FBF7F4
S31508004670C7FE1C492068884232D11B4800240168BD
S3150800468041F480510160006800F480500590164896
S315080046901438016841F002010160016801F0020165
S315080046A00591016841F0010101600068022500F0EA
S315080046B0010005901820CDE9000502AA0326052762
S315080046C082E8D00069460948FFF752F88020CDE90C
S315080046D0000502AA694682E8D0000548FFF748F8AF
S315080046E007B0F0BD003001404438024000040240E3
S315080046F0000002402DE9F84F044690F850000027C4
S315080047000A9E1D4692468B464FF0010901280ED097
S31508004710012084F85000FFF72BF9804694F85100E1
S31508004720616801280CD0B1F5827F07D102E002202A
S31508004730BDE8F88FA16809B9042801D00227C2E0AC
S31508004740BBF1000F27D0BAF1000F24D01DB394F89F
S315080047505100042802D0052084F851000020606525
S31508004760C4F838A0E587A587C4F830B0E586A586DD
S315080047702064606420680168490603D4016841F032
S3150800478040010160E068B0F5006F606805D0E8B3E5
S31508004790012D46D07FE0012795E008B1012D39D1DA
S315080047A0206B21680088C860206B801C2063E08E1F
S315080047B0401EE0862EE02068816889070FD5E18EC5
S315080047C069B1B9F1010F0AD1216B0988C160206B63
S315080047D0801C2063E08E401EE0864FF000092068AA
S315080047E08168C9070CD0E18F51B1C068A16B0880F8
S315080047F0A06B801CA063E08F401EE0874FF0010984
S31508004800FFF7B6F8A0EB0800B04200E009E001D3D4
S31508004810701C50D1E08E0028CDD1E08F0028CAD177
S315080048203FE0206B216800780873206B401C2063EA
S31508004830E08E401EE0862EE02068816889070FD545
S31508004840E18E69B1B9F1010F0AD1216B09780173BB
S31508004850206B401C2063E08E401EE0864FF0000966
S3150800486020688168C9070CD0E18F51B1C068A16B77
S315080048700870A06B401CA063E08F401EE0874FF0D5
S315080048800109FFF775F8A0EB0800B04202D3701CC7
S3150800489001D010E07EB1E08E0028CDD1E08F00284F
S315080048A0CAD142463146204602F0C8F928B1012746
S315080048B02020606507E0032705E0A06818B920688E
S315080048C0C16880680090012084F85100002084F8AF
S315080048D0500038462CE770477047000070B590F8CE
S315080048E03C20012A32D0012480F83C40022280F87C
S315080048F03D2003685A689D6822F070060A683243AC
S315080049005A60134B02689A4214D0B2F1804F11D004
S31508004910104B9A420ED0104B9A420BD00F4B9A422C
S3150800492008D00F4B9A4205D00E4B9A4202D00E4B36
S315080049309A4204D1496825F080031943916080F8AA
S315080049403D40002180F83C10084670BD022070BD2D
S31508004950000001400004004000080040000C004030
S3150800496000040140004001400018004010B5040052
S3150800497003D094F83D0010B107E0012010BD0020D7
S3150800498084F83C00204600F01FF8022084F83D0019
S31508004990211D206802F094FD012084F8460084F861
S315080049A03E0084F83F0084F8400084F8410084F80B
S315080049B0420084F8430084F8440084F8450084F8EB
S315080049C03D00002010BD000008B5184902681848C7
S315080049D08A4207D1016841F001010160006800F0D0
S315080049E001000BE01249134B091F9A4208D10868C7
S315080049F040F002000860086800F00200009008BD58
S31508004A000D4B9A4207D1086840F00800086008680C
S31508004A1000F00800F2E709498A42F0D1016841F43A
S31508004A2000310160006800F40030E7E7000001404B
S31508004A304438024000040040000C00400044014095
S31508004A4090F83D10012901D001207047022180F815
S31508004A503D100168CA6842F00102CA60006811493F
S31508004A60884214D0B0F1804F11D00F4988420ED039
S31508004A700E4988420BD00E49884208D00D49884213
S31508004A8005D00D49884202D00C49884204D1816874
S31508004A9001F00701062903D0016841F00101016010
S31508004AA00020704700000140000400400008004054
S31508004AB0000C00400004014000400140001800407E
S31508004AC070B5044690F83C00012817D0012584F8F3
S31508004AD03C50022084F83D002068826822F0770264
S31508004AE022F47F4282600868502830D00DDC2028E6
S31508004AF04DD005DC98B310283BD148E0022070BDA4
S31508004B00302844D0402834D139E0602828D070288D
S31508004B1006D0B0F5805F2CD0B0F5005F29D10AE049
S31508004B20CB68D1E90121206802F03BFD2068816845
S31508004B3041F0770109E0CB68D1E90121206802F04C
S31508004B4030FD2068816841F48041816011E0CA68BF
S31508004B504968206802F0FAFD5021206807E016E04F
S31508004B60CA684968206802F002FE6021206802F0DF
S31508004B7022FD84F83D50002084F83C0070BDCA68C8
S31508004B804968206802F0E2FD40212068EFE72268C4
S31508004B9001461046EBE7704770B5044600680169A0
S31508004BA04FF00005C943890715D4C168C943890769
S31508004BB011D4E91E016101202077206880698007E9
S31508004BC0204602D0FFF7E7FF04E000F00BF9204685
S31508004BD000F0AEF9257720680169C943490717D45B
S31508004BE0C168C943490713D46FF004010161022063
S31508004BF020772068806910F4407F204602D0FFF7AE
S31508004C00CAFF04E000F0EEF8204600F091F9257797
S31508004C1020680169C943090716D4C168C943090749
S31508004C2012D46FF008010161042020772068C0695A
S31508004C308007204602D0FFF7AEFF04E000F0D2F866
S31508004C40204600F075F9257720680169C943C90629
S31508004C5017D4C168C943C90613D46FF0100101619E
S31508004C60082020772068C06910F4407F204602D0CB
S31508004C70FFF791FF04E000F0B5F8204600F058F978
S31508004C80257720680169C943C90708D1C168C9439E
S31508004C90C90704D1891E0161204600F0AFF92068D2
S31508004CA00169C943090609D4C168C943090605D477
S31508004CB06FF0800101612046FFF70DFE206801694B
S31508004CC0C943490609D4C168C943490605D46FF0E2
S31508004CD040010161204600F09BF920680169C9433B
S31508004CE089060BD4C168C943890607D46FF0200129
S31508004CF001612046BDE87040FFF7EEBD70BD0000BB
S31508004D0010B586B0044614216846FBF779FB23687C
S31508004D102B4C00212B480222A34210D1036843F0F2
S31508004D2004030360006800F004000590D0010090B9
S31508004D30CDE90121CDE903126946234812E0234C47
S31508004D40A34213D1036843F008030360006800F028
S31508004D500800059020140090CDE90121CDE9031241
S31508004D6069461B48FEF704FD06B010BD194CA34260
S31508004D7011D1036843F080030360006800F08000E7
S31508004D8005904FF4E0500090CDE90121CDE90312DA
S31508004D9069461148E6E7114CA342E5D1036843F09A
S31508004DA020030360006800F0200005904020009072
S31508004DB0CDE901210320CDE9031069460848D1E76A
S31508004DC00004004030380240000802400008004055
S31508004DD0000C0240000C0040001C02400044014048
S31508004DE000140240704770B5044690F83C000D4622
S31508004DF001280AD0012084F83C0042B1042A18D0C0
S31508004E00082A2AD00C2A4DD139E0022070BD206824
S31508004E1002F0DAFB2068816941F0080181612068A7
S31508004E20816921F004018161206881692A69114339
S31508004E3011E0206802F0F8FB2068816941F40061FE
S31508004E4081612068816921F48061816120688169B6
S31508004E502A6941EA0221816124E0206802F01AFCED
S31508004E602068C16941F00801C1612068C16921F063
S31508004E700401C1612068C1692A69114311E02068EB
S31508004E8002F03CFC2068C16941F40061C1612068F8
S31508004E90C16921F48061C1612068C1692A6941EA52
S31508004EA00221C161002084F83C0070BD10B50400E1
S31508004EB003D094F83D0010B107E0012010BD002092
S31508004EC084F83C00204600F01FF8022084F83D00D4
S31508004ED0211D206802F0F4FA012084F8460084F8BF
S31508004EE03E0084F83F0084F8400084F8410084F8C6
S31508004EF0420084F8430084F8440084F8450084F8A6
S31508004F003D00002010BD000008B50068064988422B
S31508004F1008D10648016841F004010160006800F004
S31508004F200400009008BD0000000800404038024018
S31508004F307047000010B50446022249B104290ED074
S31508004F40082913D094F84100012816D0012010BD75
S31508004F5094F83E000128F9D184F83E200FE094F831
S31508004F603F000128F2D184F83F2008E094F8400079
S31508004F700128EBD184F8402001E084F84120012281
S31508004F80206802F001FB16492068164A884201D0BB
S31508004F90904203D1436C43F400434364206888423B
S31508004FA013D0B0F1804F10D00F4988420DD00F4969
S31508004FB088420AD00E49884207D0904205D00D494A
S31508004FC0884202D00C49884204D1816801F0070161
S31508004FD0062903D0016841F001010160002010BDD7
S31508004FE000000140000401400004004000080040A1
S31508004FF0000C0040004001400018004000680349CA
S31508005000884201D1FEF756BF7047000000100040E5
S315080050107047704770470000F8B502680446106884
S31508005020D168536910F00F0F4FF0000553D003F005
S31508005030010601F4907737435FD0C20705D0CA0549
S3150800504003D5226C42F001022264420705D5DA072D
S3150800505003D0226C42F002022264820705D5DA07E1
S3150800506003D0226C42F004022264020707D501F03D
S315080050702002324303D0226C42F008022264226CDA
S31508005080002A34D0800604D5880602D5204602F0C8
S315080050905BFC20684069216CC0F38010090700D4C6
S315080050A030B3204602F02FFC2068416949061BD51B
S315080050B0416921F040014161A06BA8B159490165D8
S315080050C0A06BFEF79DF9002811D0A06B016D01B009
S315080050D0BDE8F040084783060FD58B060DD5204658
S315080050E0BDE8F84002F030BC2046FFF793FFF8BD54
S315080050F02046FFF78FFF2564F8BD266B2023012E77
S3150800510053D1C60651D5CE064FD5106850680090C3
S31508005110506940062BD5A16B086840680004000C4E
S31508005120EAD0A68D8642E7D9E085C869B0F5807FC2
S3150800513018D0D06820F48070D0602068416921F0CA
S31508005140010141612068416921F04001416184F80B
S315080051503E3025632068C16821F01001C160A06B4C
S31508005160FEF707F9A08DE18D401A81B219E0A08DEE
S31508005170E18D401A81B2E08D0028BDD00029BBD050
S31508005180D06820F49070D0602068426922F001024D
S31508005190426184F83E3025632068C26822F0100216
S315080051A0C2602046FFF735FFF8BD05062BD50D066C
S315080051B029D594F83D002128F6D1A068B0F5805F7E
S315080051C001D12069B0B1206A411C216221680078AA
S315080051D04860E08C401E0004000CE084E4D120689E
S315080051E0C16821F08001C1602068C16841F04001B2
S315080051F0C160F8BD206A0088C0F308005060206AC4
S31508005200801C2062E5E74006F3D54806F1D5D1684B
S31508005210204621F04001D16084F83D3000F0F0F9D5
S31508005220F8BD00000178000870B5040004D094F8B1
S315080052303D00002510B106E0012070BD84F83C5001
S31508005240204600F023F8242084F83D002068C16831
S3150800525021F40051C160204602F0CEFB20680169A6
S3150800526021F4904101612068416921F02A014161D8
S315080052702068C16841F40051C1602564202084F883
S315080052803D0084F83E00002070BD00002DE9F04F77
S3150800529087B0044614216846FBF7B2F89748DFF84A
S315080052A0588214380221D4F800C0944B03220025F2
S315080052B00715CE034FF0070B4FF48079C4456FD11D
S315080052C0D3F800C04CF0100CC3F800C01B6803F0FC
S315080052D010030593036843F002030360036803F0B1
S315080052E002030593036843F00103036000688A46D6
S315080052F000F0010005908020CDE9000A0DF1080CA8
S3150800530090468CE8200969467D48FEF731FAF01187
S31508005310CDE9000A0DF1080A69468AE820097948A4
S31508005320FEF726FADFF8E4B1774958464FF00068E9
S31508005330CBF80010C0E90185C0E90357CBF8206017
S31508005340CBF81450CBE90659BA46CBF82450FEF7E9
S3150800535039F908B1FDF71AF86C4F6B48C4F838B03C
S3150800536060373030CBF83840E7E802084020A7E835
S315080053702104664847F814596030BD61C7E90756E5
S315080053807D62FEF71FF908B1FDF700F86763002292
S3150800539005212520BC63FEF713FE252047E0FFE71D
S315080053A0DFF86C81C44547D1544B1B1FD3F800C0A6
S315080053B04CF4802CC3F800C01B6803F480230593C3
S315080053C0036843F004030360006800F004000590D6
S315080053D04FF440608DE82300CDE9032B69464D481C
S315080053E0FEF7C6F9DFF824814B4908F1C0084046A4
S315080053F0C8F800104FF00061C0E90115C0E903576D
S31508005400C8F82060C8F81450C8E90659C8F82450E6
S31508005410FEF7D8F808B1FCF7B9FFC4F838800022BF
S3150800542005212720C8F83840FEF7CAFD2720FEF7D1
S31508005430B9FD07B0BDE8F08FDFF8E080C445F8D1C4
S31508005440D3F800C04CF0200CC3F800C01B6803F06A
S3150800545020030593036843F040030360006800F0E7
S31508005460400005904FF484408DE823000820CDE9DC
S31508005470032069462A48FEF77BF92349DFF8A4800A
S31508005480603940464FF0206BC8F80010C0E901B5F6
S31508005490C0E90357C8F82060C8F81450C8E9065987
S315080054A0BA46C8F82450FEF78DF808B1FCF76EFF27
S315080054B01C4F1548C4F8388060371830C8F838408B
S315080054C0E7E8020B4020A7E82104164847F81459D4
S315080054D06030BD61C7E907567D62FEF773F808B10B
S315080054E0FCF754FF6763002205214720BC63FEF7DB
S315080054F067FD47209BE70000001001404438024042
S31508005500000402400000024088640240C86000208F
