:020000040800F2
:10000000F0AF00205D020008B18C000823710008E9
:10001000418B0008F11A0008C5A800080000000084
:100020000000000000000000000000009D0100082A
:100030008B2D000800000000F9010008C59D000894
:1000400077020008770200087702000877020008AC
:10005000770200087702000877020008770200089C
:1000600077020008DD2E0008E72E0008770200085E
:10007000312C000877020008770200087702000898
:10008000770200087702000877020008DD1B0008ED
:10009000111B00087702000877020008F12E000803
:1000A000770200087702000877020008770200084C
:1000B000770200087702000877020008770200083C
:1000C000770200087702000877020008770200082C
:1000D000770200085DA800087702000871A80008F0
:1000E000770200087702000877020008770200080C
:1000F00077020008770200087702000877020008FC
:1001000077020008770200087702000877020008EB
:100110007702000877020008C99E000877020008ED
:1001200077020008412C00087702000877020008D7
:10013000770200087702000877020008251D0008F2
:10014000251C0008770200087702000877020008E3
:10015000512C0008612C0008712C000885A80008AB
:10016000770200087702000877020008770200088B
:1001700077020008770200087702000800000000FC
:100180007702000877020008DFF80CD000F030FC9E
:100190000048004763DB0008F0AF00202C4B1968D3
:1001A0000868B0E8F04F80F30988BFF36F8F4FF015
:1001B000000080F3118870470000000008480068C4
:1001C000006880F308884FF0000080F3148862B65E
:1001D00061B6BFF34F8FBFF36F8F00DF00BF00BF6B
:1001E00008ED00E0DFF80C00016841F470010160E7
:1001F000704700BF88ED00E0EFF30980BFF36F8F19
:10020000134B1A681EF0100F08BF20ED108A20E96A
:10021000F04F106009B44FF0500080F31188BFF325
:100220004F8FBFF36F8F0FF0D1F94FF0000080F3C5
:10023000118809BC19680868B0E8F04F1EF0100F6B
:1002400008BFB0EC108A80F30988BFF36F8F704746
:1002500018000020EFF30580704700000648804733
:1002600006480047FEE7FEE7FEE7FEE7FEE7FEE79B
:10027000FEE7FEE7FEE7FEE7AD9E00088901000805
:100280009FED1A1AF5EE000A40EE010ABDEEE00AF3
:10029000F5EEC00A10EE100AF1EE10FA38BF401E5B
:1002A00000EE100A1349F7EE001AB8EEC00A30EE5D
:1002B000C00ADFED0F0A20EE200AFCEEC00A10EEA5
:1002C000900AC0F3080000EE900A01EB8000F8EEFF
:1002D000600A90ED011A70EE600A90ED000A71EE6E
:1002E000E01A21EE800A00EE810A704783F9223E6F
:1002F000000000443C0A0108DFED190AB5EEC00A0F
:1003000060EE200ABDEEE01A11EE100AF1EE10FACE
:1003100038BF401E00EE100A1349F7EE001AB8EE7F
:10032000C00A30EEC00ADFED0F0A60EE200ABCEE14
:10033000E00A10EE100AC0F3080000EE100A01EB0C
:100340008000B8EE400A90ED011A70EEC00A90ED00
:10035000000A71EEE01A21EE800A00EE810A704771
:1003600083F9223E000000443C0A01082DE9F05FB9
:100370000546002092469B46884606468146402414
:100380001BE0284641464746224600F062FA5346A3
:100390005A46C01A914110D311461846224600F021
:1003A00049FA2D1A67EB01084F4622460120002129
:1003B00000F040FA17EB00094E41201EA4F10104A1
:1003C000DFDC484631462A464346BDE8F09F40EA16
:1003D00001039B0703D009E008C9121F08C0042AC3
:1003E000FAD203E011F8013B00F8013B521EF9D2AA
:1003F0007047D2B201E000F8012B491EFBD27047D2
:100400000022F6E710B513460A4604461946FFF7E0
:10041000F0FF204610BD2DE9FE4F804681EA030023
:10042000C00F0C46009021F0004123F00045B8EBCE
:100430000200A94105D24046214690461C460B4683
:10044000024623F00040104347D0270DC7F30A00AF
:10045000C3F30A510290401A019040286BDAC3F3AB
:10046000130040F4801B0098924620B10023D2EB89
:10047000030A63EB0B0B01985946C0F1400250464A
:1004800000F0D8F906460D4650465946019A00F04C
:10049000F0F910EB08006141002487EA115284EA68
:1004A000E7731A4340D0009A62B3019A012A4FEAD7
:1004B000075215DC001B61EB02014FF0004202EA1B
:1004C0000752CDE90042001C41F5801132462B460F
:1004D00000F027FA03B0BDE8F08F40462146F9E767
:1004E000001B61EB0201001C41F5801300185B4109
:1004F0002018A2F5001747EB030140EAD570B619A2
:100500006D4111E06D084FEA360645EAC0754FEAC5
:100510000752001B61EB0201001C41F580114908E4
:100520004FEA30000019514132462B4603B0BDE876
:10053000F04F00F0E7B90098012240000023D0EB13
:10054000020263EBE073009821464FEAE074B8EBD7
:10055000000061EB0401E9E783F000435BE781F011
:10056000004158E72DE9FE4F81EA030404F00044FE
:1005700021F0004100944FF0000B23F0004350EABB
:1005800001045ED052EA03045BD0C3F30A54C1F302
:100590000A552C44A4F2F3340194A0FB0254C1F395
:1005A000130141F48011C3F3130343F4801301FBDF
:1005B000024400FB034E840A970A44EA815447EA46
:1005C0008357A4FB076802958D0A05FB07854FEA50
:1005D000932C04FB0C542705029D4FEA065847EA6A
:1005E0001637B5EB08056EEB070C870E920E47EA3F
:1005F000811742EA8312A7FB0201B6EB0B0164EB01
:1006000000042B0D43EA0C335E1844EB1C50DA4611
:100610005146E7FB0201C5F313044FEA0B3343EAEB
:1006200014534FEA0432019C43EA0603A4F10C047C
:100630000294009CCDE900B400F073F903B0BDE86A
:10064000F08F00200146F9E72DE9F04D81EA03041F
:1006500004F0004B21F0004514464FF0000A23F04F
:10066000004150EA050220D054EA01021DD0C5F332
:100670000A570246C5F31303C1F31300C1F30A5628
:1006800040F4801543F48013A7EB0608101BD646F0
:1006900008F2FD3873EB050002D308F1010801E010
:1006A00092185B41B8F1000F03DA00200146BDE863
:1006B000F08D00204FF48011064684460EE0171B93
:1006C00073EB050705D3121B63EB050306434CEAE6
:1006D000010C49084FEA300092185B4150EA0107CB
:1006E000EDD152EA030012D082EA040083EA050148
:1006F000084305D0101BAB4106D20122002306E0BF
:1007000000224FF0004302E06FF0010253101AEB99
:1007100006004CEB085110EB0A0041EB0B01BDE861
:10072000F04D00F0EFB80EB5C10F80EAE07008445C
:10073000CA07002140F233438DE80E000A460B46FB
:1007400000F0EFF803B000BD00F0004230F00040D0
:100750000AD0C10D01F56071C0F3160042EA0151E3
:10076000C20840071143704700200146704700004F
:1007700030B5041E71F1000404DB4FF00044404228
:1007800064EB0101141E73F1000405DB1C464FF0FD
:100790000043524263EB04038B4208BF824230BDE8
:1007A00030B5041E71F1000404DB4FF000444042F8
:1007B00064EB0101141E73F1000405DB1C464FF0CD
:1007C0000043524263EB0403994208BF904230BD9C
:1007D00001F0004330B421F0004150EA010206D09C
:1007E0000A0DA2F56072C1F31301002A02DC30BCCD
:1007F00000207047440F44EAC104C100E01830BC37
:1008000000EBC25000F047B830B50B46014600205F
:100810002022012409E021FA02F59D4205D303FAC2
:1008200002F5491B04FA02F52844151EA2F1010243
:10083000F1DC30BD202A04DB203A00FA02F100206E
:1008400070479140C2F1200320FA03F3194390400E
:100850007047202A04DB203A21FA02F00021704779
:1008600021FA02F3D040C2F1200291400843194618
:100870007047202A06DBCB17203A41FA02F043EA00
:10088000E07306E041FA02F3D040C2F12002914049
:100890000843194670470029A8BF7047401C49000B
:1008A00008BF20F00100704710B4B0FA80FC00FAD5
:1008B0000CF050EA010404BF10BC704749B1CCF100
:1008C000200421FA04F411FA0CF118BF012121438C
:1008D0000843A3EB0C01CB1D4FEA00614FEA102047
:1008E00042BF002010BC704700EBC35010440029E9
:1008F000A4BF10BC7047401C490008BF20F0010095
:1009000010BC704710B5141E73F1000408DA401CC7
:1009100041F1000192185B411A4301D120F001001E
:1009200010BD2DE9F04D92469B4611B1B1FA81F20E
:1009300002E0B0FA80F220329046FFF77BFF0446D7
:100940000F4640EA0A0041EA0B0153465A46084363
:1009500013D0114653EA010019D0C8F140025046A5
:10096000FFF777FF05460E46504659464246FFF7C9
:1009700061FF084305D0012004E020463946BDE868
:10098000F08D0020054346EAE0762C4337430A9871
:100990006305E40AA0EB08000022FD0A44EA47547C
:1009A0000A3002D500200146E9E701051019694126
:1009B000DDE9084500196941BDE8F04DA2E7C1F342
:1009C0000A52C1F3130140F2FF3341F480119A42FD
:1009D00002DA00200146704740F233439A42A2F205
:1009E000334202DC5242FFF734BFFFF723BF00005F
:1009F000064C074D06E0E06840F0010394E807006C
:100A000098471034AC42F6D3FFF7C2FB94140108A8
:100A1000B41401080EB540F2334102910021CDE932
:100A200000110A460B46FFF77CFF03B000BD70B50E
:100A3000C1F30A5201F000450024C1F3130140F252
:100A4000FF3341F480119A4201DA002070BD40F278
:100A500033439A42A2F2334203DC5242FFF7F9FEDB
:100A600000E090402C43F1D0404270BD70B58C182E
:100A700010F8015B15F0070301D110F8013B2A11B2
:100A800006D110F8012B03E010F8016B01F8016B9F
:100A90005B1EF9D12B0705D40023521E0DD401F89B
:100AA000013BFAE710F8013BCB1A921C03E013F864
:100AB000015B01F8015B521EF9D5A142D8D3002099
:100AC00070BD10B52DED028BB0EE408AB0EE480A35
:100AD0000AF03EF8BDEC028B10BD10B52DED028B77
:100AE000B0EE408AF0EE608AF0EE680AB0EE480A96
:100AF0000AF02AFBBDEC028B10BD10B52DED028B68
:100B0000B0EE408AB0EE480AFFF7BAFBBDEC028BAC
:100B100010BDF0EE400AF5EEC00AF1EE10FA02DD6B
:100B2000B0EE600A7047B1EE600AFBE718B19FEDC6
:100B3000020A80ED000A70470000000018B19FED26
:100B4000020A80ED000A704700001E4270B52DEDCC
:100B50000C8B84B006460C4615469FED990AF0EEC4
:100B6000408A9FED970AB0EE409A9FED950AF0EE0D
:100B700040BA9FED930AF0EE409A9FED910AB0EED5
:100B800040AA0EB104B11DB904B0BDEC0C8B70BD10
:100B90008C48FFF7CBFF8C48FFF7D0FF8A48D0ED99
:100BA000000A9FED8A1A60EE810AB0EE600A00F03A
:100BB0002DF9F0EE408A28EEA80AF0EE408A82482D
:100BC000D0ED000AB0EE001A60EE810A9FED7F1AA8
:100BD00060EE810AB0EE600A00F018F9B0EE409ABB
:100BE00029EE090AB0EE409ADFED790AB7EE000A65
:100BF00000EEA80ADFED770A00EEC90ADFED760AFB
:100C000020EE200A754880ED000A6E4890ED000A3B
:100C1000DFED730A80EE201AB7EE000A31EE000A0B
:100C200020EE000A6D48D0ED000A80EE801A6D4873
:100C300080ED001A94ED000AB5EEC00AF1EE10FA4C
:100C40000DD194ED010AB5EEC00AF1EE10FA06D10D
:100C500094ED020AB5EEC00AF1EE10FA46D09FED0F
:100C6000580AB0EE408A0020019002900390D4ED23
:100C7000000A60EEA00A94ED011AD4ED011A41EECB
:100C8000210A94ED021AD4ED021A41EE210AB0EEC7
:100C9000600A00F0A9F8B0EE408A94ED000A20EE58
:100CA000080A8DED010A94ED010A20EE080A8DED87
:100CB000020A94ED020A20EE080A8DED030ADDED2A
:100CC000010AF1EE600AB0EE600AFFF7FAFEF0EEFC
:100CD000409A9DED031AF0EE410A9DED021AB0EE26
:100CE000410AFFF7FAFEB0EE40AA07E09FED340A92
:100CF000F0EE409A9FED320AB0EE40AA95ED000A60
:100D0000B5EEC00AF1EE10FA0DD195ED010AB5EE7F
:100D1000C00AF1EE10FA06D195ED020AB5EEC00A4E
:100D2000F1EE10FA3CD0B0EE690A00F06FF8B0EEC8
:100D3000408AB0EE690AFFF7E0FEB0EE40DAB0EEAE
:100D40004A0A00F063F8F0EE40AAB0EE4A0AFFF754
:100D5000D4FEB0EE40BA28EE2A0AD5ED010A20EE04
:100D6000200AD5ED000A0DEE200A68EE0B0A95ED7B
:100D7000021A00EE810AB0EE40CA95ED010A20EE9B
:100D80000B0AD5ED020A0AEEE00AF0EE40CAF0EED8
:100D90006C0AB0EE4C0AFFF7A0FEF0EE40BA03E09A
:100DA0009FED070AF0EE40BAB0EE4A1AF0EE690A7B
:100DB000B0EE6B0A30460BF089FE00BFE4E600009F
:100DC00000000000F4020020F802002035FA8E3CFA
:100DD000C1BFAD3B9DF8C5362F7C1C41FC020020F5
:100DE000506CC24A0003002010B52DED028BB0EE0E
:100DF000408AB0EE480A0AF0A3FBB7EE001AC1EE33
:100E0000000AB0EE600ABDEC028B10BD10B52DEDEE
:100E1000028BB0EE408AB0EE480AFFF76DFABDECE7
:100E2000028B10BD2DE9F0412DED028B9AB00546E5
:100E3000B0EE408A0E46174698460020179018904C
:100E400019901490159016904DB146B13FB1B8F17C
:100E5000000F04D0B5EEC08AF1EE10FA05D10020E3
:100E60001AB0BDEC028BBDE8F08196ED000A8DED65
:100E7000170A96ED010A8DED180A96ED020A8DED1E
:100E8000190A97ED000A8DED140A97ED010A8DED10
:100E9000150A97ED020A8DED160A17AA14A928461D
:100EA0000BF066FC402104A8FFF7AAFA002000908E
:100EB000019002900390002417A904A80EF063F893
:100EC00000BF30E004A800EB041090ED000AD5ED5F
:100ED000000A20EE200A04A800EB0410D0ED010A5D
:100EE00095ED011A00EE810A04A800EB0410D0ED84
:100EF000020A95ED021A00EE810A04A800EB041024
:100F0000D0ED030A95ED031A00EE810A20EE080ADF
:100F1000F0EE000A80EE201A684600EB840080EDB7
:100F2000001A601CC4B2042CCCDB002410E005EBDA
:100F3000840090ED000A684600EB8400D0ED000AC2
:100F400030EE200A05EB840080ED000A601CC4B27C
:100F5000042CECDB28460DF057FE012080E7000052
:100F6000F0EE401A9FED310AB0EE401A9FED2F0AC5
:100F7000B0EE402A9FED2D0AF0EE402A00BFBDEEF4
:100F8000E10AB8EEC00A31EEC00AF0EE402ABDEE2A
:100F9000E10A10EE100A4FF4B47190FBF1F201FB7C
:100FA000120000EE100AB8EEC00A30EE220AF0EE8F
:100FB000402A00BF00BFBDEEE00AB8EEC00A30EE26
:100FC000C00AB0EE402ABDEEE00A10EE100A90FB17
:100FD000F1F201FB120000EE100AB8EEC00A30EE8A
:100FE000020AB0EE402A00BF32EEC20AB0EE401A4A
:100FF0009FED0F0AB4EEC01AF1EE10FA06DD9FED78
:101000000D0A31EE400AB0EE401A0CE09FED0A0ADC
:10101000B4EEC01AF1EE10FA05D29FED060A31EED9
:10102000000AB0EE401A30EE810A7047000000005E
:10103000000034430000B443000034C310B500F096
:10104000F9FA1B4800F0D2FA18B1022019490870C9
:1010500002E001201749087016480078022803D1E1
:101060004FF47A7003F0B4FC08F06EFE08F056FE00
:1010700006F076FC01F078FD01F0DEFB01F0EAFEFF
:101080000C48007802280AD101F04EFF02F050FB14
:1010900008F04EFB0EF0B2FB0CF068FA07E00548D2
:1010A0000078012803D100F093FE01F0AFF910BDE4
:1010B000687D00200C02002010B50122102102489A
:1010C00003F0CEFD10BD00000000024010B500226C
:1010D0001021024803F0C4FD10BD000000000240D2
:1010E0007047000010B501221146024803F0B8FD18
:1010F00010BD00000004024010B50022012102488A
:1011000003F0AEFD10BD000000040240704710B5B2
:10111000044620460CF052FD10BD10B50446204692
:1011200000F024FA10BD10B50024FFF7D9FFFFF737
:10113000EDFF0BF04DFE10B144F0800402E00BF027
:10114000ADFD04430CF03CF810B144F0400402E063
:101150000BF0BCFF0443204610BD00002DE9FC410C
:1011600005460E461746002000900190FFF7AEFF9F
:10117000922000F0D1F806226946122000F0ACF867
:10118000FFF79AFF9DF80100000200B29DF80010E1
:1011900040EA010400EE104AB8EEC00A4C48D0ED17
:1011A000000A20EE200A86ED000A9DF803000002E6
:1011B00000B29DF8021040EA010400EE104AB8EEB9
:1011C000C00A4348D0ED000A20EE200A86ED010A4D
:1011D0009DF80500000200B29DF8041040EA0104E9
:1011E00000EE104AB8EEC00A3948D0ED000A20EEF1
:1011F000200A86ED020AFFF77FFF082269460020D9
:1012000000F06AF8FFF76EFF9DF800000F2838D154
:101210009DF80300000200B29DF8021040EA0104AC
:1012200000EE104AB8EEC00A2A48D0ED000A20EEBF
:10123000200A85ED000A9DF80500000200B29DF825
:10124000041040EA010400EE104AB8EEC00A21483A
:10125000D0ED000A20EE200A85ED010A9DF8070076
:10126000000200B29DF8061040EA010400EE104AA8
:10127000B8EEC00A1748D0ED000A20EE200A85ED2E
:10128000020AFFF723FFA22000F046F80222694677
:10129000222000F021F8FFF70FFF9DF80000C000AA
:1012A0009DF8011040EA6114B4F5806F02DBA4F5EB
:1012B000006004B200EE104AF8EEC00AB4EE001A64
:1012C000B3EE070A00EE810A87ED000ABDE8FC8153
:1012D000E8000020EC00002070B506460C461546DC
:1012E00046F0800000F018F806E0552000F014F8F1
:1012F0002070641C681EC5B2002DF6D170BD70B59B
:1013000004460D4644F0800000F006F8552000F039
:1013100003F8287070BD000001B582B04FF47A70F8
:10132000012301AA02A90090024804F08FFD9DF854
:1013300004000EBD540A002070B505460C46284630
:10134000FFF7EAFF2046FFF7E7FF70BD30B58BB02F
:1013500005460C46069400200790012008900020C6
:1013600001900290039004900590012009900E20B6
:101370000A9001A9284602F0EDFB08B101F0BDFD7D
:101380000BB030BD70B504460D460F492068884249
:1013900004D100212046FFF7D9FF07E00B49206860
:1013A000884203D10E212046FFF7D0FF204603F0EC
:1013B00048F808B101F0A1FD2946204602F00AFBD9
:1013C00008B101F09AFD70BD006400400068004063
:1013D0002DE9F04104460E461746984614B90120FF
:1013E000BDE8F0812660002084F824002762C4F85C
:1013F00028804FF4807310223946201D0CF0F5F838
:1014000000250EE0094850F8250040B90321304678
:10141000FFF7B8FF054840F825400020E0E7681CCA
:10142000C5B2022DEEDB0120DAE7000094000020B7
:1014300002460AB90120704709B90120FBE7916211
:101440000020F8E72DE9FF5F0446894692461D46D5
:101450004FF0010B5746CDF80090002600BF00BFAB
:10146000EFF31080804600BF72B600BF25E0201D5C
:101470000CF0D0F818B1002084F824001FE0A81B5D
:10148000082803DB08208DF8040003E0A81BC0B285
:101490008DF804003868CDF805007968CDF809109A
:1014A0009DF8040007449DF80400304486B2694664
:1014B000201D0CF0B6F84FF0000BAE42D7DB00BF9A
:1014C00000BF00BF88F3108800BF00BF00BF94F8C2
:1014D000240030B9201D0CF096F810B9204600F019
:1014E00029FC584604B0BDE8F09F0000074800689A
:1014F0000749B0FBF1F007490870044800684FF451
:101500007A71B0FBF1F004490860704714000020C4
:1015100040420F009C000020A000002070B5034650
:10152000002400210020002200254FF0E0267569EC
:101530000D4E366803FB06F44FF0E026B16910E06B
:101540004FF0E026B06988420BD0884202D20E1AD2
:10155000324402E02E1A0E4432440146A24200D325
:1015600000E0EDE700BF70BDA000002070B50346AD
:10157000002400210020002200254FF0E02675699C
:101580000D4E367803FB06F44FF0E026B16910E00B
:101590004FF0E026B06988420BD0884202D20E1A82
:1015A000324402E02E1A0E4432440146A24200D3D5
:1015B00000E0EDE700BF70BD9C00002010B50446C0
:1015C0000CB9012010BD2260636021720020F9E790
:1015D00070B504460D4616462560666004202072EC
:1015E000D4E9000105F04EF9002070BD10B50446A5
:1015F000A28891B2206803F02BFB10BD42681AB993
:1016000002681268516310E04268042A03D102683C
:101610001268916309E04268082A03D102681268DF
:10162000D16302E0026812681164704710B503F0DC
:101630001DFB10BD08B5FFF759FF4FF48053314A29
:1016400003213148FFF7BAFF082230493048FFF73D
:10165000BFFF04222D492F48FFF7BAFF00222B4974
:101660002D48FFF7B5FF00222C492D48FFF7B0FFAA
:1016700008222C492C48FFF7ABFF08222B492C48A5
:10168000FFF7A6FF2B492C4800F0D8F84FF48060F4
:101690002A4B42102A490090274800F020F90023E5
:1016A0004FF400722749244800F0E6F826492748FD
:1016B00000F0C4F84FF48060254B4210254900909B
:1016C000224800F00CF900234FF4007222491F4811
:1016D00000F0D2F82149224800F0B0F800231E2281
:1016E00020491F4800F0C8F800231F4A1F4920481E
:1016F000FFF76EFE00231F4A1F492048FFF768FED0
:1017000008BD000000040240687D0020840B00201A
:10171000787D0020887D0020987D0020CC0B002063
:10172000A87D00203C0B0020B87D0020F40A00209A
:10173000C87D00209C0C0020D87D0020484F002050
:10174000484D002048530020140C0020147E002037
:101750004857002048550020485B0020580C0020C6
:10176000507E0020485D0020665D0020B00900200A
:101770008C7E0020666D0020D8090020B87E0020F5
:10178000F8B5044600262068006800F01000102814
:1017900046D12068C06800F01000002840D0A06B3F
:1017A0000068006820F00100A16B0968086000254E
:1017B0002CE0214850F82500006800682168884224
:1017C00022D11D4850F82500C088A16B09684968DE
:1017D000401A86B2184850F82500C06848B116492A
:1017E00051F825108868144951F82510CA68314607
:1017F0009047114850F82500C2880F4850F825003E
:101800008168204605F0DEFB681CC5B2032DD0DBE5
:10181000A06B0068006840F00100A16B09680860D7
:1018200000BF002000902068006800902068406899
:10183000009000BF00BFF8BDE47E002070B50446F4
:101840000D460CB9012070BD3C212046FEF7D8FDA5
:10185000256000210AE0074850F8210020B905481A
:1018600040F821400020EEE7481CC1B20329F2DB1A
:101870000120E8E7E47E0020F8B504460D46164650
:101880001F460CB90120F8BD01202071A560E6803B
:10189000E76000BF002000902068006800680090AA
:1018A000206800684068009000BF00BF20680068A2
:1018B000C06840F0100021680968C860E288A1682B
:1018C000206805F07FFB0020DDE702460AB9012011
:1018D000704709B90120FBE7D1600020F8E72DE946
:1018E000F04104460E4617461D46DDF8188014B92F
:1018F0000120BDE8F08101202074666127836563C3
:10190000A4F83880002084F83A004246294604F1C1
:101910001C000BF01EFF0020EBE72DE9F04704460A
:101920008846174614B90120BDE8F087207C08B925
:101930000120F9E794F83A0090B9208BB84202DD13
:101940003D46002614E0208B218F0844B84204DD78
:10195000258B208B381A86B20AE0258B268F07E06C
:10196000208FB84202DD00253E4601E00025268F8B
:10197000002D0CDD2A4641466069FEF728FD012056
:1019800084F83A002A466169206805F05DFB002E64
:101990000DDD08EB0501324604F11C000BF0E4FEFE
:1019A00000F0FF09B14501D00120BDE700BF0020D4
:1019B000BAE7000010B5FFF739FE04464FF47A701D
:1019C000B4FBF0F0032800D210BD1C480068201AB8
:1019D00040F6C411884208D919480078194908709E
:1019E000164804601848046025E01648007810B3D3
:1019F00015480068201A15490988884205D29621A1
:101A00004FF4FA7000F076F815E00F480068201ADD
:101A10000E4909880E4A12881144884204D20021D6
:101A2000084600F067F806E006480078401E0549C1
:101A300008700548046000BFC6E70000DC00002015
:101A4000D4000020E4000020E0000020D6000020A8
:101A5000D80000200149087070470000D400002021
:101A600070B52DED068B0446B0EE408A01F058FAB1
:101A70000546606828B9656025600020BDEC068BCE
:101A800070BD6068281A2169884202D9A5600120CA
:101A9000F4E718EE100AFEF757FE41EC1A0BB0EE11
:101AA0004A0AF0EE6A0A09F0DBFCB0EE409AF0EE6A
:101AB000609A9FED0A0B53EC102B51EC190BFEF7BB
:101AC00057FE07D22068281AE168884203D9A5602A
:101AD0000120D3E725600020D0E7000000000000CF
:101AE0000000F03F002343608360C16002617047E3
:101AF00000BFFEE770B504460D4604480068006864
:101B0000C46229460148FFF779FD70BDB87D002009
:101B100010B5024802F08EF910BD0000B009002097
:101B200070B505460E461446A5F2052088B1012879
:101B300006D0A0F2FB20B0B1B0F5007F25D11BE0AC
:101B400013490869314606F0FDFF062007F0D0F87A
:101B50001CE00F49D1F82001314606F0F3FF0520C3
:101B600007F0C6F812E0A2B231460A4800F007FEBC
:101B70000F2007F0BDF809E0A2B23146064800F098
:101B8000FEFD0E2007F0B4F800E000BF00BF70BDFE
:101B9000208700200C8E0020B892002070B50446EB
:101BA0000E461546B4F5C06F05D1AAB231460348BA
:101BB00000F0E5FD00E000BF00BF70BD8CA000207C
:101BC00070B504460D462B4622464FF4E0610248AC
:101BD000FFF738FC70BD00008C7E002010B5024875
:101BE00002F028F910BD0000B009002070B50446CD
:101BF0000D462B4622464FF4C0610248FFF722FCF7
:101C000070BD00008C7E002070B504460D462B464A
:101C100022464FF4A0610248FFF714FC70BD00009B
:101C20008C7E002010B5024802F004F910BD0000BF
:101C3000D80900202DE9F04104460D461746A4F2CC
:101C40000120082841D2DFE800F0040E18224040AD
:101C50002C3601F055F90646294606F073FF082098
:101C600007F046F832E001F04FF90646294606F043
:101C700069FF092007F03CF828E001F049F9064621
:101C8000294606F05FFF0A2007F032F81EE001F057
:101C900043F90646294606F055FF0B2007F028F8C1
:101CA00014E008F0EFFA0646294606F04BFF0C2038
:101CB00007F01EF80AE008F0E9FA0646294606F0A1
:101CC00041FF0C2007F014F800E000BF00BFBDE8A2
:101CD000F08100002DE9F04104460E461746A4F2BB
:101CE000012030B1012805D0022804D0032813D1E7
:101CF00002E000BF00BF00BF601EC5B205EB850259
:101D0000074901EB02110868314606F01BFF691C08
:101D1000C8B206F0EDFF00E000BF00BFBDE8F081F3
:101D2000149A002010B5024802F084F810BD00009B
:101D3000D809002030B58BB004460CB90BB030BDCB
:101D400000BF00BFEFF31080054600BF72B600BFB2
:101D5000201D0BF058FC00BB15E007A9201D0BF05F
:101D600025FC079801900020039004909DF8200026
:101D70000590012084F824006B460DF1210201A991
:101D8000206801F03CFE206802F039F840B1201DC7
:101D90000BF039FC0028E0D002E0002084F8240099
:101DA00000BF00BF85F3108800BF00BF00BF00BFA9
:101DB000C4E7704770B504460D462A4621460348DD
:101DC00000F0DDFC0E2006F093FF70BDE4A70020BC
:101DD00038B500F0F9FE5149086005F031FD4F4972
:101DE00048604F488860002008739FED4E0A0846FF
:101DF00080ED040A9FED4C0A80ED050A9FED4B0A29
:101E000080ED060A9FED4A0A80ED070A9FED480A19
:101E100080ED080A00241FE0204600F04FF904EB93
:101E200084023E49243101EB0211086004EB840274
:101E30003A49243101EB0211081D9FED3D2ADFEDE7
:101E40003D1AB1EE0A1ADFED3C0A9FED3C0A032170
:101E50000CF0BCF8601CC4B2042CDDDBB0EE002A30
:101E6000DFED331AB2EE001ADFED350A9FED350AC9
:101E7000032135480CF0AAF80023642201210E202A
:101E800006F018FF032364220121102006F012FF40
:101E9000002364220121112006F00CFF2B4B4FF48C
:101EA00080622B492B4800F03BFD2B484FF48063A8
:101EB0002A4AAA2100902A4800F086FC294B4FF4B8
:101EC00000722949294800F02BFD29484FF400737E
:101ED000284AA5210090284800F076FC0A2200211B
:101EE000264807F0B1FE0A220021254807F0ACFE83
:101EF00024492548FFF7E9FC24492548FFF7E5FC7C
:101F000024492548FFF7E1FC24492548FFF790FACA
:101F100024490348FFF78CFA38BD0000F0990020EF
:101F2000B87E00200000EF430080C8430000AF43AC
:101F300000000000CDCCCC3D0000FA4400007A4601
:101F40000000484200009643549B0020091C0008F2
:101F50008C9C0020E09B0020C9A8000838A100202C
:101F60008CA00020C11B0008E4A5002038A500209B
:101F7000158F000890A80020E4A700203DA20008CB
:101F800051200008012C0008507E0020B51D0008DB
:101F9000D87D0020098D0008147E00209D1B0008BC
:101FA0008C7E0020D51C000813480068807918B981
:101FB0000020114908731EE00F480068807901284D
:101FC00002D10D49087316E00B4800688079022899
:101FD00002D1094908730EE0074800688079032898
:101FE00002D10549087306E0034800688079042897
:101FF00001D1014908737047F099002010B51248CB
:10200000006890ED020A1048D0ED6A0A30EE200A0E
:1020100080ED6D0A006890ED030A0B48D0ED6B0A65
:1020200030EE200A80ED6E0AD0ED780AF1EE600AFB
:10203000B0EE600ADFED050A00F5B2700BF0B0FEFD
:10204000014880ED6F0A10BDF099002000000000EB
:1020500038B5054600F01AF804460A48D0F8B4012D
:10206000C4F801000748D0F8B801C4F805000920F9
:1020700023460222AA210090034800F0F1FB002031
:1020800038BD0000F0990020E09B00200048704718
:10209000487F00202DE9FC4104460D4616461F46A8
:1020A0000549CDE900672B46224688684FF4007148
:1020B00006F0D3FDBDE8FC81F0990020014601EB5C
:1020C000C100024A02EB8000704700008C810020B2
:1020D00070B501F0FDF8044608F028FC054654F8F8
:1020E000050F1749C1F8E00108464068D0ED5A0ACB
:1020F000606800EE100A30EEC00A084680ED7A0AE9
:10210000406890ED5B0A084680ED7B0A4068D0EDA0
:102110005C0AA06800EE100A30EEC00A084680EDA6
:10212000790AD4F81500C1F8A801D4F81900C1F84B
:10213000AC01D4F81D00641FC1F8B00170BD0000EF
:10214000F09900200848006890ED020A0648D0ED9A
:102150006A0A30EE200A80ED6D0A006890ED040AEC
:10216000014880ED6F0A7047F099002010B52DED01
:10217000048B4E48006890ED020A4C48D0ED6A0A84
:1021800030EE200A80ED6D0A006890ED030A4748A2
:10219000D0ED6B0A30EE200A80ED6E0A90ED6D0AEC
:1021A00010EE101A0846FEF7CFFA41EC190BB0EE0C
:1021B000490AF0EE690A09F053F9B0EE408AF0EEF0
:1021C000608A9FED3B0B53EC102B51EC180BFEF784
:1021D000CFFA22D2354890ED6E0A10EE101A08465A
:1021E000FEF7B2FA41EC190BB0EE490AF0EE690ABB
:1021F00009F036F9B0EE408AF0EE608A9FED2C0BC4
:1022000053EC102B51EC180BFEF7B2FA05D29FEDF0
:102210002A0A264880ED6F0A44E0244890ED6D0AB2
:1022200010EE101A0846FEF78FFA41EC190BB0EECB
:10223000490AF0EE690A09F013F9B0EE408AF0EEAF
:10224000608A9FED1E0B53EC102B51EC180BFEF720
:102250008FFA22D2154890ED6E0A10EE101A084639
:10226000FEF772FA41EC190BB0EE490AF0EE690A7A
:1022700009F0F6F8B0EE408AF0EE608A9FED0F0BA1
:1022800053EC102B51EC180BFEF772FA05D29FEDB0
:102290000A0A064880ED6F0A04E09FED070A03482A
:1022A00080ED6F0ABDEC048B10BD0000F09900209A
:1022B0000000000000407F40000048430000000094
:1022C00000408F409FED060A064880ED6D0A9FEDA5
:1022D000040A80ED6E0A9FED020A80ED6F0A7047D6
:1022E00000000000F099002000BFFFF7F1FEFFF7AB
:1022F0005BFE4348007B012806D0022807D0032854
:1023000008D004280CD108E0FFF7DCFF09E0FFF754
:1023100075FE06E0FFF716FF03E0FFF727FF00E07A
:1023200000BF00BF364800F085F800243DE0354886
:1023300000EB840090ED000A04EB84013048243067
:1023400000EB011080ED120A04EB84022C492431C9
:1023500001EB021191ED121AF0EE410A04EB840236
:102360002749243101EB02110968B1F9041001EE8B
:10237000101AB8EEC11AB0EE410A04EB84022049EB
:10238000243101EB0211081D0BF00AFDBDEEC00A5D
:1023900010EE100A01B204EB84021948243000EB5D
:1023A0000210A0F84C10601CC4B2042CBFDB14480F
:1023B00000F05AF81248007B70B900200AE00022B1
:1023C00000EB80030E49243101EB0311A1F84C20EE
:1023D000411CC8B20428F2DB094CB4F96031B4F9ED
:1023E0001021B4F9C010B4F97000FFF753FE0A20B1
:1023F0000BF0E4FB00200CF017FE0349086074E7C3
:10240000F0990020B09B0020B402002000B587B0F6
:102410001C2206496846FDF7DAFF002168460BF0EA
:10242000F6FB0349086007B000BD0000D4090108AD
:10243000B002002010B50446094A0A49204600F0BF
:102440001DF994ED6F0AB0EE401A0548D0ED000A70
:10245000044890ED000A204606F04EF910BD000039
:10246000AC020020A802002070B52DED0E8B0446B2
:102470009FED7A0AB0EE40EA9FED780AB0EE408A0E
:102480009FED760AF0EE408A9FED740AB0EE409A16
:102490009FED720AF0EE409A06F036FD05461DB13A
:1024A0000E2000F039F920B19FED6D0AB0EE40EA40
:1024B0005FE0022D01D00C2D04D19FED6A0AB0EE31
:1024C00040EA56E006F0C0FD406808EE900A06F0CB
:1024D000BBFD008900EE100AB8EE400AB0EE409A4B
:1024E00006F0B6FD408900EE100AB8EE400AF0EEA4
:1024F000409A9FED5D0AB4EEC09AF1EE10FA14D244
:10250000F1EE040AB4EEE09AF1EE10FA04DDDFED2C
:10251000560A89EE200A01E09FED540ADFED500AC9
:1025200060EE200AB0EE60EA23E09FED510AF4EE7F
:10253000C08AF1EE10FA18DDF4EEE98AF1EE10FA35
:1025400008D279EEE80A9FED4A1A39EEC11A80EEF8
:10255000810A01E09FED410ADFED410A9FED451A36
:1025600041EE000AB0EE60EA03E09FED430AB0EEF0
:1025700040EA002627E006EB860204F1240101EB85
:102580000211B1F94C00FEF7CEF841EC1D0BB0EE94
:102590004D0AF0EE6D0A08F063FFB0EE40BAF0EEBF
:1025A00060BA18EE100AFEF7CFF841EC1C0B53ECA2
:1025B0001B2BFDF730FF41EC1A0BFEF709F908EE73
:1025C000100A701CC6B2042ED5DBB4EECE8AF1EE32
:1025D00010FA40DDCEEE080AB0EE600AB4F97000E1
:1025E00000EE900AF8EEE00A60EE800AFDEEE00AE6
:1025F00010EE900A01B2A4F87010B4F9C00000EE19
:10260000900AF8EEE00A60EE800AFDEEE00A10EEB5
:10261000900A01B2A4F8C010B4F9100100EE900ABB
:10262000F8EEE00A60EE800AFDEEE00A10EE900A95
:1026300001B2A4F81011B4F9600100EE900AF8EEAE
:10264000E00A60EE800AFDEEE00A10EE900A01B2A8
:10265000A4F8601100BFBDEC0E8B70BD000000003F
:1026600000007A4600007A4700004842CDCCCC3DBD
:102670000000204200409C4600A00C4770B52DEDA4
:10268000028B04460D46164694ED780ADFED1F0ACC
:1026900080EE201AB0EE418AB0EE480AFDF72CFE1B
:1026A0001B4880ED000A94ED780ADFED180A80EEF1
:1026B000201AB0EE418AB0EE480AFDF7E1FD154858
:1026C00080ED000A94ED6D0A1148D0ED000AF1EE9C
:1026D000600A20EE200AD4ED6E0A0E4890ED001A32
:1026E00001EE200A86ED000A94ED6D0AD0ED000A95
:1026F00020EE200AD4ED6E0A054890ED001A01EE96
:10270000200A85ED000ABDEC028B70BD33336542B3
:102710008C020020900200200146044800EB0110CA
:10272000C078012800D170470020FCE70086002017
:102730002DE9FF470446884699460C9D05F109009E
:1027400086B2802E03DD002004B0BDE8F08704F1DE
:10275000210787F80080A7F801503846BDF8081017
:10276000E18405210AF07EFA2A464946F81DFDF764
:102770002EFE314638460AF05FFA3046E4E770B57F
:1027800004460E46154604B970BD04F108000AF06F
:1027900067FFA84205DD2A46314604F108000AF029
:1027A000E3FF00BFF0E7000070B50648456804E0AD
:1027B0002C46204600F0D8F86D6802488542F7D1D3
:1027C00070BD0000A40000202DE9F04704460E462D
:1027D00017469846DDF820900CB9BDE8F0870D4803
:1027E000456803E0A54200D1F7E76D6809488542D6
:1027F000F8D1014620460BF0ADF984F8206042463E
:10280000394604F108000AF0A4FFC4F8A89000BFFC
:10281000E3E70000A400002000BFFFF7C5FF00F0C1
:1028200041F801200BF0CAF900200CF0FDFB014932
:102830000860F2E70802002000B587B01C220649B4
:102840006846FDF7C4FD002168460BF0E0F9034936
:10285000086007B000BD00008009010804020020E4
:102860002DE9F84304460E4617469846089D0CB9D4
:10287000BDE8F88304F108000AF0F2FEA8420FDD7B
:1028800043463A46314620460095FFF751FF8146C0
:102890004A4604F1210104F108000AF065FF00BF77
:1028A00000BFE5E72DE9F041A0B080216846FDF7C3
:1028B000A7FD0026B04600271848456827E02C46AB
:1028C00004F108000AF0A3FF86B2FEB1D4F8A80014
:1028D00050B1D4F8A80080478046B04501DA4046A0
:1028E00000E03046074600E03746802F00DD8027B5
:1028F0003A46694604F108000AF0DBFED4F8A40069
:1029000020B139466846D4F8A42090476D68034842
:102910008542D4D120B0BDE8F0810000AC00002099
:102920002DE9F04104460F4690461E460CB9BDE81D
:10293000F0810C48456803E0A54200D1F7E76D68D7
:1029400008488542F8D1014620460BF003F942467B
:10295000394604F108000AF0FCFEC4F8A46000BF88
:10296000E5E70000AC00002070B5044600258AE0D1
:1029700004F108000AF077FE054694F821000628C5
:102980007BD2DFE800F003141F353F5794F8200096
:10299000A84209D1012084F82100618C481C608480
:1029A00004F12600455401E0002060846AE0A5841B
:1029B000618C481C608404F126004554022084F890
:1029C00021005FE0A08C40EA0520A084618C481CB7
:1029D000608404F126004554A08C772803D203209C
:1029E00084F8210003E0002084F82100608449E09D
:1029F000618C481C608404F126004554042084F84E
:102A000021003FE0618C481C608404F1260045549D
:102A1000608C05280DD1052104F126000CF03AFE4A
:102A200018B1052084F8210003E0002084F821007B
:102A3000608427E0618CA08C0930814205D2618CD2
:102A4000481C608404F126004554618CA08C093038
:102A5000814210D3002084F821006084A08C00F112
:102A6000090104F126000CF0F7FD20B104F1260164
:102A7000204607F011FF05E0FFE7002084F8210061
:102A8000608400BF00BF04F108000AF0C0FE002807
:102A90007FF46EAF70BD000000BF06F0DDFA2F4876
:102AA000007920B101281BD002283FD130E000F08E
:102AB0000FFC007801280CD000F00AFC007840B12F
:102AC0000120264908710420487102208871C871CC
:102AD00005E001202149487188710220C87126E073
:102AE0001E480068007A032802D106F0E9FA0EE0D9
:102AF0001A480068007A012802D105F05DF906E065
:102B000016480068007A022801D107F013FF0EE092
:102B10001120FFF701FE18B900201049087104E0E8
:102B200000200E4948718871C87100E000BF00BFE5
:102B30001120FFF7F1FD10B1022008490871074884
:102B4000162201680648FDF742FC14200BF036F807
:102B500000200CF069FA034908609EE770850020A8
:102B6000A4850020AC01002000B587B006F0BEF9B6
:102B70001049086000200871012088714871022006
:102B8000C871002081F830004B210B480CF09EF8F2
:102B90004B210A480CF09AF81C2209496846FDF7B7
:102BA00016FC002168460BF032F80649086007B0B1
:102BB00000BD000070850020B4010020C801002085
:102BC0002C090108A80100200048704770850020EA
:102BD000F8B504460D4606F089F906462A46214610
:102BE00006F0CCF823460122AA2104480095FFF7FD
:102BF00037FE112006F07CF8F8BD00006089002047
:102C0000F8B504460D4606F071F906462A462146F7
:102C100006F0B4F823460122AA2104480095FFF7E4
:102C20001FFE112006F064F8F8BD0000E09B0020B4
:102C300010B5024801F0ECFC10BD0000A00D002012
:102C400010B5024801F0E4FC10BD0000000E0020A9
:102C500010B5024801F0DCFC10BD0000E00C0020C3
:102C600010B5024801F0D4FC10BD0000600E002039
:102C700010B5024801F0CCFC10BD0000400D002052
:102C80000146087810381823B0FBF3F20848805C3E
:102C9000C865032A05D908686FF30900001D886517
:102CA00003E008686FF309008865886D70470000CD
:102CB000C0050108014600208A6A8B69CBB932B190
:102CC000012A0DD0022A03D0032A10D10EE000BF42
:102CD000CB6A03F08073B3F1807F00D1012007E05D
:102CE000CB6AB3F1C07F00D1012001E000E000BF5A
:102CF00034E08B69B3F5005F1AD132B1012A07D0F5
:102D0000022A03D0032A11D10AE000BF01200EE0FD
:102D1000CB6A03F08073B3F1807F00D1012006E01D
:102D2000CB6AB3F1C07F00D1012000E000BF15E005
:102D300032B1012A05D0022A04D0032A0CD103E0C3
:102D400000BF00BF012008E0CB6A03F08073B3F13D
:102D5000807F00D1012000E000BF00BF704730B588
:102D60000468246824F4802405682C600468636087
:102D70008468402C04D10468A2600468E16003E028
:102D80000468A1600468E26030BD704700BFFEF7D0
:102D90004DFC0546FF260024012026E02A4901EBD0
:102DA00000114968691A284A02EB001292689142A0
:102DB00015D9254901EB0011097881B10121224A79
:102DC00002EB0012D170204901EB00118978B14269
:102DD0000ADA1D4901EB00118E78C4B204E000212B
:102DE000194A02EB0012D170401C1228D6DBCCB17C
:102DF000154901EB0411087BFEF72CFE124800EB8D
:102E00000410807818B9114809F060FC11E00E48F0
:102E100000EB0410807801280BD16FF0FF0009F05F
:102E200055FC06E04FF0FF2009F050FC0020FEF7B3
:102E300011FEFEF7BFFD0A200AF0C0FE00200CF0D4
:102E4000F3F803490860A2E7008600200000FFFFB6
:102E50000002002000B587B01C2206496846FDF735
:102E6000B6FA002168460AF0D2FE0349086007B0AE
:102E700000BD000064090108FC01002010B52DED23
:102E8000048B0446B0EE408AF0EE608AB0EE419AC0
:102E900084ED338AC4ED348A94ED331AF0EE410A9E
:102EA00094ED341AB0EE410A20460AF079FF94ED11
:102EB0000B0A84ED350A84ED369A94ED351AF0EE5E
:102EC000410A94ED361AB0EE410A04F144000AF0CA
:102ED00067FF94ED1C0ABDEC048B10BD10B50820F3
:102EE00001F0A6FD10BD10B5102001F0A1FD10BD30
:102EF00010B5202001F09CFD10BD72B600BFFEE7AA
:102F00000048704764820020004870478882002093
:102F100000487047AC82002000487047D0820020F3
:102F200010B501F0A3FE10BD08B5FFF74DFE6249D4
:102F3000086004F085FC60494860604888600120B2
:102F4000487300F09FFA5C49086100F085FA5A491D
:102F5000C1F8200140F2D2315748818241F2542118
:102F6000A0F824119FED560A80ED060A9FED540A41
:102F700080ED4A0A9FED530A80ED070A9FED520A41
:102F800080ED080AB3EE0E0A80ED4B0ABAEE0A0A8B
:102F900080ED4C0A9FED4D2ADFED4D1A9FED4B1A47
:102FA000DFED4B0A9FED4B0A03217C300BF00EF84E
:102FB0009FED472ADFED481A9FED481ADFED480ADA
:102FC0009FED480A03213C48C0300AF0FFFF9FED07
:102FD000402ADFED3F1A9FED3D1ADFED3D0A9FEDE0
:102FE0003D0A032140480AF0F1FF9FED392ADFED49
:102FF000381A9FED3E1ADFED3E0A9FED3A0A032193
:10300000394844300AF0E2FF0523642200211846C3
:1030100005F050FE062364220021184605F04AFE02
:103020000323642200210C2005F044FE00236422C7
:1030300001210E2005F03EFE0223642201210F2013
:1030400005F038FE002364220121112005F032FE34
:10305000284B4FF4806228492848FFF761FC284834
:103060004FF48063274AAA2100902748FFF7ACFB62
:1030700014220021254806F0E7FD25484FF400738F
:10308000244AA52100902448FFF79EFB23492448A9
:10309000FEF71BFC23492448FEF717FC234924486C
:1030A000FEF713FC23490548FEF7C2F922492348DD
:1030B000FEF7BEF908BD0000208700208C7E0020AE
:1030C0000000343D0000B4420000B4C200002042C1
:1030D000000000000000FA44CDCCCC3D0000A0422E
:1030E0000080BB450060EA46AC88002000007042CA
:1030F0000000FA45ED1B00080C8A002060890020C2
:10310000C9A80008B88E00200C8E00206D3200087F
:10311000158F000864930020B8920020D12B00087E
:10312000507E0020B31D0008D87D0020098D0008C6
:10313000147E0020211B0008351C0008B87E0020EA
:103140001948407B1849887308460068407910B9CF
:103150000020487326E0144800684079012802D115
:10316000114948731EE0104800684079022802D1D6
:103170000D49487316E00C4800684079032802D1D5
:10318000094948730EE0084800684079042802D1D4
:103190000549487306E0044800684079052801D1D4
:1031A00001494873704700002087002010B52DEDBD
:1031B000028B01212B4880F8241080F834119FEDF8
:1031C0002A0AB0EE408A9FED280AF0EE408A90ED80
:1031D0000A0A0068D0ED080A30EE200AB0EE408AF4
:1031E000204890ED4E0A0068D0ED070A30EE200A24
:1031F000F0EE408A1B4890ED0C0AF0EE400AB0EE6B
:10320000480AFDF7ADFE174880ED0A0A90ED500A16
:10321000F0EE400AB0EE680AFDF7A2FE114880ED1C
:103220004E0A00BF90ED4E0AD0ED4C0AB4EEE00A13
:10323000F1EE10FA04D890ED4C0A80ED4E0A0DE044
:10324000084890ED4E0AD0ED4B0AB4EEE00AF1EEDC
:1032500010FA03DB90ED4B0A80ED4E0A00BFBDEC87
:10326000028B10BD208700200000000038B5054605
:1032700000F02EF804461448407B641C04F8010C4E
:103280001148D0F83C0120600F48C06A60600E48C9
:10329000D0F84001A0600C48006BE0600A48D0F80C
:1032A000440120610848406B6061074890F83E0285
:1032B0002076641E262023460322AA21009003487C
:1032C000FFF7CEFA002038BD20870020608900205B
:1032D00000487047517F002010B52648807B0128A8
:1032E00007D0FA2124480BF0F1FCFA2123480BF017
:1032F000EDFC02211F4880F8241080F8341190ED75
:103300000B0A80ED0A0A1D480BF0C0FCF7EE000A1C
:1033100030EEC00A1748D0ED4F0A20EE200A80EDAB
:103320004E0A90ED4F0AB0EEC00AF0EE000AB4EE7D
:10333000E00AF1EE10FA1BD80F480BF0A7FCF7EEED
:10334000000A30EEC00A0B48D0ED0B0A20EE200A2E
:1033500080ED0A0A90ED0B0AB0EEC00AF0EE080A02
:10336000B4EEE00AF1EE10FA02D8042001494873E5
:1033700010BD000020870020180200202C02002031
:10338000417D027D914219D0017D41B9B0F90C1106
:1033900000EE101AB8EEC00A80ED060A0EE0017DBC
:1033A000012904D190ED080A80ED060A06E0017DAE
:1033B000022903D190ED070A80ED060A017D4175CF
:1033C000704710B504462046FFF7DAFF207D68B944
:1033D00094ED060ABDEEC00A10EE100A00B2A4F881
:1033E0000C0104F1280000F0EAFA34E0207D012805
:1033F00017D1D4ED091AB0EE611AD4ED081AF0EE27
:10340000610AD4ED061AB0EE610A04F1280000F05A
:10341000A5FABDEEC00A10EE100A00B2A4F80C0125
:1034200019E0207D022816D1D4ED091AB0EE611AF8
:10343000D4ED071AF0EE610AD4ED061AB0EE610A77
:1034400004F1280000F08AFABDEEC00A10EE100A5E
:1034500000B2A4F80C0110BD004870474082002063
:103460007CB504460D460020009005490190234696
:103470002A46886840F2FF1105F0EFFB7CBD000092
:1034800020870020004870471C82002010B52DEDD9
:10349000028B9FED250AB0EE408A0121234880F877
:1034A0002410022180F8341190ED0A0A0068D0ED52
:1034B000080A30EE200AB0EE408A1C4890ED0C0A53
:1034C000F0EE400AB0EE480AFDF74AFD174880EDDD
:1034D0000A0A90ED4E0A0068D0ED070A30EE200A85
:1034E000124880ED4E0A00BF90ED4E0AD0ED4C0A16
:1034F000B4EEE00AF1EE10FA04D890ED4C0A80ED3B
:103500004E0A0DE0094890ED4E0AD0ED4B0AB4EE9C
:10351000E00AF1EE10FA03DB90ED4B0A80ED4E0A63
:1035200000BFBDEC028B10BD000000002087002012
:1035300002212B4880F8241080F8341190ED0A0AFB
:103540000068D0ED080A30EE200A254880ED0A0A0E
:1035500090ED4E0A0068D0ED070A30EE200A2048B0
:1035600080ED4E0A00BF90ED0A0AD0ED080AB4EED5
:10357000E00AF1EE10FA04D890ED080A80ED0A0A8C
:103580000DE0174890ED0A0AD0ED070AB4EEE00A04
:10359000F1EE10FA03DB90ED070A80ED0A0A00BF96
:1035A00000BF0F4890ED4E0AD0ED4C0AB4EEE00A91
:1035B000F1EE10FA04D890ED4C0A80ED4E0A0DE0C1
:1035C000074890ED4E0AD0ED4B0AB4EEE00AF1EE5A
:1035D00010FA03DB90ED4B0A80ED4E0A00BF7047F6
:1035E0002087002010B5254A928A11B2234A126919
:1035F000128810B205F014FB00EE100AB8EEC00AF3
:103600001E48D0ED060A20EE200A80ED0B0A024685
:10361000B2F8242111B20246D2F82021128810B249
:1036200005F0FEFA00EE100AB8EEC00A1348D0ED1D
:103630004A0A20EE200A80ED4F0A406890ED5C0AAD
:103640000E4880ED0C0A406890ED5A0A0B4880ED58
:10365000500A406890ED020ADFED090A20EE200AC8
:10366000064880ED0D0A406890ED010ADFED040A7E
:1036700020EE200A014880ED510A10BD208700206D
:10368000E12E654200BFFFF7ADFFFFF759FD25486A
:10369000407B062813D2DFE800F0120306090C0F66
:1036A000FFF71AFE0CE0FFF781FD09E0FFF740FF8E
:1036B00006E0FFF7EBFE03E000F05AF800E000BF81
:1036C00000BF18481030FFF77CFE1748FFF779FE5F
:1036D0001448407BA8B913487C300AF059FC1248C2
:1036E00060380AF055FC10486C300AF051FC0E4866
:1036F000B0300AF04DFC00210A48A0F81C11A0F8D7
:103700002C12084AB2F92C12B2F91C01FFF7A8FEDC
:103710000A200AF053FA00200BF086FC03490860E7
:10372000B1E700002087002040880020140200201C
:1037300000B587B0FA210A480BF0C8FAFA21094807
:103740000BF0C4FA1C2208496846FCF740FE002131
:1037500068460AF05CFA0549086007B000BD000041
:10376000180200202C0200209C09010810020020F1
:1037700010B52DED028B0A2175480BF0A7FA012137
:10378000744880F82410022180F834119FED720AE9
:10379000F0EE408A9FED700AB0EE408A07F0C6F85E
:1037A0000446207B012872D1A07B012830D1002063
:1037B000A0736848006890ED070A30EE080AB0EE82
:1037C000408A644890ED8D0A80ED8A0A606800EEB8
:1037D000100AF0EE080A08EE200A5E4880ED4E0A54
:1037E000206800EE100A5B480068D0ED080A30EE51
:1037F000200A584880ED0A0AE07B012803D1554988
:1038000081F83D0281E00020524981F83D027CE0D0
:10381000504890ED0A0A0068D0ED080A30EE200A00
:10382000F0EE408A4B4890ED0C0AF0EE400AB0EE04
:10383000680AFDF795FB474880ED0A0A90ED4E0AAD
:103840000068D0ED070A30EE200A424880ED4E0AAB
:1038500000BF90ED4E0AD0ED4C0AB4EEE00AF1EE56
:1038600010FA04D890ED4C0A80ED4E0A0DE039486C
:1038700090ED4E0AD0ED4B0AB4EEE00AF1EE10FAEC
:1038800003DB90ED4B0A80ED4E0A3EE0FFE7314846
:1038900090ED0A0A0068D0ED080A30EE200AF0EE3A
:1038A000408A2C4890ED0C0AF0EE400AB0EE680A0F
:1038B000FDF756FB274880ED0A0A90ED4E0A006896
:1038C000D0ED070A30EE200A224880ED4E0A00BFF4
:1038D00090ED4E0AD0ED4C0AB4EEE00AF1EE10FA8B
:1038E00004D890ED4C0A80ED4E0A0DE0194890ED99
:1038F0004E0AD0ED4B0AB4EEE00AF1EE10FA03DB0B
:1039000090ED4B0A80ED4E0A00BF00BF114890EDCC
:103910004E0AD0ED4C0AB4EEE00AF1EE10FA04D8EB
:1039200090ED4C0A80ED4E0A0DE00A4890ED4E0AEB
:10393000D0ED4B0AB4EEE00AF1EE10FA03DB90EDA5
:103940004B0A80ED4E0A00BFBDEC028B10BD00009B
:103950002C020020208700200000000010B52DED73
:10396000048B0446B0EE408AF0EE608AB0EE419AD5
:1039700084ED338AC4ED348A94ED331AF0EE410AB3
:1039800094ED341AB0EE410A04F144000AF008FA4A
:1039900094ED1C0A84ED350A84ED369A94ED351ABF
:1039A000F0EE410A94ED361AB0EE410A04F18800B7
:1039B0000AF0F6F994ED2D0ABDEC048B10BD10B59C
:1039C000044604F144000AF0E3FA04F188000AF026
:1039D000DFFA10BD10B5024692F82030012B01D05D
:1039E000022B06D11068406908431468606100200A
:1039F00010BD506A40F4802050620120F8E7F0B515
:103A000004460D461E4694F8207020688368A86816
:103A100000B900E000BF012F01D0022F7CD103F0DC
:103A2000806030B903F0006018B903F080500028BE
:103A300073D0C3F30161022905D9606A40F4000024
:103A400060620120F0BD012088403060A86860B944
:103A5000B5F800C0E86840EA4C5C206800F5C0702A
:103A600000EB0110C0F800C00FE0D5E901C040EA4A
:103A7000CC00D5F80CC040EA0C00D4F800C00CF51E
:103A8000C07C0CEB011CCCF80000D5F810C02068FD
:103A900000F5C07000EB0110C0F804C0287D0128BB
:103AA0000ED1206800F5C07000EB0110406840F4B2
:103AB000807C206800F5C07000EB0110C0F804C0E5
:103AC000D079000692F806C040EA0C4092F805C092
:103AD00040EA0C2C10794CEA000C206800F5C0700C
:103AE00000EB0110C0F80CC0D078000692F802C0BC
:103AF00040EA0C4092F801C040EA0C2092F800C065
:103B000040EA0C00D4F800C00CF5C07C0CEB011CA2
:103B1000CCF80800206801E016E00FE000F5C07066
:103B200000EB0110006840F0010C206800F5C07047
:103B300000EB0110C0F800C0002083E7606A40F489
:103B40000010606201207DE7606A40F480206062BE
:103B5000012077E7F0B504460A46216894F8205022
:103B6000012D01D0022D7ED1424901F50071086876
:103B700040F001000860086820F47C500860086884
:103B8000566A40EA06200860107D00F01F060120FA
:103B900000FA06F3C8699843C861A1F50071D069BD
:103BA000C8B9D1F80C029843C1F80C02908880B2D1
:103BB000968940EA064601F51070576940F837606B
:103BC000108880B2168940EA064601F510705769E0
:103BD00000EBC7004660D069012819D1D1F80C026A
:103BE0001843C1F80C02908880B2168840EA064655
:103BF00001F51070576940F83760908980B21689D6
:103C000040EA064601F51070576900EBC7004660B0
:103C1000906928B9D1F804029843C1F8040204E07D
:103C2000D1F804021843C1F80402106928B9D1F888
:103C300014029843C1F8140204E0D1F814021843A6
:103C4000C1F81402106A012804D1D1F81C021843EB
:103C5000C1F81C02D1F8000220F00100C1F80002F6
:103C60000020F0BDFFE7606A40F480206062012020
:103C7000F7E700000064004010B50446204600F05D
:103C80007BFB10BD70B5044694F82050012D01D087
:103C9000022D7DD151B92068C06800F0030080B9C1
:103CA000606A40F400106062012070BD2068006905
:103CB00000F0030028B9606A40F40010606201203F
:103CC000F3E7206800F5D87000EB0110006800F001
:103CD00004009060906840B9206800F5D87000EB4F
:103CE00001100068400D106007E0206800F5D870F2
:103CF00000EB01100068C0085060206800F5D87023
:103D000000EB0110006800F00200D060206800F5B0
:103D1000D87000EB0110406800F00F0010612068BF
:103D200000F5D87000EB0110406800F47F40000AF5
:103D30009061206800F5D87000EB01104068000C1D
:103D40005061206800F5D87000EB01108068187091
:103D5000206800F5D87000EB0110806800F47F4007
:103D6000000A5870206800F5D87000EB01108068D8
:103D700000F47F00000C9870206800F5D87000EB0C
:103D800001108068000ED870206800F5D87000E03F
:103D90002FE000EB0110C0681871206800F5D870A2
:103DA00000EB0110C06800F47F40000A58712068E1
:103DB00000F5D87000EB0110C06800F47F00000C23
:103DC0009871206800F5D87000EB0110C068000EF3
:103DD000D87131B92068C06840F020002668F060D2
:103DE00005E02068006940F020002668306100206E
:103DF0005BE7606A40F480206062012055E701467D
:103E0000002091F82020012A01D0022A11D10B684C
:103E10009B6803F0806303B1401C0B689B6803F050
:103E2000006303B1401C0B689B6803F0805303B12F
:103E3000401C70472DE9F05F044600252068466964
:103E40002068D0F80490206887682068D0F80CA01B
:103E50002068D0F810B02068D0F8188006F0010073
:103E6000002855D007F00100C0B10120216888600A
:103E700007F0020018B1204600F014FB0EE007F036
:103E8000040010B145F4006508E007F0080010B127
:103E900045F4805502E0204600F002FB07F48070F4
:103EA000C8B14FF480702168886007F4007018B1C1
:103EB000204600F011FB0EE007F4806010B145F4DD
:103EC000005508E007F4006010B145F4804502E0B9
:103ED000204600F0FFFA07F48030C8B14FF480307C
:103EE0002168886007F4003018B1204600F00EFB0E
:103EF0000EE007F4802010B145F4004508E007F417
:103F0000002010B145F4803502E0204600F0FCFAB4
:103F100006F0080038B10AF0100020B145F4007531
:103F200010202168C86006F0040040B10AF00800C3
:103F300028B108202168C860204600F02EFA06F05B
:103F4000020038B12068C06800F0030010B12046BC
:103F500000F024FA06F0400038B10BF0100020B158
:103F600045F4806510202168086106F0200040B10A
:103F70000BF0080028B1082021680861204600F0F5
:103F800035FA06F0100038B12068006900F003002F
:103F900010B1204600F02CFA06F4003040B109F0D0
:103FA000100028B1102021684860204600F048FA2F
:103FB00006F4803040B109F0080028B108202168DB
:103FC0004860204600F0BAFA06F4004088B309F0D1
:103FD000040078B306F4807020B108F0010008B145
:103FE00045F0010506F4007020B108F0020008B1A8
:103FF00045F0020506F4806020B108F0040008B125
:1040000045F0040506F40060A0B108F0700088B126
:1040100008F07000402817D006DC10280BD02028AC
:104020000CD0302819D10CE0502810D0602814D1C1
:1040300010E01DE019E045F008050FE045F010051F
:104040000CE045F0200509E045F0400506E045F0AC
:10405000800503E045F4807500E000BF00BF2068E4
:10406000806920F070002168886104202168486020
:104070002DB1606A284360622046FFF7FDFDBDE870
:10408000F09F70B504460CB9012070BD94F8200073
:1040900010B9204600F0B0F82068006820F0020057
:1040A0002168086000F0E2FD05460DE000F0DEFD4D
:1040B000401B0A2808D9606A40F40030606205207D
:1040C00084F820000120E0E72068406800F002004A
:1040D0000028EBD12068006840F0010021680860EA
:1040E00000F0C4FD05460DE000F0C0FD401B0A28AD
:1040F00008D9606A40F400306062052084F820002E
:104100000120C2E72068406800F001000028EBD0E1
:10411000207E012806D12068006840F080002168D8
:10412000086005E02068006820F0800021680860D1
:10413000607E012806D12068006840F040002168B8
:10414000086005E02068006820F0400021680860F1
:10415000A07E012806D12068006840F02000216878
:10416000086005E02068006820F0200021680860F1
:10417000E07E012806D12068006820F01000216848
:10418000086005E02068006840F0100021680860C1
:10419000207F012806D12068006840F008002168CF
:1041A000086005E02068006820F0080021680860C9
:1041B000607F012806D12068006840F00400216873
:1041C000086005E02068006820F0040021680860AD
:1041D000D4E9020108432169084361690843616821
:1041E000491E08432168C86100206062012084F8EC
:1041F0002000002049E7000010B586B004461421D5
:1042000001A8FCF7FDF856492068884249D1554875
:104210000068401C534908600846006801280FD117
:1042200000BF002000905048006840F000704E49E8
:1042300008600846006800F00070009000BF00BFF2
:1042400000BF0020009048481038006840F0080087
:104250004549103908600846006800F008000090E1
:1042600000BF00BF032001900220029000200390B5
:10427000032004900920059001A93C4800F0E6FBCA
:1042800000220521132001F019F9132001F006F98D
:1042900000220521142001F011F9142001F0FEF88C
:1042A0005CE033492068884258D100BF002000906C
:1042B0002D48006840F080602B490860084600687F
:1042C00000F08060009000BF00BF26480068401CDE
:1042D000244908600846006801280FD100BF00206B
:1042E00000902148006840F000701F4908600846AF
:1042F000006800F00070009000BF00BF00BF002009
:10430000009019481038006840F002001649103932
:1043100008600846006800F00200009000BF00BF7F
:10432000602001900220029000200390032004905E
:104330000920059001A90F4800F088FB0022052103
:104340003F2001F0BBF83F2001F0A8F80022052132
:10435000402001F0B3F8402001F0A0F806B010BDF5
:10436000006400400400002040380240000C02407D
:1043700000680040000402400146002091F820201F
:10438000012A01D0022A02D100234B6204E04B6AC9
:1043900043F480234B6201207047704730B589B0E9
:1043A00005466B4602AA00212846FFF76BFC002455
:1043B00016E00D4850F8240000680068296888421B
:1043C0000CD1094850F82400806A38B1064951F8E8
:1043D0002410069A02988B6A69469847601CC4B2FA
:1043E000022CE6DB09B030BD9400002070470000CD
:1043F00030B589B005466B4602AA00212846FFF772
:1044000041FC002416E00D4850F8240000680068C4
:10441000296888420CD1094850F82400806A38B1D4
:10442000064951F82410069A02988B6A6946984703
:10443000601CC4B2022CE6DB09B030BD9400002041
:10444000704770B5044694F82000012822D102205C
:1044500084F820002068006820F0010021680860CE
:1044600000F004FC05460DE000F000FC401B0A28AB
:1044700008D9606A40F400306062052084F82000AA
:10448000012070BD2068406800F001000028EBD1D9
:104490006062F6E7606A40F4002060620120F0E7A5
:1044A0007047000070B5054600240EE0084850F83B
:1044B0002400006800682968884204D1044951F842
:1044C0002400FDF737FC601CC4B2022CEEDB70BD8B
:1044D000940000207047000070B5054600240EE0EF
:1044E000084850F82400006800682968884204D110
:1044F000044951F82400FDF71DFC601CC4B2022CD5
:10450000EEDB70BD940000207047000070B50546DA
:1045100000240EE0084850F824000068006829686C
:10452000884204D1044951F82400FDF703FC601CC3
:10453000C4B2022CEEDB70BD94000020704770B551
:104540000446A56D00F092FB064694F8350002285B
:1045500008D08020606500BF002084F8340000BFD0
:10456000012070BD2068006820F0160021680860F6
:104570002068406920F0800021684861206C08B9FB
:10458000A06C28B12068006820F00800216808604D
:104590002068006820F00100216808600FE000F04A
:1045A00065FB801B05280AD92020606500BF00201C
:1045B00084F8340000BF032084F83500D1E7206878
:1045C000006800F001000028E9D194F85C103F2059
:1045D0008840A86000BF002084F8340000BF01209C
:1045E00084F835000020BCE7014691F83500022828
:1045F00003D08020486501207047052081F83500F0
:104600000868006820F001000A6810600020F3E7E5
:10461000F8B50446002000908C4800684FF416510D
:10462000B0FBF1F7A56D2E6894F85C100820884067
:10463000304098B12068006800F0040070B1206834
:10464000006820F004002168086094F85C100820DD
:104650008840A860606D40F00100606594F85C10CF
:1046600001208840304068B12068406900F0800037
:1046700040B194F85C1001208840A860606D40F063
:104680000200606594F85C1004208840304068B1F6
:104690002068006800F0020040B194F85C1004202B
:1046A0008840A860606D40F00400606594F85C107C
:1046B00010208840304078B32068006800F008007F
:1046C00050B394F85C1010208840A86020680068FF
:1046D00000F4802080B12068006800F4002028B930
:1046E000206CC8B12046216C884715E0A06C98B1B9
:1046F0002046A16C88470FE02068006800F48070B5
:1047000028B92068006820F0080021680860206C43
:1047100010B12046216C884794F85C102020884016
:104720003040002865D02068006800F010000028A4
:104730005FD094F85C1020208840A86094F8350081
:10474000052828D12068006820F01600216808603C
:104750002068406920F0800021684861206C08B919
:10476000A06C28B12068006820F00800216808606B
:1047700094F85C103F208840A86000BF002084F8B7
:10478000340000BF012084F83500206D10B12046B0
:10479000216D8847F8BD2068006800F4802080B152
:1047A0002068006800F4002028B9606C10B1204631
:1047B000616C88471DE0E06BD8B12046E16B88470B
:1047C00017E02068006800F4807068B9206800680D
:1047D00020F010002168086000BF002084F8340039
:1047E00000BF012084F83500E06B10B12046E16B7A
:1047F0008847606D38B3606D00F00100F0B10520AE
:1048000084F835002068006820F001002168086005
:1048100000BF0098401C0090B84200D905E0206815
:10482000006800F001000028F3D100BF00BF0020A5
:1048300084F8340000BF012084F83500E06C10B12A
:104840002046E16C884700BFA4E700001400002068
:104850002DE9F0410446002500F008FA074614B996
:104860000120BDE8F081606A00B100BF00BF0020F8
:1048700084F8340000BF022084F835002068006806
:1048800020F00100216808600AE000F0EFF9C01B89
:10489000052805D920206065032084F83500E0E76D
:1048A0002068006800F001000028EED1206805684B
:1048B00021480540D4E901010843E1680843216922
:1048C000084361690843A1690843E1690843216A13
:1048D00008430543606A042803D1D4E90B01084367
:1048E0000543206805602068456925F00705606A72
:1048F0000543606A04280DD1A06A0543E06A48B107
:104900002046FEF7D7F928B140206065012084F8E1
:104910003500A6E7206845612046FEF7B1F9064656
:1049200094F85C103F208840B06000206065012052
:1049300084F83500002094E73F8010F02DE9F0471F
:1049400004460D4616461F464FF00008D4F858900E
:1049500000BF94F83400012802D10220BDE8F0879E
:10496000012084F8340000BF94F83500012825D1D7
:10497000022084F83500002060653B463246294617
:104980002046FEF7ECF994F85C103F208840C9F807
:1049900008002068006840F0160021680860206C5C
:1049A00028B12068006840F008002168086020688D
:1049B000006840F001002168086006E000BF0020A8
:1049C00084F8340000BF4FF002084046C6E70000FC
:1049D00070B5044600F04AF906462546681C10B139
:1049E00004480078054400BF00F040F9801BA8424D
:1049F000FAD370BD1000002070B50546002412E007
:104A00000A4850F824004068A8420AD1074850F8E4
:104A10002400007A052804D1044951F82410C868FC
:104A20008047601CC4B20A2CEADB70BD204D002018
:104A300010B5044604480068204020B102480460D4
:104A40002046FFF7D9FF10BD143C0140F8B50246DF
:104A50000B460025002400200021DEE0012606FA96
:104A600001F51E6806EA0504AC4275D11E7906F010
:104A70000306012E04D01E7906F00306022E13D180
:104A800090684F000326BE40B0434F00DE68BE4032
:104A900030439060506801268E40B0431E79C6F3C3
:104AA00000168E40304350601E7906F00306032E38
:104AB00009D0D0684F000326BE40B0434F009E6827
:104AC000BE403043D0601E7906F00306022E13D19B
:104AD000CF0802F1200656F827004E07F70E0F26E2
:104AE000BE40B0434F07FF0E1E69BE403043CF08A3
:104AF00002F1200646F8270010684F000326BE404A
:104B0000B0431E7906F003064F00BE4030431060EC
:104B10005E6806F08056B6F1805F7DD100BF00264A
:104B20000096404E366846F480463E4F3E603E4614
:104B3000366806F48046009600BF00BF3A4E8F08E4
:104B400056F827008E07370F0F26BE40B043374E6A
:104B5000B24202D1002624E05EE0354EB24201D1DD
:104B600001261EE0334EB24201D1022619E0324E38
:104B7000B24201D1032614E0304EB24201D10426E4
:104B80000FE02F4EB24201D105260AE02D4EB2426F
:104B900001D1062605E02C4EB24201D1072600E0E5
:104BA00008268F073F0FBE4030431F4E8F0846F840
:104BB0002700264E3068A0435E6806F48036B6F5BE
:104BC000803F00D12043214E3060361D3068A04325
:104BD0005E6806F40036B6F5003F00D120431B4E58
:104BE000361D3060361D3068A0435E6806F48016BE
:104BF000B6F5801F00D12043144E08363060361DB4
:104C00003068A0435E6806F40016B6F5001F00D1B8
:104C100020430E4E0C363060491C1029FFF41EAFA5
:104C2000F8BD00004438024008380140000002404E
:104C30000004024000080240000C02400010024044
:104C40000014024000180240001C0240003C0140D9
:104C5000024613690B400BB1012000E000207047B1
:104C60000AB1816101E00B0483617047014800686B
:104C7000704700000800002070B504460CB9012000
:104C800070BD94F83D0028B9002084F83C0020460F
:104C900000F006FB242084F83D002068006820F026
:104CA0000100216808602068006840F40040216825
:104CB00008602068006820F400402168086000F067
:104CC00039FD05465C496068884206D85B488542E4
:104CD00001D2012007E0002005E05948854201D2B9
:104CE000012000E00020012800D1C9E75548B5FBAC
:104CF000F0F62068406820F03F00304321684860AB
:104D00004D496068884201D8701C07E04FF49670E6
:104D100070434FF47A71B0FBF1F0401C2168096ACE
:104D200021F03F01084321680862434960688842D6
:104D300014D8681E61684900B0FBF1F0401CC0F354
:104D40000B00042801D204203DE0681E6168490080
:104D5000B0FBF1F0401CC0F30B0034E0A06838B9A0
:104D6000681E616801EB4101B0FBF1F0401C0AE0F4
:104D7000681E616801EBC10202EB0111B0FBF1F0AA
:104D8000401C40F48040C0F30B0008B901201AE039
:104D9000A06848B9681E616801EB4101B0FBF1F001
:104DA000401CC0F30B000CE0681E616801EBC102FF
:104DB00002EB0111B0FBF1F0401CC0F30B0040F41A
:104DC000804040F400402168C9694CF6FF7291436D
:104DD00008432168C861D4E90701084321680968CC
:104DE00021F0C001084321680860D4E9031008439A
:104DF0002168896848F2FF3291430843216888603E
:104E0000D4E9050108432168C96821F0FF0108437E
:104E10002168C8602068006840F0010021680860CF
:104E200000202064202084F83D000020206384F8C6
:104E30003E0000BF24E70000A086010080841E0021
:104E400000093D0040420F002DE9FC5F04460F467B
:104E500090469946DDE90CAB0E9EFFF707FF05462D
:104E600094F83D00202870D119230122B049204632
:104E7000009502F0C5FA10B10220BDE8FC9F00BF0A
:104E800094F83C00012801D10220F6E7012084F8C3
:104E90003C0000BF2068006800F0010028B92068CD
:104EA000006840F00100216808602068006820F474
:104EB000006021680860222084F83D00402084F8CA
:104EC0003E0000202064C4F824A0A4F82AB0608D1D
:104ED00020859848E0624B46424639462046CDE957
:104EE000006502F03FF908B10120C6E7208D88B9BE
:104EF00000BF00200190206840690190206880690F
:104F0000019000BF00BF2068006840F40070216875
:104F1000086040E0208D012818D12068006820F446
:104F200080602168086000BF00200190206840690F
:104F3000019020688069019000BF00BF2068006870
:104F400040F400702168086025E0EFE0208D022821
:104F500016D12068006820F480602168086020680D
:104F6000006840F400602168086000BF00200190E4
:104F700020684069019020688069019000BF0AE0C4
:104F800000BF00200190206840690190206880697E
:104F9000019000BF00BFBAE0208D03287ED8208D8D
:104FA000012815D12A463146204602F0CEFA08B132
:104FB000012062E720680069616A0870606A401C2D
:104FC0006062208D401E2085608D401E60859EE0C1
:104FD000208D02282AD133460022574920460095C9
:104FE00002F00EFA08B1012047E72068006840F49B
:104FF00000702168086020680069616A0870606A52
:10500000401C6062208D401E2085608D401E6085A2
:1050100020680069616A0870606A401C6062208DC7
:10502000401E2085608D401E608570E03346002262
:1050300041492046009502F0E3F908B101201CE740
:105040002068006820F4806021680860206800699A
:10505000616A0870606A401C6062208D401E208575
:10506000608D401E608533460022334920460095FE
:1050700002F0C6F908B10120FFE62068006840F49C
:1050800000702168086020680069616A0870606AC1
:10509000401C6062208D401E208500E010E0608D85
:1050A000401E608520680069616A0870606A401C63
:1050B0006062208D401E2085608D401E608526E048
:1050C0002A463146204602F040FA08B10120D4E6D3
:1050D00020680069616A0870606A401C6062208D07
:1050E000401E2085608D401E608520684069C0F3A9
:1050F000800060B120680069616A0870606A401CC5
:105100006062208D401E2085608D401E6085208D50
:1051100000287FF441AF202084F83D00002084F86F
:105120003E0000BF84F83C0000BFA6E60220A4E6D3
:10513000020010000000FFFF040001002DE9FC5FE9
:1051400004460F4690469946DDE90CAB0E9EFFF7EC
:105150008DFD054694F83D0020287DD119230122BC
:105160004D492046009502F04BF910B10220BDE8F0
:10517000FC9F00BF94F83C00012801D10220F6E713
:10518000012084F83C0000BF2068006800F00100A6
:1051900028B92068006840F0010021680860206894
:1051A000006820F4006021680860212084F83D0038
:1051B000402084F83E0000202064C4F824A0A4F815
:1051C0002AB0608D20853548E0624B46424639461C
:1051D0002046CDE9006502F075F808B10120C6E768
:1051E00031E02A463146204602F0EFF950B1206CFA
:1051F000042805D12068006840F400702168086028
:105200000120B4E7606A007821680861606A401C88
:105210006062208D401E2085608D401E6085206864
:105220004069C0F3800070B1208D60B1606A007881
:1052300021680861606A401C6062208D401E2085E4
:10524000608D401E6085208D0028CAD12A463146D7
:10525000204602F0A7F800E01CE050B1206C0428C2
:1052600005D12068006840F40070216808600120C2
:105270007DE72068006840F4007021680860202005
:1052800084F83D00002084F83E0000BF84F83C0014
:1052900000BF6CE702206AE7020010000000FFFF79
:1052A00010B586B00446142101A8FBF7A9F82A49D5
:1052B000206888424DD100BF002000902748006838
:1052C00040F00400254908600846006800F004002A
:1052D000009000BF00BF00BF00200090084600689B
:1052E00040F0010008600846006800F001000090EE
:1052F00000BF00BF481501901220029001200390CA
:10530000032004900420059001A91548FFF79EFB97
:105310004FF480700190122002900120039003202E
:1053200004900420059001A90E48FFF78FFB00BFF1
:105330000020009009481030006840F40000074940
:10534000103108600846006800F40000009000BFBB
:1053500000BF06B010BD0000005C004030380240C5
:105360000008024000000240034800680349097831
:105370000844014908607047080000201000002020
:1053800010B50D48006840F400700B4908600846ED
:10539000006840F4806008600846006840F480704F
:1053A0000860032000F0C8F8002000F007F800F0C3
:1053B0004BF8002010BD0000003C024070B588B0E2
:1053C00004460025002600222146362000F076F80B
:1053D000362000F063F800BF0020019016480068F6
:1053E00040F01000144908600846006800F0100002
:1053F000019000BF00BF02A903A800F073F900F0FC
:1054000099F945000D48B5FBF0F0461E0C480D49D2
:10541000086040F2E7310B48C1604660002101613D
:10542000816000F085FE20B9064800F015FF08B045
:1054300070BD0120FBE700004038024040420F00F1
:1054400000100040C00E002008B500BF00200090F2
:105450001148006840F480400F4908600846006821
:1054600000F48040009000BF00BF00BF002000900B
:10547000081F006840F08050091F08600846006857
:1054800000F08050009000BF00BF00220F21901E4E
:1054900000F014F808BD00004438024001460846F8
:1054A000002809DB00F01F0301229A4043099B00FA
:1054B00003F1E023C3F8002100BF70472DE9F05F3E
:1054C00080460D461646002705F026FB074639465E
:1054D0002A46334601F00700C0F1070ABAF1040F6B
:1054E00002D94FF0040A01E0C0F1070AD14600F1E9
:1054F000040ABAF1070F02D24FF0000A01E0A0F14E
:10550000030AD4464FF0010A0AFA09FAAAF1010A7D
:105510000AEA020A0AFA0CFA4FF0010B0BFA0CFB2A
:10552000ABF1010B0BEA030B4AEA0B0421464046A0
:1055300005F0FAFABDE8F09F00BF00F00702064B45
:1055400019684FF6FF031940044B0B4343EA02214D
:10555000014B196000BF70470CED00E00000FA0538
:1055600070B504460D460CB9012070BD584800685E
:1055700000F00700A84209D255490D70084600689E
:1055800000F00700A84201D00120EEE7207800F0EB
:10559000020002281DD1207800F00400042805D163
:1055A0004C48006840F4E0504A490860207800F018
:1055B0000800082805D14748006840F46040454984
:1055C00008604448006820F0F000A16808434149A1
:1055D0000860207800F00100A8B36068012807D1B6
:1055E0003C4808380068C0F34040B8B90120BCE727
:1055F0006068022802D06068032807D1354808385F
:105600000068C0F3406048B90120AEE7314808386F
:105610000068C0F3400008B90120A6E72D480068E3
:1056200020F00300616808432A490860FFF71EFB69
:10563000064609E0FFF71AFB801B41F288318842D9
:1056400002D9032091E707E02248006800F00C002F
:105650006168B0EB810FEDD11D48006800F00700D4
:10566000A84209D91A490D700846006800F00700E1
:10567000A84201D0012078E7207800F00400042837
:1056800007D11448006820F4E050E168084311494C
:105690000860207800F00800082808D10D4800684C
:1056A00020F46040216940EAC1000A49086000F026
:1056B00061F808490968C1F30311074A515CC84001
:1056C0000649086006480068FFF778FE00204CE7AE
:1056D000003C024008380240C805010814000020C0
:1056E0000C0000200F2202600D4A126802F0030233
:1056F00042600B4A126802F0F0028260084A1268A7
:1057000002F4E052C260064A126802F46042D20813
:105710000261044A126802F007020A607047000042
:1057200008380240003C0240014800687047000011
:105730001400002000B5FFF7F7FF04490968C1F322
:105740008221034A515CC84000BD00000838024075
:10575000D805010800B5FFF7E7FF04490968C1F360
:105760004231034A515CC84000BD00000838024085
:10577000D80501082DE9F047002400250026A146A0
:105780002548006800F00C0020B1042805D0082846
:105790003AD105E0DFF8849039E0DFF8849036E014
:1057A0001D48001F006800F03F041B48001F0068F0
:1057B00000F4800078B11A481749091F0968C1F33D
:1057C0008811A0FB01700146224600233846FAF7F3
:1057D000CDFD05460EE011480F49091F0968C1F3C8
:1057E0008811A0FB01700146224600233846FAF7D3
:1057F000BDFD05460848001F0068C0F30140401C7D
:105800004600B5FBF6F902E0DFF8109000BF00BFDC
:105810004846BDE8F0870000083802400024F40044
:10582000001BB700F8B504460CB90120F8BD20787C
:1058300000F00100002874D0F948006800F00C0066
:1058400004280DD0F648006800F00C00082813D199
:10585000F348001F006800F48000B0F5800F0BD102
:10586000EF4808380068C0F34040002859D060680D
:10587000002856D10120D9E700BF6068B0F5803F0D
:1058800008D1E7480838006840F48030E449083916
:1058900008601EE06068B0F5A02F0DD1E048083820
:1058A000006840F48020DE49083908600846006836
:1058B00040F4803008600CE0D9480838006820F4D3
:1058C0008030D749083908600846006820F48020F5
:1058D000086000BF606890B1FFF7C8F9054606E0B0
:1058E000FFF7C4F9401B642801D903209EE7CC4888
:1058F00008380068C0F340400028F1D011E0FFF7FD
:10590000B5F9054606E0FFF7B1F9401B642801D957
:1059100003208BE7C24808380068C0F340400028E5
:10592000F1D1207800F0020002285FD1BC48006865
:1059300000F00C0058B1BA48006800F00C000828CC
:105940001CD1B748001F006800F48000B0B9B4480B
:1059500008380068C0F3400020B1E068012801D099
:10596000012063E7AE480838006820F0F80021699C
:1059700040EAC100AA490839086037E0E06800B38E
:105980000120A8490860FFF771F9054606E0FFF716
:105990006DF9401B022801D9032047E7A0480838C9
:1059A0000068C0F340000028F1D09D480838006826
:1059B00020F0F800216940EAC100994908390860DF
:1059C00014E0002097490860FFF750F9054606E00B
:1059D000FFF74CF9401B022801D9032026E7904825
:1059E00008380068C0F340000028F1D1207800F0AA
:1059F000080008282CD16069A8B101208A490860F4
:105A0000FFF734F9054606E0FFF730F9401B02289E
:105A100001D903200AE782486C300068C0F34000D7
:105A20000028F1D014E000207F490860FFF71EF93C
:105A3000054606E0FFF71AF9401B022801D90320AA
:105A4000F4E677486C300068C0F340000028F1D1DC
:105A5000207800F00400042870D100277048383006
:105A6000006800F0805090B900BF002000906C48A2
:105A70003830006840F08050694938310860084685
:105A8000006800F08050009000BF00BF0127674809
:105A9000006800F48070B0B96448006840F4807019
:105AA00062490860FFF7E2F8054606E0FFF7DEF816
:105AB000401B022801D90320B8E65C48006800F4C6
:105AC00080700028F2D000BFA068012808D1544897
:105AD0006830006840F001005149683108601DE0FD
