:020000040800F2
:1000000018AA00205D020008479500081F7A000822
:10001000BD9300084D1D000841B20008000000001B
:100020000000000000000000000000009D0100082A
:100030005332000800000000F901000841A7000841
:1000400077020008770200087702000877020008AC
:10005000770200087702000877020008770200089C
:1000600077020008A5330008AF33000877020008C4
:10007000F9300008770200087702000877020008CC
:10008000770200087702000877020008391E00088E
:100090006D1D00087702000877020008B9330008D8
:1000A000770200087702000877020008770200084C
:1000B000770200087702000877020008770200083C
:1000C000770200087702000877020008770200082C
:1000D00077020008D9B1000877020008EDB10008E6
:1000E000770200087702000877020008770200080C
:1000F00077020008770200087702000877020008FC
:1001000077020008770200087702000877020008EB
:10011000770200087702000845A800087702000867
:10012000770200080931000877020008770200080A
:10013000770200087702000877020008811F000894
:10014000811E000877020008770200087702000885
:1001500019310008293100083931000801B20008BE
:10016000770200087702000877020008770200088B
:1001700077020008770200087702000800000000FC
:100180007702000877020008DFF80CD000F002FCCC
:100190000048004747DC000818AA00202C4B1968CB
:1001A0000868B0E8F04F80F30988BFF36F8F4FF015
:1001B000000080F3118870470000000008480068C4
:1001C000006880F308884FF0000080F3148862B65E
:1001D00061B6BFF34F8FBFF36F8F00DF00BF00BF6B
:1001E00008ED00E0DFF80C00016841F470010160E7
:1001F000704700BF88ED00E0EFF30980BFF36F8F19
:10020000134B1A681EF0100F08BF20ED108A20E96A
:10021000F04F106009B44FF0500080F31188BFF325
:100220004F8FBFF36F8F0EF01BFF4FF0000080F376
:10023000118809BC19680868B0E8F04F1EF0100F6B
:1002400008BFB0EC108A80F30988BFF36F8F704746
:1002500018000020EFF30580704700000648804733
:1002600006480047FEE7FEE7FEE7FEE7FEE7FEE79B
:10027000FEE7FEE7FEE7FEE729A80008890100087F
:100280009FED1A1AF5EE000A40EE010ABDEEE00AF3
:10029000F5EEC00A10EE100AF1EE10FA38BF401E5B
:1002A00000EE100A1349F7EE001AB8EEC00A30EE5D
:1002B000C00ADFED0F0A20EE200AFCEEC00A10EEA5
:1002C000900AC0F3080000EE900A01EB8000F8EEFF
:1002D000600A90ED011A70EE600A90ED000A71EE6E
:1002E000E01A21EE800A00EE810A704783F9223E6F
:1002F00000000044DCFA0008DFED190AB5EEC00A80
:1003000060EE200ABDEEE01A11EE100AF1EE10FACE
:1003100038BF401E00EE100A1349F7EE001AB8EE7F
:10032000C00A30EEC00ADFED0F0A60EE200ABCEE14
:10033000E00A10EE100AC0F3080000EE100A01EB0C
:100340008000B8EE400A90ED011A70EEC00A90ED00
:10035000000A71EEE01A21EE800A00EE810A704771
:1003600083F9223E00000044DCFA00082DE9F05F2A
:100370000546002092469B46884606468146402414
:100380001BE0284641464746224600F04CFA5346B9
:100390005A46C01A914110D311461846224600F021
:1003A00033FA2D1A67EB01084F462246012000213F
:1003B00000F02AFA17EB00094E41201EA4F10104B7
:1003C000DFDC484631462A464346BDE8F09F40EA16
:1003D00001039B0703D009E008C9121F08C0042AC3
:1003E000FAD203E011F8013B00F8013B521EF9D2AA
:1003F0007047D2B201E000F8012B491EFBD27047D2
:100400000022F6E710B513460A4604461946FFF7E0
:10041000F0FF204610BD2DE9FE4F804681EA030023
:10042000C00F0C46009021F0004123F00045B8EBCE
:100430000200A94105D24046214690461C460B4683
:10044000024623F00040104347D0270DC7F30A00AF
:10045000C3F30A510290401A019040286BDAC3F3AB
:10046000130040F4801B0098924620B10023D2EB89
:10047000030A63EB0B0B01985946C0F1400250464A
:1004800000F0C2F906460D4650465946019A00F062
:10049000DAF910EB08006141002487EA115284EA7E
:1004A000E7731A4340D0009A62B3019A012A4FEAD7
:1004B000075215DC001B61EB02014FF0004202EA1B
:1004C0000752CDE90042001C41F5801132462B460F
:1004D00000F011FA03B0BDE8F08F40462146F9E77D
:1004E000001B61EB0201001C41F5801300185B4109
:1004F0002018A2F5001747EB030140EAD570B619A2
:100500006D4111E06D084FEA360645EAC0754FEAC5
:100510000752001B61EB0201001C41F580114908E4
:100520004FEA30000019514132462B4603B0BDE876
:10053000F04F00F0D1B90098012240000023D0EB29
:10054000020263EBE073009821464FEAE074B8EBD7
:10055000000061EB0401E9E783F000435BE781F011
:10056000004158E72DE9FE4F81EA030404F00044FE
:1005700021F0004100944FF0000B23F0004350EABB
:1005800001045ED052EA03045BD0C3F30A54C1F302
:100590000A552C44A4F2F3340194A0FB0254C1F395
:1005A000130141F48011C3F3130343F4801301FBDF
:1005B000024400FB034E840A970A44EA815447EA46
:1005C0008357A4FB076802958D0A05FB07854FEA50
:1005D000932C04FB0C542705029D4FEA065847EA6A
:1005E0001637B5EB08056EEB070C870E920E47EA3F
:1005F000811742EA8312A7FB0201B6EB0B0164EB01
:1006000000042B0D43EA0C335E1844EB1C50DA4611
:100610005146E7FB0201C5F313044FEA0B3343EAEB
:1006200014534FEA0432019C43EA0603A4F10C047C
:100630000294009CCDE900B400F05DF903B0BDE880
:10064000F08F00200146F9E72DE9F04D81EA03041F
:1006500004F0004B21F0004514464FF0000A23F04F
:10066000004150EA050220D054EA01021DD0C5F332
:100670000A570246C5F31303C1F31300C1F30A5628
:1006800040F4801543F48013A7EB0608101BD646F0
:1006900008F2FD3873EB050002D308F1010801E010
:1006A00092185B41B8F1000F03DA00200146BDE863
:1006B000F08D00204FF48011064684460EE0171B93
:1006C00073EB050705D3121B63EB050306434CEAE6
:1006D000010C49084FEA300092185B4150EA0107CB
:1006E000EDD152EA030012D082EA040083EA050148
:1006F000084305D0101BAB4106D20122002306E0BF
:1007000000224FF0004302E06FF0010253101AEB99
:1007100006004CEB085110EB0A0041EB0B01BDE861
:10072000F04D00F0D9B80EB5C10F80EAE070084472
:10073000CA07002140F233438DE80E000A460B46FB
:1007400000F0D9F803B000BD00F0004230F00040E6
:100750000AD0C10D01F56071C0F3160042EA0151E3
:10076000C20840071143704700200146704700004F
:1007700030B5041E71F1000404DB4FF00044404228
:1007800064EB0101141E73F1000405DB1C464FF0FD
:100790000043524263EB04038B4208BF824230BDE8
:1007A00030B5041E71F1000404DB4FF000444042F8
:1007B00064EB0101141E73F1000405DB1C464FF0CD
:1007C0000043524263EB0403994208BF904230BD9C
:1007D00001F0004330B421F0004150EA010206D09C
:1007E0000A0DA2F56072C1F31301002A02DC30BCCD
:1007F00000207047440F44EAC104C100E01830BC37
:1008000000EBC25000F031B8202A04DB203A00FA95
:1008100002F1002070479140C2F1200320FA03F357
:10082000194390407047202A04DB203A21FA02F055
:100830000021704721FA02F3D040C2F1200291401A
:10084000084319467047202A06DBCB17203A41FAA5
:1008500002F043EAE07306E041FA02F3D040C2F14D
:10086000200291400843194670470029A8BF7047ED
:10087000401C490008BF20F00100704710B4B0FAD6
:1008800080FC00FA0CF050EA010404BF10BC704771
:1008900049B1CCF1200421FA04F411FA0CF118BF8B
:1008A000012121430843A3EB0C01CB1D4FEA00615A
:1008B0004FEA102042BF002010BC704700EBC3502D
:1008C00010440029A4BF10BC7047401C490008BF59
:1008D00020F0010010BC704710B5141E73F1000425
:1008E00008DA401C41F1000192185B411A4301D122
:1008F00020F0010010BD2DE9F04D92469B4611B14C
:10090000B1FA81F202E0B0FA80F220329046FFF7AD
:100910007BFF04460F4640EA0A0041EA0B015346BA
:100920005A46084313D0114653EA010019D0C8F1C2
:1009300040025046FFF777FF05460E46504659469F
:100940004246FFF761FF084305D0012004E020463E
:100950003946BDE8F08D0020054346EAE0762C4399
:1009600037430A986305E40AA0EB08000022FD0A59
:1009700044EA47540A3002D500200146E9E7010560
:1009800010196941DDE9084500196941BDE8F04DDC
:10099000A2E70000064C074D06E0E06840F00103C6
:1009A00094E8070098471034AC42F6D3FFF7F0FB09
:1009B00034050108540501080EB540F23341029197
:1009C0000021CDE900110A460B46FFF794FF03B062
:1009D00000BD70B5C1F30A5201F000450024C1F317
:1009E000130140F2FF3341F480119A4201DA0020F2
:1009F00070BD40F233439A42A2F2334203DC5242CA
:100A0000FFF711FF00E090402C43F1D0404270BD51
:100A100070B58C1810F8015B15F0070301D110F8C0
:100A2000013B2A1106D110F8012B03E010F8016BED
:100A300001F8016B5B1EF9D12B0705D40023521E70
:100A40000DD401F8013BFAE710F8013BCB1A921CD8
:100A500003E013F8015B01F8015B521EF9D5A142D6
:100A6000D8D3002070BD10B52DED028BB0EE408ABA
:100A7000B0EE480A0AF016FDBDEC028B10BD10B5B1
:100A80002DED028BB0EE408AF0EE608AF0EE680A3F
:100A9000B0EE480A0BF000F8BDEC028B10BD10B5AB
:100AA0002DED028BB0EE408AB0EE480AFFF7E8FB6E
:100AB000BDEC028B10BDF0EE400AF5EEC00AF1EE7F
:100AC00010FA02DDB0EE600A7047B1EE600AFBE793
:100AD00018B19FED020A80ED000A70470000000087
:100AE00018B19FED020A80ED000A704700001E4217
:100AF00070B52DED0C8B84B006460C4615469FED67
:100B0000990AF0EE408A9FED970AB0EE409A9FED69
:100B1000950AF0EE40BA9FED930AF0EE409A9FEDF1
:100B2000910AB0EE40AA0EB104B11DB904B0BDECFB
:100B30000C8B70BD8C48FFF7CBFF8C48FFF7D0FFC4
:100B40008A48D0ED000A9FED8A1A60EE810AB0EE65
:100B5000600A00F02DF9F0EE408A28EEA80AF0EEC7
:100B6000408A8248D0ED000AB0EE001A60EE810A99
:100B70009FED7F1A60EE810AB0EE600A00F018F96E
:100B8000B0EE409A29EE090AB0EE409ADFED790AFC
:100B9000B7EE000A00EEA80ADFED770A00EEC90AF8
:100BA000DFED760A20EE200A754880ED000A6E48D7
:100BB00090ED000ADFED730A80EE201AB7EE000A0E
:100BC00031EE000A20EE000A6D48D0ED000A80EEFA
:100BD000801A6D4880ED001A94ED000AB5EEC00A47
:100BE000F1EE10FA0DD194ED010AB5EEC00AF1EE66
:100BF00010FA06D194ED020AB5EEC00AF1EE10FA31
:100C000046D09FED580AB0EE408A00200190029035
:100C10000390D4ED000A60EEA00A94ED011AD4ED21
:100C2000011A41EE210A94ED021AD4ED021A41EEA6
:100C3000210AB0EE600A00F0A9F8B0EE408A94ED07
:100C4000000A20EE080A8DED010A94ED010A20EE5B
:100C5000080A8DED020A94ED020A20EE080A8DEDD5
:100C6000030ADDED010AF1EE600AB0EE600AFFF75B
:100C7000FAFEF0EE409A9DED031AF0EE410A9DED6A
:100C8000021AB0EE410AFFF7FAFEB0EE40AA07E002
:100C90009FED340AF0EE409A9FED320AB0EE40AA82
:100CA00095ED000AB5EEC00AF1EE10FA0DD195ED02
:100CB000010AB5EEC00AF1EE10FA06D195ED020A6E
:100CC000B5EEC00AF1EE10FA3CD0B0EE690A00F0C1
:100CD0006FF8B0EE408AB0EE690AFFF7E0FEB0EEC2
:100CE00040DAB0EE4A0A00F063F8F0EE40AAB0EE47
:100CF0004A0AFFF7D4FEB0EE40BA28EE2A0AD5ED34
:100D0000010A20EE200AD5ED000A0DEE200A68EE59
:100D10000B0A95ED021A00EE810AB0EE40CA95ED7D
:100D2000010A20EE0B0AD5ED020A0AEEE00AF0EE07
:100D300040CAF0EE6C0AB0EE4C0AFFF7A0FEF0EEEF
:100D400040BA03E09FED070AF0EE40BAB0EE4A1A4F
:100D5000F0EE690AB0EE6B0A30460BF001FF00BFFF
:100D6000E4E6000000000000E8020020EC020020A1
:100D700035FA8E3CC1BFAD3B9DF8C5362F7C1C417A
:100D8000F0020020506CC24AF402002010B52DED94
:100D9000028BB0EE408AB0EE480A0BF079F8B7EE5D
:100DA000001AC1EE000AB0EE600ABDEC028B10BD65
:100DB00010B52DED028BB0EE408AB0EE480AFFF779
:100DC0009BFABDEC028B10BD2DE9F0412DED028B9D
:100DD0009AB00546B0EE408A0E4617469846002067
:100DE0001790189019901490159016904DB146B127
:100DF0003FB1B8F1000F04D0B5EEC08AF1EE10FAA1
:100E000005D100201AB0BDEC028BBDE8F08196ED53
:100E1000000A8DED170A96ED010A8DED180A96ED80
:100E2000020A8DED190A97ED000A8DED140A97ED6F
:100E3000010A8DED150A97ED020A8DED160A17AA23
:100E400014A928460BF0DEFC402104A8FFF7D8FACD
:100E500000200090019002900390002417A904A89C
:100E60000DF0FAFD00BF30E004A800EB041090ED97
:100E7000000AD5ED000A20EE200A04A800EB0410B9
:100E8000D0ED010A95ED011A00EE810A04A800EBED
:100E90000410D0ED020A95ED021A00EE810A04A8B2
:100EA00000EB0410D0ED030A95ED031A00EE810A61
:100EB00020EE080AF0EE000A80EE201A684600EBE9
:100EC000840080ED001A601CC4B2042CCCDB00242A
:100ED00010E005EB840090ED000A684600EB84000A
:100EE000D0ED000A30EE200A05EB840080ED000A08
:100EF000601CC4B2042CECDB28460DF037FC01204A
:100F000080E70000F0EE401A9FED310AB0EE401A83
:100F10009FED2F0AB0EE402A9FED2D0AF0EE402AF9
:100F200000BFBDEEE10AB8EEC00A31EEC00AF0EE35
:100F3000402ABDEEE10A10EE100A4FF4B47190FBA6
:100F4000F1F201FB120000EE100AB8EEC00A30EE1A
:100F5000220AF0EE402A00BF00BFBDEEE00AB8EE64
:100F6000C00A30EEC00AB0EE402ABDEEE00A10EE34
:100F7000100A90FBF1F201FB120000EE100AB8EE2D
:100F8000C00A30EE020AB0EE402A00BF32EEC20ABA
:100F9000B0EE401A9FED0F0AB4EEC01AF1EE10FA4F
:100FA00006DD9FED0D0A31EE400AB0EE401A0CE06E
:100FB0009FED0A0AB4EEC01AF1EE10FA05D29FEDC9
:100FC000060A31EE000AB0EE401A30EE810A704790
:100FD00000000000000034430000B443000034C3AC
:100FE00010B500F04BFC1B4800F024FC18B10220A7
:100FF0001949087002E00120174908701648007866
:10100000022803D14FF47A7004F09AF809F05AFBE1
:1010100009F042FB07F022F902F00CF801F072FE31
:1010200002F07CF90CF014FB08F0F4FF0A48007899
:10103000022804D102F034FB02F030FF07E006483A
:101040000078012803D101F06DF901F045FC01F0B1
:1010500033F810BD007800200402002010B50122F2
:101060001021024804F07AFA10BD0000000002408E
:1010700010B500221021024804F070FA10BD0000E3
:10108000000002407047000010B5012211460248DE
:1010900004F064FA10BD00000004024010B5002204
:1010A0000121024804F05AFA10BD00000004024079
:1010B000704710B5044620460CF0F2FD10BD10B587
:1010C0000446204600F024FA10BD10B50024FFF7B6
:1010D000D9FFFFF7EDFF0BF0C5FE10B144F080041F
:1010E00002E00BF025FE04430CF0B4F810B144F01C
:1010F000400402E00CF034F80443204610BD000028
:101100002DE9FC4105460E4617460020009001904F
:10111000FFF7AEFF922000F0D1F8062269461220B8
:1011200000F0ACF8FFF79AFF9DF80100000200B252
:101130009DF8001040EA010400EE104AB8EEC00A23
:101140004C48D0ED000A20EE200A86ED000A9DF8FA
:101150000300000200B29DF8021040EA010400EE14
:10116000104AB8EEC00A4348D0ED000A20EE200A2B
:1011700086ED010A9DF80500000200B29DF80410FA
:1011800040EA010400EE104AB8EEC00A3948D0ED3A
:10119000000A20EE200A86ED020AFFF77FFF0822F0
:1011A0006946002000F06AF8FFF76EFF9DF8000026
:1011B0000F2838D19DF80300000200B29DF80210FC
:1011C00040EA010400EE104AB8EEC00A2A48D0ED09
:1011D000000A20EE200A85ED000A9DF805000002B5
:1011E00000B29DF8041040EA010400EE104AB8EE87
:1011F000C00A2148D0ED000A20EE200A85ED010A40
:101200009DF80700000200B29DF8061040EA0104B4
:1012100000EE104AB8EEC00A1748D0ED000A20EEE2
:10122000200A85ED020AFFF723FFA22000F046F80E
:1012300002226946222000F021F8FFF70FFF9DF8F7
:101240000000C0009DF8011040EA6114B4F5806F01
:1012500002DBA4F5006004B200EE104AF8EEC00A0A
:10126000B4EE001AB3EE070A00EE810A87ED000A19
:10127000BDE8FC81E4000020E800002070B50646CF
:101280000C46154646F0800000F018F806E05520A0
:1012900000F014F82070641C681EC5B2002DF6D151
:1012A00070BD70B504460D4644F0800000F006F8AD
:1012B000552000F003F8287070BD000001B582B021
:1012C0004FF47A70012301AA02A90090024805F0A8
:1012D0003BFA9DF804000EBDF405002070B50546EC
:1012E0000C462846FFF7EAFF2046FFF7E7FF70BDF0
:1012F00030B58BB005460C460694002007900120BF
:101300000890002001900290039004900590012025
:1013100009900E200A9001A9284602F0D3FF08B1D7
:1013200002F04FF80BB030BD70B504460D460F49C2
:101330002068884204D100212046FFF7D9FF07E04A
:101340000B492068884203D10E212046FFF7D0FFC9
:10135000204603F02EFC08B102F033F8294620465F
:1013600002F0EFFE08B102F02CF870BD00640040FE
:10137000006800402DE9F04104460E4617469846A5
:1013800014B90120BDE8F0812660002084F8240013
:101390002762C4F828804FF4807310223946201D3C
:1013A0000CF095F900250EE0094850F8250040B9E9
:1013B00003213046FFF7B8FF054840F825400020DC
:1013C000E0E7681CC5B2022DEEDB0120DAE7000081
:1013D0008000002002460AB90120704709B90120A7
:1013E000FBE791620020F8E72DE9FF5F044689469C
:1013F00092461D464FF0010B5746CDF8009000264F
:1014000000BF00BFEFF31080804600BF72B600BF80
:1014100025E0201D0CF070F918B1002084F824009C
:101420001FE0A81B082803DB08208DF8040003E058
:10143000A81BC0B28DF804003868CDF805007968A3
:10144000CDF809109DF8040007449DF804003044CD
:1014500086B26946201D0CF056F94FF0000BAE42E3
:10146000D7DB00BF00BF00BF88F3108800BF00BFFC
:1014700000BF94F8240030B9201D0CF036F910B9E3
:10148000204600F085FD584604B0BDE8F09F0000FE
:10149000074800680749B0FBF1F0074908700448A5
:1014A00000684FF47A71B0FBF1F0044908607047AE
:1014B0001400002040420F00880000208C00002013
:1014C00070B50346002400210020002200254FF0C3
:1014D000E02675690D4E366803FB06F44FF0E026F2
:1014E000B16910E04FF0E026B06988420BD0884225
:1014F00002D20E1A324402E02E1A0E443244014641
:10150000A24200D300E0EDE700BF70BD8C000020D8
:1015100070B50346002400210020002200254FF072
:10152000E02675690D4E367803FB06F44FF0E02691
:10153000B16910E04FF0E026B06988420BD08842D4
:1015400002D20E1A324402E02E1A0E4432440146F0
:10155000A24200D300E0EDE700BF70BD880000208C
:1015600030B587B005460C46284600F011F80490C7
:101570000020029002200690059403F0A1FE01A92C
:1015800002A803F0F1FD03F045FE07B030BD0000F6
:1015900001460020304A914203D2B1F1006F00D3DE
:1015A00058E02E4A914204D22B4A914201D30120A5
:1015B00050E02B4A914204D2284A914201D30220A2
:1015C00048E0284A914204D2254A914201D303209F
:1015D00040E0254A914204D2224A914201D304209C
:1015E00038E0224A914204D21F4A914201D3052099
:1015F00030E01F4A914204D21C4A914201D3062096
:1016000028E01C4A914204D2194A914201D3072092
:1016100020E0194A914204D2164A914201D308208F
:1016200018E0164A914204D2134A914201D309208C
:1016300010E0134A914204D2104A914201D30A2089
:1016400008E0B1F1016F04D20D4A914201D30B20A1
:1016500000E00B20704700000040000800800008F8
:1016600000C0000800000108000002080000040893
:10167000000006080000080800000A0800000C0826
:1016800000000E08014600202D4A914204D2B1F11B
:10169000006F01D3104651E02A4A914204D2284AF1
:1016A000914201D3274849E0274A914204D2254A72
:1016B000914201D3244841E0244A914204D2224A73
:1016C000914201D3214839E0214A914204D21F4A74
:1016D000914201D31E4831E01E4A914204D21C4A75
:1016E000914201D31B4829E01B4A914204D2194A76
:1016F000914201D3184821E0184A914204D2164A77
:10170000914201D3154819E0154A914204D2134A77
:10171000914201D3124811E0124A914204D2104A78
:10172000914201D30F4809E00F4A914204D20D4A79
:10173000914201D30C4801E04FF001607047000076
:10174000004000080080000800C0000800000108F8
:101750000000020800000408000006080000080855
:1017600000000A0800000C0800000E082DE9F041F6
:1017700004460D46164603F0A3FD1E4804602046AD
:10178000FFF780FF1C4908601C48056000201C49C9
:10179000086023E01948006807683A4600231548A6
:1017A0000168022003F040FD98B912480068001D4E
:1017B0001049086011480068001D10490860104871
:1017C0000068401C0E49086008460068B04205D118
:1017D0000AE003F01FFD0120BDE8F0810548006824
:1017E000054909688842D5D900BF03F013FD0020E0
:1017F000F2E70000900000209400002098000020F4
:101800009C00002010B504460CB9012010BD2260D8
:10181000636021720020F9E770B504460D46164654
:101820002560666004202072D4E9000105F0A8FC60
:10183000002070BD10B50446A28891B2206803F064
:1018400085FE10BD42681AB902681268516310E043
:101850004268042A03D102681268916309E0426871
:10186000082A03D102681268D16302E00268126894
:101870001164704710B503F077FE10BD08B5FFF78F
:1018800007FE4FF48053314A03213148FFF7BAFF76
:10189000082230493048FFF7BFFF04222D492F4866
:1018A000FFF7BAFF00222B492D48FFF7B5FF0022B2
:1018B0002C492D48FFF7B0FF08222C492C48FFF790
:1018C000ABFF08222B492C48FFF7A6FF2B492C48D9
:1018D00000F0D8F84FF480602A4B42102A4900905B
:1018E000274800F020F900234FF4007227492448CC
:1018F00000F0E6F82649274800F0C4F84FF480606D
:10190000254B421025490090224800F00CF9002395
:101910004FF4007222491F4800F0D2F821492248B2
:1019200000F0B0F800231E2220491F4800F0C8F83C
:1019300000231F4A1F492048FFF71CFD00231F4AB0
:101940001F492048FFF716FD08BD000000040240B3
:101950000078002024070020107800202078002044
:10196000307800206C07002040780020DC06002042
:101970005078002094060020607800203C08002069
:1019800070780020E0490020E0470020E04D002072
:10199000B4070020AC780020E0510020E04F002088
:1019A000E0550020F8070020E8780020E0570020EC
:1019B000FE5700205005002024790020FE670020FB
:1019C0007805002050790020F8B5044600262068EC
:1019D000006800F01000102846D12068C06800F0B0
:1019E0001000002840D0A06B0068006820F00100C3
:1019F000A16B0968086000252CE0214850F82500FB
:101A0000006800682168884222D11D4850F82500EE
:101A1000C088A16B09684968401A86B2184850F816
:101A20002500C06848B1164951F825108868144946
:101A300051F82510CA6831469047114850F82500E2
:101A4000C2880F4850F825008168204605F038FF0D
:101A5000681CC5B2032DD0DBA06B0068006840F0A5
:101A60000100A16B0968086000BF00200090206899
:101A70000068009020684068009000BF00BFF8BD7B
:101A80007C79002070B504460D460CB9012070BD6C
:101A90003C212046FEF7B4FC256000210AE00748FF
:101AA00050F8210020B9054840F821400020EEE719
:101AB000481CC1B20329F2DB0120E8E77C79002051
:101AC000F8B504460D4616461F460CB90120F8BD70
:101AD00001202071A560E680E76000BF0020009033
:101AE00020680068006800902068006840680090E6
:101AF00000BF00BF20680068C06840F01000216887
:101B00000968C860E288A168206805F0D9FE002055
:101B1000DDE702460AB90120704709B90120FBE759
:101B2000D1600020F8E72DE9F04104460E46174643
:101B30001D46DDF8188014B90120BDE8F0810120B0
:101B40002074666127836563A4F83880002084F8D8
:101B50003A004246294604F11C000BF06CFE0020BE
:101B6000EBE72DE9F04704468846174614B90120F3
:101B7000BDE8F087207C08B90120F9E794F83A0025
:101B800090B9208BB84202DD3D46002614E0208B40
:101B9000218F0844B84204DD258B208B381A86B289
:101BA0000AE0258B268F07E0208FB84202DD002552
:101BB0003E4601E00025268F002D0CDD2A464146D9
:101BC0006069FEF704FC012084F83A002A46616946
:101BD000206805F0B7FE002E0DDD08EB050132464A
:101BE00004F11C000BF032FE00F0FF09B14501D0FA
:101BF0000120BDE700BF0020BAE7000010B5FFF7E5
:101C000039FE04464FF47A70B4FBF0F0032800D29A
:101C100010BD1C480068201A40F6C411884208D93B
:101C2000194800781949087016480460184804607B
:101C300025E01648007810B315480068201A1549A9
:101C40000988884205D296214FF4FA7000F080F896
:101C500015E00F480068201A0E4909880E4A1288BC
:101C60001144884204D20021084600F071F806E0D1
:101C700006480078401E054908700548046000BF0A
:101C8000C6E70000D8000020D0000020E0000020BF
:101C9000DC000020D2000020D4000020024A108086
:101CA000024A118070470000D2000020D4000020BA
:101CB0000149087070470000D000002070B52DED7C
:101CC000068B0446B0EE408A01F0E6FC05466068EB
:101CD00028B9656025600020BDEC068B70BD60688A
:101CE000281A2169884202D9A5600120F4E718EE7C
:101CF000100AFEF729FD41EC1A0BB0EE4A0AF0EE8D
:101D00006A0A0AF055F8B0EE409AF0EE609A9FED3C
:101D10000A0B53EC102B51EC190BFEF729FD07D2DF
:101D20002068281AE168884203D9A5600120D3E71A
:101D300025600020D0E70000000000000000F03F18
:101D4000002343608360C1600261704700BFFEE70B
:101D500070B504460D46044800680068C462294610
:101D60000148FFF76FFD70BD5078002010B50248A4
:101D700002F018FC10BD00005005002070B50546AB
:101D80000E461446A5F2052088B1012806D0A0F21F
:101D9000FB20B0B1B0F5007F25D11BE013490869E5
:101DA000314607F00DFB062007F0EEFB1CE00F4963
:101DB000D1F82001314607F003FB052007F0E4FBD2
:101DC00012E0A2B231460A4800F03FFF0F2007F0B0
:101DD000DBFB09E0A2B23146064800F036FF0E20D8
:101DE00007F0D2FB00E000BF00BF70BD4C820020B6
:101DF00038890020E48D002070B504460E46154653
:101E0000B4F5C06F05D1AAB23146034800F01DFFFA
:101E100000E000BF00BF70BDB89B002070B5044655
:101E20000D462B4622464FF4E0610248FFF7DCFAEC
:101E300070BD00002479002010B5024802F0B2FB0A
:101E400010BD00005005002070B504460D462B461D
:101E500022464FF4C0610248FFF7C6FA70BD000089
:101E60002479002070B504460D462B4622464FF4D7
:101E7000A0610248FFF7B8FA70BD00002479002085
:101E800010B5024802F08EFB10BD0000780500205E
:101E90002DE9F04104460D461746A4F2012008281A
:101EA00041D2DFE800F0040E182240402C3601F049
:101EB000E3FB0646294607F083FA082007F064FB97
:101EC00032E001F0DDFB0646294607F079FA0920E9
:101ED00007F05AFB28E001F0D7FB0646294607F039
:101EE0006FFA0A2007F050FB1EE001F0D1FB064616
:101EF000294607F065FA0B2007F046FB14E008F0CE
:101F00007FFE0646294607F05BFA0C2007F03CFBF3
:101F10000AE008F079FE0646294607F051FA0C203F
:101F200007F032FB00E000BF00BFBDE8F081000019
:101F30002DE9F04104460E461746A4F2012030B1C7
:101F4000012805D0022804D0032813D102E000BFE5
:101F500000BF00BF601EC5B205EB8502074901EB5B
:101F600002110868314607F02BFA691CC8B207F065
:101F70000BFB00E000BF00BFBDE8F08140950020F2
:101F800010B5024802F00EFB10BD000078050020DD
:101F900030B58BB004460CB90BB030BD00BF00BFEC
:101FA000EFF31080054600BF72B600BF201D0BF096
:101FB0009CFB00BB15E007A9201D0BF069FB0798EF
:101FC00001900020039004909DF8200005900120CE
:101FD00084F824006B460DF1210201A9206802F06B
:101FE000C5F8206802F0C3FA40B1201D0BF07DFB5C
:101FF0000028E0D002E0002084F8240000BF00BFE9
:1020000085F3108800BF00BF00BF00BFC4E7704762
:1020100070B504460D462A462146034800F015FED9
:102020000E2007F0B1FA70BD10A3002000BF2049B8
:10203000086800F079F8002432E004EB44001D4900
:1020400001EB80004078C00940B304EB440001EB91
:102050008000806810B304EB4401164B03EB810150
:10206000486804EB440103EB81018A680121904731
:10207000A0B1552004EB44010E4A02F8210004EB04
:102080004400114601EB8000407820F0800004EB12
:10209000440102EB8101487000F006F9601CC4B2F3
:1020A000042CCADBFFF7AAFD0A200BF0F9FDBEE7FE
:1020B000E47F0020B881002010B588B000244FF4E0
:1020C0007A700BF0EDFD13480068007A022811D1F8
:1020D00010480068407A02280CD10F4800680BF0C5
:1020E00037FE0E4800680BF033FE002009494871A6
:1020F000887101E008B010BD1C22094901A8FEF753
:1021000066F9002101A80BF0F4FD0649086000BF44
:10211000F0E70000E47F0020A4010020F40100208B
:1021200044FA00080802002070B50546002057490F
:10213000087012E05548007800EB4000544901EB6C
:1021400080004078C00918B100205249086070BD75
:102150004E480078401C4D4908704C4800780428CF
:10216000E8DB284607F064FA04464B480078052867
:1021700023D2DFE800F0032356637800012C05D159
:1021800044480068401C4349086002E0002041497F
:10219000086040480068C82805D901203E490870F9
:1021A00000203C49086032210846FFF777FD1920DE
:1021B000FFF77EFD39480AF0D3FA64E04FF4FA7174
:1021C0000846FFF76BFD0120FFF772FD33480AF068
:1021D000C7FA022C03D0032C01D0042C05D12D48C2
:1021E0000068401C2B49086002E000202949086073
:1021F00028480068C82813D9022C03D10220264998
:1022000008700AE0032C03D103202349087004E07E
:10221000042C02D104202049087000201D490860C8
:1022200031E00220FFF744FD1D480AF099FA002032
:102230001849086001201849087024E00320FFF7BE
:1022400037FD4FF0FF200AF08BFA0020114908609B
:102250000120114908700E48407B20F0800080303A
:102260000B4948730FE000200A49086001200A4921
:1022700008700C4807F012F90A4807F00FF90948EE
:1022800007F00CF900BF00BF00BF60E70C020020A0
:10229000B88100201002002014020020FF0000FF7F
:1022A0000000FFFF5079002070B50024002500BF1A
:1022B00025E004EB4403184E06EB83035B7803F040
:1022C0007F0204EB440306EB83035968134B581950
:1022D000FEF77DF804EB4400314601EB80004078C6
:1022E00000F07F00284485B20C4804EB44013246DC
:1022F00012F821104155681C85B2601CC4B2042C30
:10230000D7DB01210648FFF72BF9192203490448BE
:10231000FFF72CFA70BD0000B8810020E881002092
:1023200000000A0838B500F0B3FE4849086005F01F
:1023300005FF4649486046488860002008739FEDC5
:10234000450A084680ED040A9FED430A80ED050A20
:102350009FED420A80ED060A9FED410A80ED070AD3
:102360009FED3F0A80ED080A00241FE0204600F0A0
:1023700019F904EB84023549243101EB021108609C
:1023800004EB84023149243101EB0211081D9FED59
:10239000342ADFED341AB1EE0A1ADFED330A9FED6D
:1023A000330A03210BF084FE601CC4B2042CDDDB75
:1023B000B0EE002ADFED2A1AB2EE001ADFED2C0A89
:1023C0009FED2C0A03212C480BF072FE002364229F
:1023D0000121112007F0BAF8284B4FF480622849F8
:1023E000284800F003FD28484FF48063274AAA21BB
:1023F0000090274800F04EFC264B4FF4007226490F
:10240000264800F0F3FC26484FF40073254AA52126
:102410000090254800F03EFC0A220021234808F0E5
:10242000D1F823492348FFF774FB23492348FFF7DA
:1024300070FB23492348FFF76CFB23492348FEF731
:10244000C9FF23490248FEF7C5FF38BD1C9500208F
:10245000507900200000EF430080C8430000AF43E4
:1024600000000000CDCCCC3D0000FA4400007A46CC
:10247000000048420000964380960020651E000838
:10248000B89700200C97002045B20008649C0020FB
:10249000B89B00201D1E000810A1002064A0002091
:1024A00081980008BCA3002010A30020B9AB00084D
:1024B000C9300008E878002011200008707800205A
:1024C000A1950008AC780020F91D000824790020AF
:1024D000311F000813480068807918B9002011499D
:1024E00008731EE00F4800688079012802D10D4969
:1024F000087316E00B4800688079022802D1094968
:1025000008730EE0074800688079032802D1054966
:10251000087306E0034800688079042801D1014966
:10252000087370471C95002010B51248006890EDA4
:10253000020A1048D0ED6A0A30EE200A80ED6D0ADA
:10254000006890ED030A0B48D0ED6B0A30EE200ACC
:1025500080ED6E0AD0ED780AF1EE600AB0EE600A06
:10256000DFED050A00F5B2700BF08CFC014880ED40
:102570006F0A10BD1C950020000000002DE9FC41F1
:1025800004460D4616461F460549CDE900672B4611
:10259000224688684FF4007106F0AAFFBDE8FC816E
:1025A0001C950020014601EBC100024A02EB8000AD
:1025B00070470000007C002010B501F03FFA04468F
:1025C00054F8050F1049C1F8E00108464068D0ED05
:1025D0005A0A606800EE100A30EEC00A084680ED24
:1025E0007A0A406890ED5B0A084680ED7B0A4068F5
:1025F000D0ED5C0AA068641F00EE100A30EEC00A3D
:10260000084680ED790A10BD1C9500200848006836
:1026100090ED020A0648D0ED6A0A30EE200A80EDFD
:102620006D0A006890ED040A014880ED6F0A70475A
:102630001C95002010B52DED048B4E48006890EDE0
:10264000020A4C48D0ED6A0A30EE200A80ED6D0A8D
:10265000006890ED030A4748D0ED6B0A30EE200A7F
:1026600080ED6E0A90ED6D0A10EE101A0846FEF726
:102670006BF841EC190BB0EE490AF0EE690A09F06B
:1026800097FBB0EE408AF0EE608A9FED3B0B53EC77
:10269000102B51EC180BFEF76BF822D2354890ED59
:1026A0006E0A10EE101A0846FEF74EF841EC190BB0
:1026B000B0EE490AF0EE690A09F07AFBB0EE408A02
:1026C000F0EE608A9FED2C0B53EC102B51EC180BA5
:1026D000FEF74EF805D29FED2A0A264880ED6F0AD4
:1026E00044E0244890ED6D0A10EE101A0846FEF7FB
:1026F0002BF841EC190BB0EE490AF0EE690A09F02B
:1027000057FBB0EE408AF0EE608A9FED1E0B53EC53
:10271000102B51EC180BFEF72BF822D2154890ED38
:102720006E0A10EE101A0846FEF70EF841EC190B6F
:10273000B0EE490AF0EE690A09F03AFBB0EE408AC1
:10274000F0EE608A9FED0F0B53EC102B51EC180B41
:10275000FEF70EF805D29FED0A0A064880ED6F0AD3
:1027600004E09FED0A0A034880ED6F0ABDEC048B7C
:1027700010BD00001C9500200000000000407F40BC
:10278000000096430000000000408F4000004843D6
:102790009FED060A064880ED6D0A9FED040A80ED64
:1027A0006E0A9FED020A80ED6F0A7047000000007C
:1027B0001C95002000BFFFF7FFFEFFF78BFE43488C
:1027C000007B012806D0022807D0032808D004285F
:1027D0000CD108E0FFF7DCFF09E0FFF7A5FE06E0FB
:1027E000FFF714FF03E0FFF725FF00E000BF00BF85
:1027F000364800F085F800243DE0354800EB8400C1
:1028000090ED000A04EB84013048243000EB011005
:1028100080ED120A04EB84022C49243101EB0211F1
:1028200091ED121AF0EE410A04EB8402274924319B
:1028300001EB02110968B1F9041001EE101AB8EEAB
:10284000C11AB0EE410A04EB84022049243101EBA5
:102850000211081D0BF016FBBDEEC00A10EE100AA7
:1028600001B204EB84021948243000EB0210A0F8F6
:102870004C10601CC4B2042CBFDB144800F05AF8A2
:102880001248007B70B900200AE0002200EB8003B0
:102890000E49243101EB0311A1F84C20411CC8B2B0
:1028A0000428F2DB094CB4F96031B4F91021B4F911
:1028B000C010B4F97000FFF761FE0A200BF0F0F9C8
:1028C00000200CF01BF90349086074E71C950020F8
:1028D000DC960020A802002000B587B01C22064923
:1028E0006846FDF774FD002168460BF002FA0349C3
:1028F000086007B000BD000098FA0008A40200209C
:1029000010B50446094A0A49204600F01DF994ED25
:102910006F0AB0EE401A0548D0ED000A044890ED69
:10292000000A204606F062FB10BD0000A002002055
:102930009C02002070B52DED0E8B04469FED7A0AA7
:10294000B0EE40EA9FED780AB0EE408A9FED760A3D
:10295000F0EE408A9FED740AB0EE409A9FED720A45
:10296000F0EE409A06F086FF05461DB10E2000F0FD
:1029700039F920B19FED6D0AB0EE40EA5FE0022D1B
:1029800001D00C2D04D19FED6A0AB0EE40EA56E06A
:1029900007F010F8406808EE900A07F00BF800897D
:1029A00000EE100AB8EE400AB0EE409A07F006F8C2
:1029B000408900EE100AB8EE400AF0EE409A9FED12
:1029C0005D0AB4EEC09AF1EE10FA14D2F1EE040AE8
:1029D000B4EEE09AF1EE10FA04DDDFED560A89EE6E
:1029E000200A01E09FED540ADFED500A60EE200A54
:1029F000B0EE60EA23E09FED510AF4EEC08AF1EEFA
:102A000010FA18DDF4EEE98AF1EE10FA08D279EE48
:102A1000E80A9FED4A1A39EEC11A80EE810A01E0F8
:102A20009FED410ADFED410A9FED451A41EE000A94
:102A3000B0EE60EA03E09FED430AB0EE40EA002604
:102A400027E006EB860204F1240101EB0211B1F943
:102A50004C00FDF768FE41EC1D0BB0EE4D0AF0EEA8
:102A60006D0A09F0A5F9B0EE40BAF0EE60BA18EEC2
:102A7000100AFDF769FE41EC1C0B53EC1B2BFDF714
:102A8000CAFC41EC1A0BFDF7A3FE08EE100A701CFD
:102A9000C6B2042ED5DBB4EECE8AF1EE10FA40DDDC
:102AA000CEEE080AB0EE600AB4F9700000EE900AAB
:102AB000F8EEE00A60EE800AFDEEE00A10EE900A01
:102AC00001B2A4F87010B4F9C00000EE900AF8EE5C
:102AD000E00A60EE800AFDEEE00A10EE900A01B214
:102AE000A4F8C010B4F9100100EE900AF8EEE00A64
:102AF00060EE800AFDEEE00A10EE900A01B2A4F842
:102B00001011B4F9600100EE900AF8EEE00A60EEF0
:102B1000800AFDEEE00A10EE900A01B2A4F86011FE
:102B200000BFBDEC0E8B70BD0000000000007A46B7
:102B300000007A4700004842CDCCCC3D0000204246
:102B400000409C4600A00C4770B52DED028B04465A
:102B50000D46164694ED780ADFED1F0A80EE201A26
:102B6000B0EE418AB0EE480AFDF7C6FB1B4880ED87
:102B7000000A94ED780ADFED180A80EE201AB0EE14
:102B8000418AB0EE480AFDF77BFB154880ED000A4C
:102B900094ED6D0A1148D0ED000AF1EE600A20EEC6
:102BA000200AD4ED6E0A0E4890ED001A01EE200ABC
:102BB00086ED000A94ED6D0AD0ED000A20EE200AA1
:102BC000D4ED6E0A054890ED001A01EE200A85ED5D
:102BD000000ABDEC028B70BD3333654280020020D9
:102BE000840200200146044800EB0110C07801284F
:102BF00000D170470020FCE7608000202DE9FF47EE
:102C00000446884699460C9D05F1090086B2802E3F
:102C100003DD002004B0BDE8F08704F1210787F848
:102C20000080A7F801503846BDF80810E18405215E
:102C30000AF062F82A464946F81DFDF7C8FB3146FE
:102C400038460AF043F83046E4E770B504460E46CD
:102C5000154604B970BD04F108000AF073FDA842DE
:102C600005DD2A46314604F108000AF0EFFD00BFF9
:102C7000F0E7000070B50648456804E02C462046A1
:102C800000F0D8F86D6802488542F7D170BD0000A9
:102C9000A00000202DE9F04704460E46174698464E
:102CA000DDF820900CB9BDE8F0870D48456803E0D9
:102CB000A54200D1F7E76D6809488542F8D1014681
:102CC00020460AF0B9FF84F820604246394604F1F4
:102CD00008000AF0B0FDC4F8A89000BFE3E70000C8
:102CE000A000002000BFFFF7C5FF00F041F8012061
:102CF0000AF0D6FF00200BF001FF01490860F2E75F
:102D00000002002000B587B01C2206496846FDF786
:102D10005EFB002168460AF0ECFF0349086007B03B
:102D200000BD000028FA0008FC0100202DE9F8434E
:102D300004460E4617469846089D0CB9BDE8F88330
:102D400004F108000AF0FEFCA8420FDD43463A46B3
:102D5000314620460095FFF751FF81464A4604F16F
:102D6000210104F108000AF071FD00BF00BFE5E792
:102D70002DE9F041A0B080216846FDF741FB002617
:102D8000B04600271848456827E02C4604F10800A3
:102D90000AF0AFFD86B2FEB1D4F8A80050B1D4F865
:102DA000A80080478046B04501DA404600E0304642
:102DB000074600E03746802F00DD80273A46694607
:102DC00004F108000AF0E7FCD4F8A40020B1394669
:102DD0006846D4F8A42090476D6803488542D4D152
:102DE00020B0BDE8F0810000A80000202DE9F041EE
:102DF00004460F4690461E460CB9BDE8F0810C48CB
:102E0000456803E0A54200D1F7E76D6808488542B0
:102E1000F8D1014620460AF00FFF4246394604F138
:102E200008000AF008FDC4F8A46000BFE5E7000050
:102E3000A800002070B5044600258AE004F10800CF
:102E40000AF083FC054694F8210006287BD2DFE8CF
:102E500000F003141F353F5794F82000A84209D111
:102E6000012084F82100618C481C608404F1260054
:102E7000455401E0002060846AE0A584618C481C10
:102E8000608404F126004554022084F821005FE0AC
:102E9000A08C40EA0520A084618C481C608404F169
:102EA00026004554A08C772803D2032084F8210003
:102EB00003E0002084F82100608449E0618C481C14
:102EC000608404F126004554042084F821003FE08A
:102ED000618C481C608404F126004554608C0528F0
:102EE0000DD1052104F126000CF01EF918B10520C2
:102EF00084F8210003E0002084F82100608427E0AA
:102F0000618CA08C0930814205D2618C481C6084A0
:102F100004F126004554618CA08C0930814210D305
:102F2000002084F821006084A08C00F1090104F1E4
:102F300026000CF0DBF820B104F12601204608F051
:102F400069F905E0FFE7002084F82100608400BFF4
:102F500000BF04F108000AF0CCFC00287FF46EAF3B
:102F600070BD000000BF06F02DFD2F48007920B194
:102F700001281BD002283FD130E000F05FFD00782F
:102F800001280CD000F05AFD007840B101202649FC
:102F900008710420487102208871C87105E0012081
:102FA0002149487188710220C87126E01E480068D6
:102FB000007A032802D106F039FD0EE01A480068B5
:102FC000007A012802D105F075FB06E0164800687A
:102FD000007A022801D108F063F90EE01120FFF712
:102FE00001FE18B900201049087104E000200E49C4
:102FF00048718871C87100E000BF00BF1120FFF761
:10300000F1FD10B102200849087107481622016835
:103010000648FDF7DCF914200AF042FE00200BF010
:103020006DFD034908609EE7E47F002004800020D6
:10303000A801002000B587B006F00EFC0F4908601B
:10304000002008710120887148710220C871002099
:1030500008774B210A480BF0EBFB4B2109480BF09A
:10306000E7FB1C2208496846FDF7B1F900216846D4
:103070000AF03FFE0549086007B000BDE47F00206C
:10308000B0010020C4010020D4F90008A4010020F0
:1030900000487047E47F0020F8B504460D4606F06E
:1030A000DBFB06462A46214606F01DFB234601228D
:1030B000AA2104480095FFF739FE112006F064FAB2
:1030C000F8BD00008C840020F8B504460D4606F0DB
:1030D000C3FB06462A46214606F005FB234601228D
:1030E000AA2104480095FFF721FE112006F04CFAB2
:1030F000F8BD00000C97002010B5024801F040FE1A
:1031000010BD00004009002010B5024801F038FE53
:1031100010BD0000A009002010B5024801F030FEEB
:1031200010BD00008008002010B5024801F028FE04
:1031300010BD0000000A002010B5024801F020FE7A
:1031400010BD0000E0080020014608781038182360
:10315000B0FBF3F20848805CC865032A05D908680B
:103160006FF30900001D886503E008686FF309002C
:103170008865886D7047000068F6000801460020E9
:103180008A6A8B69CBB932B1012A0DD0022A03D0E9
:10319000032A10D10EE000BFCB6A03F08073B3F1B5
:1031A000807F00D1012007E0CB6AB3F1C07F00D15E
:1031B000012001E000E000BF34E08B69B3F5005F5F
:1031C0001AD132B1012A07D0022A03D0032A11D121
:1031D0000AE000BF01200EE0CB6A03F08073B3F178
:1031E000807F00D1012006E0CB6AB3F1C07F00D11F
:1031F000012000E000BF15E032B1012A05D0022A0B
:1032000004D0032A0CD103E000BF00BF012008E076
:10321000CB6A03F08073B3F1807F00D1012000E01E
:1032200000BF00BF704730B50468246824F48024D0
:1032300005682C60046863608468402C04D10468CD
:10324000A2600468E16003E00468A1600468E260D1
:1032500030BD704700BFFEF70DFB0546FF2600247A
:10326000012026E02A4901EB00114968691A284A21
:1032700002EB00129268914215D9254901EB001129
:10328000097881B10121224A02EB0012D170204954
:1032900001EB00118978B1420ADA1D4901EB0011F6
:1032A0008E78C4B204E00021194A02EB0012D170FA
:1032B000401C1228D6DBCCB1154901EB0411087B68
:1032C000FEF7F6FC124800EB0410807818B911489C
:1032D00009F046FA11E00E4800EB0410807801284E
:1032E0000BD16FF0FF0009F03BFA06E04FF0FF2032
:1032F00009F036FA0020FEF7DBFCFEF77FFC0A201F
:103300000AF0CEFC00200BF0F9FB03490860A2E7AD
:10331000608000200000FFFFF801002000B587B0AA
:103320001C2206496846FDF752F8002168460AF05B
:10333000E0FC0349086007B000BD00000CFA00087B
:10334000F401002010B52DED048B0446B0EE408A48
:10335000F0EE608AB0EE419A84ED338AC4ED348A8F
:1033600094ED331AF0EE410A94ED341AB0EE410AAE
:1033700020460AF087FD94ED0B0A84ED350A84EDB2
:10338000369A94ED351AF0EE410A94ED361AB0EE05
:10339000410A04F144000AF075FD94ED1C0ABDECED
:1033A000048B10BD10B5082001F0C0FF10BD10B592
:1033B000102001F0BBFF10BD10B5202001F0B6FFBA
:1033C00010BD72B600BFFEE710B5002201B909E0DA
:1033D000012901D10A0205E0022901D10A0201E016
:1033E0004FF440720E4B1B6823F440730C4C236067
:1033F00023461B681343236023461B6823F0F8030E
:10340000236023461B68022444EAC0042343044C7F
:10341000236023461B6843F48033236010BD000003
:10342000103C02401C48006800F40070B0B11A481B
:10343000006820F400701849086000BF0846006862
:1034400040F4006008600846006820F400600860EE
:1034500000BF0846006840F4007008600E4800682D
:1034600000F48060B0B10C48006820F480600A4924
:10347000086000BF0846006840F4805008600846B5
:10348000006820F48050086000BF0846006840F4DF
:103490008060086070470000003C02400A4A1268E1
:1034A00022F44072084B1A601A46126842F0040275
:1034B0001A601A4612684FF4803343EA00231A4315
:1034C000014B1A6070470000103C0240074A126826
:1034D00022F44072054B1A601A4612681A601A46A6
:1034E000126842F001021A6001707047103C0240FD
:1034F00010B50D49096821F440710B4C216021463B
:10350000096841F4407121602146096841F00101D8
:103510002160026000BF00BF00BFBFF36F8F00BF1C
:1035200000BF00BF436010BD103C0240084A126853
:1035300022F44072064B1A601A46126842F48072F6
:103540001A601A46126842F001021A600180704740
:10355000103C0240084A126822F44072064B1A607E
:103560001A46126842F400721A601A46126842F053
:1035700001021A6001607047103C02402348006855
:1035800000F0100040B12248C06940F0100020490E
:10359000C86110201D4908601C48006800F0200028
:1035A00040B11B48C06940F008001949C86120209B
:1035B000164908601548006800F0400040B1144802
:1035C000C06940F004001249C86140200F490860FA
:1035D0000E48006800F0800040B10D48C06940F01E
:1035E00002000B49C861802008490860074800684C
:1035F00000F0020040B10648C06940F020000449D4
:10360000C861022001490860704700000C3C02407C
:10361000A80A002070B50446002500201449C8619E
:1036200001F0A2FF054609E0601C38B124B101F0A9
:103630009BFF401BA04201D9032070BD0D480068CC
:1036400000F480300028EFD10A48006800F0010043
:1036500010B10120074908600648006800F0F20038
:1036600018B1FFF78BFF0120E7E70020E5E7000036
:10367000A80A00200C3C024000487047D87C00207B
:1036800000487047FC7C002000487047207D0020E7
:1036900000487047447D002010B501F065FF10BD63
:1036A00008B5FFF7F5FC6349086004F047FD614980
:1036B0004860614888600120487300F099FA5D49CC
:1036C000086100F07FFA5B49C1F820014FF47A717C
:1036D000584881824FF49651A0F824119FED570A63
:1036E00080ED060A9FED550A80ED4A0A9FED540AC7
:1036F00080ED070A9FED530A80ED080AB3EE040A35
:1037000080ED4B0ABAEE0E0A80ED4C0A9FED4E2A70
:10371000DFED4E1A9FED4C1ADFED4C0A9FED4C0A7F
:1037200003217C300AF0C4FC9FED482ADFED491AE2
:103730009FED491ADFED490A9FED490A03213D48F3
:10374000C0300AF0B5FC9FED412ADFED401A9FED35
:103750003E1ADFED3E0A9FED3E0A032141480AF082
:10376000A7FC9FED3A2AF6EE001A9FED3B1ADFED1B
:103770003B0A9FED3B0A03213A4844300AF098FC8B
:103780009FED322ADFED311AB1EE041ADFED2F0A78
:103790009FED2F0A0321334844380AF089FC0523A2
:1037A00064220021184605F0D1FE06236422002180
:1037B000184605F0CBFE0323642200210C2005F0FF
:1037C000C5FE002364220121112005F0BFFE264B17
:1037D0004FF4806225492648FFF708FB25484FF43F
:1037E0008063254AAA2100902448FFF753FA142247
:1037F0000021234806F0E6FE22484FF40073224AD7
:10380000A52100902148FFF745FA21492148FEF7FC
:1038100080F921492148FEF77CF921492148FEF72A
:1038200078F921490448FDF7D5FD20492048FDF7E6
:10383000D1FD08BD4C820020247900200000343DD9
:103840000000B4420000B4C20000204200000000AA
:103850000000FA44CDCCCC3D0000A0420080BB4526
:103860000060EA46D8830020491E00083885002001
:103870008C84002045B20008E489002038890020AB
:10388000E139000881980008908E0020E48D002026
:1038900099300008E87800200F2000087078002098
:1038A000A1950008AC7800207D1D0008911E00083D
:1038B000507900201948407B1849887308460068F1
:1038C000407910B90020487326E014480068407918
:1038D000012802D1114948731EE010480068407960
:1038E000022802D10D49487316E00C48006840795F
:1038F000032802D1094948730EE00848006840795E
:10390000042802D10549487306E00448006840795C
:10391000052801D101494873704700004C820020FE
:1039200010B52DED028B01212B4880F8241080F872
:1039300034119FED2A0AB0EE408A9FED280AF0EE7E
:10394000408A90ED0A0A0068D0ED060A30EE200A9F
:10395000B0EE408A204890ED4E0A0068D0ED050A8E
:1039600030EE200AF0EE408A1B4890ED0C0AF0EE93
:10397000400AB0EE480AFDF7C5FA174880ED0A0A7A
:1039800090ED500AF0EE400AB0EE680AFDF7BAFA80
:10399000114880ED4E0A00BF90ED4E0AD0ED4C0A62
:1039A000B4EEE00AF1EE10FA04D890ED4C0A80ED86
:1039B0004E0A0DE0084890ED4E0AD0ED4B0AB4EEE9
:1039C000E00AF1EE10FA03DB90ED4B0A80ED4E0AAF
:1039D00000BFBDEC028B10BD4C8200200000000037
:1039E00038B5054600F02AF804461248407B641CAE
:1039F00004F8010C0F48D0F83C0120600D48C06A63
:103A000060600C48D0F84001A0600A48006BE0609C
:103A10000848D0F8440120610648406B6061641E8C
:103A2000192023460322AA2100900348FFF77EF9BC
:103A3000002038BD4C8200208C8400200048704754
:103A4000E079002010B52648807B012807D0FA21B4
:103A500024480AF0EDFEFA2123480AF0E9FE02218B
:103A60001F4880F8241080F8341190ED0B0A80ED87
:103A70000A0A1D480AF0BCFEF7EE000A30EEC00A42
:103A80001748D0ED4F0A20EE200A80ED4E0A90ED47
:103A90004F0AB0EEC00AF0EE000AB4EEE00AF1EE12
:103AA00010FA1BD80F480AF0A3FEF7EE000A30EE1A
:103AB000C00A0B48D0ED0B0A20EE200A80ED0A0A5E
:103AC00090ED0B0AB0EEC00AF0EE080AB4EEE00A80
:103AD000F1EE10FA02D804200149487310BD00002D
:103AE0004C8200202002002034020020417D027D13
:103AF000914219D0017D41B9B0F90C1100EE101AB4
:103B0000B8EEC00A80ED060A0EE0017D012904D15D
:103B100090ED080A80ED060A06E0017D022903D136
:103B200090ED070A80ED060A017D4175704710B5DA
:103B300004462046FFF7DAFF207D68B994ED060AB7
:103B4000BDEEC00A10EE100A00B2A4F80C0104F198
:103B5000280000F0E8FA34E0207D012817D1D4EDE8
:103B6000091AB0EE611AD4ED081AF0EE610AD4ED2C
:103B7000061AB0EE610A04F1280000F0A3FABDEEC7
:103B8000C00A10EE100A00B2A4F80C0119E0207D62
:103B9000022816D1D4ED091AB0EE611AD4ED071A35
:103BA000F0EE610AD4ED061AB0EE610A04F12800C5
:103BB00000F088FABDEEC00A10EE100A00B2A4F8B8
:103BC0000C0110BD00487047B47C00207CB5044651
:103BD0000D46002000900549019023462A4688683A
:103BE00040F2FF1105F084FC7CBD00004C820020F7
:103BF00000487047907C002010B52DED028B9FEDA2
:103C0000250AB0EE408A0121234880F824100221C1
:103C100080F8341190ED0A0A0068D0ED060A30EE03
:103C2000200AB0EE408A1C4890ED0C0AF0EE400AE3
:103C3000B0EE480AFDF766F9174880ED0A0A90EDE4
:103C40004E0A0068D0ED050A30EE200A124880EDD9
:103C50004E0A00BF90ED4E0AD0ED4C0AB4EEE00AD9
:103C6000F1EE10FA04D890ED4C0A80ED4E0A0DE00A
:103C7000094890ED4E0AD0ED4B0AB4EEE00AF1EEA1
:103C800010FA03DB90ED4B0A80ED4E0A00BFBDEC4D
:103C9000028B10BD000000004C82002002212B4846
:103CA00080F8241080F8341190ED0A0A0068D0EDF5
:103CB000060A30EE200A254880ED0A0A90ED4E0AE9
:103CC0000068D0ED050A30EE200A204880ED4E0A4B
:103CD00000BF90ED0A0AD0ED080AB4EEE00AF1EE5A
:103CE00010FA04D890ED080A80ED0A0A0DE0174892
:103CF00090ED0A0AD0ED070AB4EEE00AF1EE10FAF0
:103D000003DB90ED070A80ED0A0A00BF00BF0F48F1
:103D100090ED4E0AD0ED4C0AB4EEE00AF1EE10FA46
:103D200004D890ED4C0A80ED4E0A0DE0074890ED66
:103D30004E0AD0ED4B0AB4EEE00AF1EE10FA03DBC6
:103D400090ED4B0A80ED4E0A00BF70474C82002078
:103D500010B5254A928A11B2234A1269128810B20C
:103D600005F0A9FB00EE100AB8EEC00A1E48D0ED1F
:103D7000060A20EE200A80ED0B0A0246B2F8242142
:103D800011B20246D2F82021128810B205F093FB3E
:103D900000EE100AB8EEC00A1348D0ED4A0A20EE31
:103DA000200A80ED4F0A406890ED5C0A0E4880EDD5
:103DB0000C0A406890ED5A0A0B4880ED500A4068A2
:103DC00090ED020ADFED090A20EE200A064880ED98
:103DD0000D0A406890ED010ADFED040A20EE200A8A
:103DE000014880ED510A10BD4C820020E12E654251
:103DF00000BFFFF7ADFFFFF75DFD2548407B0628BC
:103E000013D2DFE800F0120306090C0FFFF71AFEC9
:103E10000CE0FFF785FD09E0FFF740FF06E0FFF744
:103E2000EBFE03E000F05AF800BF00BF00BF1848E7
:103E30001030FFF77CFE1748FFF779FE1448407BEF
:103E4000A8B913487C300AF015F9124860380AF016
:103E500011F910486C300AF00DF90E48B0300AF034
:103E600009F900210A48A0F81C11A0F82C12084AF0
:103E7000B2F92C12B2F91C01FFF7A8FE0A2009F0D2
:103E80000FFF00200AF03AFE03490860B1E7000086
:103E90004C8200206C8300201C02002000B587B0FB
:103EA000FA210A480AF0C4FCFA2109480AF0C0FCC9
:103EB0001C2208496846FCF78AFA0021684609F086
:103EC00018FF0549086007B000BD0000200200206F
:103ED0003402002060FA00081802002010B52DED11
:103EE000028B0121754880F82410022180F83411DA
:103EF0009FED730AF0EE408A9FED710AB0EE408AA2
:103F000090F83C02012879D16C4890F83E020128D3
:103F100035D10020694981F83E02084690ED0A0A31
:103F20000068D0ED060A30EE200AF0EE408A08461E
:103F300090ED0C0AD0ED8C0A30EE200A0068D0ED2E
:103F4000060A30EE200A084680ED0A0A006890ED65
:103F5000050A30EE080AB0EE408A084690ED8D0A58
:103F600080ED8A0A90ED4F0AD0ED8D0A30EE600A9E
:103F7000F0EE080A08EE200A80ED4E0A7CE04F4879
:103F800090ED0A0A0068D0ED060A30EE200AF0EE45
:103F9000408A4A4890ED0C0AF0EE400AB0EE680AFA
:103FA000FCF7B0FF454880ED0A0A90ED4E0A006824
:103FB000D0ED050A30EE200A404880ED4E0A00BFE1
:103FC00090ED4E0AD0ED4C0AB4EEE00AF1EE10FA94
:103FD00004D890ED4C0A80ED4E0A0DE0374890ED84
:103FE0004E0AD0ED4B0AB4EEE00AF1EE10FA03DB14
:103FF00090ED4B0A80ED4E0A3EE0FFE72F4890ED32
:104000000A0A0068D0ED060A30EE200AF0EE408A77
:104010002A4890ED0C0AF0EE400AB0EE680AFCF770
:1040200071FF264880ED0A0A90ED4E0A0068D0ED37
:10403000050A30EE200A214880ED4E0A00BF90EDBF
:104040004E0AD0ED4C0AB4EEE00AF1EE10FA04D8B4
:1040500090ED4C0A80ED4E0A0DE0184890ED4E0AA6
:10406000D0ED4B0AB4EEE00AF1EE10FA03DB90ED6E
:104070004B0A80ED4E0A00BF00BF104890ED4E0A7B
:10408000D0ED4C0AB4EEE00AF1EE10FA04D890ED4F
:104090004C0A80ED4E0A0DE0084890ED4E0AD0ED36
:1040A0004B0AB4EEE00AF1EE10FA03DB90ED4B0A96
:1040B00080ED4E0A00BFBDEC028B10BD4C8200208B
:1040C0000000000010B52DED048B0446B0EE408AD0
:1040D000F0EE608AB0EE419A84ED338AC4ED348A02
:1040E00094ED331AF0EE410A94ED341AB0EE410A21
:1040F00004F1440009F0C6FE94ED1C0A84ED350A73
:1041000084ED369A94ED351AF0EE410A94ED361AA4
:10411000B0EE410A04F1880009F0B4FE94ED2D0AD6
:10412000BDEC048B10BD10B5044604F1440009F049
:10413000A1FF04F1880009F09DFF204609F09AFFD5
:1041400010BD10B5024692F82030012B01D0022B91
:1041500006D110684069084314686061002010BDF2
:10416000506A40F4802050620120F8E7F0B5044620
:104170000D461E4694F8207020688368A86800B930
:1041800000E000BF012F01D0022F7CD103F080603E
:1041900030B903F0006018B903F08050002873D0E4
:1041A000C3F30161022905D9606A40F4000060622E
:1041B0000120F0BD012088403060A86860B9B5F8E2
:1041C00000C0E86840EA4C5C206800F5C07000EB75
:1041D0000110C0F800C00FE0D5E901C040EACC00F2
:1041E000D5F80CC040EA0C00D4F800C00CF5C07C37
:1041F0000CEB011CCCF80000D5F810C0206800F5CD
:10420000C07000EB0110C0F804C0287D01280ED159
:10421000206800F5C07000EB0110406840F4807C1D
:10422000206800F5C07000EB0110C0F804C0D07920
:10423000000692F806C040EA0C4092F805C040EA39
:104240000C2C10794CEA000C206800F5C07000EBD3
:104250000110C0F80CC0D078000692F802C040EA05
:104260000C4092F801C040EA0C2092F800C040EAED
:104270000C00D4F800C00CF5C07C0CEB011CCCF891
:104280000800206801E016E00FE000F5C07000EBC8
:104290000110006840F0010C206800F5C07000EBD0
:1042A0000110C0F800C0002083E7606A40F40010ED
:1042B000606201207DE7606A40F480206062012036
:1042C00077E70000F0B504460A46216894F82050CC
:1042D000012D01D0022D7ED1424901F500710868FF
:1042E00040F001000860086820F47C50086008680D
:1042F000566A40EA06200860107D00F01F06012083
:1043000000FA06F3C8699843C861A1F50071D06945
:10431000C8B9D1F80C029843C1F80C02908880B259
:10432000968940EA064601F51070576940F83760F3
:10433000108880B2168940EA064601F51070576968
:1043400000EBC7004660D069012819D1D1F80C02F2
:104350001843C1F80C02908880B2168840EA0646DD
:1043600001F51070576940F83760908980B216895E
:1043700040EA064601F51070576900EBC700466039
:10438000906928B9D1F804029843C1F8040204E006
:10439000D1F804021843C1F80402106928B9D1F811
:1043A00014029843C1F8140204E0D1F8140218432F
:1043B000C1F81402106A012804D1D1F81C02184374
:1043C000C1F81C02D1F8000220F00100C1F800027F
:1043D0000020F0BDFFE7606A40F4802060620120A9
:1043E000F7E700000064004010B50446204600F0E6
:1043F0007BFB10BD70B5044694F82050012D01D010
:10440000022D7DD151B92068C06800F0030080B949
:10441000606A40F400106062012070BD206800698D
:1044200000F0030028B9606A40F4001060620120C7
:10443000F3E7206800F5D87000EB0110006800F089
:1044400004009060906840B9206800F5D87000EBD7
:1044500001100068400D106007E0206800F5D8707A
:1044600000EB01100068C0085060206800F5D870AB
:1044700000EB0110006800F00200D060206800F539
:10448000D87000EB0110406800F00F001061206848
:1044900000F5D87000EB0110406800F47F40000A7E
:1044A0009061206800F5D87000EB01104068000CA6
:1044B0005061206800F5D87000EB0110806818701A
:1044C000206800F5D87000EB0110806800F47F4090
:1044D000000A5870206800F5D87000EB0110806861
:1044E00000F47F00000C9870206800F5D87000EB95
:1044F00001108068000ED870206800F5D87000E0C8
:104500002FE000EB0110C0681871206800F5D8702A
:1045100000EB0110C06800F47F40000A5871206869
:1045200000F5D87000EB0110C06800F47F00000CAB
:104530009871206800F5D87000EB0110C068000E7B
:10454000D87131B92068C06840F020002668F0605A
:1045500005E02068006940F02000266830610020F6
:104560005BE7606A40F480206062012055E7014605
:10457000002091F82020012A01D0022A11D10B68D5
:104580009B6803F0806303B1401C0B689B6803F0D9
:10459000006303B1401C0B689B6803F0805303B1B8
:1045A000401C70472DE9F05F0446002520684669ED
:1045B0002068D0F80490206887682068D0F80CA0A4
:1045C0002068D0F810B02068D0F8188006F00100FC
:1045D000002855D007F00100C0B101202168886093
:1045E00007F0020018B1204600F014FB0EE007F0BF
:1045F000040010B145F4006508E007F0080010B1B0
:1046000045F4805502E0204600F002FB07F480707C
:10461000C8B14FF480702168886007F4007018B149
:10462000204600F011FB0EE007F4806010B145F465
:10463000005508E007F4006010B145F4804502E041
:10464000204600F0FFFA07F48030C8B14FF4803004
:104650002168886007F4003018B1204600F00EFB96
:104660000EE007F4802010B145F4004508E007F49F
:10467000002010B145F4803502E0204600F0FCFA3D
:1046800006F0080038B10AF0100020B145F40075BA
:1046900010202168C86006F0040040B10AF008004C
:1046A00028B108202168C860204600F02EFA06F0E4
:1046B000020038B12068C06800F0030010B1204645
:1046C00000F024FA06F0400038B10BF0100020B1E1
:1046D00045F4806510202168086106F0200040B193
:1046E0000BF0080028B1082021680861204600F07E
:1046F00035FA06F0100038B12068006900F00300B8
:1047000010B1204600F02CFA06F4003040B109F058
:10471000100028B1102021684860204600F048FAB7
:1047200006F4803040B109F0080028B10820216863
:104730004860204600F0BAFA06F4004088B309F059
:10474000040078B306F4807020B108F0010008B1CD
:1047500045F0010506F4007020B108F0020008B130
:1047600045F0020506F4806020B108F0040008B1AD
:1047700045F0040506F40060A0B108F0700088B1AF
:1047800008F07000402817D006DC10280BD0202835
:104790000CD0302819D10CE0502810D0602814D14A
:1047A00010E01DE019E045F008050FE045F01005A8
:1047B0000CE045F0200509E045F0400506E045F035
:1047C000800503E045F4807500E000BF00BF20686D
:1047D000806920F0700021688861042021684860A9
:1047E0002DB1606A284360622046FFF7FDFDBDE8F9
:1047F000F09F70B504460CB9012070BD94F82000FC
:1048000010B9204600F0B0F82068006820F00200DF
:104810002168086000F0A8FE05460DE000F0A4FE47
:10482000401B0A2808D9606A40F400306062052005
:1048300084F820000120E0E72068406800F00200D2
:104840000028EBD12068006840F001002168086072
:1048500000F08AFE05460DE000F086FE401B0A28A7
:1048600008D9606A40F400306062052084F82000B6
:104870000120C2E72068406800F001000028EBD06A
:10488000207E012806D12068006840F08000216861
:10489000086005E02068006820F08000216808605A
:1048A000607E012806D12068006840F04000216841
:1048B000086005E02068006820F04000216808607A
:1048C000A07E012806D12068006840F02000216801
:1048D000086005E02068006820F02000216808607A
:1048E000E07E012806D12068006820F010002168D1
:1048F000086005E02068006840F01000216808604A
:10490000207F012806D12068006840F00800216857
:10491000086005E02068006820F008002168086051
:10492000607F012806D12068006840F004002168FB
:10493000086005E02068006820F004002168086035
:10494000D4E90201084321690843616908436168A9
:10495000491E08432168C86100206062012084F874
:104960002000002049E7000010B586B0044614215D
:1049700001A8FBF745FD56492068884249D15548B2
:104980000068401C534908600846006801280FD1A0
:1049900000BF002000905048006840F000704E4971
:1049A00008600846006800F00070009000BF00BF7B
:1049B00000BF0020009048481038006840F0080010
:1049C0004549103908600846006800F0080000906A
:1049D00000BF00BF0320019002200290002003903E
:1049E000032004900920059001A93C4800F0ACFC8C
:1049F00000220521132001F0DFF9132001F0CCF98A
:104A000000220521142001F0D7F9142001F0C4F987
:104A10005CE033492068884258D100BF00200090F4
:104A20002D48006840F080602B4908600846006807
:104A300000F08060009000BF00BF26480068401C66
:104A4000244908600846006801280FD100BF0020F3
:104A500000902148006840F000701F490860084637
:104A6000006800F00070009000BF00BF00BF002091
:104A7000009019481038006840F0020016491039BB
:104A800008600846006800F00200009000BF00BF08
:104A900060200190022002900020039003200490E7
:104AA0000920059001A90F4800F04EFC00220521C5
:104AB0003F2001F081F93F2001F06EF9002205212D
:104AC000402001F079F9402001F066F906B010BDF0
:104AD000006400400400002040380240000C024006
:104AE00000680040000402400146002091F82020A8
:104AF000012A01D0022A02D100234B6204E04B6A52
:104B000043F480234B6201207047704730B589B071
:104B100005466B4602AA00212846FFF76BFC0024DD
:104B200016E00D4850F824000068006829688842A3
:104B30000CD1094850F82400806A38B1064951F870
:104B40002410069A02988B6A69469847601CC4B282
:104B5000022CE6DB09B030BD800000207047000069
:104B600030B589B005466B4602AA00212846FFF7FA
:104B700041FC002416E00D4850F82400006800684D
:104B8000296888420CD1094850F82400806A38B15D
:104B9000064951F82410069A02988B6A694698478C
:104BA000601CC4B2022CE6DB09B030BD80000020DE
:104BB000704770B5044694F82000012822D10220E5
:104BC00084F820002068006820F001002168086057
:104BD00000F0CAFC05460DE000F0C6FC401B0A28A8
:104BE00008D9606A40F400306062052084F8200033
:104BF000012070BD2068406800F001000028EBD162
:104C00006062F6E7606A40F4002060620120F0E72D
:104C10007047000070B5054600240EE0084850F8C3
:104C20002400006800682968884204D1044951F8CA
:104C30002400FDF7ADF9601CC4B2022CEEDB70BDA0
:104C4000800000207047000070B5054600240EE08B
:104C5000084850F82400006800682968884204D198
:104C6000044951F82400FDF793F9601CC4B2022CEA
:104C7000EEDB70BD800000207047000070B5054677
:104C800000240EE0084850F82400006800682968F5
:104C9000884204D1044951F82400FDF779F9601CD9
:104CA000C4B2022CEEDB70BD80000020704770B5EE
:104CB0000446A56D00F058FC064694F8350002281D
:104CC00008D08020606500BF002084F8340000BF59
:104CD000012070BD2068006820F01600216808607F
:104CE0002068406920F0800021684861206C08B984
:104CF000A06C28B12068006820F0080021680860D6
:104D00002068006820F00100216808600FE000F0D2
:104D10002BFC801B05280AD92020606500BF0020DD
:104D200084F8340000BF032084F83500D1E7206800
:104D3000006800F001000028E9D194F85C103F20E1
:104D40008840A86000BF002084F8340000BF012024
:104D500084F835000020BCE7014691F835000228B0
:104D600003D08020486501207047052081F8350078
:104D70000868006820F001000A6810600020F3E76E
:104D8000F8B50446002000908C4800684FF4165196
:104D9000B0FBF1F7A56D2E6894F85C1008208840F0
:104DA000304098B12068006800F0040070B12068BD
:104DB000006820F004002168086094F85C10082066
:104DC0008840A860606D40F00100606594F85C1058
:104DD00001208840304068B12068406900F08000C0
:104DE00040B194F85C1001208840A860606D40F0EC
:104DF0000200606594F85C1004208840304068B17F
:104E00002068006800F0020040B194F85C100420B3
:104E10008840A860606D40F00400606594F85C1004
:104E200010208840304078B32068006800F0080007
:104E300050B394F85C1010208840A8602068006887
:104E400000F4802080B12068006800F4002028B9B8
:104E5000206CC8B12046216C884715E0A06C98B141
:104E60002046A16C88470FE02068006800F480703D
:104E700028B92068006820F0080021680860206CCC
:104E800010B12046216C884794F85C10202088409F
:104E90003040002865D02068006800F0100000282D
:104EA0005FD094F85C1020208840A86094F835000A
:104EB000052828D12068006820F0160021680860C5
:104EC0002068406920F0800021684861206C08B9A2
:104ED000A06C28B12068006820F0080021680860F4
:104EE00094F85C103F208840A86000BF002084F840
:104EF000340000BF012084F83500206D10B1204639
:104F0000216D8847F8BD2068006800F4802080B1DA
:104F10002068006800F4002028B9606C10B12046B9
:104F2000616C88471DE0E06BD8B12046E16B884793
:104F300017E02068006800F4807068B92068006895
:104F400020F010002168086000BF002084F83400C1
:104F500000BF012084F83500E06B10B12046E16B02
:104F60008847606D38B3606D00F00100F0B1052036
:104F700084F835002068006820F00100216808608E
:104F800000BF0098401C0090B84200D905E020689E
:104F9000006800F001000028F3D100BF00BF00202E
:104FA00084F8340000BF012084F83500E06C10B1B3
:104FB0002046E16C884700BFA4E7000014000020F1
:104FC0002DE9F0410446002500F0CEFA074614B959
:104FD0000120BDE8F081606A00B100BF00BF002081
:104FE00084F8340000BF022084F83500206800688F
:104FF00020F00100216808600AE000F0B5FAC01B4B
:10500000052805D920206065032084F83500E0E7F5
:105010002068006800F001000028EED120680568D3
:1050200021480540D4E901010843E16808432169AA
:10503000084361690843A1690843E1690843216A9B
:1050400008430543606A042803D1D4E90B010843EF
:105050000543206805602068456925F00705606AFA
:105060000543606A04280DD1A06A0543E06A48B18F
:105070002046FEF783F828B140206065012084F8BF
:105080003500A6E7206845612046FEF75DF8064634
:1050900094F85C103F208840B060002060650120DB
:1050A00084F83500002094E73F8010F02DE9F047A8
:1050B00004460D4616461F464FF00008D4F8589097
:1050C00000BF94F83400012802D10220BDE8F08727
:1050D000012084F8340000BF94F83500012825D160
:1050E000022084F83500002060653B4632462946A0
:1050F0002046FEF798F894F85C103F208840C9F8E5
:1051000008002068006840F0160021680860206CE4
:1051100028B12068006840F0080021680860206815
:10512000006840F001002168086006E000BF002030
:1051300084F8340000BF4FF002084046C6E7000084
:1051400070B5044600F010FA06462546681C10B1FA
:1051500004480078054400BF00F006FA801BA8420E
:10516000FAD370BD100000202DE9F04104460E4630
:105170000127002500BF2548007E012802D102201A
:10518000BDE8F08101202149087600BF4CF2503083
:10519000FEF740FA0746002F31D1401E30602068EC
:1051A00001280FD1207C6168FEF778F94CF250306D
:1051B000FEF730FA07461648006820F0040014494C
:1051C00008601AE0A56812E0217C2846FEF7FCF88A
:1051D0004CF25030FEF71EFA07460D48006820F0EA
:1051E000FA000B4908600FB1356005E06D1CD4E989
:1051F00002100844A842E7D800BFFEF713F900BF29
:1052000000200249087600BF3846B9E7A80A002006
:10521000103C02400348006840F00040014908602B
:1052200000207047103C02402DE9F04106460F4631
:1052300014461D464FF0010800BF1F48007E01289C
:1052400002D10220BDE8F08101201B49087600BF91
:105250004CF25030FEF7DEF98046B8F1000F23D152
:1052600026B9E1B23846FEF731F912E0012E04D139
:10527000A1B23846FEF75AF90BE0022E04D12146BE
:105280003846FEF767F904E022462B463846FEF71B
:105290002FF94CF25030FEF7BDF980460748006800
:1052A00020F001000549086000BF0020024908768F
:1052B00000BF4046C6E70000A80A0020103C02409C
:1052C00000200949096801F0004159B10749064A1F
:1052D0000C3A1160064911600349096801F0004168
:1052E00001B1012070470000103C024023016745D6
:1052F000AB89EFCD70B50546002412E00A4850F89E
:1053000024004068A8420AD1074850F82400007AD7
:10531000052804D1044951F82410C8688047601C4E
:10532000C4B20A2CEADB70BDB847002010B50446B1
:1053300004480068204020B1024804602046FFF77E
:10534000D9FF10BD143C0140F8B502460B460025BC
:10535000002400200021DEE0012606FA01F51E6887
:1053600006EA0504AC4275D11E7906F00306012E4B
:1053700004D01E7906F00306022E13D190684F0068
:105380000326BE40B0434F00DE68BE40304390600D
:10539000506801268E40B0431E79C6F300168E4039
:1053A000304350601E7906F00306032E09D0D06802
:1053B0004F000326BE40B0434F009E68BE403043BE
:1053C000D0601E7906F00306022E13D1CF0802F139
:1053D000200656F827004E07F70E0F26BE40B043B2
:1053E0004F07FF0E1E69BE403043CF0802F1200672
:1053F00046F8270010684F000326BE40B0431E79D0
:1054000006F003064F00BE40304310605E6806F0B1
:105410008056B6F1805F7DD100BF00260096404ED9
:10542000366846F480463E4F3E603E46366806F497
:105430008046009600BF00BF3A4E8F0856F82700FE
:105440008E07370F0F26BE40B043374EB24202D10F
:10545000002624E05EE0354EB24201D101261EE076
:10546000334EB24201D1022619E0324EB24201D18E
:10547000032614E0304EB24201D104260FE02F4E35
:10548000B24201D105260AE02D4EB24201D10626D4
:1054900005E02C4EB24201D1072600E008268F0716
:1054A0003F0FBE4030431F4E8F0846F82700264E60
:1054B0003068A0435E6806F48036B6F5803F00D1C0
:1054C0002043214E3060361D3068A0435E6806F4EC
:1054D0000036B6F5003F00D120431B4E361D30602C
:1054E000361D3068A0435E6806F48016B6F5801F4E
:1054F00000D12043144E08363060361D3068A0437A
:105500005E6806F40016B6F5001F00D120430E4E6B
:105510000C363060491C1029FFF41EAFF8BD0000A6
:1055200044380240083801400000024000040240B4
:1055300000080240000C024000100240001402402B
:1055400000180240001C0240003C01400246136962
:105550000B400BB1012000E0002070470AB18161CF
:1055600001E00B0483617047014800687047000048
:105570000800002070B504460CB9012070BD94F8F5
:105580003D0028B9002084F83C00204600F006FBCE
:10559000242084F83D002068006820F00100216884
:1055A00008602068006840F40040216808602068B6
:1055B000006820F400402168086000F039FD0546CD
:1055C0005C496068884206D85B48854201D2012068
:1055D00007E0002005E05948854201D2012000E0A3
:1055E0000020012800D1C9E75548B5FBF0F6206836
:1055F000406820F03F003043216848604D496068B2
:10560000884201D8701C07E04FF4967070434FF445
:105610007A71B0FBF1F0401C2168096A21F03F016A
:1056200008432168086243496068884214D8681EAC
:1056300061684900B0FBF1F0401CC0F30B00042886
:1056400001D204203DE0681E61684900B0FBF1F022
:10565000401CC0F30B0034E0A06838B9681E6168D4
:1056600001EB4101B0FBF1F0401C0AE0681E6168EB
:1056700001EBC10202EB0111B0FBF1F0401C40F460
:105680008040C0F30B0008B901201AE0A06848B9B7
:10569000681E616801EB4101B0FBF1F0401CC0F3F2
:1056A0000B000CE0681E616801EBC10202EB011106
:1056B000B0FBF1F0401CC0F30B0040F4804040F41C
:1056C00000402168C9694CF6FF7291430843216884
:1056D000C861D4E9070108432168096821F0C001C5
:1056E000084321680860D4E90310084321688968E9
:1056F00048F2FF329143084321688860D4E90501EC
:1057000008432168C96821F0FF0108432168C86087
:105710002068006840F001002168086000202064D3
:10572000202084F83D000020206384F83E0000BF64
:1057300024E70000A086010080841E0000093D00CF
:1057400040420F002DE9FC5F04460F469046994603
:10575000DDE90CAB0E9EFFF707FF054694F83D0010
:10576000202870D119230122B0492046009502F06B
:10577000C5FA10B10220BDE8FC9F00BF94F83C00C0
:10578000012801D10220F6E7012084F83C0000BF87
:105790002068006800F0010028B92068006840F027
:1057A0000100216808602068006820F4006021681A
:1057B0000860222084F83D00402084F83E0000204C
:1057C0002064C4F824A0A4F82AB0608D20859848ED
:1057D000E0624B46424639462046CDE9006502F07C
:1057E0003FF908B10120C6E7208D88B900BF00202D
:1057F000019020684069019020688069019000BF95
:1058000000BF2068006840F400702168086040E034
:10581000208D012818D12068006820F4806021685C
:10582000086000BF00200190206840690190206856
:105830008069019000BF00BF2068006840F40070DC
:105840002168086025E0EFE0208D022816D120684D
:10585000006820F48060216808602068006840F4D7
:1058600000602168086000BF002001902068406946
:10587000019020688069019000BF0AE000BF00200D
:10588000019020684069019020688069019000BF04
:1058900000BFBAE0208D03287ED8208D012815D1C5
:1058A0002A463146204602F0CEFA08B1012062E7CE
:1058B00020680069616A0870606A401C6062208D1F
:1058C000401E2085608D401E60859EE0208D022850
:1058D0002AD13346002257492046009502F00EFA9D
:1058E00008B1012047E72068006840F40070216893
:1058F000086020680069616A0870606A401C606224
:10590000208D401E2085608D401E608520680069C6
:10591000616A0870606A401C6062208D401E2085AC
:10592000608D401E608570E033460022414920466C
:10593000009502F0E3F908B101201CE72068006837
:1059400020F480602168086020680069616A08703E
:10595000606A401C6062208D401E2085608D401E64
:1059600060853346002233492046009502F0C6F98F
:1059700008B10120FFE62068006840F4007021684B
:10598000086020680069616A0870606A401C606293
:10599000208D401E208500E010E0608D401E608557
:1059A00020680069616A0870606A401C6062208D2E
:1059B000401E2085608D401E608526E02A463146C7
:1059C000204602F040FA08B10120D4E620680069C0
:1059D000616A0870606A401C6062208D401E2085EC
:1059E000608D401E608520684069C0F3800060B112
:1059F00020680069616A0870606A401C6062208DDE
:105A0000401E2085608D401E6085208D00287FF41B
:105A100041AF202084F83D00002084F83E0000BF04
:105A200084F83C0000BFA6E60220A4E602001000B5
:105A30000000FFFF040001002DE9FC5F04460F4653
:105A400090469946DDE90CAB0E9EFFF78DFD0546AD
:105A500094F83D0020287DD1192301224D4920468C
:105A6000009502F04BF910B10220BDE8FC9F00BF89
:105A700094F83C00012801D10220F6E7012084F8C7
:105A80003C0000BF2068006800F0010028B92068D1
:105A9000006840F00100216808602068006820F478
:105AA000006021680860212084F83D00402084F8CF
:105AB0003E0000202064C4F824A0A4F82AB0608D21
:105AC00020853548E0624B46424639462046CDE9BE
:105AD000006502F075F808B10120C6E731E02A46FA
