:020000040800F2
:1000000008BF00205D0200088D970008DB7A000819
:100010001B960008691B000829B5000800000000B5
:100020000000000000000000000000009D0100082A
:100030009D36000800000000F901000825A900080D
:1000400077020008770200087702000877020008AC
:10005000770200087702000877020008770200089C
:1000600077020008F1370008FB3700087702000824
:1000700019350008770200087702000877020008A7
:100080007702000877020008770200087D1C00084C
:10009000891B00087702000877020008053800086D
:1000A000770200087702000877020008770200084C
:1000B000770200087702000877020008770200083C
:1000C000770200087702000877020008770200082C
:1000D00077020008C1B4000877020008D5B4000810
:1000E000770200087702000877020008770200080C
:1000F00077020008770200087702000877020008FC
:1001000077020008770200087702000877020008EB
:10011000770200087702000829AA00087702000881
:1001200077020008293500087702000877020008E6
:10013000770200087702000877020008DD1D00083A
:10014000C51C000877020008770200087702000843
:10015000393500084935000859350008E9B4000868
:10016000770200087702000877020008770200088B
:1001700077020008770200087702000800000000FC
:100180007702000877020008DFF80CD000F040FC8E
:1001900000480047F3ED000808BF00202C4B196809
:1001A0000868B0E8F04F80F30988BFF36F8F4FF015
:1001B000000080F3118870470000000008480068C4
:1001C000006880F308884FF0000080F3148862B65E
:1001D00061B6BFF34F8FBFF36F8F00DF00BF00BF6B
:1001E00008ED00E0DFF80C00016841F470010160E7
:1001F000704700BF88ED00E0EFF30980BFF36F8F19
:10020000134B1A681EF0100F08BF20ED108A20E96A
:10021000F04F106009B44FF0500080F31188BFF325
:100220004F8FBFF36F8F10F085FE4FF0000080F30B
:10023000118809BC19680868B0E8F04F1EF0100F6B
:1002400008BFB0EC108A80F30988BFF36F8F704746
:1002500018000020EFF30580704700000648804733
:1002600006480047FEE7FEE7FEE7FEE7FEE7FEE79B
:10027000FEE7FEE7FEE7FEE70DAA00088901000899
:100280009FED1A1AF5EE000A40EE010ABDEEE00AF3
:10029000F5EEC00A10EE100AF1EE10FA38BF401E5B
:1002A00000EE100A1349F7EE001AB8EEC00A30EE5D
:1002B000C00ADFED0F0A20EE200AFCEEC00A10EEA5
:1002C000900AC0F3080000EE900A01EB8000F8EEFF
:1002D000600A90ED011A70EE600A90ED000A71EE6E
:1002E000E01A21EE800A00EE810A704783F9223E6F
:1002F0000000004420240108DFED190AB5EEC00A11
:1003000060EE200ABDEEE01A11EE100AF1EE10FACE
:1003100038BF401E00EE100A1349F7EE001AB8EE7F
:10032000C00A30EEC00ADFED0F0A60EE200ABCEE14
:10033000E00A10EE100AC0F3080000EE100A01EB0C
:100340008000B8EE400A90ED011A70EEC00A90ED00
:10035000000A71EEE01A21EE800A00EE810A704771
:1003600083F9223E00000044202401082DE9F05FBB
:100370000546002092469B46884606468146402414
:100380001BE0284641464746224600F072FA534693
:100390005A46C01A914110D311461846224600F021
:1003A00059FA2D1A67EB01084F4622460120002119
:1003B00000F050FA17EB00094E41201EA4F1010491
:1003C000DFDC484631462A464346BDE8F09F40EA16
:1003D00001039B0703D009E008C9121F08C0042AC3
:1003E000FAD203E011F8013B00F8013B521EF9D2AA
:1003F0007047D2B201E000F8012B491EFBD27047D2
:100400000022F6E710B513460A4604461946FFF7E0
:10041000F0FF204610BD421C10F8011B0029FBD143
:10042000801A7047034611F8012B00F8012B002AAF
:10043000F9D1184670472DE9FE4F804681EA030046
:10044000C00F0C46009021F0004123F00045B8EBAE
:100450000200A94105D24046214690461C460B4663
:10046000024623F00040104347D0270DC7F30A008F
:10047000C3F30A510290401A019040286BDAC3F38B
:10048000130040F4801B0098924620B10023D2EB69
:10049000030A63EB0B0B01985946C0F1400250462A
:1004A00000F0D8F906460D4650465946019A00F02C
:1004B000F0F910EB08006141002487EA115284EA48
:1004C000E7731A4340D0009A62B3019A012A4FEAB7
:1004D000075215DC001B61EB02014FF0004202EAFB
:1004E0000752CDE90042001C41F5801132462B46EF
:1004F00000F027FA03B0BDE8F08F40462146F9E747
:10050000001B61EB0201001C41F5801300185B41E8
:100510002018A2F5001747EB030140EAD570B61981
:100520006D4111E06D084FEA360645EAC0754FEAA5
:100530000752001B61EB0201001C41F580114908C4
:100540004FEA30000019514132462B4603B0BDE856
:10055000F04F00F0E7B90098012240000023D0EBF3
:10056000020263EBE073009821464FEAE074B8EBB7
:10057000000061EB0401E9E783F000435BE781F0F1
:10058000004158E72DE9FE4F81EA030404F00044DE
:1005900021F0004100944FF0000B23F0004350EA9B
:1005A00001045ED052EA03045BD0C3F30A54C1F3E2
:1005B0000A552C44A4F2F3340194A0FB0254C1F375
:1005C000130141F48011C3F3130343F4801301FBBF
:1005D000024400FB034E840A970A44EA815447EA26
:1005E0008357A4FB076802958D0A05FB07854FEA30
:1005F000932C04FB0C542705029D4FEA065847EA4A
:100600001637B5EB08056EEB070C870E920E47EA1E
:10061000811742EA8312A7FB0201B6EB0B0164EBE0
:1006200000042B0D43EA0C335E1844EB1C50DA46F1
:100630005146E7FB0201C5F313044FEA0B3343EACB
:1006400014534FEA0432019C43EA0603A4F10C045C
:100650000294009CCDE900B400F073F903B0BDE84A
:10066000F08F00200146F9E72DE9F04D81EA0304FF
:1006700004F0004B21F0004514464FF0000A23F02F
:10068000004150EA050220D054EA01021DD0C5F312
:100690000A570246C5F31303C1F31300C1F30A5608
:1006A00040F4801543F48013A7EB0608101BD646D0
:1006B00008F2FD3873EB050002D308F1010801E0F0
:1006C00092185B41B8F1000F03DA00200146BDE843
:1006D000F08D00204FF48011064684460EE0171B73
:1006E00073EB050705D3121B63EB050306434CEAC6
:1006F000010C49084FEA300092185B4150EA0107AB
:10070000EDD152EA030012D082EA040083EA050127
:10071000084305D0101BAB4106D20122002306E09E
:1007200000224FF0004302E06FF0010253101AEB79
:1007300006004CEB085110EB0A0041EB0B01BDE841
:10074000F04D00F0EFB80EB5C10F80EAE07008443C
:10075000CA07002140F233438DE80E000A460B46DB
:1007600000F0EFF803B000BD00F0004230F00040B0
:100770000AD0C10D01F56071C0F3160042EA0151C3
:10078000C20840071143704700200146704700002F
:1007900030B5041E71F1000404DB4FF00044404208
:1007A00064EB0101141E73F1000405DB1C464FF0DD
:1007B0000043524263EB04038B4208BF824230BDC8
:1007C00030B5041E71F1000404DB4FF000444042D8
:1007D00064EB0101141E73F1000405DB1C464FF0AD
:1007E0000043524263EB0403994208BF904230BD7C
:1007F00001F0004330B421F0004150EA010206D07C
:100800000A0DA2F56072C1F31301002A02DC30BCAC
:1008100000207047440F44EAC104C100E01830BC16
:1008200000EBC25000F047B830B50B46014600203F
:100830002022012409E021FA02F59D4205D303FAA2
:1008400002F5491B04FA02F52844151EA2F1010223
:10085000F1DC30BD202A04DB203A00FA02F100204E
:1008600070479140C2F1200320FA03F319439040EE
:100870007047202A04DB203A21FA02F00021704759
:1008800021FA02F3D040C2F12002914008431946F8
:100890007047202A06DBCB17203A41FA02F043EAE0
:1008A000E07306E041FA02F3D040C2F12002914029
:1008B0000843194670470029A8BF7047401C4900EB
:1008C00008BF20F00100704710B4B0FA80FC00FAB5
:1008D0000CF050EA010404BF10BC704749B1CCF1E0
:1008E000200421FA04F411FA0CF118BF012121436C
:1008F0000843A3EB0C01CB1D4FEA00614FEA102027
:1009000042BF002010BC704700EBC35010440029C8
:10091000A4BF10BC7047401C490008BF20F0010074
:1009200010BC704710B5141E73F1000408DA401CA7
:1009300041F1000192185B411A4301D120F00100FE
:1009400010BD2DE9F04D92469B4611B1B1FA81F2EE
:1009500002E0B0FA80F220329046FFF77BFF0446B7
:100960000F4640EA0A0041EA0B0153465A46084343
:1009700013D0114653EA010019D0C8F14002504685
:10098000FFF777FF05460E46504659464246FFF7A9
:1009900061FF084305D0012004E020463946BDE848
:1009A000F08D0020054346EAE0762C4337430A9851
:1009B0006305E40AA0EB08000022FD0A44EA47545C
:1009C0000A3002D500200146E9E701051019694106
:1009D000DDE9084500196941BDE8F04DA2E7C1F322
:1009E0000A52C1F3130140F2FF3341F480119A42DD
:1009F00002DA00200146704740F233439A42A2F2E5
:100A0000334202DC5242FFF734BFFFF723BF00003E
:100A1000064C074D06E0E06840F0010394E807004B
:100A200098471034AC42F6D3FFF7B2FB7C2E010896
:100A30009C2E01080EB540F2334102910021CDE910
:100A400000110A460B46FFF77CFF03B000BD70B5EE
:100A5000C1F30A5201F000450024C1F3130140F232
:100A6000FF3341F480119A4201DA002070BD40F258
:100A700033439A42A2F2334203DC5242FFF7F9FEBB
:100A800000E090402C43F1D0404270BD70B58C180E
:100A900010F8015B15F0070301D110F8013B2A1192
:100AA00006D110F8012B03E010F8016B01F8016B7F
:100AB0005B1EF9D12B0705D40023521E0DD401F87B
:100AC000013BFAE710F8013BCB1A921C03E013F844
:100AD000015B01F8015B521EF9D5A142D8D3002079
:100AE00070BD10B52DED028BB0EE408AB0EE480A15
:100AF0000AF064FEBDEC028B10BD10B52DED028B2B
:100B0000B0EE408AF0EE608AF0EE680AB0EE480A75
:100B10000BF04EF9BDEC028B10BD10B52DED028B24
:100B2000B0EE408AB0EE480AFFF7AAFBBDEC028B9C
:100B300010BDF0EE400AF5EEC00AF1EE10FA02DD4B
:100B4000B0EE600A7047B1EE600AFBE718B19FEDA6
:100B5000020A80ED000A70470000000018B19FED06
:100B6000020A80ED000A704700001E4270B52DEDAC
:100B70000C8B84B006460C4615469FED990AF0EEA4
:100B8000408A9FED970AB0EE409A9FED950AF0EEED
:100B900040BA9FED930AF0EE409A9FED910AB0EEB5
:100BA00040AA0EB104B11DB904B0BDEC0C8B70BDF0
:100BB0008C48FFF7CBFF8C48FFF7D0FF8A48D0ED79
:100BC000000A9FED8A1A60EE810AB0EE600A00F01A
:100BD0002DF9F0EE408A28EEA80AF0EE408A82480D
:100BE000D0ED000AB0EE001A60EE810A9FED7F1A88
:100BF00060EE810AB0EE600A00F018F9B0EE409A9B
:100C000029EE090AB0EE409ADFED790AB7EE000A44
:100C100000EEA80ADFED770A00EEC90ADFED760ADA
:100C200020EE200A754880ED000A6E4890ED000A1B
:100C3000DFED730A80EE201AB7EE000A31EE000AEB
:100C400020EE000A6D48D0ED000A80EE801A6D4853
:100C500080ED001A94ED000AB5EEC00AF1EE10FA2C
:100C60000DD194ED010AB5EEC00AF1EE10FA06D1ED
:100C700094ED020AB5EEC00AF1EE10FA46D09FEDEF
:100C8000580AB0EE408A0020019002900390D4ED03
:100C9000000A60EEA00A94ED011AD4ED011A41EEAB
:100CA000210A94ED021AD4ED021A41EE210AB0EEA7
:100CB000600A00F0A9F8B0EE408A94ED000A20EE38
:100CC000080A8DED010A94ED010A20EE080A8DED67
:100CD000020A94ED020A20EE080A8DED030ADDED0A
:100CE000010AF1EE600AB0EE600AFFF7FAFEF0EEDC
:100CF000409A9DED031AF0EE410A9DED021AB0EE06
:100D0000410AFFF7FAFEB0EE40AA07E09FED340A71
:100D1000F0EE409A9FED320AB0EE40AA95ED000A3F
:100D2000B5EEC00AF1EE10FA0DD195ED010AB5EE5F
:100D3000C00AF1EE10FA06D195ED020AB5EEC00A2E
:100D4000F1EE10FA3CD0B0EE690A00F06FF8B0EEA8
:100D5000408AB0EE690AFFF7E0FEB0EE40DAB0EE8E
:100D60004A0A00F063F8F0EE40AAB0EE4A0AFFF734
:100D7000D4FEB0EE40BA28EE2A0AD5ED010A20EEE4
:100D8000200AD5ED000A0DEE200A68EE0B0A95ED5B
:100D9000021A00EE810AB0EE40CA95ED010A20EE7B
:100DA0000B0AD5ED020A0AEEE00AF0EE40CAF0EEB8
:100DB0006C0AB0EE4C0AFFF7A0FEF0EE40BA03E07A
:100DC0009FED070AF0EE40BAB0EE4A1AF0EE690A5B
:100DD000B0EE6B0A30460CF0ADFC00BFE4E600005C
:100DE00000000000240300202803002035FA8E3C78
:100DF000C1BFAD3B9DF8C5362F7C1C412C030020A4
:100E0000506CC24A3003002010B52DED028BB0EEBD
:100E1000408AB0EE480A0BF0C7F9B7EE001AC1EEEF
:100E2000000AB0EE600ABDEC028B10BD10B52DEDCE
:100E3000028BB0EE408AB0EE480AFFF75DFABDECD7
:100E4000028B10BD2DE9F0412DED028B9AB00546C5
:100E5000B0EE408A0E46174698460020179018902C
:100E600019901490159016904DB146B13FB1B8F15C
:100E7000000F04D0B5EEC08AF1EE10FA05D10020C3
:100E80001AB0BDEC028BBDE8F08196ED000A8DED45
:100E9000170A96ED010A8DED180A96ED020A8DEDFE
:100EA000190A97ED000A8DED140A97ED010A8DEDF0
:100EB000150A97ED020A8DED160A17AA14A92846FD
:100EC0000CF08AFA402104A8FFF79AFA002000905B
:100ED000019002900390002417A904A80FF006FDCA
:100EE00000BF30E004A800EB041090ED000AD5ED3F
:100EF000000A20EE200A04A800EB0410D0ED010A3D
:100F000095ED011A00EE810A04A800EB0410D0ED63
:100F1000020A95ED021A00EE810A04A800EB041003
:100F2000D0ED030A95ED031A00EE810A20EE080ABF
:100F3000F0EE000A80EE201A684600EB840080ED97
:100F4000001A601CC4B2042CCCDB002410E005EBBA
:100F5000840090ED000A684600EB8400D0ED000AA2
:100F600030EE200A05EB840080ED000A601CC4B25C
:100F7000042CECDB28460FF03DF9012080E700004F
:100F8000F0EE401A9FED310AB0EE401A9FED2F0AA5
:100F9000B0EE402A9FED2D0AF0EE402A00BFBDEED4
:100FA000E10AB8EEC00A31EEC00AF0EE402ABDEE0A
:100FB000E10A10EE100A4FF4B47190FBF1F201FB5C
:100FC000120000EE100AB8EEC00A30EE220AF0EE6F
:100FD000402A00BF00BFBDEEE00AB8EEC00A30EE06
:100FE000C00AB0EE402ABDEEE00A10EE100A90FBF7
:100FF000F1F201FB120000EE100AB8EEC00A30EE6A
:10100000020AB0EE402A00BF32EEC20AB0EE401A29
:101010009FED0F0AB4EEC01AF1EE10FA06DD9FED57
:101020000D0A31EE400AB0EE401A0CE09FED0A0ABC
:10103000B4EEC01AF1EE10FA05D29FED060A31EEB9
:10104000000AB0EE401A30EE810A7047000000003E
:10105000000034430000B443000034C310B500F076
:1010600019FB1C4800F0F2FA18B102201A49087066
:1010700002E001201849087017480078022803D1BF
:101080004FF47A7004F080F909F064FB09F04CFB2E
:1010900007F042F902F0DCF902F042F802F064FBDA
:1010A0000D48007802280CD102F0CCFB03F022F8A6
:1010B00009F07AF810F03CF80DF082F80DF054FFCA
:1010C00007E005480078012803D100F0DDFE01F0BB
:1010D0001BFA10BD987D00202002002010B50122CF
:1010E0001021024804F098FA10BD000000000240F0
:1010F00010B500221021024804F08EFA10BD000045
:10110000000002407047000010B50122114602485D
:1011100004F082FA10BD00000004024010B5002265
:101120000121024804F078FA10BD000000040240DA
:10113000704710B5044620460DF030FF10BD10B5C5
:101140000446204600F024FA10BD10B50024FFF735
:10115000D9FFFFF7EDFF0CF06FFC10B144F08004F5
:1011600002E00CF0CFFB04430CF05EFE10B144F043
:10117000400402E00CF0DEFD0443204610BD0000F8
:101180002DE9FC4105460E461746002000900190CF
:10119000FFF7AEFF922000F0D1F806226946122038
:1011A00000F0ACF8FFF79AFF9DF80100000200B2D2
:1011B0009DF8001040EA010400EE104AB8EEC00AA3
:1011C0004C48D0ED000A20EE200A86ED000A9DF87A
:1011D0000300000200B29DF8021040EA010400EE94
:1011E000104AB8EEC00A4348D0ED000A20EE200AAB
:1011F00086ED010A9DF80500000200B29DF804107A
:1012000040EA010400EE104AB8EEC00A3948D0EDB9
:10121000000A20EE200A86ED020AFFF77FFF08226F
:101220006946002000F06AF8FFF76EFF9DF80000A5
:101230000F2838D19DF80300000200B29DF802107B
:1012400040EA010400EE104AB8EEC00A2A48D0ED88
:10125000000A20EE200A85ED000A9DF80500000234
:1012600000B29DF8041040EA010400EE104AB8EE06
:10127000C00A2148D0ED000A20EE200A85ED010ABF
:101280009DF80700000200B29DF8061040EA010434
:1012900000EE104AB8EEC00A1748D0ED000A20EE62
:1012A000200A85ED020AFFF723FFA22000F046F88E
:1012B00002226946222000F021F8FFF70FFF9DF877
:1012C0000000C0009DF8011040EA6114B4F5806F81
:1012D00002DBA4F5006004B200EE104AF8EEC00A8A
:1012E000B4EE001AB3EE070A00EE810A87ED000A99
:1012F000BDE8FC81F4000020F800002070B506462F
:101300000C46154646F0800000F018F806E055201F
:1013100000F014F82070641C681EC5B2002DF6D1D0
:1013200070BD70B504460D4644F0800000F006F82C
:10133000552000F003F8287070BD000001B582B0A0
:101340004FF47A70012301AA02A90090024805F027
:1013500059FA9DF804000EBD840A002070B50546B8
:101360000C462846FFF7EAFF2046FFF7E7FF70BD6F
:1013700030B58BB005460C4606940020079001203E
:1013800008900020019002900390049005900120A5
:1013900009900E200A9001A9284603F0B7F808B179
:1013A00002F035FA0BB030BD70B504460D460F495A
:1013B0002068884204D100212046FFF7D9FF07E0CA
:1013C0000B492068884203D10E212046FFF7D0FF49
:1013D000204603F012FD08B102F019FA2946204612
:1013E00002F0D4FF08B102F012FA70BD00640040B0
:1013F000006800402DE9F04104460E461746984625
:1014000014B90120BDE8F0812660002084F8240092
:101410002762C4F828804FF4807310223946201DBB
:101420000DF0D2F800250EE0094850F8250040B92B
:1014300003213046FFF7B8FF054840F8254000205B
:10144000E0E7681CC5B2022DEEDB0120DAE7000000
:101450009400002002460AB90120704709B9012012
:10146000FBE791620020F8E72DE9FF5F044689461B
:1014700092461D464FF0010B5746CDF800900026CE
:1014800000BF00BFEFF31080804600BF72B600BF00
:1014900025E0201D0DF0ADF818B1002084F82400DF
:1014A0001FE0A81B082803DB08208DF8040003E0D8
:1014B000A81BC0B28DF804003868CDF80500796823
:1014C000CDF809109DF8040007449DF8040030444D
:1014D00086B26946201D0DF093F84FF0000BAE4226
:1014E000D7DB00BF00BF00BF88F3108800BF00BF7C
:1014F00000BF94F8240030B9201D0DF073F810B926
:10150000204600F073FC584604B0BDE8F09F000090
:10151000074800680749B0FBF1F007490870044824
:1015200000684FF47A71B0FBF1F00449086070472D
:101530001400002040420F009C000020A00000206A
:1015400070B50346002400210020002200254FF042
:10155000E02675690D4E366803FB06F44FF0E02671
:10156000B16910E04FF0E026B06988420BD08842A4
:1015700002D20E1A324402E02E1A0E4432440146C0
:10158000A24200D300E0EDE700BF70BDA000002044
:1015900070B50346002400210020002200254FF0F2
:1015A000E02675690D4E367803FB06F44FF0E02611
:1015B000B16910E04FF0E026B06988420BD0884254
:1015C00002D20E1A324402E02E1A0E443244014670
:1015D000A24200D300E0EDE700BF70BD9C000020F8
:1015E00010B504460CB9012010BD22606360217261
:1015F0000020F9E730B504460D460CB9012030BD96
:101600002560626005202072E36000210AE007483F
:1016100050F8210020B9054840F821400020EEE7AD
:10162000481CC1B20A29F2DB0120E8E7504D002036
:1016300070B504460D46164625606660042020728B
:10164000D4E9000105F0FAFD002070BD10B5044694
:10165000A28891B2206803F0D7FF10BD42681AB982
:1016600002681268516310E04268042A03D10268DC
:101670001268916309E04268082A03D1026812687F
:10168000D16302E0026812681164704710B503F07C
:10169000C9FF10BD08B5FFF73BFF4FF48053344A34
:1016A00003213448FFF79CFF334B01223349344870
:1016B000FFF7A0FF082233493348FFF7B9FF0422A0
:1016C00030493248FFF7B4FF00222E493048FFF777
:1016D000AFFF00222F493048FFF7AAFF08222F4909
:1016E0002F48FFF7A5FF08222E492F48FFF7A0FF3C
:1016F0002E492F4800F0DEF84FF480602D4B421049
:101700002D4900902A4800F026F900234FF400727A
:101710002A49274800F0ECF829492A4800F0CAF87D
:101720004FF48060284B421028490090254800F073
:1017300012F900234FF400722549224800F0D8F82E
:101740002449254800F0B6F800231E2223492248E8
:1017500000F0CEF80023224A22492348FFF74AFE30
:101760000023224A22492348FFF744FE08BD000017
:1017700000040240987D0020A9ED0008000002400E
:10178000087E0020B40B0020A87D0020B87D00203A
:10179000C87D0020FC0B0020D87D00206C0B0020B1
:1017A000E87D0020240B0020F87D0020CC0C0020D8
:1017B000187E0020784F0020784D002078530020BC
:1017C000440C0020547E00207857002078550020DB
:1017D000785B0020880C0020907E0020785D00203F
:1017E000965D0020E0090020CC7E0020966D002050
:1017F000080A0020F87E0020F8B50446002620687C
:10180000006800F01000102846D12068C06800F081
:101810001000002840D0A06B0068006820F0010094
:10182000A16B0968086000252CE0214850F82500CC
:10183000006800682168884222D11D4850F82500C0
:10184000C088A16B09684968401A86B2184850F8E8
:101850002500C06848B1164951F825108868144918
:1018600051F82510CA6831469047114850F82500B4
:10187000C2880F4850F825008168204606F07EF89F
:10188000681CC5B2032DD0DBA06B0068006840F077
:101890000100A16B0968086000BF0020009020686B
:1018A0000068009020684068009000BF00BFF8BD4D
:1018B000247F002070B504460D460CB9012070BD90
:1018C0003C212046FEF79CFD256000210AE00748E8
:1018D00050F8210020B9054840F821400020EEE7EB
:1018E000481CC1B20329F2DB0120E8E7247F002075
:1018F000F8B504460D4616461F460CB90120F8BD42
:1019000001202071A560E680E76000BF0020009004
:1019100020680068006800902068006840680090B7
:1019200000BF00BF20680068C06840F01000216858
:101930000968C860E288A168206806F01FF80020E6
:10194000DDE702460AB90120704709B90120FBE72B
:10195000D1600020F8E72DE9F04104460E46174615
:101960001D46DDF8188014B90120BDE8F081012082
:101970002074666127836563A4F83880002084F8AA
:101980003A004246294604F11C000CF0D1FE00202A
:10199000EBE72DE9F04704468846174614B90120C5
:1019A000BDE8F087207C08B90120F9E794F83A00F7
:1019B00090B9208BB84202DD3D46002614E0208B12
:1019C000218F0844B84204DD258B208B381A86B25B
:1019D0000AE0258B268F07E0208FB84202DD002524
:1019E0003E4601E00025268F002D0CDD2A464146AB
:1019F0006069FEF7ECFC012084F83A002A46616930
:101A0000206805F0FDFF002E0DDD08EB05013246D4
:101A100004F11C000CF097FE00F0FF09B14501D065
:101A20000120BDE700BF0020BAE7000010B5FFF7B6
:101A30002DFE04464FF47A70B4FBF0F0032800D278
:101A400010BD1C480068201A40F6C411884208D90D
:101A5000194800781949087016480460184804604D
:101A600025E01648007810B315480068201A15497B
:101A70000988884205D296214FF4FA7000F076F872
:101A800015E00F480068201A0E4909880E4A12888E
:101A90001144884204D20021084600F067F806E0AD
:101AA00006480078401E054908700548046000BFDC
:101AB000C6E70000E8000020E0000020F000002061
:101AC000EC000020E2000020E40000200149087042
:101AD00070470000E000002070B52DED068B044635
:101AE000B0EE408A01F0AAFE0546606828B965603C
:101AF00025600020BDEC068B70BD6068281A216946
:101B0000884202D9A5600120F4E718EE100AFEF71A
:101B10002BFE41EC1A0BB0EE4A0AF0EE6A0A0AF00C
:101B2000D3FAB0EE409AF0EE609A9FED0A0B53ECB8
:101B3000102B51EC190BFEF72BFE07D22068281A48
:101B4000E168884203D9A5600120D3E72560002021
:101B5000D0E70000000000000000F03F00234360D9
:101B60008360C1600261704700BFFEE770B5044644
:101B70000D46044800680068C46229460148FFF722
:101B80006DFD70BDE87D002010B5024802F02EFE0C
:101B900010BD0000E009002070B505460E46144651
:101BA000281E09D0A0F2052000B3A0F2FB2038B314
:101BB000B0F5007F36D12CE031461C480CF0FCFB20
:101BC000062007F003FE194890ED080A184880ED3A
:101BD000590A164890ED090A154880ED5A0A13482B
:101BE00090ED0A0A124880ED5B0A1CE01049D1F81A
:101BF0007401314607F013FD052007F0E7FD12E000
:101C0000A2B231460B4801F02EFA0F2007F0DEFD9C
:101C100009E0A2B23146084801F025FA0E2007F08B
:101C2000D5FD00E000BF00BF70BD0000288400208B
:101C300094930020309B0020DC9F002070B5044668
:101C40000E461546B4F5C06F05D1AAB23146034819
:101C500001F009FA00E000BF00BF70BDB4AD002084
:101C600070B504460D462B4622464FF4E06102480B
:101C7000FFF7FAFB70BD0000CC7E002010B50248D3
:101C800002F0B4FD10BD0000E009002070B504466C
:101C90000D462B4622464FF4C0610248FFF7E4FB95
:101CA00070BD0000CC7E002070B504460D462B466A
:101CB00022464FF4A0610248FFF7D6FB70BD00003A
:101CC000CC7E002010B5024802F090FD10BD00004F
:101CD000080A00202DE9F04104460D461746A4F2FB
:101CE0000120082841D2DFE800F0040E182240400D
:101CF0002C3601F08FFD0646294607F090FC08209F
:101D000007F064FD32E001F089FD0646294607F040
:101D100086FC092007F05AFD28E001F083FD064605
:101D2000294607F07CFC0A2007F050FD1EE001F078
:101D30007DFD0646294607F072FC0B2007F046FDA4
:101D400014E009F0D1F80646294607F068FC0C209B
:101D500007F03CFD0AE009F0CBF80646294607F0FB
:101D60005EFC0C2007F032FD00E000BF00BFBDE8C4
:101D7000F08100002DE9F04104460D46164640F280
:101D80000321601A8C420DD005DCA4F2012038B189
:101D900001281DD105E0012805D00E2818D112E038
:101DA00000BF00BF00BF601EC7B207EB87020A4931
:101DB00001EB02110868294607F031FC791CC8B212
:101DC00007F004FD05E0F1B2284608F001FD00E04F
:101DD00000BF00BFBDE8F08138A7002010B5024861
:101DE00002F004FD10BD0000080A002030B58BB0E1
:101DF00004460CB90BB030BD00BF00BFEFF310803C
:101E0000054600BF72B600BF201D0CF0EBFB00BB07
:101E100015E007A9201D0CF0B8FB079801900020E1
:101E2000039004909DF820000590012084F8240080
:101E30006B460DF1210201A9206802F0BCFA20686E
:101E400002F0B9FC40B1201D0CF0CCFB0028E0D022
:101E500002E0002084F8240000BF00BF85F3108852
:101E600000BF00BF00BF00BFC4E7704770B50446A5
:101E70000D462A462146034801F0F5F80E2007F0EA
:101E8000A5FC70BD0CB5002038B501F011FB5B4915
:101E9000086006F0B1F95949486059488860002047
:101EA00008739FED580A084680ED040A9FED560A14
:101EB00080ED050A9FED540A80ED060A9FED530A56
:101EC00080ED070A9FED510A80ED080A00241FE00B
:101ED000204600F06DF904EB84024849243101EBFF
:101EE0000211086004EB84024449243101EB021121
:101EF000081D9FED462ADFED461AB1EE0A1ADFED06
:101F0000450A9FED450A03210DF0AAFA601CC4B2F0
:101F1000042CDDDBB0EE002ADFED3C1AB1EE001A36
:101F2000DFED3E0A9FED3E0A03213E480DF098FA90
:101F30000023642201210E2007F02AFC03236422DF
:101F40000121102007F024FC00236422012111202C
:101F500007F01EFC344B4FF480623449344801F0E2
:101F600053F934484FF48063334AAA210090334830
:101F700001F09EF8324B4FF400723249324801F0C2
:101F800043F932484FF40073314AA521009031489B
:101F900001F08EF80A2200212F4808F05BFB0A228C
:101FA00000212E4808F056FB642200212C4808F03E
:101FB00051FB2C4B4FF400722B492C4801F024F9B3
:101FC0001E2200212A4808F045FB284800F0E0FEC8
:101FD00028492948FFF7B5FC28492948FFF7B1FCF3
:101FE00028492948FFF7ADFC28492948FFF732FA6C
:101FF00028490348FFF72EFA38BD000014A7002037
:10200000F87E0020D053FB430080A2430000000074
:10201000CDCCCC3D0000FA4400007A460000484296
:102020000000964378A80020A91C0008B4A900204D
:1020300008A900202DB5000860AE0020B4AD002036
:10204000611C00080CB3002060B20020F199000868
:10205000B8B500200CB50020A1AE00084121000851
:1020600075A800080130000864B80020B8B7002047
:10207000C9290008E9340008907E00206D1E000880
:10208000187E0020E5970008547E00203D1C0008C3
:10209000CC7E0020751D000813480068807918B9AF
:1020A0000020114908731EE00F480068807901285C
:1020B00002D10D49087316E00B48006880790228A8
:1020C00002D1094908730EE00748006880790328A7
:1020D00002D10549087306E00348006880790428A6
:1020E00001D101490873704714A7002010B51248A8
:1020F000006890ED020A1048D0ED6A0A30EE200A1E
:1021000080ED6D0A006890ED030A0B48D0ED6B0A74
:1021100030EE200A80ED6E0AD0ED780AF1EE600A0A
:10212000B0EE600ADFED050A00F5B2700DF082F83E
:10213000014880ED6F0A10BD14A7002000000000C8
:1021400038B5054600F01CF804460B48D0F8B40139
:10215000C4F801000848D0F8B801C4F805000648E2
:10216000007B2070092023460222AA210090034808
:1021700000F0EAFF002038BD14A7002008A90020C5
:1021800000487047767F00202DE9FC4104460D464B
:1021900016461F460549CDE900672B46224688684A
:1021A0004FF4007107F0C7FABDE8FC8114A70020C6
:1021B000014601EBC100024A02EB800070470000BB
:1021C0003882002070B501F02BFD044609F0E0F9DB
:1021D000054654F8050F00EE100AB1EE400A174804
:1021E00080ED780A4068D0ED5A0A606800EE100A67
:1021F00030EEC00A114880ED7A0A406890ED5B0A23
:102200000E4880ED7B0A4068D0ED5C0AA06800EEC5
:10221000100A30EEC00A094880ED790AD4F815009A
:102220000649C1F8A801D4F81900C1F8AC01D4F8E6
:102230001D00641FC1F8B00170BD000014A700208C
:102240000848006890ED020A0648D0ED6A0A30EEB0
:10225000200A80ED6D0A006890ED040A014880EDC7
:102260006F0A704714A7002010B52DED048B4E485F
:10227000006890ED020A4C48D0ED6A0A30EE200A60
:1022800080ED6D0A006890ED030A4748D0ED6B0AB7
:1022900030EE200A80ED6E0A90ED6D0A10EE101AF5
:1022A0000846FEF761FA41EC190BB0EE490AF0EE70
:1022B000690A09F009FFB0EE408AF0EE608A9FEDEE
:1022C0003B0B53EC102B51EC180BFEF761FA22D2AA
:1022D000354890ED6E0A10EE101A0846FEF744FAE3
:1022E00041EC190BB0EE490AF0EE690A09F0ECFE78
:1022F000B0EE408AF0EE608A9FED2C0B53EC102B71
:1023000051EC180BFEF744FA05D29FED2A0A264835
:1023100080ED6F0A44E0244890ED6D0A10EE101A2B
:102320000846FEF721FA41EC190BB0EE490AF0EE2F
:10233000690A09F0C9FEB0EE408AF0EE608A9FEDAE
:102340001E0B53EC102B51EC180BFEF721FA22D286
:10235000154890ED6E0A10EE101A0846FEF704FAC2
:1023600041EC190BB0EE490AF0EE690A09F0ACFE37
:10237000B0EE408AF0EE608A9FED0F0B53EC102B0D
:1023800051EC180BFEF704FA05D29FED0A0A064835
:1023900080ED6F0A04E09FED070A034880ED6F0AA5
:1023A000BDEC048B10BD000014A70020000000004D
:1023B00000407F400000FA430000000000408F40D2
:1023C0009FED060A064880ED6D0A9FED040A80ED38
:1023D0006E0A9FED020A80ED6F0A70470000000050
:1023E00014A7002000BFFFF7EDFEFFF755FE43489E
:1023F000007B012806D0022807D0032808D0042833
:102400000CD108E0FFF7DCFF09E0FFF76FFE06E004
:10241000FFF716FF03E0FFF727FF00E000BF00BF54
:10242000364800F085F800243DE0354800EB840094
:1024300090ED000A04EB84013048243000EB0110D9
:1024400080ED120A04EB84022C49243101EB0211C5
:1024500091ED121AF0EE410A04EB8402274924316F
:1024600001EB02110968B1F9041001EE101AB8EE7F
:10247000C11AB0EE410A04EB84022049243101EB79
:102480000211081D0CF0D6FEBDEEC00A10EE100AB7
:1024900001B204EB84021948243000EB0210A0F8CA
:1024A0004C10601CC4B2042CBFDB144800F05AF876
:1024B0001248007B70B900200AE0002200EB800384
:1024C0000E49243101EB0311A1F84C20411CC8B284
:1024D0000428F2DB094CB4F96031B4F91021B4F9E5
:1024E000C010B4F97000FFF74FFE0A200CF056FD43
:1024F00000200EF04DFA0349086074E714A700208D
:10250000D4A80020E402002000B587B01C220649B0
:102510006846FDF75CFF002168460CF068FD034942
:10252000086007B000BD0000B8230108E0020020E9
:1025300010B50446094A0A49204600F019F994EDFD
:102540006F0AB0EE401A0548D0ED000A044890ED3D
:10255000000A204606F002FE10BD0000DC0200204A
:10256000D802002070B52DED0E8B04469FED780A41
:10257000B0EE40EA9FED760AB0EE408A9FED740A15
:10258000F0EE408A9FED720AB0EE409A9FED700A1D
:10259000F0EE409A07F026FA05461DB10E2000F035
:1025A00035F920B19FED6B0AB0EE40EA5AE0022DFA
:1025B00001D00C2D04D19FED680AB0EE40EA51E045
:1025C00007F0A2FA008900EE100AB8EE400AB0EE59
:1025D000409A07F09DFA408900EE100AB8EE400AD2
:1025E000F0EE409A9FED5D0AB4EEC09AF1EE10FA5B
:1025F00014D2F1EE040AB4EEE09AF1EE10FA04DD22
:10260000DFED560A89EE200A01E09FED550ADFED65
:10261000510A60EE200AB0EE60EA23E09FED510A15
:10262000F4EEC08AF1EE10FA18DDF4EEE98AF1EE6C
:1026300010FA08D279EEE80A9FED4A1A39EEC11A6B
:1026400080EE810A01E09FED420ADFED420A9FED34
:10265000461A41EE000AB0EE60EA03E09FED430A3D
:10266000B0EE40EA002627E006EB860204F12401E2
:1026700001EB0211B1F94C00FEF765F841EC1D0BBE
:10268000B0EE4D0AF0EE6D0A09F01EFDB0EE40BA54
:10269000F0EE60BA18EE100AFEF766F841EC1C0B7B
:1026A00053EC1B2BFDF7C7FE41EC1A0BFEF7A0F80D
:1026B00008EE100A701CC6B2042ED5DBB4EECE8A2A
:1026C000F1EE10FA40DDCEEE080AB0EE600AB4F981
:1026D000700000EE900AF8EEE00A60EE800AFDEE6F
:1026E000E00A10EE900A01B2A4F87010B4F9C0002C
:1026F00000EE900AF8EEE00A60EE800AFDEEE00AD5
:1027000010EE900A01B2A4F8C010B4F9100100EE66
:10271000900AF8EEE00A60EE800AFDEEE00A10EEA4
:10272000900A01B2A4F81011B4F9600100EE900A09
:10273000F8EEE00A60EE800AFDEEE00A10EE900A84
:1027400001B2A4F8601100BFBDEC0E8B70BD00009B
:102750000000000000007A4600007A47000048426E
:10276000CDCCCC3D0000204200409C4600A00C4750
:1027700070B52DED028B04460D46164694ED780A91
:10278000DFED1F0A80EE201AB0EE418AB0EE480A53
:10279000FDF7B2FD1B4880ED000A94ED780ADFEDED
:1027A000180A80EE201AB0EE418AB0EE480AFDF712
:1027B00067FD154880ED000A94ED6D0A1148D0EDD3
:1027C000000AF1EE600A20EE200AD4ED6E0A0E48EF
:1027D00090ED001A01EE200A86ED000A94ED6D0AD4
:1027E000D0ED000A20EE200AD4ED6E0A054890EDE7
:1027F000001A01EE200A85ED000ABDEC028B70BDC7
:1028000033336542BC020020C00200200146044868
:1028100000EB0110C078012800D170470020FCE7D0
:102820006491002038B505460C464FF4807000F0E6
:10283000D7FA8DF800508DF801400221684600F06B
:1028400003FB38BD2DE9F05F2DED028B04460D46EC
:1028500016461F46B0EE408ADDE90EABDDE90C8975
:102860001CB9BDEC028BBDE8F09F0F212046FDF79F
:10287000C7FD2846FDF7CFFD032800D9F1E729461B
:102880002046FDF7CFFD14F8030F20F00700401C91
:102890002070207820F0380028302070208866F3DF
:1028A0008910208007F57070B4F8051060F38C0172
:1028B000A4F8051008F51670E18860F34F11E18067
:1028C000B4F8010069F38E10A4F8010001216088BA
:1028D00061F3CF106080A0886AF30900A08060785F
:1028E0006BF3850060709FED0A0A28EE000ABDEECA
:1028F000C00A10EE100AA060E41E40F2011000F0C1
:102900006FFA0F21204600F09FFA00BFA9E70000F0
:1029100000007A442DE9F05F04460D4616461F4636
:10292000DDE90CABDDE90A890CB9BDE8F09F0F21A8
:102930002046FDF765FD2846FDF76DFD032800D90B
:10294000F3E729462046FDF76DFD14F8030F20F04C
:102950000700401C2070207820F03800207020886C
:1029600066F38910208007F57070B4F8051060F3E5
:102970008C01A4F8051008F51670E18860F34F117A
:10298000E18009F57070B4F8091060F38C01A4F8C7
:1029900009100AF51670618960F34F116181A088F2
:1029A0006BF30900A08061780E9860F38501617077
:1029B000E41E40F2011000F013FA0F21204600F04F
:1029C00043FA00BFB1E70000F0B52DED028B83B0F4
:1029D000074607F007F80446204600F00DFA04F514
:1029E000807000F003FA0DF005FE01F019F90546BC
:1029F0006D48008801287CD16C48407801280BD1B3
:102A000002216B4800F0CCF96AA1694800F0D4FAC1
:102A10000220664948700DE06448407850B90421AE
:102A2000634800F0BDF964A1614800F0C5FA0220D6
:102A30005E4948705D48807801280BD102215F48CB
:102A400000F0AEF95BA15D4800F0B6FA02205749EC
:102A500088700DE05548807850B90421574800F03F
:102A60009FF955A1554800F0A7FA02204F498870F8
:102A70004E48007801280BD10621504800F090F90B
:102A80004FA1514800F098FA0220484908700DE023
:102A90004648007850B90621484800F081F94BA11A
:102AA000494800F089FA022040490870494890EDF1
:102AB000000ADFED490A30EE600A9FED481AC0EEC9
:102AC000010A9FED471A9FED470A10EE810A46481A
:102AD00080ED000A3F4890ED000ADFED3F0A30EE3E
:102AE000600ADFED3E0A80EE201A11EE106A3046D1
:102AF00000E053E0FDF738FE41EC180B9FED3B0B77
:102B000053EC102BFDF744FE04D20421394800F0A9
:102B100047F903E00221374800F042F92D4890EDD3
:102B2000000ADFED2D0A30EE600ADFED2C0A80EEA0
:102B3000201AB5EEC01AF1EE10FA04D29FED2E0A5B
:102B4000294880ED000AD5F8260000EE100ADFEDD6
:102B5000220A80EE201AB0EE418AB0EE480A2748D9
:102B600000F028F96FF4ED7000901F4890ED000A16
:102B7000BDEEC00A10EE100A03B26FF4ED722049E8
:102B80001C4800F03FF91F48014602460346CDE9C4
:102B9000002102901949174800F07CF9002003B089
:102BA000BDEC028BF0BD000026020020C001002019
:102BB000C09200206F6E00006F666600ED920020EC
:102BC0007370696E000000001A930020666F6C6CD1
:102BD0006F770000A801002000007A440000C8447C
:102BE0000000434400009143340200203333333368
:102BF0003333D33F84920020000091C356930020CA
:102C0000DEFEFFFF749300202DE9F05F04460D46C1
:102C100016461F46DDE90CABDDE90A890CB9BDE8B3
:102C2000F09F0F212046FDF7EBFB2846FDF7F3FB55
:102C3000032800D9F3E729462046FDF7F3FB14F8F3
:102C4000030F20F00700401C2070207820F038008F
:102C500008302070208866F38910208007F5707096
:102C6000B4F8051060F38C01A4F8051008F516708F
:102C7000E18860F34F11E18009F57070B4F8091034
:102C800060F38C01A4F809100AF51670618960F3ED
:102C90004F116181A0886BF30900A08061780E98C4
:102CA00060F385016170E41E40F2011000F098F8B5
:102CB0000F21204600F0C8F800BFB0E72DE9F05F13
:102CC00004460D4616461F46DDE90B8ADDF82890BE
:102CD0000CB9BDE8F09F2D212046FDF791FB284659
:102CE000FDF799FB032804D84046FDF794FB1E2806
:102CF00000D9EEE729462046FDF794FB14F8030FB0
:102D000020F00700401C2070207820F03800383078
:102D10002070208866F38910208007F57070B4F861
:102D2000051060F38C01A4F8051009F51670E18810
:102D300060F34F11E180B4F801006AF38E10A4F83B
:102D400001004046FDF767FB618860F3CF116180A9
:102D5000A1880D9860F30901A18061780E9860F355
:102D600085016170E41E414604F10F00FDF75AFB36
:102D70004FF4887000F034F84046FDF74CFB0F30FC
:102D80001FFA80FB5946204600F05EF800BFA0E71E
:102D900000B970470149086000BFFAE7DC00002075
:102DA00008B1082900DD7047027961F385020271DC
:102DB00000BFF8E720B1C178C1F3C201052900D0F6
:102DC0007047DFED060A60EE200AFDEEE00A10EE25
:102DD000901AC0F80B1000BFF2E7000000007A4420
:102DE0000149088070470000D40000200149888014
:102DF00070470000D400002001494880704700005F
:102E0000D400002070B5049C00B970BD01F5707548
:102E1000068965F38C06068102F51675B0F809601F
:102E200065F34F16A0F8096003F57075868965F3A0
:102E30008C06868104F51675B0F80D6065F34F16A3
:102E4000A0F80D6000BFE0E738B505460C460E4817
:102E5000006800B938BD0D480D490A6802608988CC
:102E6000818022462946801DFDF7B1FAA01D80B25F
:102E7000064B40F20132A52100900348006800F0A3
:102E800063F900BFE6E70000DC000020B97F002006
:102E9000D40000202DE9F04F8BB0074688469146BC
:102EA0009A460024A3460497CDF81480CDF81890D4
:102EB000CDF81CA0149808901598099016980A90BF
:102EC0003A4E002007E004A951F8201009B1611C16
:102ED000CCB2411CC8B20728F5DB012C05D1A346B2
:102EE00040F20110FFF77CFF1CE0022C05D1A34645
:102EF0004FF48170FFF774FF14E0052C06DC4FF0EF
:102F0000050B40F20310FFF76BFF0BE0072C06DC0C
:102F10004FF0070B4FF48270FFF762FF02E00BB037
:102F2000BDE8F08F2248016831608088B080B61D0E
:102F3000002518E004A850F8250090B104A850F826
:102F40002500C07820F00700801C04A951F8251046
:102F5000C87004A850F825100F223046FDF737FA44
:102F60000F36681CC5B2072DE4DB5C4510DA002083
:102F7000009001900290039007E00F2269463046CE
:102F8000FDF725FA0F36601CC4B25C45F5DB00BFC7
:102F9000C4EB0410801D054B40F20132A5210090C6
:102FA0000448006800F0D0F800BFB8E7B97F0020FF
:102FB000D4000020DC00002070B504460D464CB162
:102FC0002846FDF728FA1E2804D8E078C0F3C2008E
:102FD000072800D070BD294604F10F00FDF722FA42
:102FE0004FF48870FFF7FCFE2846FDF714FA0F3007
:102FF00086B231462046FFF727FF00BFEAE7000010
:1030000070B504460D462A4621460248FEF7C1FC2B
:1030100070BD0000187E00202DE9FF470446884659
:1030200099460C9D05F1090086B2802E03DD002033
:1030300004B0BDE8F08704F1210787F80080A7F805
:1030400001503846BDF80810E18405210AF03EFC25
:103050002A464946F81DFDF7BAF9314638460AF0C6
:103060001FFC3046E4E770B504460E46154604B929
:1030700070BD04F108000BF0E2FAA84205DD2A4613
:10308000314604F108000BF05EFB00BFF0E70000E2
:1030900070B50648456804E02C46204600F0D8F894
:1030A0006D6802488542F7D170BD0000A400002081
:1030B0002DE9F04704460E4617469846DDF8209065
:1030C0000CB9BDE8F0870D48456803E0A54200D182
:1030D000F7E76D6809488542F8D1014620460BF0B4
:1030E00081FE84F820604246394604F108000BF066
:1030F0001FFBC4F8A89000BFE3E70000A400002075
:1031000000BFFFF7C5FF00F041F801200BF046FFBC
:1031100000200DF03DFC01490860F2E71C02002090
:1031200000B587B01C2206496846FDF750F900211A
:1031300068460BF05CFF0349086007B000BD000063
:103140005C230108180200202DE9F84304460E46CE
:1031500017469846089D0CB9BDE8F88304F10800AD
:103160000BF06DFAA8420FDD43463A463146204641
:103170000095FFF751FF81464A4604F1210104F111
:1031800008000BF0E0FA00BF00BFE5E72DE9F041D1
:10319000A0B080216846FDF733F90026B04600272D
:1031A0001848456827E02C4604F108000BF01EFB88
:1031B00086B2FEB1D4F8A80050B1D4F8A800804778
:1031C0008046B04501DA404600E03046074600E060
:1031D0003746802F00DD80273A46694604F1080013
:1031E0000BF056FAD4F8A40020B139466846D4F85A
:1031F000A42090476D6803488542D4D120B0BDE833
:10320000F0810000AC0000202DE9F04104460F469B
:1032100090461E460CB9BDE8F0810C48456803E0B5
:10322000A54200D1F7E76D6808488542F8D101460C
:1032300020460BF0D7FD4246394604F108000BF05A
:1032400077FAC4F8A46000BFE5E70000AC000020F6
:1032500070B5044600258AE004F108000BF0F2F98D
:10326000054694F8210006287BD2DFE800F003141D
:103270001F353F5794F82000A84209D1012084F857
:103280002100618C481C608404F12600455401E053
:10329000002060846AE0A584618C481C608404F18D
:1032A00026004554022084F821005FE0A08C40EA0B
:1032B0000520A084618C481C608404F126004554DC
:1032C000A08C772803D2032084F8210003E000209B
:1032D00084F82100608449E0618C481C608404F11A
:1032E00026004554042084F821003FE0618C481CEE
:1032F000608404F126004554608C05280DD1052119
:1033000004F126000DF07AFE18B1052084F82100A2
:1033100003E0002084F82100608427E0618CA08C09
:103320000930814205D2618C481C608404F126007A
:103330004554618CA08C0930814210D3002084F860
:1033400021006084A08C00F1090104F126000DF039
:1033500037FE20B104F12601204608F0CFF805E041
:10336000FFE7002084F82100608400BF00BF04F163
:1033700008000BF03BFA00287FF46EAF70BD000030
:1033800000BF06F0C9FB2F48007920B101281BD0EF
:1033900002283FD130E000F043FC007801280CD037
:1033A00000F03EFC007840B101202649087104205D
:1033B000487102208871C87105E0012021494871D7
:1033C00088710220C87126E01E480068007A032830
:1033D00002D106F0D5FB0EE01A480068007A0128F9
:1033E00002D105F0C5F906E016480068007A022807
:1033F00001D108F0D1F80EE01120FFF707FA18B953
:1034000000201049087104E000200E4948718871BD
:10341000C87100E000BF00BF1120FFF7F7F910B13D
:103420000220084908710748162201680648FCF77F
:10343000CEFF14200BF0B2FD00200DF0A9FA0349D5
:1034400008609EE7D490002008910020BC01002075
:1034500000B587B006F0B8FA10490860002008717E
:103460000120887148710220C871002081F8300065
:103470004B210B480CF020FF4B210A480CF01CFF9D
:103480001C2209496846FCF7A2FF002168460BF0A0
:10349000AEFD0649086007B000BD0000D4900020D2
:1034A000C8010020DC01002008230108B801002029
:1034B00000487047D4900020F8B504460D4606F049
:1034C00083FA06462A46214606F0C6F9234601221B
:1034D000AA2104480095FFF737FE112006F076F97F
:1034E000F8BD000084960020F8B504460D4606F0AD
:1034F0006BFA06462A46214606F0AEF9234601221B
:10350000AA2104480095FFF71FFE112006F05EF97E
:10351000F8BD000008A9002010B5024801F054FDD4
:1035200010BD0000D00D002010B5024801F04CFD88
:1035300010BD0000300E002010B5024801F044FD1F
:1035400010BD0000100D002010B5024801F03CFD38
:1035500010BD0000900E002010B5024801F034FDAF
:1035600010BD0000700D00200146087810381823A7
:10357000B0FBF3F20848805CC865032A05D90868E7
:103580006FF30900001D886503E008686FF3090008
:103590008865886D704700009C1F01080146002067
:1035A0008A6A8B69CBB932B1012A0DD0022A03D0C5
:1035B000032A10D10EE000BFCB6A03F08073B3F191
:1035C000807F00D1012007E0CB6AB3F1C07F00D13A
:1035D000012001E000E000BF34E08B69B3F5005F3B
:1035E0001AD132B1012A07D0022A03D0032A11D1FD
:1035F0000AE000BF01200EE0CB6A03F08073B3F154
:10360000807F00D1012006E0CB6AB3F1C07F00D1FA
:10361000012000E000BF15E032B1012A05D0022AE6
:1036200004D0032A0CD103E000BF00BF012008E052
:10363000CB6A03F08073B3F1807F00D1012000E0FA
:1036400000BF00BF704730B50468246824F48024AC
:1036500005682C60046863608468402C04D10468A9
:10366000A2600468E16003E00468A1600468E260AD
:1036700030BD0000F0EE400A9FED061AB0EE410AA0
:103680009FED051A20EE811AF0EE410AB0EE600AB5
:103690007047000000000000E02E65427047000007
:1036A00000BFFDF7F3FF0546FF260024012026E0BA
:1036B0002A4901EB00114968691A284A02EB0012F5
:1036C0009268914215D9254901EB0011097881B121
:1036D0000121224A02EB0012D170204901EB0011B6
:1036E0008978B1420ADA1D4901EB00118E78C4B223
:1036F00004E00021194A02EB0012D170401C12288C
:10370000D6DBCCB1154901EB0411087BFEF7DEF9DD
:10371000124800EB0410807818B9114809F00AFE2D
:1037200011E00E4800EB0410807801280BD16FF0F7
:10373000FF0009F0FFFD06E04FF0FF2009F0FAFD61
:103740000020FEF7C3F9FEF771F90A200BF026FC02
:1037500000200DF01DF903490860A2E764910020E4
:103760000000FFFF1402002000B587B01C220649AC
:103770006846FCF72CFE002168460BF038FC034934
:10378000086007B000BD00004023010810020020BF
:1037900010B52DED048B0446B0EE408AF0EE608A41
:1037A000B0EE419A84ED338AC4ED348A94ED331A35
:1037B000F0EE410A94ED341AB0EE410A20460BF0C7
:1037C00039FD94ED0B0A84ED350A84ED369A94EDBB
:1037D000351AF0EE410A94ED361AB0EE410A04F1C2
:1037E00044000BF027FD94ED1C0ABDEC048B10BDCA
:1037F00010B5082001F0F8FD10BD10B5102001F043
:10380000F3FD10BD10B5202001F0EEFD10BD72B625
:1038100000BFFEE70048704714830020004870474F
:1038200038830020004870475C83002000487047C0
:103830008083002000487047307F002010B501F0E1
:10384000F1FE10BD08B5FFF733FE5B49086004F0D8
:10385000D3FC59494860594888600120487300F0FA
:10386000C7FA5549486100F0ADFA5349C1F87401EF
:1038700040F6F8015048018341F25421A0F87C1130
:103880009FED4F0A80ED070A9FED4D0A80ED600A1B
:103890009FED4C0A80ED080A9FED4B0A80ED090A66
:1038A000B3EE0E0A80ED610ABAEE0A0A80ED620AF2
:1038B0009FED462ADFED451A9FED451ADFED430ADD
:1038C0009FED440A032100F5F2700BF0C9FD9FED56
:1038D0003F2ADFED3E1A9FED401ADFED400A9FEDD3
:1038E000400A03213F480BF0BBFD9FED382ADFED76
:1038F000371A9FED3D1ADFED350AB3EE0E0A0321AC
:103900003A480BF0ADFD0AF0B3FD05236422002117
:10391000184605F03DFF062364220021184605F0F5
:1039200037FF0323642200210C2005F031FF002320
:10393000642201210E2005F02BFF022364220121C5
:103940000F2005F025FF002364220121112005F03E
:103950001FFF274B4FF4806226492748FFF754FC8E
:1039600026484FF48063264AAA2100902548FFF795
:103970009FFB14220021244806F06CFE23484FF4DC
:103980000073234AA52100902248FFF791FB2249AA
:103990002248FDF7D6FF22492248FDF7D2FF2249EF
:1039A0002248FDF7CEFF22490448FDF753FD214987
:1039B0002148FDF74FFD08BD94930020CC7E0020E8
:1039C0000000343D0000B4420000B4C2000000001A
:1039D000000020420000FA44000070420000FA4556
:1039E0000060EA46BC950020CDCC4C3EB09400204F
:1039F0008D1C000830970020849600202DB500080B
:103A0000DC9B0020309B00206D3B0008F1990008F2
:103A100088A00020DC9F0020B9340008907E0020A0
:103A20006B1E0008187E0020E5970008547E0020D9
:103A3000991B0008D51C0008F87E00201948407B1F
:103A40001849887308460068407910B90020487307
:103A500026E0144800684079012802D111494873D2
:103A60001EE0104800684079022802D10D494873D1
:103A700016E00C4800684079032802D109494873D0
:103A80000EE0084800684079042802D105494873CF
:103A900006E0044800684079052801D101494873CF
:103AA000704700009493002010B52DED028B032188
:103AB0002C4880F82810012180F88C119FED2A0AEB
:103AC000B0EE408A9FED280AF0EE408A90ED0B0A96
:103AD0000068D0ED080A30EE200AB0EE408A214896
:103AE00090ED640A0068D0ED070A30EE200AF0EE8F
:103AF000408A1C4890ED0D0AF0EE400AB0EE480AEC
:103B0000FDF73EFA174880ED0B0A90ED660AF0EEDD
:103B1000400AB0EE680AFDF733FA124880ED640AF5
:103B200000BF90ED640AD0ED620AB4EEE00AF1EE57
:103B300010FA04D890ED620A80ED640A0DE009489D
:103B400090ED640AD0ED610AB4EEE00AF1EE10FAED
:103B500003DB90ED610A80ED640A00BFBDEC028BCF
:103B600010BD00009493002000000000F8B5074647
:103B700000F056F8044607F00BFD0546FEF700FB83
:103B800006462348407B20702148D0F89401C4F8B1
:103B90000100307804280BD11D4890ED0C0AF2EE9C
:103BA0000A0A30EE200A10EE100AC4F8050003E0FD
:103BB0001748006BC4F805001548D0F8980144F880
:103BC000090F1348406B60601148D0F89C01A06059
:103BD0000F4890ED5A0ADFED0F0A60EE200A9FEDC4
:103BE0000E1A80EE810A10EE100AE060084890F884
:103BF000E6022074A868C4F81D00093C2A20234668
:103C00000322AA2100900548FFF79EFA0020F8BD84
:103C10009493002000003443DB0F49408496002039
:103C2000004870477F7F002010B52948807B01281D
:103C300007D0FA2127480CF03FFBFA2126480CF068
:103C40003BFB0221224880F88C11042180F82810C7
:103C50000146886821490AF084FB1D4890ED0C0A52
:103C600080ED0B0A1C480CF007FBF7EE000A30EE63
:103C7000C00A1748D0ED650A20EE200A80ED640ADC
:103C800090ED650AB0EEC00AF0EE000AB4EEE00A6C
:103C9000F1EE10FA1BD80F480CF0EEFAF7EE000A1E
:103CA00030EEC00A0A48D0ED0C0A20EE200A80ED62
:103CB0000B0A90ED0C0AB0EEC00AF0EE080AB4EE62
:103CC000E00AF1EE10FA02D804200149487310BD51
:103CD00094930020440200205802002028840020F1
:103CE000417E027E91421FD0017E41B9B0F9601140
:103CF00000EE101AB8EEC00A80ED070A14E0017E4B
:103D0000012902D0017E032904D190ED090A80ED3A
:103D1000070A09E0017E022902D0017E042903D1AD
:103D200090ED080A80ED070A017E4176704710B5D4
:103D300004462046FFF7D4FF207E68B994ED070AB9
:103D4000BDEEC00A10EE100A00B2A4F8600104F142
:103D50002C0000F010FB34E0207E012817D1D4EDB8
:103D60000A1AB0EE611AD4ED091AF0EE610AD4ED28
:103D7000071AB0EE610A04F12C0000F0CBFABDEE98
:103D8000C00A10EE100A00B2A4F8600119E0207E0B
:103D9000022816D1D4ED0A1AB0EE611AD4ED081A31
:103DA000F0EE610AD4ED071AB0EE610A04F12C00BE
:103DB00000F0B0FABDEEC00A10EE100A00B2A4F88E
:103DC000600110BD00487047F08200207CB50546B8
:103DD0000C46002000900549019000232246886887
:103DE00040F2FF1105F0A7FC7CBD00009493002079
:103DF00000487047C882002010B52DED028B9FED62
:103E0000320AB0EE408A9FED300AF0EE408A03217C
:103E10002E4880F82810022180F88C11FEF7B0F9A6
:103E200004462A48006890ED080A2848D0ED0B0A9D
:103E300030EE200AB0EE408A207804280CD12348C6
:103E400090ED0D0AF0EE400AB0EE480AFDF798F842
:103E50001E4880ED0B0A0BE01C4890ED0D0AF0EEB9
:103E6000400AB0EE480AFDF78BF8184880ED0B0ABF
:103E7000164890ED640A0068D0ED070A30EE200A7B
:103E8000124880ED640A00BF90ED640AD0ED620A2A
:103E9000B4EEE00AF1EE10FA04D890ED620A80ED7B
:103EA000640A0DE0094890ED640AD0ED610AB4EEB1
:103EB000E00AF1EE10FA03DB90ED610A80ED640A8E
:103EC00000BFBDEC028B10BD0000000094930020E9
:103ED00003212C4880F82810022180F88C1190EDE5
:103EE0000B0A0068D0ED080A30EE200A254880ED64
:103EF0000B0A90ED640A0068D0ED070A30EE200A44
:103F0000204880ED640A00BF90ED0B0AD0ED090A4D
:103F1000B4EEE00AF1EE10FA04D890ED090A80ED53
:103F20000B0A0DE0174890ED0B0AD0ED080AB4EE2D
:103F3000E00AF1EE10FA03DB90ED080A80ED0B0ABF
:103F400000BF00BF0F4890ED640AD0ED620AB4EEE6
:103F5000E00AF1EE10FA04D890ED620A80ED640AEE
:103F60000DE0084890ED640AD0ED610AB4EEE00A75
:103F7000F1EE10FA03DB90ED610A80ED640A00BFF8
:103F8000704700009493002010B52048D0ED590AE6
:103F9000B0EE600AFFF76EFB1C4880ED0C0A02468B
:103FA000B2F87C2111B20246D2F87421128810B204
:103FB00005F0A4FB00EE100AB8EEC00A1348D0EDDD
:103FC000600A20EE200A80ED650A406890ED5C0AE8
:103FD0000E4880ED0D0A406890ED5A0A0B4880EDBE
:103FE000660A406890ED020ADFED090A20EE200A19
:103FF000064880ED0E0A406890ED010ADFED040AE4
:1040000020EE200A014880ED670A10BD949300203D
:10401000E12E654200BFFFF7B7FFFFF70FFD2F4806
:10402000407B062813D2DFE800F0120306090C0FCC
:10403000FFF7FAFD0CE0FFF737FD09E0FFF748FF57
:1040400006E0FFF7D9FE03E000F074F800E000BFDF
:1040500000BF01202249087020481030FFF767FE9A
:104060002048FFF764FE1D48407B30BB1B48803072
:104070000BF0D8F91B48B0380BF0D4F91948703060
:104080000BF0D0F91748B4300BF0CCF9154858387C
:104090000BF0C8F900211148A0F87011A0F8D41253
:1040A0000146886810490AF02EF901210F4801F0F5
:1040B000ABFA10B9012001F07BF9084AB2F9D41229
:1040C000B2F97001FFF782FE0A200AF067FF0020B4
:1040D0000CF05EFC064908609DE700009493002008
:1040E000940200200895002028840020000002404F
:1040F0004002002000B587B0FA210A480CF0DCF835
:10410000FA2109480CF0D8F81C2208496846FCF747
:104110005EF9002168460AF06AFF0549086007B0A9
:1041200000BD00004402002058020020782301084E
:104130003802002010B52DED028B0321734880F862
:104140002810022180F88C119FED710AF0EE408A50
:104150009FED6F0AB0EE408A07F01AFA0446207B02
:10416000012872D1A07B012830D10020A0736748BC
:10417000006890ED070A30EE080AB0EE408A634806
:1041800090EDB70A80EDB10A606800EE100AF0EE1B
:10419000080A08EE200A5D4880ED640A206800EEF7
:1041A000100A5A480068D0ED080A30EE200A574835
:1041B00080ED0B0AE07B012803D1544981F8E50228
:1041C00081E00020514981F8E5027CE04F4890ED04
:1041D0000B0A0068D0ED080A30EE200AF0EE408AA3
:1041E0004A4890ED0D0AF0EE400AB0EE680AFCF77E
:1041F000C7FE464880ED0B0A90ED640A0068D0EDDA
:10420000070A30EE200A414880ED640A00BF90EDB5
:10421000640AD0ED620AB4EEE00AF1EE10FA04D8B6
:1042200090ED620A80ED640A0DE0384890ED640A72
:10423000D0ED610AB4EEE00AF1EE10FA03DB90ED86
:10424000610A80ED640A3EE0FFE7304890ED0B0A1A
:104250000068D0ED080A30EE200AF0EE408A2B48C4
:1042600090ED0D0AF0EE400AB0EE680AFCF788FE09
:10427000264880ED0B0A90ED640A0068D0ED070A2D
:1042800030EE200A214880ED640A00BF90ED640AF8
:10429000D0ED620AB4EEE00AF1EE10FA04D890ED27
:1042A000620A80ED640A0DE0184890ED640AD0EDD2
:1042B000610AB4EEE00AF1EE10FA03DB90ED610A58
:1042C00080ED640A00BF00BF104890ED640AD0ED95
:1042D000620AB4EEE00AF1EE10FA04D890ED620A38
:1042E00080ED640A0DE0094890ED640AD0ED610AA2
:1042F000B4EEE00AF1EE10FA03DB90ED610A80ED16
:10430000640A00BFBDEC028B10BD00009493002036
:104310000000000010B52DED048B0446B0EE408A7D
:10432000F0EE608AB0EE419A84ED338AC4ED348AAF
:1043300094ED331AF0EE410A94ED341AB0EE410ACE
:1043400004F144000AF076FF94ED1C0A84ED350A6E
:1043500084ED369A94ED351AF0EE410A94ED361A52
:10436000B0EE410A04F188000AF064FF94ED2D0AD2
:10437000BDEC048B10BD10B5044604F144000BF0F5
:1043800051F804F188000BF04DF810BD10B502464D
:1043900092F82030012B01D0022B06D11068406921
:1043A000084314686061002010BD506A40F480200A
:1043B00050620120F8E7F0B504460D461E4694F819
:1043C000207020688368A86800B900E000BF012F52
:1043D00001D0022F7CD103F0806030B903F000607F
:1043E00018B903F08050002873D0C3F3016102298B
:1043F00005D9606A40F4000060620120F0BD012030
:1044000088403060A86860B9B5F800C0E86840EA44
:104410004C5C206800F5C07000EB0110C0F800C0D3
:104420000FE0D5E901C040EACC00D5F80CC040EA65
:104430000C00D4F800C00CF5C07C0CEB011CCCF8CF
:104440000000D5F810C0206800F5C07000EB011026
:10445000C0F804C0287D01280ED1206800F5C07086
:1044600000EB0110406840F4807C206800F5C070CB
:1044700000EB0110C0F804C0D079000692F806C025
:1044800040EA0C4092F805C040EA0C2C10794CEA46
:10449000000C206800F5C07000EB0110C0F80CC0E3
:1044A000D078000692F802C040EA0C4092F801C0B1
:1044B00040EA0C2092F800C040EA0C00D4F800C09A
:1044C0000CF5C07C0CEB011CCCF80800206801E066
:1044D00016E00FE000F5C07000EB0110006840F03E
:1044E000010C206800F5C07000EB0110C0F800C09E
:1044F000002083E7606A40F40010606201207DE7DD
:10450000606A40F480206062012077E7F0B50446DD
:104510000A46216894F82050012D01D0022D7ED149
:10452000424901F50071086840F001000860086820
:1045300020F47C5008600868566A40EA062008604B
:10454000107D00F01F06012000FA06F3C8699843A9
:10455000C861A1F50071D069C8B9D1F80C029843BF
:10456000C1F80C02908880B2968940EA064601F5AF
:104570001070576940F83760108880B2168940EA99
:10458000064601F51070576900EBC7004660D06918
:10459000012819D1D1F80C021843C1F80C029088F7
:1045A00080B2168840EA064601F51070576940F857
:1045B0003760908980B2168940EA064601F510708E
:1045C000576900EBC7004660906928B9D1F804022A
:1045D0009843C1F8040204E0D1F804021843C1F87A
:1045E0000402106928B9D1F814029843C1F81402E2
:1045F00004E0D1F814021843C1F81402106A01282B
:1046000004D1D1F81C021843C1F81C02D1F80002F1
:1046100020F00100C1F800020020F0BDFFE7606A51
:1046200040F4802060620120F7E700000064004051
:1046300010B50446204600F07BFB10BD70B5044663
:1046400094F82050012D01D0022D7DD151B9206860
:10465000C06800F0030080B9606A40F40010606236
:10466000012070BD2068006900F0030028B9606A6D
:1046700040F4001060620120F3E7206800F5D87074
:1046800000EB0110006800F004009060906840B9F1
:10469000206800F5D87000EB01100068400D106034
:1046A00007E0206800F5D87000EB01100068C00832
:1046B0005060206800F5D87000EB0110006800F031
:1046C0000200D060206800F5D87000EB011040684F
:1046D00000F00F001061206800F5D87000EB0110A9
:1046E000406800F47F40000A9061206800F5D870AF
:1046F00000EB01104068000C5061206800F5D87094
:1047000000EB011080681870206800F5D87000EB8D
:104710000110806800F47F40000A5870206800F59E
:10472000D87000EB0110806800F47F00000C9870D6
:10473000206800F5D87000EB01108068000ED8707A
:10474000206800F5D87000E02FE000EB0110C06891
:104750001871206800F5D87000EB0110C06800F4F3
:104760007F40000A5871206800F5D87000EB0110F6
:10477000C06800F47F00000C9871206800F5D870C4
:1047800000EB0110C068000ED87131B92068C06814
:1047900040F020002668F06005E02068006940F0E5
:1047A00020002668306100205BE7606A40F48020CA
:1047B0006062012055E70146002091F82020012A7F
:1047C00001D0022A11D10B689B6803F0806303B10A
:1047D000401C0B689B6803F0006303B1401C0B682E
:1047E0009B6803F0805303B1401C70472DE9F05FD4
:1047F00004460025206846692068D0F804902068A7
:1048000087682068D0F80CA02068D0F810B0206825
:10481000D0F8188006F00100002855D007F00100FC
:10482000C0B101202168886007F0020018B120465D
:1048300000F014FB0EE007F0040010B145F4006531
:1048400008E007F0080010B145F4805502E020466A
:1048500000F002FB07F48070C8B14FF4807021684B
:10486000886007F4007018B1204600F011FB0EE0DC
:1048700007F4806010B145F4005508E007F40060CB
:1048800010B145F4804502E0204600F0FFFA07F43D
:104890008030C8B14FF480302168886007F4003060
:1048A00018B1204600F00EFB0EE007F4802010B196
:1048B00045F4004508E007F4002010B145F48035C8
:1048C00002E0204600F0FCFA06F0080038B10AF0D9
:1048D000100020B145F4007510202168C86006F072
:1048E000040040B10AF0080028B108202168C8601F
:1048F000204600F02EFA06F0020038B12068C068A9
:1049000000F0030010B1204600F024FA06F0400049
:1049100038B10BF0100020B145F4806510202168FB
:10492000086106F0200040B10BF0080028B1082013
:1049300021680861204600F035FA06F0100038B111
:104940002068006900F0030010B1204600F02CFA46
:1049500006F4003040B109F0100028B110202168A1
:104960004860204600F048FA06F4803040B109F073
:10497000080028B1082021684860204600F0BAFAF3
:1049800006F4004088B309F0040078B306F48070A0
:1049900020B108F0010008B145F0010506F40070EF
:1049A00020B108F0020008B145F0020506F480606D
:1049B00020B108F0040008B145F0040506F40060D9
:1049C000A0B108F0700088B108F07000402817D03E
:1049D00006DC10280BD020280CD0302819D10CE090
:1049E000502810D0602814D110E01DE019E045F0E7
:1049F00008050FE045F010050CE045F0200509E042
:104A000045F0400506E045F0800503E045F480757B
:104A100000E000BF00BF2068806920F070002168BE
:104A200088610420216848602DB1606A2843606273
:104A30002046FFF7FDFDBDE8F09F70B504460CB9B8
:104A4000012070BD94F8200010B9204600F0B0F8A5
:104A50002068006820F002002168086000F0E2FD94
:104A600005460DE000F0DEFD401B0A2808D9606A0B
:104A700040F400306062052084F820000120E0E767
:104A80002068406800F002000028EBD12068006830
:104A900040F001002168086000F0C4FD05460DE00B
:104AA00000F0C0FD401B0A2808D9606A40F40030BD
:104AB0006062052084F820000120C2E72068406879
:104AC00000F001000028EBD0207E012806D12068EC
:104AD000006840F080002168086005E020680068F8
:104AE00020F0800021680860607E012806D12068DF
:104AF000006840F040002168086005E02068006818
:104B000020F0400021680860A07E012806D12068BE
:104B1000006840F020002168086005E02068006817
:104B200020F0200021680860E07E012806D120687E
:104B3000006820F010002168086005E02068006827
:104B400040F0100021680860207F012806D120680D
:104B5000006840F008002168086005E020680068EF
:104B600020F0080021680860607F012806D12068D5
:104B7000006840F004002168086005E020680068D3
:104B800020F0040021680860D4E90201084321698B
:104B90000843616908436168491E08432168C86188
:104BA00000206062012084F82000002049E7000016
:104BB00010B586B00446142101A8FBF721FC564924
:104BC0002068884249D155480068401C5349086014
:104BD0000846006801280FD100BF0020009050480F
:104BE000006840F000704E4908600846006800F018
:104BF0000070009000BF00BF00BF00200090484838
:104C00001038006840F0080045491039086008462F
:104C1000006800F00800009000BF00BF0320019072
:104C200002200290002003900320049009200590A8
:104C300001A93C4800F0E6FB00220521132001F009
:104C400019F9132001F006F900220521142001F0C2
:104C500011F9142001F0FEF85CE033492068884225
:104C600058D100BF002000902D48006840F08060BF
:104C70002B4908600846006800F08060009000BF83
:104C800000BF26480068401C2449086008460068A8
:104C900001280FD100BF002000902148006840F09B
:104CA00000701F4908600846006800F0007000901E
:104CB00000BF00BF00BF00200090194810380068F6
:104CC00040F002001649103908600846006800F0FC
:104CD0000200009000BF00BF6020019002200290FF
:104CE00000200390032004900920059001A90F489B
:104CF00000F088FB002205213F2001F0BBF83F2097
:104D000001F0A8F800220521402001F0B3F840206E
:104D100001F0A0F806B010BD0064004004000020BF
:104D200040380240000C024000680040000402408D
:104D30000146002091F82020012A01D0022A02D148
:104D400000234B6204E04B6A43F480234B62012052
:104D50007047704730B589B005466B4602AA0021FE
:104D60002846FFF76BFC002416E00D4850F824009D
:104D700000680068296888420CD1094850F824006E
:104D8000806A38B1064951F82410069A02988B6A55
:104D900069469847601CC4B2022CE6DB09B030BDFE
:104DA000940000207047000030B589B005466B467E
:104DB00002AA00212846FFF741FC002416E00D4816
:104DC00050F8240000680068296888420CD109481E
:104DD00050F82400806A38B1064951F82410069A28
:104DE00002988B6A69469847601CC4B2022CE6DBC5
:104DF00009B030BD94000020704770B5044694F8A7
:104E00002000012822D1022084F8200020680068B8
:104E100020F001002168086000F004FC05460DE068
:104E200000F000FC401B0A2808D9606A40F40030FA
:104E30006062052084F82000012070BD2068406871
:104E400000F001000028EBD16062F6E7606A40F4F0
:104E5000002060620120F0E77047000070B5054651
:104E600000240EE0084850F8240000680068296813
:104E7000884204D1044951F82400FCF7B7FF601CB4
:104E8000C4B2022CEEDB70BD94000020704700001D
:104E900070B5054600240EE0084850F8240000686C
:104EA00000682968884204D1044951F82400FCF7BD
:104EB0009DFF601CC4B2022CEEDB70BD940000208C
:104EC0007047000070B5054600240EE0084850F811
:104ED0002400006800682968884204D1044951F818
:104EE0002400FCF783FF601CC4B2022CEEDB70BD13
:104EF00094000020704770B50446A56D00F092FB49
:104F0000064694F83500022808D08020606500BF6E
:104F1000002084F8340000BF012070BD20680068C4
:104F200020F01600216808602068406920F08000A9
:104F300021684861206C08B9A06C28B1206800681D
:104F400020F00800216808602068006820F0010057
:104F5000216808600FE000F065FB801B05280AD976
:104F60002020606500BF002084F8340000BF0320CB
:104F700084F83500D1E72068006800F001000028BF
:104F8000E9D194F85C103F208840A86000BF002061
:104F900084F8340000BF012084F835000020BCE70D
:104FA000014691F83500022803D080204865012091
:104FB0007047052081F835000868006820F001007E
:104FC0000A6810600020F3E7F8B50446002000905E
:104FD0008C4800684FF41651B0FBF1F7A56D2E68B0
:104FE00094F85C1008208840304098B12068006830
:104FF00000F0040070B12068006820F0040021680F
:10500000086094F85C1008208840A860606D40F04B
:105010000100606594F85C1001208840304068B160
:105020002068406900F0800040B194F85C100120D5
:105030008840A860606D40F00200606594F85C10E4
:1050400004208840304068B12068006800F0020009
:1050500040B194F85C1004208840A860606D40F076
:105060000400606594F85C1010208840304078B3EC
:105070002068006800F0080050B394F85C1010201D
:105080008840A8602068006800F4802080B1206813
:10509000006800F4002028B9206CC8B12046216CBB
:1050A000884715E0A06C98B12046A16C88470FE0B6
:1050B0002068006800F4807028B92068006820F03B
:1050C000080021680860206C10B12046216C8847D8
:1050D00094F85C10202088403040002865D020687B
:1050E000006800F0100000285FD094F85C102020C9
:1050F0008840A86094F83500052828D12068006809
:1051000020F01600216808602068406920F08000C7
:1051100021684861206C08B9A06C28B1206800683B
:1051200020F008002168086094F85C103F20884057
:10513000A86000BF002084F8340000BF012084F87C
:105140003500206D10B12046216D8847F8BD2068DC
:10515000006800F4802080B12068006800F400201E
:1051600028B9606C10B12046616C88471DE0E06B87
:10517000D8B12046E16B884717E02068006800F44A
:10518000807068B92068006820F01000216808600D
:1051900000BF002084F8340000BF012084F83500EF
:1051A000E06B10B12046E16B8847606D38B3606DED
:1051B00000F00100F0B1052084F835002068006897
:1051C00020F001002168086000BF0098401C00909A
:1051D000B84200D905E02068006800F0010000280E
:1051E000F3D100BF00BF002084F8340000BF0120CD
:1051F00084F83500E06C10B12046E16C884700BFB0
:10520000A4E70000140000202DE9F0410446002529
:1052100000F008FA074614B90120BDE8F081606A81
:1052200000B100BF00BF002084F8340000BF02209E
:1052300084F835002068006820F0010021680860CB
:105240000AE000F0EFF9C01B052805D920206065B1
:10525000032084F83500E0E72068006800F00100D2
:105260000028EED12068056821480540D4E90101F5
:105270000843E16808432169084361690843A1695B
:105280000843E1690843216A08430543606A04282A
:1052900003D1D4E90B010843054320680560206869
:1052A000456925F00705606A0543606A04280DD149
:1052B000A06A0543E06A48B12046FEF76FF928B1BD
:1052C00040206065012084F83500A6E7206845612C
:1052D0002046FEF749F9064694F85C103F208840C6
:1052E000B06000206065012084F83500002094E75C
:1052F0003F8010F02DE9F04704460D4616461F4644
:105300004FF00008D4F8589000BF94F834000128FA
:1053100002D10220BDE8F087012084F8340000BFEC
:1053200094F83500012825D1022084F835000020AA
:1053300060653B46324629462046FEF784F994F8DC
:105340005C103F208840C9F808002068006840F0E1
:10535000160021680860206C28B12068006840F0C1
:105360000800216808602068006840F0010021689A
:10537000086006E000BF002084F8340000BF4FF052
:1053800002084046C6E7000070B5044600F04AF93E
:1053900006462546681C10B104480078054400BF45
:1053A00000F040F9801BA842FAD370BD1000002025
:1053B00070B50546002412E00A4850F82400406801
:1053C000A8420AD1074850F82400007A052804D1E1
:1053D000044951F82410C8688047601CC4B20A2CE4
:1053E000EADB70BD504D002010B50446044800684B
:1053F000204020B1024804602046FFF7D9FF10BDCD
:10540000143C0140F8B502460B460025002400205C
:105410000021DEE0012606FA01F51E6806EA050411
:10542000AC4275D11E7906F00306012E04D01E7918
:1054300006F00306022E13D190684F000326BE40EB
:10544000B0434F00DE68BE40304390605068012694
:105450008E40B0431E79C6F300168E403043506034
:105460001E7906F00306032E09D0D0684F000326EC
:10547000BE40B0434F009E68BE403043D0601E79AE
:1054800006F00306022E13D1CF0802F1200656F8CB
:1054900027004E07F70E0F26BE40B0434F07FF0E02
:1054A0001E69BE403043CF0802F1200646F82700AF
:1054B00010684F000326BE40B0431E7906F0030675
:1054C0004F00BE40304310605E6806F08056B6F173
:1054D000805F7DD100BF00260096404E366846F4BE
:1054E00080463E4F3E603E46366806F48046009653
:1054F00000BF00BF3A4E8F0856F827008E07370FBF
:105500000F26BE40B043374EB24202D1002624E0FF
:105510005EE0354EB24201D101261EE0334EB2426A
:1055200001D1022619E0324EB24201D1032614E025
:10553000304EB24201D104260FE02F4EB24201D1CB
:1055400005260AE02D4EB24201D1062605E02C4E7A
:10555000B24201D1072600E008268F073F0FBE4068
:1055600030431F4E8F0846F82700264E3068A04370
:105570005E6806F48036B6F5803F00D12043214EA8
:105580003060361D3068A0435E6806F40036B6F51C
:10559000003F00D120431B4E361D3060361D306861
:1055A000A0435E6806F48016B6F5801F00D1204344
:1055B000144E08363060361D3068A0435E6806F42D
:1055C0000016B6F5001F00D120430E4E0C36306099
:1055D000491C1029FFF41EAFF8BD000044380240FA
:1055E0000838014000000240000402400008024068
:1055F000000C02400010024000140240001802405B
:10560000001C0240003C0140024613690B400BB1F4
:10561000012000E0002070470AB1816101E00B0425
:10562000836170470148006870470000080000204F
:1056300070B504460CB9012070BD94F83D0028B93E
:10564000002084F83C00204600F006FB242084F86B
:105650003D002068006820F0010021680860206893
:10566000006840F40040216808602068006820F469
:1056700000402168086000F039FD05465C4960681B
:10568000884206D85B48854201D2012007E000200D
:1056900005E05948854201D2012000E000200128A0
:1056A00000D1C9E75548B5FBF0F62068406820F006
:1056B0003F003043216848604D496068884201D806
:1056C000701C07E04FF4967070434FF47A71B0FB92
:1056D000F1F0401C2168096A21F03F01084321686C
:1056E000086243496068884214D8681E61684900AE
:1056F000B0FBF1F0401CC0F30B00042801D20420E1
:105700003DE0681E61684900B0FBF1F0401CC0F349
:105710000B0034E0A06838B9681E616801EB4101F4
:10572000B0FBF1F0401C0AE0681E616801EBC102A9
:1057300002EB0111B0FBF1F0401C40F48040C0F3DB
:105740000B0008B901201AE0A06848B9681E61681A
:1057500001EB4101B0FBF1F0401CC0F30B000CE089
:10576000681E616801EBC10202EB0111B0FBF1F0B0
:10577000401CC0F30B0040F4804040F4004021681E
:10578000C9694CF6FF72914308432168C861D4E9A6
:10579000070108432168096821F0C0010843216816
:1057A0000860D4E9031008432168896848F2FF3291
:1057B0009143084321688860D4E9050108432168C2
:1057C000C96821F0FF0108432168C86020680068AB
:1057D00040F001002168086000202064202084F847
:1057E0003D000020206384F83E0000BF24E7000055
:1057F000A086010080841E0000093D0040420F0089
:105800002DE9FC5F04460F4690469946DDE90CAB56
:105810000E9EFFF707FF054694F83D00202870D143
:1058200019230122B0492046009502F0C5FA10B1B3
:105830000220BDE8FC9F00BF94F83C00012801D184
:105840000220F6E7012084F83C0000BF20680068D1
:1058500000F0010028B92068006840F001002168CC
:1058600008602068006820F4006021680860222039
:1058700084F83D00402084F83E0000202064C4F8F5
:1058800024A0A4F82AB0608D20859848E0624B4699
:10589000424639462046CDE9006502F03FF908B19D
:1058A0000120C6E7208D88B900BF00200190206844
:1058B0004069019020688069019000BF00BF2068A6
:1058C000006840F400702168086040E0208D0128E5
:1058D00018D12068006820F480602168086000BF4B
:1058E0000020019020684069019020688069019043
:1058F00000BF00BF2068006840F4007021680860A5
:1059000025E0EFE0208D022816D12068006820F401
:105910008060216808602068006840F400602168A9
:10592000086000BF00200190206840690190206855
:105930008069019000BF0AE000BF0020019020684C
:105940004069019020688069019000BF00BFBAE003
:10595000208D03287ED8208D012815D12A46314676
:10596000204602F0CEFA08B1012062E72068006903
:10597000616A0870606A401C6062208D401E20854C
:10598000608D401E60859EE0208D02282AD133461E
:10599000002257492046009502F00EFA08B1012076
:1059A00047E72068006840F40070216808602068BC
:1059B0000069616A0870606A401C6062208D401E48
:1059C0002085608D401E608520680069616A0870CE
:1059D000606A401C6062208D401E2085608D401EE4
:1059E000608570E03346002241492046009502F070
:1059F000E3F908B101201CE72068006820F480600A
:105A00002168086020680069616A0870606A401C4B
:105A10006062208D401E2085608D401E608533466B
:105A2000002233492046009502F0C6F908B1012052
:105A3000FFE62068006840F4007021680860206874
:105A40000069616A0870606A401C6062208D401EB7
:105A5000208500E010E0608D401E608520680069B0
:105A6000616A0870606A401C6062208D401E20855B
:105A7000608D401E608526E02A463146204602F0B1
:105A800040FA08B10120D4E620680069616A087014
:105A9000606A401C6062208D401E2085608D401E23
:105AA000608520684069C0F3800060B120680069AB
:105AB000616A0870606A401C6062208D401E20850B
:105AC000608D401E6085208D00287FF441AF20202E
:105AD00084F83D00002084F83E0000BF84F83C00BC
