:020000040800F2
:1000000040E000205D02000881AB00087F8E000800
:100010000FAA00084D1E000809F8000800000000A3
:100020000000000000000000000000009D0100082A
:10003000453A000800000000F901000815C1000859
:1000400077020008770200087702000877020008AC
:10005000770200087702000877020008770200089C
:1000600077020008993B0008A33B000877020008CC
:10007000C1380008770200087702000877020008FC
:10008000770200087702000877020008611F000865
:100090006D1E00087702000877020008AD3B0008DB
:1000A000770200087702000877020008770200084C
:1000B000770200087702000877020008770200083C
:1000C000770200087702000877020008770200082C
:1000D00077020008E5CE000877020008F9CE000894
:1000E000770200087702000877020008770200080C
:1000F00077020008770200087702000877020008FC
:1001000077020008770200087702000877020008EB
:10011000770200087702000819C200087702000879
:1001200077020008D138000877020008770200083B
:10013000770200087702000877020008C52000084F
:10014000A91F0008770200087702000885AB0008A5
:10015000E1380008F1380008013900080DCF000827
:10016000770200087702000877020008770200088B
:1001700077020008770200087702000800000000FC
:100180007702000877020008DFF80CD000F044FC8A
:10019000004800473734010840E000202C4B196824
:1001A0000868B0E8F04F80F30988BFF36F8F4FF015
:1001B000000080F3118870470000000008480068C4
:1001C000006880F308884FF0000080F3148862B65E
:1001D00061B6BFF34F8FBFF36F8F00DF00BF00BF6B
:1001E00008ED00E0DFF80C00016841F470010160E7
:1001F000704700BF88ED00E0EFF30980BFF36F8F19
:10020000134B1A681EF0100F08BF20ED108A20E96A
:10021000F04F106009B44FF0500080F31188BFF325
:100220004F8FBFF36F8F15F0F7FA4FF0000080F398
:10023000118809BC19680868B0E8F04F1EF0100F6B
:1002400008BFB0EC108A80F30988BFF36F8F704746
:1002500018000020EFF30580704700000648804733
:1002600006480047FEE7FEE7FEE7FEE7FEE7FEE79B
:10027000FEE7FEE7FEE7FEE7FDC100088901000892
:100280009FED1A1AF5EE000A40EE010ABDEEE00AF3
:10029000F5EEC00A10EE100AF1EE10FA38BF401E5B
:1002A00000EE100A1349F7EE001AB8EEC00A30EE5D
:1002B000C00ADFED0F0A20EE200AFCEEC00A10EEA5
:1002C000900AC0F3080000EE900A01EB8000F8EEFF
:1002D000600A90ED011A70EE600A90ED000A71EE6E
:1002E000E01A21EE800A00EE810A704783F9223E6F
:1002F00000000044586E0108DFED190AB5EEC00A8F
:1003000060EE200ABDEEE01A11EE100AF1EE10FACE
:1003100038BF401E00EE100A1349F7EE001AB8EE7F
:10032000C00A30EEC00ADFED0F0A60EE200ABCEE14
:10033000E00A10EE100AC0F3080000EE100A01EB0C
:100340008000B8EE400A90ED011A70EEC00A90ED00
:10035000000A71EEE01A21EE800A00EE810A704771
:1003600083F9223E00000044586E01082DE9F05F39
:100370000546002092469B46884606468146402414
:100380001BE0284641464746224600F076FA53468F
:100390005A46C01A914110D311461846224600F021
:1003A0005DFA2D1A67EB01084F4622460120002115
:1003B00000F054FA17EB00094E41201EA4F101048D
:1003C000DFDC484631462A464346BDE8F09F002818
:1003D00000DA4042704740EA01039B0703D009E07E
:1003E00008C9121F08C0042AFAD203E011F8013B21
:1003F00000F8013B521EF9D27047D2B201E000F87A
:10040000012B491EFBD270470022F6E710B51346B8
:100410000A4604461946FFF7F0FF204610BD421C6D
:1004200010F8011B0029FBD1801A7047034611F810
:10043000012B00F8012B002AF9D1184670472DE94D
:10044000FE4F804681EA0300C00F0C46009021F069
:10045000004123F00045B8EB0200A94105D2404617
:10046000214690461C460B46024623F000401043AE
:1004700047D0270DC7F30A00C3F30A510290401A70
:10048000019040286BDAC3F3130040F4801B0098FE
:10049000924620B10023D2EB030A63EB0B0B0198C9
:1004A0005946C0F14002504600F0D8F906460D46C4
:1004B00050465946019A00F0F0F910EB08006141EE
:1004C000002487EA115284EAE7731A4340D0009A65
:1004D00062B3019A012A4FEA075215DC001B61EB57
:1004E00002014FF0004202EA0752CDE90042001C2F
:1004F00041F5801132462B4600F027FA03B0BDE8E3
:10050000F08F40462146F9E7001B61EB0201001C19
:1005100041F5801300185B412018A2F5001747EB46
:10052000030140EAD570B6196D4111E06D084FEA3C
:10053000360645EAC0754FEA0752001B61EB02011F
:10054000001C41F5801149084FEA30000019514163
:1005500032462B4603B0BDE8F04F00F0E7B90098F3
:10056000012240000023D0EB020263EBE07300980D
:1005700021464FEAE074B8EB000061EB0401E9E7C3
:1005800083F000435BE781F0004158E72DE9FE4F1F
:1005900081EA030404F0004421F0004100944FF08C
:1005A000000B23F0004350EA01045ED052EA03043A
:1005B0005BD0C3F30A54C1F30A552C44A4F2F334BC
:1005C0000194A0FB0254C1F3130141F48011C3F361
:1005D000130343F4801301FB024400FB034E840A1F
:1005E000970A44EA815447EA8357A4FB07680295B7
:1005F0008D0A05FB07854FEA932C04FB0C54270555
:10060000029D4FEA065847EA1637B5EB08056EEB30
:10061000070C870E920E47EA811742EA8312A7FB66
:100620000201B6EB0B0164EB00042B0D43EA0C3323
:100630005E1844EB1C50DA465146E7FB0201C5F355
:1006400013044FEA0B3343EA14534FEA0432019C7C
:1006500043EA0603A4F10C040294009CCDE900B423
:1006600000F073F903B0BDE8F08F00200146F9E710
:100670002DE9F04D81EA030404F0004B21F0004520
:1006800014464FF0000A23F0004150EA050220D042
:1006900054EA01021DD0C5F30A570246C5F31303FD
:1006A000C1F31300C1F30A5640F4801543F48013DC
:1006B000A7EB0608101BD64608F2FD3873EB0500C1
:1006C00002D308F1010801E092185B41B8F1000F74
:1006D00003DA00200146BDE8F08D00204FF48011C0
:1006E000064684460EE0171B73EB050705D3121B65
:1006F00063EB050306434CEA010C49084FEA30005E
:1007000092185B4150EA0107EDD152EA030012D082
:1007100082EA040083EA0501084305D0101BAB41BF
:1007200006D20122002306E000224FF0004302E03F
:100730006FF0010253101AEB06004CEB085110EB5E
:100740000A0041EB0B01BDE8F04D00F0EFB80EB52B
:10075000C10F80EAE0700844CA07002140F2334329
:100760008DE80E000A460B4600F0EFF803B000BD1E
:1007700000F0004230F000400AD0C10D01F5607178
:10078000C0F3160042EA0151C20840071143704706
:10079000002001467047000030B5041E71F10004CE
:1007A00004DB4FF00044404264EB0101141E73F17E
:1007B000000405DB1C464FF00043524263EB040388
:1007C0008B4208BF824230BD30B5041E71F1000477
:1007D00004DB4FF00044404264EB0101141E73F14E
:1007E000000405DB1C464FF00043524263EB040358
:1007F000994208BF904230BD01F0004330B421F06F
:10080000004150EA010206D00A0DA2F56072C1F360
:100810001301002A02DC30BC00207047440F44EA78
:10082000C104C100E01830BC00EBC25000F047B872
:1008300030B50B46014600202022012409E021FAB0
:1008400002F59D4205D303FA02F5491B04FA02F5AD
:100850002844151EA2F10102F1DC30BD202A04DB80
:10086000203A00FA02F1002070479140C2F12003C3
:1008700020FA03F3194390407047202A04DB203A02
:1008800021FA02F00021704721FA02F3D040C2F1B0
:1008900020029140084319467047202A06DBCB17F7
:1008A000203A41FA02F043EAE07306E041FA02F32B
:1008B000D040C2F1200291400843194670470029F8
:1008C000A8BF7047401C490008BF20F001007047D6
:1008D00010B4B0FA80FC00FA0CF050EA010404BF36
:1008E00010BC704749B1CCF1200421FA04F411FA8C
:1008F0000CF118BF012121430843A3EB0C01CB1DD0
:100900004FEA00614FEA102042BF002010BC704740
:1009100000EBC35010440029A4BF10BC7047401C1A
:10092000490008BF20F0010010BC704710B5141E2C
:1009300073F1000408DA401C41F1000192185B4198
:100940001A4301D120F0010010BD2DE9F04D92466F
:100950009B4611B1B1FA81F202E0B0FA80F2203286
:100960009046FFF77BFF04460F4640EA0A0041EA43
:100970000B0153465A46084313D0114653EA01006F
:1009800019D0C8F140025046FFF777FF05460E46E2
:10099000504659464246FFF761FF084305D0012003
:1009A00004E020463946BDE8F08D0020054346EAC4
:1009B000E0762C4337430A986305E40AA0EB08006D
:1009C0000022FD0A44EA47540A3002D500200146BD
:1009D000E9E7010510196941DDE908450019694198
:1009E000BDE8F04DA2E7C1F30A52C1F3130140F292
:1009F000FF3341F480119A4202DA00200146704729
:100A000040F233439A42A2F2334202DC5242FFF7F1
:100A100034BFFFF723BF0000064C074D06E0E06837
:100A200040F0010394E8070098471034AC42F6D335
:100A3000FFF7AEFB24790108447901080EB540F2B6
:100A4000334102910021CDE900110A460B46FFF720
:100A50007CFF03B000BD70B5C1F30A5201F0004540
:100A60000024C1F3130140F2FF3341F480119A4294
:100A700001DA002070BD40F233439A42A2F23342C1
:100A800003DC5242FFF7F9FE00E090402C43F1D026
:100A9000404270BD70B58C1810F8015B15F007036B
:100AA00001D110F8013B2A1106D110F8012B03E007
:100AB00010F8016B01F8016B5B1EF9D12B0705D40F
:100AC0000023521E0DD401F8013BFAE710F8013B58
:100AD000CB1A921C03E013F8015B01F8015B521E74
:100AE000F9D5A142D8D3002070BD10B52DED028BF1
:100AF000B0EE408AB0EE480A0EF01AFFBDEC028B51
:100B000010BD10B52DED028BB0EE408AF0EE608A7C
:100B1000F0EE680AB0EE480A0FF006FABDEC028B60
:100B200010BD10B52DED028BB0EE408AB0EE480A34
:100B3000FFF7A6FBBDEC028B10BDF0EE400AF5EE10
:100B4000C00AF1EE10FA02DDB0EE600A7047B1EEB5
:100B5000600AFBE718B19FED020A80ED000A7047BA
:100B60000000000018B19FED020A80ED000A7047F6
:100B700000001E4270B52DED0C8B84B006460C466D
:100B800015469FED990AF0EE408A9FED970AB0EE68
:100B9000409A9FED950AF0EE40BA9FED930AF0EE71
:100BA000409A9FED910AB0EE40AA0EB104B11DB972
:100BB00004B0BDEC0C8B70BD8C48FFF7CBFF8C48AC
:100BC000FFF7D0FF8A48D0ED000A9FED8A1A60EE49
:100BD000810AB0EE600A00F02DF9F0EE408A28EEAE
:100BE000A80AF0EE408A8248D0ED000AB0EE001A62
:100BF00060EE810A9FED7F1A60EE810AB0EE600A16
:100C000000F018F9B0EE409A29EE090AB0EE409AC9
:100C1000DFED790AB7EE000A00EEA80ADFED770AE9
:100C200000EEC90ADFED760A20EE200A754880ED55
:100C3000000A6E4890ED000ADFED730A80EE201A7C
:100C4000B7EE000A31EE000A20EE000A6D48D0ED42
:100C5000000A80EE801A6D4880ED001A94ED000ABB
:100C6000B5EEC00AF1EE10FA0DD194ED010AB5EE21
:100C7000C00AF1EE10FA06D194ED020AB5EEC00AF0
:100C8000F1EE10FA46D09FED580AB0EE408A0020EF
:100C9000019002900390D4ED000A60EEA00A94ED5A
:100CA000011AD4ED011A41EE210A94ED021AD4ED95
:100CB000021A41EE210AB0EE600A00F0A9F8B0EE87
:100CC000408A94ED000A20EE080A8DED010A94EDA9
:100CD000010A20EE080A8DED020A94ED020A20EEC8
:100CE000080A8DED030ADDED010AF1EE600AB0EEAF
:100CF000600AFFF7FAFEF0EE409A9DED031AF0EE5F
:100D0000410A9DED021AB0EE410AFFF7FAFEB0EE7D
:100D100040AA07E09FED340AF0EE409A9FED320AB8
:100D2000B0EE40AA95ED000AB5EEC00AF1EE10FA59
:100D30000DD195ED010AB5EEC00AF1EE10FA06D11B
:100D400095ED020AB5EEC00AF1EE10FA3CD0B0EE15
:100D5000690A00F06FF8B0EE408AB0EE690AFFF75A
:100D6000E0FEB0EE40DAB0EE4A0A00F063F8F0EED2
:100D700040AAB0EE4A0AFFF7D4FEB0EE40BA28EE21
:100D80002A0AD5ED010A20EE200AD5ED000A0DEE63
:100D9000200A68EE0B0A95ED021A00EE810AB0EE09
:100DA00040CA95ED010A20EE0B0AD5ED020A0AEEC3
:100DB000E00AF0EE40CAF0EE6C0AB0EE4C0AFFF723
:100DC000A0FEF0EE40BA03E09FED070AF0EE40BA55
:100DD000B0EE4A1AF0EE690AB0EE6B0A304610F037
:100DE0007FFF00BFE4E60000000000006404002074
:100DF0006804002035FA8E3CC1BFAD3B9DF8C53676
:100E00002F7C1C416C040020506CC24A70040020EE
:100E100010B52DED028BB0EE408AB0EE480A0FF00F
:100E2000EFFBB7EE001AC1EE000AB0EE600ABDECAF
:100E3000028B10BD10B52DED028BB0EE408AB0EEE6
:100E4000480AFFF759FABDEC028B10BD2DE9F041BD
:100E50002DED028B9AB00546B0EE408A0E4617463D
:100E6000984600201790189019901490159016909D
:100E70004DB146B13FB1B8F1000F04D0B5EEC08A14
:100E8000F1EE10FA05D100201AB0BDEC028BBDE8DE
:100E9000F08196ED000A8DED170A96ED010A8DEDB1
:100EA000180A96ED020A8DED190A97ED000A8DEDEC
:100EB000140A97ED010A8DED150A97ED020A8DEDE2
:100EC000160A17AA14A9284610F05CFD402104A8B0
:100ED000FFF79AFA002000900190029003900024FE
:100EE00017A904A814F074F900BF30E004A800EBBF
:100EF000041090ED000AD5ED000A20EE200A04A8A7
:100F000000EB0410D0ED010A95ED011A00EE810A04
:100F100004A800EB0410D0ED020A95ED021A00EED1
:100F2000810A04A800EB0410D0ED030A95ED031A22
:100F300000EE810A20EE080AF0EE000A80EE201A88
:100F4000684600EB840080ED001A601CC4B2042CDB
:100F5000CCDB002410E005EB840090ED000A68462D
:100F600000EB8400D0ED000A30EE200A05EB84008F
:100F700080ED000A601CC4B2042CECDB284613F0A0
:100F8000B7FC012080E70000F0EE401A9FED310A27
:100F9000B0EE401A9FED2F0AB0EE402A9FED2D0AC9
:100FA000F0EE402A00BFBDEEE10AB8EEC00A31EE15
:100FB000C00AF0EE402ABDEEE10A10EE100A4FF42E
:100FC000B47190FBF1F201FB120000EE100AB8EED2
:100FD000C00A30EE220AF0EE402A00BF00BFBDEE8C
:100FE000E00AB8EEC00A30EEC00AB0EE402ABDEE0C
:100FF000E00A10EE100A90FBF1F201FB120000EE85
:10100000100AB8EEC00A30EE020AB0EE402A00BF65
:1010100032EEC20AB0EE401A9FED0F0AB4EEC01ACB
:10102000F1EE10FA06DD9FED0D0A31EE400AB0EE4A
:10103000401A0CE09FED0A0AB4EEC01AF1EE10FA65
:1010400005D29FED060A31EE000AB0EE401A30EEEE
:10105000810A704700000000000034430000B443E0
:10106000000034C310B500F087FC1C4800F060FCA1
:1010700018B102201A49087002E0012018490870CE
:1010800017480078022803D14FF47A7004F010FC5E
:101090000AF038FF0AF020FF08F056FB02F0ACFB24
:1010A00002F012FA02F034FD0D48007802280CD14B
:1010B00002F0AEFD03F01AFA0AF01AFC14F054FD27
:1010C00011F03AFB12F074FA07E0054800780128A5
:1010D00003D101F0D3F801F023FC10BDE47E002021
:1010E0003002002005205349487108460068407AC4
:1010F000012802D10320887110E04E480068407A30
:10110000032803D102204B49887107E04948006851
:10111000407A022802D10420464988714548006877
:10112000B0F9020000EE100AB8EEC00ADFED420A84
:1011300080EE201A9FED410A21EE000A3D4880ED25
:10114000020A0068B0F9000000EE100AB8EEC00A0A
:10115000DFED390A80EE201A9FED380A21EE000AF1
:10116000344880ED030A0068B0F9060000EE100A6A
:10117000B8EEC00ADFED320A20EE200A2D4880EDDD
:10118000070A0068B0F90400404200EE100AB8EE09
:10119000C00ADFED2C0A20EE200A264880ED080A5E
:1011A0004079052844D101202249C8710846C079F8
:1011B000022806D1244880780D2839D10120C87131
:1011C00036E01C48C079012832D11F4880780D28AC
:1011D00003D102201749C8712AE01B4880780E28E5
:1011E00004D01A4890F8CD03012804D101201149F8
:1011F00081F830001CE014480078022812D114480D
:101200000068401C1249086008460068322804D96A
:101210000120084981F830000AE00020054981F8E2
:10122000300005E00020034981F8300008490860DB
:1012300070470000349200200000254400007A45E9
:101240006F12833A6F12033BCF0100201C950020E0
:101250000402002005205249487108460068407A7F
:10126000012802D10320887110E04D480068407ABF
:10127000032803D102204A49887107E048480068E2
:10128000407A022802D10420454988714448006808
:10129000B0F9020000EE100AB8EEC00ADFED410A14
:1012A00080EE201A9FED400A21EE000A3C4880EDB6
:1012B000020A0068B0F9000000EE100AB8EEC00A99
:1012C0009FED381AC0EE010A9FED370A20EE800A22
:1012D000334880ED030A0068B0F9060000EE100AFA
:1012E000B8EEC00ADFED310A20EE200A2C4880ED6E
:1012F000070A0068B0F90400404200EE100AB8EE98
:10130000C00ADFED2B0A20EE200A254880ED080AEE
:101310004079052842D12248C079022807D12548C2
:1013200080780D283AD101201D49C87136E01C484B
:10133000C079012832D11F4880780D2803D10220BE
:101340001749C8712AE01B4880780E2804D01A4833
:1013500090F8CD03012804D10120114981F8300013
:101360001CE014480078022812D114480068401C80
:101370001249086008460068322804D9012008494B
:1013800081F830000AE00020054981F8300005E0CE
:101390000020034981F830000849086070470000C8
:1013A000349200200000254400007A456F12833AF1
:1013B0006F12033BCF0100201C9500200802002083
:1013C00010B501221021024804F0B2FB10BD00004C
:1013D0000000024010B500221021024804F0A8FBD2
:1013E00010BD0000000002407047000010B501224F
:1013F0001146024804F09CFB10BD000000040240AE
:1014000010B500220121024804F092FB10BD00003B
:1014100000040240704710B50446204612F0E2F87E
:1014200010BD10B50446204600F024FA10BD10B5DA
:101430000024FFF7D9FFFFF7EDFF10F0D3FD10B147
:1014400044F0800402E010F033FD044310F0C2FFCA
:1014500010B144F0400402E010F042FF0443204683
:1014600010BD00002DE9FC4105460E461746002040
:1014700000900190FFF7AEFF922000F0D1F8062215
:101480006946122000F0ACF8FFF79AFF9DF80100C2
:10149000000200B29DF8001040EA010400EE104A7C
:1014A000B8EEC00A4C48D0ED000A20EE200A86EDC6
:1014B000000A9DF80300000200B29DF8021040EA05
:1014C000010400EE104AB8EEC00A4348D0ED000A0D
:1014D00020EE200A86ED010A9DF80500000200B208
:1014E0009DF8041040EA010400EE104AB8EEC00A6C
:1014F0003948D0ED000A20EE200A86ED020AFFF7F7
:101500007FFF08226946002000F06AF8FFF76EFFAF
:101510009DF800000F2838D19DF80300000200B2AA
:101520009DF8021040EA010400EE104AB8EEC00A2D
:101530002A48D0ED000A20EE200A85ED000A9DF829
:101540000500000200B29DF8041040EA010400EE1C
:10155000104AB8EEC00A2148D0ED000A20EE200A59
:1015600085ED010A9DF80700000200B29DF8061003
:1015700040EA010400EE104AB8EEC00A1748D0ED68
:10158000000A20EE200A85ED020AFFF723FFA220C1
:1015900000F046F802226946222000F021F8FFF709
:1015A0000FFF9DF80000C0009DF8011040EA611493
:1015B000B4F5806F02DBA4F5006004B200EE104ABF
:1015C000F8EEC00AB4EE001AB3EE070A00EE810A84
:1015D00087ED000ABDE8FC81000100200401002025
:1015E00070B506460C46154646F0800000F018F827
:1015F00006E0552000F014F82070641C681EC5B287
:10160000002DF6D170BD70B504460D4644F0800043
:1016100000F006F8552000F003F8287070BD0000B7
:1016200001B582B04FF47A70012301AA02A900909B
:10163000024806F067FA9DF804000EBDC40B0020B6
:1016400070B505460C462846FFF7EAFF2046FFF72F
:10165000E7FF70BD30B58BB005460C460694002000
:1016600007900120089000200190029003900490C0
:101670000590012009900E200A9001A9284603F048
:10168000CDF908B102F097FA0BB030BD70B5044641
:101690000D460F492068884204D100212046FFF7FB
:1016A000D9FF07E00B492068884203D10E2120466C
:1016B000FFF7D0FF204603F032FE08B102F07BFABC
:1016C0002946204603F0EFF808B102F074FA70BD25
:1016D00000640040006800402DE9F04104460E46D9
:1016E0001746984614B90120BDE8F0812660002015
:1016F00084F824002762C4F828804FF480731022F5
:101700003946201D11F01CFA00250EE0094850F85A
:10171000250040B903213046FFF7B8FF054840F8DF
:1017200025400020E0E7681CC5B2022DEEDB012059
:10173000DAE700009400002002460AB90120704751
:1017400009B90120FBE791620020F8E72DE9FF5F6E
:101750000446894692461D464FF0010B5746CDF888
:101760000090002600BF00BFEFF31080804600BF4E
:1017700072B600BF25E0201D11F0F7F918B1002066
:1017800084F824001FE0A81B082803DB08208DF83C
:10179000040003E0A81BC0B28DF804003868CDF83F
:1017A00005007968CDF809109DF8040007449DF8FC
:1017B0000400304486B26946201D11F0DDF94FF077
:1017C000000BAE42D7DB00BF00BF00BF88F310881C
:1017D00000BF00BF00BF94F8240030B9201D11F0F5
:1017E000BDF910B9204600F075FC584604B0BDE8BC
:1017F000F09F0000074800680749B0FBF1F0074977
:101800000870044800684FF47A71B0FBF1F00449A5
:10181000086070471400002040420F009C00002028
:10182000A000002070B50346002400210020002203
:1018300000254FF0E02675690D4E366803FB06F46F
:101840004FF0E026B16910E04FF0E026B069884221
:101850000BD0884202D20E1A324402E02E1A0E44F5
:1018600032440146A24200D300E0EDE700BF70BD64
:10187000A000002070B503460024002100200022B3
:1018800000254FF0E02675690D4E367803FB06F40F
:101890004FF0E026B16910E04FF0E026B0698842D1
:1018A0000BD0884202D20E1A324402E02E1A0E44A5
:1018B00032440146A24200D300E0EDE700BF70BD14
:1018C0009C00002010B504460CB9012010BD226018
:1018D000636021720020F9E730B504460D460CB96B
:1018E000012030BD2560626005202072E360002188
:1018F0000AE0074850F8210020B9054840F8214087
:101900000020EEE7481CC1B20A29F2DB0120E8E71B
:101910009C4E002070B504460D4616462560666054
:1019200004202072D4E9000106F008FE002070BDFA
:1019300010B50446A28891B2206804F0F1F810BDF9
:1019400042681AB902681268516310E04268042ABA
:1019500003D102681268916309E04268082A03D142
:1019600002681268D16302E002681268116470476D
:1019700010B504F0E3F810BD08B5FFF73BFF4FF4D6
:101980008053344A03213448FFF79CFF334B012234
:1019900033493448FFF7A0FF082233493348FFF7A3
:1019A000B9FF042230493248FFF7B4FF00222E4924
:1019B0003048FFF7AFFF00222F493048FFF7AAFF5A
:1019C00008222F492F48FFF7A5FF08222E492F484C
:1019D000FFF7A0FF2E492F4800F0DEF84FF480609B
:1019E0002D4B42102D4900902A4800F026F9002383
:1019F0004FF400722A49274800F0ECF829492A4898
:101A000000F0CAF84FF48060284B4210284900903B
:101A1000254800F012F900234FF4007225492248AE
:101A200000F0D8F82449254800F0B6F800231E221B
:101A30002349224800F0CEF80023224A22492348B5
:101A4000FFF74AFE0023224A22492348FFF744FEBB
:101A500008BD000000040240E47E0020ED330108D0
:101A600000000240547F0020F40C0020F47E00208F
:101A7000047F0020147F00203C0D0020247F0020E4
:101A8000AC0C0020347F0020640C0020447F002038
:101A9000140E0020647F0020C4500020C44E00209B
:101AA000C4540020840D0020A07F0020C4580020D2
:101AB000C4560020C45C0020CC0D0020DC7F002038
:101AC000C45E0020E25E0020200B00201880002071
:101AD000E26E0020480B002044800020F8B5044648
:101AE00000262068006800F01000102846D1206809
:101AF000C06800F01000002840D0E06B006800686B
:101B000020F00100E16B0968086000252CE0214805
:101B100050F82500006800682168884222D11D48DD
:101B200050F82500C088E16B09684968401A86B200
:101B3000184850F82500C06848B1164951F82510DA
:101B40008868144951F82510CA68314690471148F1
:101B500050F82500C2880F4850F8250081682046BB
:101B600007F0EAF8681CC5B2032DD0DBE06B006813
:101B7000006840F00100E16B0968086000BF0020C8
:101B8000009020680068009020684068009000BFC6
:101B900000BFF8BD7080002070B504460D460CB93A
:101BA000012070BD3C212046FEF72EFC256000215F
:101BB0000AE0074850F8210020B9054840F82140C4
:101BC0000020EEE7481CC1B20329F2DB0120E8E760
:101BD00070800020F8B504460D4616461F460CB925
:101BE0000120F8BD01202071A560E680E76000BFFC
:101BF000002000902068006800680090206800685D
:101C00004068009000BF00BF20680068C06840F0D6
:101C1000100021680968C860E288A168206807F0A0
:101C20008BF80020DDE702460AB90120704709B9A8
:101C30000120FBE7D1600020F8E72DE9F0410446E0
:101C40000E4617461D46DDF8188014B90120BDE880
:101C5000F08101202074666127836563A4F83880D1
:101C6000002084F83A004246294604F11C0011F095
:101C70001BF80020EBE72DE9F0470446884617469D
:101C800014B90120BDE8F087207C08B90120F9E7EC
:101C900094F83A0090B9208BB84202DD3D46002608
:101CA00014E0208B218F0844B84204DD258B208B63
:101CB000381A86B20AE0258B268F07E0208FB842BB
:101CC00002DD00253E4601E00025268F002D0CDDBB
:101CD0002A4641466069FEF77EFB012084F83A00FF
:101CE0002A466169206807F05DF8002E0DDD08EBDB
:101CF0000501324604F11C0010F0E1FF00F0FF097D
:101D0000B14501D00120BDE700BF0020BAE70000C7
:101D100010B5FFF72DFE04464FF47A70B4FBF0F0D7
:101D2000032800D210BD1C480068201A40F6C411D8
:101D3000884208D919480078194908701648046083
:101D40001848046025E01648007810B3154800686C
:101D5000201A15490988884205D296214FF4FA7055
:101D600000F076F815E00F480068201A0E4909883F
:101D70000E4A12881144884204D20021084600F01D
:101D800067F806E006480078401E054908700548D7
:101D9000046000BFC6E70000F4000020EC00002053
:101DA000FC000020F8000020EE000020F0000020E1
:101DB0000149087070470000EC00002070B52DED5F
:101DC000068B0446B0EE408A01F00CFF05466068C1
:101DD00028B9656025600020BDEC068B70BD606889
:101DE000281A2169884202D9A5600120F4E718EE7B
:101DF000100AFEF7BDFC41EC1A0BB0EE4A0AF0EEF9
:101E00006A0A0EF0C5FAB0EE409AF0EE609A9FEDC5
:101E10000A0B53EC102B51EC190BFEF7BDFC07D24B
:101E20002068281AE168884203D9A5600120D3E719
:101E300025600020D0E700000000000000004940BD
:101E4000002343608360C1600261704700BFFEE70A
:101E500070B504460D46044800680068C46229460F
:101E60000148FFF76DFD70BD347F002010B50248BA
:101E700002F04FFF10BD0000200B002070B505469A
:101E80000E461446281E09D0A0F2052000B3A0F289
:101E9000FB2038B3B0F5007F36D12CE031461C482A
:101EA00010F046FD062008F093FE194890ED080A50
:101EB000184880ED760A164890ED090A154880ED1D
:101EC000770A134890ED0A0A124880ED780A1CE060
:101ED0001049D1F8E801314608F09BFD052008F0D3
:101EE00077FE12E0A2B231460B4801F090FA0F20C3
:101EF00008F06EFE09E0A2B23146084801F087FA08
:101F00000E2008F065FE00E000BF00BF70BD0000BD
:101F1000848500201C950020A89D002054A200204C
:101F200070B504460E461546B4F5C06F05D1AAB289
:101F30003146034801F06BFA00E000BF00BF70BDFE
:101F4000F0B2002070B504460D462B4622464FF4F1
:101F5000E0610248FFF7FAFB70BD00001880002026
:101F600010B5024802F0D5FE10BD0000200B002085
:101F700070B504460D462B4622464FF4C061024818
:101F8000FFF7E4FB70BD00001880002070B5044628
:101F90000D462B4622464FF4A0610248FFF7D6FBC0
:101FA00070BD00001880002010B5024802F0B1FE9C
:101FB00010BD0000480B00202DE9F04104460D46FD
:101FC0001746A4F20120082841D2DFE800F0040EF1
:101FD000182240402C3601F0F1FD0646294608F053
:101FE00018FD082008F0F4FD32E001F0EBFD064694
:101FF000294608F00EFD092008F0EAFD28E001F06E
:10200000E5FD0646294608F004FD0A2008F0E0FD3B
:102010001EE001F0DFFD0646294608F0FAFC0B2021
:1020200008F0D6FD14E00AF0D5FB0646294608F074
:10203000F0FC0C2008F0CCFD0AE00AF0CFFB0646CD
:10204000294608F0E6FC0C2008F0C2FD00E000BFC5
:1020500000BFBDE8F08100002DE9F04104460D46C7
:10206000164640F20321601A8C420DD005DCA4F222
:10207000012038B101281ED105E0012805D00E2825
:1020800019D113E000BF00BF00BF601EC7B207EB4D
:10209000870101EBC7020A4951F83200294608F0CE
:1020A000B8FC791CC8B208F093FD05E0F1B22846EF
:1020B00009F066FF00E000BF00BFBDE8F08100004E
:1020C000FCAB002010B5024802F023FE10BD00005A
:1020D000480B002030B58BB004460CB90BB030BDB6
:1020E00000BF00BFEFF31080054600BF72B600BF0F
:1020F000201D10F033FD00BB15E007A9201D10F0D6
:1021000000FD079801900020039004909DF82000A6
:102110000590012084F824006B460DF1210201A9ED
:10212000206802F0D5FB206802F0D8FD40B1201DE8
:1021300010F014FD0028E0D002E0002084F8240014
:1021400000BF00BF85F3108800BF00BF00BF00BF05
:10215000C4E70346042B15D007DC7BB1012B0ED05E
:10216000022B0DD0032B12D10BE0202B0BD0212BF7
:102170000AD0222B09D0232B09D107E008E007E081
:1021800006E005E004E003E002E001E000E000BF5B
:1021900000BF0020704700207047000010B50022EB
:1021A000044905480BF055F9044903480BF042F97E
:1021B000002010BD3CCD002060C000203CC50020A8
:1021C00070B505460C460F480068216808440D4963
:1021D0000860084600683C280AD2084600680A4A97
:1021E00081180A480BF026F908480BF0EFF806E0D2
:1021F00001200449087100200968034A5054002056
:1022000070BD0000B80300203CC5002060C0002065
:102210002DE9F04104460D460948D0F8BC62D6F8D5
:10222000140210B10120BDE8F0812A46214604487D
:102230000BF00FF902480BF0BFF907463846F2E7FA
:1022400060C0002010B503460C460021084610BDB2
:1022500070B504460D46204613F05AFB70BD0000D1
:1022600070B504460D462A462146034801F0CFF8D2
:102270000E2008F0ADFC70BD48BA002038B501F062
:10228000EBFA5E49086007F0CFF95C4948605C48AA
:102290008860002008739FED5B0A084680ED040A01
:1022A0009FED590A80ED050A9FED570A80ED060A59
:1022B0009FED560A80ED070A9FED540A80ED080A4B
:1022C000002424E0204600F073F904EB840101EBC4
:1022D000C4024A49243141F8320004EB840101EB85
:1022E000C4024649243101EBC201081DDFED472A33
:1022F0009FED462ADFED461AB1EE0A1ADFED450AD8
:102300009FED450A032111F01BFC601CC4B2042C94
:10231000D8DBDFED3E2AB0EE002ADFED3C1AB1EE4D
:10232000001ADFED3E0A9FED3E0A03213D4811F001
:1023300007FC0023642201210E2008F02BFC03235C
:1023400064220121102008F025FC002364220121D1
:10235000112008F01FFC344B4FF48062334934489D
:1023600001F026F933484FF48063334AAA210090E4
:10237000324801F071F8324B4FF400723149324863
:1023800001F016F931484FF40073314AA52100904D
:10239000304801F061F80A2200212F4809F032FD8F
:1023A0000A2200212D4809F02DFD642200212C482D
:1023B00009F028FD2B4B4FF400722B492B4801F0FC
:1023C000F7F81E2200212A4809F01CFD274800F0DA
:1023D000D7FE28492848FFF726FC28492848FFF758
:1023E00022FC28492848FFF71EFC28492848FFF707
:1023F000A3F928490248FFF79FF938BDD8AB002060
:1024000044800020D053FB430080A2430000000022
:10241000CDCCCC3D0000FA4400007A460000484292
:10242000000096439CAD00208D1F0008F0AE0020F8
:1024300044AE00200DF800089CB30020F0B200204C
:10244000451F000848B800209CB7002001B10008D3
:10245000F4BA002048BA002075C7000841250008DA
:1024600065C00008A9330008A0BD0020F4BC00200E
:10247000DD2D000891380008DC7F00206122000873
:10248000647F002049AE0008A07F0020211F0008C3
:10249000188000205920000813480068807918B976
:1024A0000020114908731EE00F4800688079012858
:1024B00002D10D49087316E00B48006880790228A4
:1024C00002D1094908730EE00748006880790328A3
:1024D00002D10549087306E00348006880790428A2
:1024E00001D1014908737047D8AB002010B51248DC
:1024F000006890ED020A1048D0ED880A30EE200AFC
:1025000080ED8B0A006890ED030A0B48D0ED890A34
:1025100030EE200A80ED8C0AD0ED960AF1EE600ACA
:10252000B0EE600ADFED050A00F5E27011F0E2F9A5
:10253000014880ED8D0A10BDD8AB002000000000DE
:1025400038B5054600F01CF804460B48D0F82C02BC
:10255000C4F801000848D0F83002C4F80500064865
:10256000007B2070092023460222AA210090034804
:1025700000F0BEFF002038BDD8AB002044AE0020E4
:1025800000487047C28000202DE9FC4104460D46FA
:1025900016461F460549CDE900672B462246886846
:1025A0004FF4007108F0C1FABDE8FC81D8AB0020FF
:1025B000014601EBC100024A02EB800070470000B7
:1025C0009483002070B501F01BFD04460DF050F916
:1025D000054654F8050F00EE100AB1EE400A174800
:1025E00080ED960A4068D0ED5A0A606800EE100A45
:1025F00030EEC00A114880ED980A406890ED5B0A01
:102600000E4880ED990A4068D0ED5C0AA06800EEA3
:10261000100A30EEC00A094880ED970AD4F8150078
:102620000649C1F82002D4F81900C1F82402D4F8F0
:102630001D00641FC1F8280270BD0000D8AB002047
:102640000848006890ED020A0648D0ED880A30EE8E
:10265000200A80ED8B0A006890ED040A014880EDA5
:102660008D0A7047D8AB002010B52DED048B4E4875
:10267000006890ED020A4C48D0ED880A30EE200A3E
:1026800080ED8B0A006890ED030A4748D0ED890A77
:1026900030EE200A80ED8C0A90ED8B0A10EE101AB5
:1026A0000846FEF765F841EC190BB0EE490AF0EE6A
:1026B000690A0DF06DFEB0EE408AF0EE608A9FED83
:1026C0003B0B53EC102B51EC180BFEF765F822D2A4
:1026D000354890ED8C0A10EE101A0846FEF748F8BF
:1026E00041EC190BB0EE490AF0EE690A0DF050FE0C
:1026F000B0EE408AF0EE608A9FED2C0B53EC102B6D
:1027000051EC180BFEF748F805D29FED2A0A26482F
:1027100080ED8D0A44E0244890ED8B0A10EE101AEB
:102720000846FEF725F841EC190BB0EE490AF0EE29
:10273000690A0DF02DFEB0EE408AF0EE608A9FED42
:102740001E0B53EC102B51EC180BFEF725F822D280
:10275000154890ED8C0A10EE101A0846FEF708F89E
:1027600041EC190BB0EE490AF0EE690A0DF010FECB
:10277000B0EE408AF0EE608A9FED0F0B53EC102B09
:1027800051EC180BFEF708F805D29FED0A0A06482F
:1027900080ED8D0A04E09FED070A034880ED8D0A65
:1027A000BDEC048B10BD0000D8AB00200000000081
:1027B00000407F400000FA430000000000408F40CE
:1027C0009FED060A064880ED8B0A9FED040A80ED16
:1027D0008C0A9FED020A80ED8D0A70470000000010
:1027E000D8AB002000BFFFF7EDFEFFF755FE4948CC
:1027F000007B012806D0022807D0032808D004282F
:102800000CD108E0FFF7DCFF09E0FFF76FFE06E000
:10281000FFF716FF03E0FFF727FF00E000BF00BF50
:102820003C4800F091F8002446E03B4800EB84006F
:1028300090ED000A04EB840000EBC401354824301D
:1028400000EBC10080ED180A04EB840101EBC40227
:102850003049243101EBC20191ED181AF0EE410A22
:1028600004EB840101EBC4022A49243151F83210EF
:10287000B1F9041001EE101AB8EEC11AB0EE410A17
:1028800004EB840101EBC4022249243101EBC201B3
:10289000081D11F02FF8BDEEC00A10EE100A01B2AB
:1028A00004EB840000EBC4021A48243000EBC200A1
:1028B000A0F86410601CC4B2042CB6DB154800F00C
:1028C0005DF81448007B80B900200CE0002200EB8A
:1028D000800101EBC0030F49243101EBC301A1F8D2
:1028E0006420411CC8B20428F0DB0A4CB4F9C031A2
:1028F000B4F95821B4F9F010B4F98800FFF744FE98
:102900000A2010F06FFE002012F0B4FC03490860AA
:1029100069E70000D8AB002010AE002014030020AF
:1029200000B587B01C2206496846FDF754FD00211A
:10293000684610F080FE0349086007B000BD000043
:10294000F06D01081003002010B50446094A0A4939
:10295000204600F017F994ED8D0AB0EE401A0548B4
:10296000D0ED000A044890ED000A204607F0F0FD83
:1029700010BD00000C0300200803002070B52DEDF1
:102980000E8B04469FED770AB0EE40EA9FED750A84
:10299000B0EE408A9FED730AF0EE408A9FED710A17
:1029A000B0EE409A9FED6F0AF0EE409A08F0A2FB5D
:1029B00005461DB10E2000F033F920B19FED6A0AE3
:1029C000B0EE40EA5AE0022D01D00C2D04D19FED6B
:1029D000670AB0EE40EA51E008F01EFC008900EE04
:1029E000100AB8EE400AB0EE409A08F019FC40898F
:1029F00000EE100AB8EE400AF0EE409A9FED5C0A35
:102A0000B4EEC09AF1EE10FA14D2F1EE040AB4EE6C
:102A1000E09AF1EE10FA04DDDFED550A89EE200AA6
:102A200001E09FED540ADFED500A60EE200AB0EE9F
:102A300060EA23E09FED500AF4EEC08AF1EE10FA4E
:102A400018DDF4EEE98AF1EE10FA08D279EEE80A20
:102A50009FED491A39EEC11A80EE810A01E09FED1F
:102A6000410ADFED410A9FED451A41EE000AB0EE42
:102A700060EA03E09FED420AB0EE40EA002625E05E
:102A800006EB860101EBC60204F1240101EBC20151
:102A9000B1F96400FDF75BFE41EC1D0BB0EE4D0A91
:102AA000F0EE6D0A0DF074FCB0EE40BAF0EE60BAD4
:102AB00018EE100AFDF75CFE53EC1B2BFDF7BFFC74
:102AC000FDF79AFE08EE100A701CC6B2042ED7DB82
:102AD000B4EECE8AF1EE10FA40DDCEEE080AB0EE8A
:102AE000600AB4F9880000EE900AF8EEE00A60EEA1
:102AF000800AFDEEE00A10EE900A01B2A4F88810F8
:102B0000B4F9F00000EE900AF8EEE00A60EE800AF8
:102B1000FDEEE00A10EE900A01B2A4F8F010B4F94C
:102B2000580100EE900AF8EEE00A60EE800AFDEE31
:102B3000E00A10EE900A01B2A4F85811B4F9C001ED
:102B400000EE900AF8EEE00A60EE800AFDEEE00A80
:102B500010EE900A01B2A4F8C01100BFBDEC0E8BBC
:102B600070BD00000000000000007A4600007A47B7
:102B700000004842CDCCCC3D0000204200409C46A5
:102B800000A00C4770B52DED028B04460D4616468D
:102B900094ED960ADFED1F0A80EE201AB0EE418A0E
:102BA000B0EE480AFDF7A8FB1B4880ED000A94ED43
:102BB000960ADFED180A80EE201AB0EE418AB0EED8
:102BC000480AFDF75DFB154880ED000A94ED8B0A7D
:102BD0001148D0ED000AF1EE600A20EE200AD4ED93
:102BE0008C0A0E4890ED001A01EE200A86ED000ACC
:102BF00094ED8B0AD0ED000A20EE200AD4ED8C0A69
:102C0000054890ED001A01EE200A85ED000ABDECA2
:102C1000028B70BD33336542EC020020F0020020CD
:102C20000146044800EB0110C078012800D170472C
:102C30000020FCE7DC92002038B505460C464FF436
:102C4000807000F0C5FA8DF800508DF80140022127
:102C5000684600F0F1FA38BD2DE9F05F2DED028BEA
:102C600004460D4616461F46B0EE408ADDE90EAB1F
:102C7000DDE90C891CB9BDEC028BBDE8F09F0F218A
:102C80002046FDF7C1FB2846FDF7C9FB032800D904
:102C9000F1E729462046FDF7C9FB14F8030F20F0A1
:102CA0000700401C2070207820F038002830207069
:102CB000208866F38910208007F57070B4F805103D
:102CC00060F38C01A4F8051008F51670E18860F334
:102CD0004F11E180B4F8010069F38E10A4F80100EF
:102CE0000121608861F3CF106080A0886AF3090039
:102CF000A08060786BF3850060709FED0A0A28EE73
:102D0000000ABDEEC00A10EE100AA060E41E40F2F8
:102D1000011000F05DFA0F21204600F08DFA00BF8F
:102D2000A9E7000000007A442DE9F05F04460D4653
:102D300016461F46DDE90CABDDE90A890CB9BDE892
:102D4000F09F0F212046FDF75FFB2846FDF767FB4C
:102D5000032800D9F3E729462046FDF767FB14F85E
:102D6000030F20F00700401C2070207820F038006E
:102D70002070208866F38910208007F57070B4F801
:102D8000051060F38C01A4F8051008F51670E188B1
:102D900060F34F11E18009F57070B4F8091060F329
:102DA0008C01A4F809100AF51670618960F34F11BF
:102DB0006181A0886BF30900A08061780E9860F3B0
:102DC00085016170E41E40F2011000F001FA0F214C
:102DD000204600F031FA00BFB1E70000F0B52DED5C
:102DE000028B83B0074608F085F90446204600F0C0
:102DF000FBF904F5807000F0F1F912F01FF801F012
:102E0000FFF806466948008801287BD16848407869
:102E100001280CD10221674800F0BAF9B7EE000A88
:102E2000644800F0BFF90220614948700EE0604834
:102E3000407858B904215F4800F0AAF99FED5E0A76
:102E40005C4800F0AFF90220594948705848807832
:102E500001280CD10221594800F09AF9B7EE000A76
:102E6000564800F09FF90220514988700EE0504802
:102E7000807858B90421514800F08AF99FED4E0A34
:102E80004E4800F08FF90220494988704848007880
:102E900001280CD102214A4800F07AF9B7EE000A65
:102EA000474800F07FF90220414908700EE0404891
:102EB000007858B90421424800F06AF99FED3E0AB3
:102EC0003F4800F06FF90220394908703D4890ED05
:102ED000000ADFED3D0A30EE600A9FED3C1AC0EEBD
:102EE000010A9FED3B1A9FED3B0A10EE810A3A481A
:102EF00080ED000A334890ED000ADFED330A30EE32
:102F0000600A00E04CE0DFED310A80EE201A11EE9D
:102F1000105A2846FDF72CFC41EC180B9FED2F0BA7
:102F200053EC102BFDF738FC04D204212D4800F09F
:102F30002FF903E002212B4800F02AF9214890EDF7
:102F4000000ADFED210A30EE600ADFED200A80EE94
:102F5000201AB5EEC01AF1EE10FA04D29FED220A43
:102F60001D4880ED000A6FF4ED7000901A4890ED56
:102F7000000ABDEEC00A10EE100A03B26FF4ED7243
:102F80001A49184800F036F919480146094A0C4B0D
:102F9000CDE900210290094A1649124800F072F961
:102FA000002003B0BDEC028BF0BD00003602002013
:102FB000CC010020759400200000000084940020C3
:102FC00093940020B401002000007A440000C8441B
:102FD0000000434400009143440200203333333364
:102FE0003333D33F0C940020000091C3DEFEFFFF7B
:102FF000FC940020DE9400202DE9F05F04460D468D
:1030000016461F46DDE90CABDDE90A890CB9BDE8BF
:10301000F09F0F212046FDF7F7F92846FDF7FFF94D
:10302000032800D9F3E729462046FDF7FFF914F8F5
:10303000030F20F00700401C2070207820F038009B
:1030400008302070208866F38910208007F57070A2
:10305000B4F8051060F38C01A4F8051008F516709B
:10306000E18860F34F11E18009F57070B4F8091040
:1030700060F38C01A4F809100AF51670618960F3F9
:103080004F116181A0886BF30900A08061780E98D0
:1030900060F385016170E41E40F2011000F098F8C1
:1030A0000F21204600F0C8F800BFB0E72DE9F05F1F
:1030B00004460D4616461F46DDE90B8ADDF82890CA
:1030C0000CB9BDE8F09F2D212046FDF79DF928465B
:1030D000FDF7A5F9032804D84046FDF7A0F91E28FE
:1030E00000D9EEE729462046FDF7A0F914F8030FB2
:1030F00020F00700401C2070207820F03800383085
:103100002070208866F38910208007F57070B4F86D
:10311000051060F38C01A4F8051009F51670E1881C
:1031200060F34F11E180B4F801006AF38E10A4F847
:1031300001004046FDF773F9618860F3CF116180AB
:10314000A1880D9860F30901A18061780E9860F361
:1031500085016170E41E414604F10F00FDF766F938
:103160004FF4887000F034F84046FDF758F90F30FE
:103170001FFA80FB5946204600F05EF800BFA0E72A
:1031800000B970470149086000BFFAE7E800002075
:1031900008B1082900DD7047027961F385020271E8
:1031A00000BFF8E720B1C178C1F3C201052900D002
:1031B0007047DFED060A60EE200AFDEEE00A10EE31
:1031C000901AC0F80B1000BFF2E7000000007A442C
:1031D0000149088070470000E00000200149888014
:1031E00070470000E000002001494880704700005F
:1031F000E000002070B5049C00B970BD01F5707549
:10320000068965F38C06068102F51675B0F809602B
:1032100065F34F16A0F8096003F57075868965F3AC
:103220008C06868104F51675B0F80D6065F34F16AF
:10323000A0F80D6000BFE0E738B505460C460E4823
:10324000006800B938BD0D480D490A6802608988D8
:10325000818022462946801DFDF7BDF8A01D80B261
:10326000064B40F20132A52100900348006800F0AF
:103270003FF900BFE6E70000E800002015810020CC
:10328000E00000202DE9F04F8BB0074688469146BC
:103290009A460024A3460497CDF81480CDF81890E0
:1032A000CDF81CA0149808901598099016980A90CB
:1032B0003A4E002007E004A951F8201009B1611C22
:1032C000CCB2411CC8B20728F5DB012C05D1A346BE
:1032D00040F20110FFF77CFF1CE0022C05D1A34651
:1032E0004FF48170FFF774FF14E0052C06DC4FF0FB
:1032F000050B40F20310FFF76BFF0BE0072C06DC19
:103300004FF0070B4FF48270FFF762FF02E00BB043
:10331000BDE8F08F2248016831608088B080B61D1A
:10332000002518E004A850F8250090B104A850F832
:103330002500C07820F00700801C04A951F8251052
:10334000C87004A850F825100F223046FDF743F846
:103350000F36681CC5B2072DE4DB5C4510DA00208F
:10336000009001900290039007E00F2269463046DA
:10337000FDF731F80F36601CC4B25C45F5DB00BFC9
:10338000C4EB0410801D054B40F20132A5210090D2
:103390000448006800F0ACF800BFB8E715810020D1
:1033A000E0000020E800002070B504460D462A46E3
:1033B00021460248FEF75FFC70BD0000647F0020DC
:1033C0002DE9FF470446884699460C9D05F1090002
:1033D00086B2802E03DD002004B0BDE8F08704F142
:1033E000210787F80080A7F801503846BDF808107B
:1033F000E18405210EF040FD2A464946F81DFCF700
:10340000EAFF314638460EF021FD3046E4E770B55C
:1034100004460E46154604B970BD04F108000FF0CD
:10342000CAFBA84205DD2A46314604F108000FF028
:1034300046FC00BFF0E7000070B50648456804E0B0
:103440002C46204600F0D8F86D6802488542F7D136
:1034500070BD0000B00000202DE9F04704460E4684
:1034600017469846DDF820900CB9BDE8F0870D4866
:10347000456803E0A54200D1F7E76D680948854239
:10348000F8D1014620460FF0CFFF84F82060424675
:10349000394604F108000FF007FCC4F8A89000BFFB
:1034A000E3E70000B000002000BFFFF7C5FF00F019
:1034B00041F8012010F096F8002011F0DBFE0149E0
:1034C0000860F2E72C02002000B587B01C220649F4
:1034D0006846FCF780FF0021684610F0ACF803490D
:1034E000086007B000BD0000946D010828020020AC
:1034F0002DE9F84304460E4617469846089D0CB938
:10350000BDE8F88304F108000FF055FBA8420FDD79
:1035100043463A46314620460095FFF751FF814623
:103520004A4604F1210104F108000FF0C8FB00BF76
:1035300000BFE5E72DE9F041A0B080216846FCF727
:1035400063FF0026B04600271848456827E02C4650
:1035500004F108000FF006FC86B2FEB1D4F8A80012
:1035600050B1D4F8A80080478046B04501DA404603
:1035700000E03046074600E03746802F00DD802718
:103580003A46694604F108000FF03EFBD4F8A40067
:1035900020B139466846D4F8A42090476D680348A6
:1035A0008542D4D120B0BDE8F0810000B8000020F1
:1035B0002DE9F04104460F4690461E460CB9BDE881
:1035C000F0810C48456803E0A54200D1F7E76D683B
:1035D00008488542F8D1014620460FF025FF4246B3
:1035E000394604F108000FF05FFBC4F8A46000BF87
:1035F000E5E70000B800002070B5044600258AE029
:1036000004F108000FF0DAFA054694F821000628C4
:103610007BD2DFE800F003141F353F5794F82000F9
:10362000A84209D1012084F82100618C481C6084E3
:1036300004F12600455401E0002060846AE0A5847E
:10364000618C481C608404F126004554022084F8F3
:1036500021005FE0A08C40EA0520A084618C481C1A
:10366000608404F126004554A08C772803D20320FF
:1036700084F8210003E0002084F82100608449E000
:10368000618C481C608404F126004554042084F8B1
:1036900021003FE0618C481C608404F12600455401
:1036A000608C05280DD1052104F1260012F018F9CF
:1036B00018B1052084F8210003E0002084F82100DF
:1036C000608427E0618CA08C0930814205D2618C36
:1036D000481C608404F126004554618CA08C09309C
:1036E000814210D3002084F821006084A08C00F176
:1036F000090104F1260012F0D5F820B104F12601E9
:1037000020460CF06BF805E0FFE7002084F821006C
:10371000608400BF00BF04F108000FF023FB002805
:103720007FF46EAF70BD000000BF07F07DFD2F4835
:10373000007920B101281BD002283FD130E000F0F1
:103740005FFC007801280CD000F05AFC007840B1F2
:103750000120264908710420487102208871C8712F
:1037600005E001202149487188710220C87126E0D6
:103770001E480068007A032802D107F089FD0EE098
:103780001A480068007A012802D1FDF763FD06E0BF
:1037900016480068007A022801D1FDF7A3FC0EE06C
:1037A0001120FFF73DFA18B900201049087104E014
:1037B00000200E4948718871C87100E000BF00BF49
:1037C0001120FFF72DFA10B10220084908710748AF
:1037D000162201680648FCF7FEFD14200FF002FFD8
:1037E000002011F047FD034908609EE73492002055
:1037F00068920020C801002000B587B007F06CFC7B
:103800001049086000200871012088714871022069
:10381000C871002081F830004B210B4811F0CAF824
:103820004B210A4811F0C6F81C2209496846FCF7EA
:10383000D2FD002168460FF0FEFE0649086007B081
:1038400000BD000034920020D4010020E8010020D7
:10385000406D0108C40100200048704734920020E8
:10386000F8B504460D4607F037FC06462A462146C1
:1038700007F07AFB23460122AA2104480095FFF7AE
:1038800037FE112007F0A4F9F8BD0000FC980020D5
:10389000F8B504460D4607F01FFC06462A462146A9
:1038A00007F062FB23460122AA2104480095FFF796
:1038B0001FFE112007F08CF9F8BD000044AE002077
:1038C00010B5024801F014FE10BD00001C0F0020CE
:1038D00010B5024801F00CFE10BD00007C0F002066
:1038E00010B5024801F004FE10BD00005C0E00207F
:1038F00010B5024801F0FCFD10BD0000DC0F0020F7
:1039000010B5024801F0F4FD10BD0000BC0E00200F
:103910000146087810381823B0FBF3F20848805CA1
:10392000C865032A05D908686FF30900001D88657A
:1039300003E008686FF309008865886D7047000030
:10394000D4690108014600208A6A8B69CBB932B17B
:10395000012A0DD0022A03D0032A10D10EE000BFA5
:10396000CB6A03F08073B3F1807F00D1012007E0C0
:10397000CB6AB3F1C07F00D1012001E000E000BFBD
:1039800034E08B69B3F5005F1AD132B1012A07D058
:10399000022A03D0032A11D10AE000BF01200EE061
:1039A000CB6A03F08073B3F1807F00D1012006E081
:1039B000CB6AB3F1C07F00D1012000E000BF15E069
:1039C00032B1012A05D0022A04D0032A0CD103E027
:1039D00000BF00BF012008E0CB6A03F08073B3F1A1
:1039E000807F00D1012000E000BF00BF704730B5EC
:1039F0000468246824F4802405682C6004686360EB
:103A00008468402C04D10468A2600468E16003E08B
:103A10000468A1600468E26030BD0000F0EE400A76
:103A20009FED061AB0EE410A9FED051A20EE811AAD
:103A3000F0EE410AB0EE600A70470000000000009E
:103A4000E02E65427047000000BFFDF791FF05467C
:103A5000FF260024012026E02A4901EB00114968D5
:103A6000691A284A02EB00129268914215D9254939
:103A700001EB0011097881B10121224A02EB001209
:103A8000D170204901EB00118978B1420ADA1D4951
:103A900001EB00118E78C4B204E00021194A02EB58
:103AA0000012D170401C1328D6DBCCB1154901EBB4
:103AB0000411087BFEF77CF9124800EB04108078B3
:103AC00018B911480DF00CFF11E00E4800EB04107E
:103AD000807801280BD16FF0FF000DF001FF06E0A8
:103AE0004FF0FF200DF0FCFE0020FEF761F9FEF71D
:103AF0000FF90A200FF076FD002011F0BBFB0349FF
:103B00000860A2E7DC9200200000FFFF24020020F2
:103B100000B587B01C2206496846FCF75CFC002112
:103B200068460FF088FD0349086007B000BD00003B
:103B3000786D01082002002010B52DED048B04469D
:103B4000B0EE408AF0EE608AB0EE419A84ED458A8C
:103B5000C4ED468A94ED451AF0EE410A94ED461AFA
:103B6000B0EE410A20460FF0C5FE94ED0E0A84ED3A
:103B7000470A84ED489A94ED471AF0EE410A94ED15
:103B8000481AB0EE410A04F15C000FF0B3FE94ED68
:103B9000250ABDEC048B10BD10B5082001F0B8FE5D
:103BA00010BD10B5102001F0B3FE10BD10B52020DF
:103BB00001F0AEFE10BD72B600BFFEE700487047D0
:103BC00070840020004870479484002000487047AB
:103BD000B884002000487047DC840020004870470B
:103BE0007C80002010B501F0A9FF10BD10B52C4459
:103BF00054B108220549204606F0CEF804220349B4
:103C00001031304606F0C8F810BD00009E030020B9
:103C100008B5FFF721FE5949086005F005FD574931
:103C20004860574888600120487300F0D9FA53492A
:103C3000486100F0BFFA5149C1F8E80140F6F801C7
:103C40004E48018341F25421A0F8F0119FED4D0A36
:103C500080ED070A9FED4B0A80ED7D0A9FED4A0A31
:103C600080ED080A9FED490A80ED090AB3EE0E0ABD
:103C700080ED7E0ABAEE0A0A80ED7F0ADFED442A63
:103C80009FED432ADFED421A9FED421ADFED400A15
:103C90009FED410A032100F51C700FF051FFDFED8D
:103CA0003C2A9FED3B2ADFED3A1A9FED3C1ADFEDEF
:103CB0003C0A9FED3C0A03213B480FF041FFDFED3A
:103CC0003B2A9FED332ADFED3A1A9FED3A1ADFEDDA
:103CD000300AB3EE0E0A032137480FF031FF0EF021
:103CE00083FE0023642201210E2006F053FF0423EB
:103CF0004FF4FA720121122006F04CFF02236422D5
:103D000001210F2006F046FF00236422012111202B
:103D100006F040FF294B4FF4806229492948FFF7FC
:103D200047FC29484FF48063284AAA21009028487C
:103D3000FFF792FB14220021264808F063F826487A
:103D40004FF40073254AA52100902548FFF784FB16
:103D500024492548FDF767FF24492548FDF763FFFF
:103D600024492548FDF75FFF24490548FDF7E4FC99
:103D700023492448FDF7E0FC08BD00001C95002005
:103D8000188000200000343D0000B4420000B4C29E
:103D900000000000000020420000FA4400007042D1
:103DA0000000FA4500007A46E897002000004842EB
:103DB000CDCCCC3D9A99193E8C960020711F0008FD
:103DC000A8990020FC9800200DF80008549E0020BF
:103DD000A89D0020493F000801B1000800A3002071
:103DE00054A2002061380008DC7F00205122000826
:103DF000647F002049AE0008A07F00207D1E0008DF
:103E0000B91F0008448000201D48407B1C4988736E
:103E100008460068407910B9002048732EE0184821
:103E200000684079012802D11549487326E01448FA
:103E300000684079022802D1114948731EE01048F9
:103E400000684079032802D10D49487316E00C48F8
:103E500000684079042802D1094948730EE00848F7
:103E600000684079052802D10549487306E00448F6
:103E700000684079062801D1014948737047000065
:103E80001C95002010B52DED028B03212C4880F8E5
:103E90002810012180F800129FED2A0AB0EE408A16
:103EA0009FED280AF0EE408A90ED0B0A0068D0EDF5
:103EB000080A30EE200AB0EE408A214890ED810ACF
:103EC0000068D0ED070A30EE200AF0EE408A1C4868
:103ED00090ED0D0AF0EE400AB0EE480AFDF754F8F6
:103EE000174880ED0B0A90ED830AF0EE400AB0EE21
:103EF000680AFDF749F8124880ED810A00BF90ED8D
:103F0000810AD0ED7F0AB4EEE00AF1EE10FA04D88F
:103F100090ED7F0A80ED810A0DE0094890ED810A5D
:103F2000D0ED7E0AB4EEE00AF1EE10FA03DB90ED7C
:103F30007E0A80ED810A00BFBDEC028B10BD00003F
:103F40001C95002000000000F8B5074600F058F866
:103F500004460BF08DFC0546FEF712FB064623488F
:103F6000407B20702148D0F80802C4F80100307866
:103F700004280BD11D4890ED0C0ADFED1D0A30EE30
:103F8000200A10EE100AC4F8050003E01748006B81
:103F9000C4F805001548D0F80C0244F8090F13487E
:103FA000406B60601148D0F81002A0600F4890ED9F
:103FB000770ADFED100A60EE200A9FED0F1A80EEFF
:103FC000810A10EE100AE060084890F8CE032074D1
:103FD000A868C4F81D00093C2A2023460322AA2110
:103FE00000900648FFF784FA0020F8BD1C950020D9
:103FF000E17A8C4100003443DB0F4940FC980020FB
:1040000000487047CB80002010B52948807B0128EC
:1040100007D0FA21274810F0CDFCFA21264810F0ED
:10402000C9FC0221224880F80012042180F82810DF
:104030000146886821490EF050FC1D4890ED0C0A9D
:1040400080ED0B0A1C4810F095FCF7EE000A30EEEC
:10405000C00A1748D0ED820A20EE200A80ED810ABE
:1040600090ED820AB0EEC00AF0EE000AB4EEE00A6B
:10407000F1EE10FA1BD80F4810F07CFCF7EE000AA6
:1040800030EEC00A0A48D0ED0C0A20EE200A80ED7E
:104090000B0A90ED0C0AB0EEC00AF0EE080AB4EE7E
:1040A000E00AF1EE10FA02D804200149487310BD6D
:1040B0001C950020600200207402002084850020EE
:1040C000417E027E91421FD0017E41B9B0F9D411E8
:1040D00000EE101AB8EEC00A80ED070A14E0017E67
:1040E000012902D0017E032904D190ED090A80ED57
:1040F000070A09E0017E022902D0017E042903D1CA
:1041000090ED080A80ED070A017E4176704710B5F0
:1041100004462046FFF7D4FF207E68B994ED070AD5
:10412000BDEEC00A10EE100A00B2A4F8D40104F1EA
:104130002C0000F06BFB3CE0207E01281BD194EDAD
:10414000702AF0EE421A94ED0A2AB0EE421A94ED6B
:10415000092AF0EE420A94ED072AB0EE420A04F171
:104160002C0000F05EFBBDEEC00A10EE100A00B29B
:10417000A4F8D4011DE0207E02281AD194ED702A03
:10418000F0EE421A94ED0A2AB0EE421A94ED082A93
:10419000F0EE420A94ED072AB0EE420A04F12C0038
:1041A00000F03FFBBDEEC00A10EE100A00B2A4F80A
:1041B000D40110BD004870474C8400207CB50546F2
:1041C0000C46002000900549019000232246886893
:1041D00040F2FF1106F0A9FC7CBD00001C950020F8
:1041E000004870472484002010B52DED028B9FED10
:1041F000320AB0EE408A9FED300AF0EE408A032189
:104200002E4880F82810012180F80012FEF7B8F936
:1042100004462A48006890ED080A2848D0ED0B0AA9
:1042200030EE200AB0EE408A207804280CD12348D2
:1042300090ED0D0AF0EE400AB0EE480AFCF7A4FE3D
:104240001E4880ED0B0A0BE01C4890ED0D0AF0EEC5
:10425000400AB0EE480AFCF797FE184880ED0B0ABA
:10426000164890ED810A0068D0ED070A30EE200A6A
:10427000124880ED810A00BF90ED810AD0ED7F0ADF
:10428000B4EEE00AF1EE10FA04D890ED7F0A80ED6A
:10429000810A0DE0094890ED810AD0ED7E0AB4EE66
:1042A000E00AF1EE10FA03DB90ED7E0A80ED810A60
:1042B00000BFBDEC028B10BD000000001C9500206B
:1042C00003212C4880F82810012180F8001290ED7D
:1042D0000B0A0068D0ED080A30EE200A254880ED70
:1042E0000B0A90ED810A0068D0ED070A30EE200A33
:1042F000204880ED810A00BF90ED0B0AD0ED090A3D
:10430000B4EEE00AF1EE10FA04D890ED090A80ED5F
:104310000B0A0DE0174890ED0B0AD0ED080AB4EE39
:10432000E00AF1EE10FA03DB90ED080A80ED0B0ACB
:1043300000BF00BF0F4890ED810AD0ED7F0AB4EEB8
:10434000E00AF1EE10FA04D890ED7F0A80ED810AC0
:104350000DE0084890ED810AD0ED7E0AB4EEE00A47
:10436000F1EE10FA03DB90ED7E0A80ED810A00BFCA
:10437000704700001C95002010B52048D0ED760A4B
:10438000B0EE600AFFF74AFB1C4880ED0C0A0246BB
:10439000B2F8F02111B20246D2F8E821128810B228
:1043A00006F0A6FB00EE100AB8EEC00A1348D0EDE6
:1043B0007D0A20EE200A80ED820A406890ED5C0ABA
:1043C0000E4880ED0D0A406890ED5A0A0B4880EDCA
:1043D000830A406890ED020ADFED090A20EE200A08
:1043E000064880ED0E0A406890ED010ADFED040AF0
:1043F00020EE200A014880ED840A10BD1C950020A3
:10440000E12E654200BFFFF7B7FFFFF7FDFC314823
:10441000407B072817D2DFE800F01604070A0D10CA
:104420001300FFF7F1FD0FE0FFF72CFD0CE0FFF7A5
:1044300047FF09E0FFF7D8FE06E000F077F803E059
:1044400005F0B0FB00BF00BF00BF0120224908708B
:1044500020481030FFF75BFE2048FFF758FE1D484C
:10446000407B30BB1B4898300FF04CFB1948F430B0
:104470000FF048FB194888300FF044FB1748E43030
:104480000FF040FB154878380FF03CFB0021114835
:10449000A0F8E411A0F8BC130146886810490EF09A
:1044A000EEF901210F4801F03BFB10B9012001F0AA
:1044B00013FA084AB2F9BC13B2F9E401FFF77EFE21
:1044C0000A200FF08FF8002010F0D4FE0649086093
:1044D00099E700001C950020B002002004970020FE
:1044E00084850020000002405002002000B587B003
:1044F000FA210A4810F05EFAFA21094810F05AFA37
:104500001C2208496846FBF766FF002168460FF049
:1045100092F80549086007B000BD00006002002065
:1045200074020020B06D01084802002010B52DED86
:10453000068B0321A84880F82810012180F800127A
:104540009FEDA60AB0EE408A9FEDA40AF0EE408AE5
:104550000BF08EF90446207F012872D1207F18B11C
:1045600000219F4A11605160A07F012836D19FED44
:104570009B0A9C4880ED000A9748006890ED070A66
:1045800030EE280AF0EE408A934890EDF10A80ED73
:10459000E90A606800EE100AF0EE080A08EEA00AC8
:1045A0008D4880ED810A206800EE100A8A48006874
:1045B000D0ED080A30EE200A874880ED0B0AE07F34
:1045C000012803D1844981F8CD0303E0002082490A
:1045D00081F8CD03012084490870DBE000207E498A
:1045E00081F8CD03084690ED0B0A0068D0ED080A6B
:1045F00030EE200AB0EE408A084690ED0D0AF0EE4B
:10460000400AB0EE480AFCF7BFFC734880ED0B0A85
:1046100090ED810A0068D0ED070A30EE200A6E485E
:1046200080ED810A00BF90ED810AD0ED7F0AB4EEE3
:10463000E00AF1EE10FA05D890ED7F0A80ED810ACC
:104640000EE00EE0644890ED810AD0ED7E0AB4EEF3
:10465000E00AF1EE10FA03DB90ED7E0A80ED810AAC
:1046600098E000205C4981F8CD035D48D0E9003036
:104670005A1C40F100005A49C1E900200846D0E91F
:10468000003032229A1A70F1000054D300205649AB
:1046900008703221524AC2E9001054480068FCF701
:1046A00067F89FED530B53EC102BFBF7C8FEFCF79C
:1046B000A3F84E4908604B480068FCF759F89FED95
:1046C0004E0B53EC102BFBF7BAFEFCF795F845495F
:1046D0000860084690ED000AFBF70EFEF1EE080AAE
:1046E000B2EE041A51EE000A4548C0ED000A3A48FD
:1046F00090ED0B0A0068D0ED080A30EE200AB0EE0B
:10470000408A18EE100AFCF733F89FED3E0B53EC8D
:10471000102BFBF794FEFCF76FF808EE100A2E48FA
:1047200090ED0D0AF0EE400AB0EE480AFCF72CFCC2
:10473000294880ED0B0A284890ED810A0068D0EDE9
:10474000070A30EE200A244880ED810A2C4890EDBB
:10475000000A214880ED810A00BF90ED810AD0ED6A
:104760007F0AB4EEE00AF1EE10FA04D890ED7F0A69
:1047700080ED810A0DE0184890ED810AD0ED7E0AA7
:10478000B4EEE00AF1EE10FA03DB90ED7E0A80ED64
:10479000810A00BF00BF104890ED810AD0ED7F0A6A
:1047A000B4EEE00AF1EE10FA04D890ED7F0A80ED45
:1047B000810A0DE0084890ED810AD0ED7E0AB4EE42
:1047C000E00AF1EE10FA03DB90ED7E0A80ED810A3B
:1047D00000BFBDEC068B10BD1C9500200000000042
:1047E00058020020B4020020C0020020B8020020BD
:1047F00000000000000000007B14AE47E17AB43FE7
:10480000BC0200209A9999999999E93F10B50446FC
:1048100004F15C000FF076F904F1B8000FF072F9C2
:1048200010BD10B52DED048B0446B0EE408AF0EEBD
:10483000608AB0EE419AF0EE619A84ED458AC4ED4B
:10484000468A204610F0E8F994ED1A0AD4ED4B0A96
:1048500020EE200A84ED240A94ED451AF0EE410A78
:1048600094ED461AB0EE410A04F15C000FF042F8F4
:1048700094ED250AD4ED240A30EE200A84ED470A8F
:1048800084ED489A94ED471AF0EE410A94ED481AE7
:10489000B0EE410A04F1B8000FF02CF894ED3C0A98
:1048A000BDEC048B10BD10B5024692F82030012BF0
:1048B00001D0022B06D1106840690843146860617A
:1048C000002010BD506A40F4802050620120F8E7BB
:1048D000F0B504460D461E4694F8207020688368A3
:1048E000A86800B900E000BF012F01D0022F7DD1E0
:1048F00003F0806030B903F0006018B903F0805015
:1049000000287ED0C3F30161012088403060A86890
:1049100060B9B5F800C0E86840EA4C5C206800F572
:10492000C07000EB0110C0F800C00FE0D5E901C075
:1049300040EACC00D5F80CC040EA0C00D4F800C026
:104940000CF5C07C0CEB011CCCF80000D5F810C0B5
:10495000206800F5C07000EB0110C0F804C0287D8D
:1049600001280ED1206800F5C07000EB01104068EE
:1049700040F4807C206800F5C07000EB0110C0F8A6
:1049800004C0D079000692F806C040EA0C4092F8C4
:1049900005C040EA0C2092F804C040EA0C00D4F8AC
:1049A00000C00CF5C07C0CEB011CCCF80C00D078DE
:1049B000000692F802C040EA0C4092F801C040EABA
:1049C0000C2092F800C040EA0C00D4F800C00CF5AE
:1049D000C07C0CEB011CCCF80800206800F5C0700E
:1049E00000EB0110006840F0010C01E00FE008E06E
:1049F000206800F5C07000EB0110C0F800C0002076
:104A0000F0BD606A40F4001060620120F8E7606A5F
:104A100040F4802060620120F2E70000F0B5044617
:104A20000A4694F82050012D01D0022D7ED1424932
:104A300001F50071086840F001000860086820F482
:104A40007C5008600868566A40EA06200860107DBD
:104A500000F01F06012000FA06F3C8699843C861F8
:104A6000A1F50071D069C8B9D1F80C029843C1F81A
:104A70000C02908880B2968940EA064601F51070D3
:104A8000576940F83760108880B2168940EA0646B8
:104A900001F51070576900EBC7004660D069012826
:104AA00019D1D1F80C021843C1F80C02908880B2D9
:104AB000168840EA064601F51070576940F83760DD
:104AC000908980B2168940EA064601F51070576950
:104AD00000EBC7004660906928B9D1F804029843FA
:104AE000C1F8040204E0D1F804021843C1F804023A
:104AF000106928B9D1F814029843C1F8140204E0EF
:104B0000D1F814021843C1F81402106A012804D124
:104B1000D1F81C021843C1F81C02D1F8000220F0A1
:104B20000100C1F800020020F0BDFFE7606A40F418
:104B3000802060620120F7E70064004010B5044661
:104B4000204600F087FB10BD70B5044694F8205055
:104B5000012D01D0022D7DD151B92068C06800F02F
:104B6000030080B9606A40F400106062012070BDEB
:104B70002068006900F0030028B9606A40F4001062
:104B800060620120F3E7206800F5D87000EB0110A7
:104B9000006800F004009060906840B9206800F55B
:104BA000D87000EB01100068400D106007E020682D
:104BB00000F5D87000EB01100068C0085060206854
:104BC00000F5D87000EB0110006800F00200D06022
:104BD000206800F5D87000EB0110406800F00F006D
:104BE000082802D30820106108E0206800F5D8707A
:104BF00000EB0110406800F00F001061206800F524
:104C0000D87000EB0110406800F47F40000A90610A
:104C1000206800F5D87000EB01104068000C50616E
:104C2000206800F5D87000EB0110806818702068CB
:104C300000F5D87000EB0110806800F47F40000A96
:104C40005870206800F5D87000EB0110806800F4FF
:104C50007F0000E03CE0000C9870206800F5D87000
:104C600000EB01108068000ED870206800F5D87045
:104C700000EB0110C0681871206800F5D87000EBD7
:104C80000110C06800F47F40000A5871206800F5E8
:104C9000D87000EB0110C06800F47F00000C987120
:104CA000206800F5D87000EB0110C068000ED871C4
:104CB00031B92068C06840F020002668F06005E047
:104CC0002068006940F020002668306100204EE72F
:104CD000606A40F480206062012048E701460020BD
:104CE00091F82020012A01D0022A11D10B689B687B
:104CF00003F0806303B1401C0B689B6803F0006302
:104D000003B1401C0B689B6803F0805303B1401C47
:104D100070472DE9F05F0446002520684669206849
:104D2000D0F80490206887682068D0F80CA020682C
:104D3000D0F810B02068D0F8188006F001000028E4
:104D400055D007F00100C0B101202168886007F04C
:104D5000020018B1204600F013FB0EE007F004003B
:104D600010B145F4006508E007F0080010B145F403
:104D7000805502E0204600F001FB07F48070C8B1C6
:104D80004FF480702168886007F4007018B12046E5
:104D900000F010FB0EE007F4806010B145F4005500
:104DA00008E007F4006010B145F4804502E02046B9
:104DB00000F0FEFA07F48030C8B14FF4803021686B
:104DC000886007F4003018B1204600F00DFB0EE0BB
:104DD00007F4802010B145F4004508E007F40020F6
:104DE00010B145F4803502E0204600F0FBFA06F0F1
:104DF000080038B10AF0100020B145F40075102009
:104E00002168C86006F0040040B10AF0080028B12B
:104E100008202168C860204600F02DFA06F0020044
:104E200038B12068C06800F0030010B1204600F0DF
:104E300023FA06F0400038B10BF0100020B145F421
:104E4000806510202168086106F0200040B10BF059
:104E5000080028B1082021680861204600F034FAD3
:104E600006F0100038B12068006900F0030010B1AE
:104E7000204600F02BFA06F4003040B109F0100093
:104E800028B1102021684860204600F047FA06F457
:104E9000803040B109F0080028B10820216848603E
:104EA000204600F0B9FA06F4004088B309F0040087
:104EB00078B306F4807020B108F0010008B145F025
:104EC000010506F4007020B108F0020008B145F0B9
:104ED000020506F4806020B108F0040008B145F036
:104EE000040506F40060A0B108F0700088B108F075
:104EF0007000402817D006DC10280BD020280CD0DA
:104F0000302819D10CE0502810D0602814D110E0BE
:104F10001DE019E045F008050FE045F010050CE034
:104F200045F0200509E045F0400506E045F0800524
:104F300003E045F4807500E000BF00BF2068806991
:104F400020F07000216888610420216848602DB13C
:104F5000606A284360622046FFF7F0FDBDE8F09FDD
:104F600070B504460CB9012070BD94F8200010B94A
:104F7000204600F0AFF82068006840F0010021688A
:104F8000086000F0DBFD05460DE000F0D7FD401B9A
:104F90000A2808D9606A40F400306062052084F86D
:104FA00020000120E0E72068406800F001000028B0
:104FB000EBD02068006820F002002168086000F053
:104FC000BDFD05460DE000F0B9FD401B0A2808D9DB
:104FD000606A40F400306062052084F820000120FF
:104FE000C2E72068406800F002000028EBD1207E74
:104FF000012806D12068006840F080002168086020
:1050000005E02068006820F0800021680860607E6C
:10501000012806D12068006840F04000216808603F
:1050200005E02068006820F0400021680860A07E4C
:10503000012806D12068006840F02000216808603F
:1050400005E02068006820F0200021680860E07E0C
:10505000012806D12068006820F01000216808604F
:1050600005E02068006840F0100021680860207F9B
:10507000012806D12068006840F008002168086017
:1050800005E02068006820F0080021680860607F63
:10509000012806D12068006840F0040021680860FB
:1050A00005E02068006820F0040021680860D4E969
:1050B0000201084321690843616908436168491E88
:1050C00008432168C86100206062012084F8200044
:1050D000002049E710B586B00446142101A8FBF76B
:1050E00093F956492068884249D155480068401CC8
:1050F000534908600846006801280FD100BF00200E
:1051000000905048006840F000704E490860084622
:10511000006800F00070009000BF00BF00BF0020DA
:10512000009048481038006840F0080045491039A0
:1051300008600846006800F00800009000BF00BF4B
:10514000032001900220029000200390032004908D
:105150000920059001A93C4800F0E8FB0022052148
:10516000132001F035F9132001F01EF9002205216A
:10517000142001F02DF9142001F016F95CE03349F8
:105180002068884258D100BF002000902D48006858
:1051900040F080602B4908600846006800F080609D
:1051A000009000BF00BF26480068401C24490860EA
:1051B0000846006801280FD100BF00200090214858
:1051C000006840F000701F4908600846006800F061
:1051D0000070009000BF00BF00BF00200090194881
:1051E0001038006840F0020016491039086008467F
:1051F000006800F00200009000BF00BF6020019036
:1052000002200290002003900320049009200590C2
:1052100001A90F4800F08AFB002205213F2001F080
:10522000D7F83F2001F0C0F800220521402001F00E
:10523000CFF8402001F0B8F806B010BD006400407F
:105240000400002040380240000C0240006800408A
:10525000000402400146002091F82020012A01D0DC
:10526000022A02D100234B6204E04B6A43F48023FC
:105270004B6201207047704730B589B005466B46D8
:1052800002AA00212846FFF75FFC002416E00D4823
:1052900050F8240000680068296888420CD1094849
:1052A00050F82400806A38B1064951F82410069A53
:1052B00002988B6A69469847601CC4B2022CE6DBF0
:1052C00009B030BD940000207047000030B589B0AF
:1052D00005466B4602AA00212846FFF735FC00244C
:1052E00016E00D4850F824000068006829688842DC
:1052F0000CD1094850F82400806A38B1064951F8A9
:105300002410069A02988B6A69469847601CC4B2BA
:10531000022CE6DB09B030BD94000020704770B568
:10532000044694F82000012822D1022084F82000AD
:105330002068006820F001002168086000F0FEFB92
:1053400005460DE000F0FAFB401B0A2808D9606A08
:1053500040F400306062052084F82000012070BD18
:105360002068406800F001000028EBD16062F6E799
:10537000606A40F4002060620120F0E7704700009E
:1053800070B5054600240EE0084850F82400006877
:1053900000682968884204D1044951F82400FCF7C8
:1053A00099FE601CC4B2022CEEDB70BD940000209C
:1053B0007047000070B5054600240EE0084850F81C
:1053C0002400006800682968884204D1044951F823
:1053D0002400FCF77FFE601CC4B2022CEEDB70BD23
:1053E000940000207047000070B5054600240EE0D0
:1053F000084850F82400006800682968884204D1F1
:10540000044951F82400FCF765FE601CC4B2022C6C
:10541000EEDB70BD94000020704770B50446A56DAA
:1054200000F08CFB064694F83500022808D0802056
:10543000606500BF002084F8340000BF012070BD0B
:105440002068006820F01600216808602068406924
:1054500020F0800021684861206C08B9A06C28B158
:105460002068006820F00800216808602068006853
:1054700020F001002168086010E000F05FFB801B55
:1054800005280BD920206065032084F8350000BF73
:10549000002084F8340000BF0320D0E720680068B3
:1054A00000F001000028E8D194F85C103F2088400B
:1054B000A860012084F8350000BF002084F8340083
:1054C00000BF00BFBBE7014691F83500022803D0BA
:1054D0008020486501207047052081F83500086864
:1054E000006820F001000A6810600020F3E7000067
:1054F000F8B50446002000908C4800684FF416511F
:10550000B0FBF1F7A56D2E6894F85C100820884078
:10551000304098B12068006800F0040070B1206845
:10552000006820F004002168086094F85C100820EE
:105530008840A860606D40F00100606594F85C10E0
:1055400001208840304068B12068406900F0800048
:1055500040B194F85C1001208840A860606D40F074
:105560000200606594F85C1004208840304068B107
:105570002068006800F0020040B194F85C1004203C
:105580008840A860606D40F00400606594F85C108D
:1055900010208840304078B32068006800F0080090
:1055A00050B394F85C1010208840A8602068006810
:1055B00000F4802080B12068006800F4002028B941
:1055C000206CC8B12046216C884715E0A06C98B1CA
:1055D0002046A16C88470FE02068006800F48070C6
:1055E00028B92068006820F0080021680860206C55
:1055F00010B12046216C884794F85C102020884028
:105600003040002865D02068006800F010000028B5
:105610005FD094F85C1020208840A86094F8350092
:10562000052828D12068006820F01600216808604D
:105630002068406920F0800021684861206C08B92A
:10564000A06C28B12068006820F00800216808607C
:1056500094F85C103F208840A860012084F8350051
:1056600000BF002084F8340000BF206D10B1204638
:10567000216D8847F8BD2068006800F4802080B163
:105680002068006800F4002028B9606C10B1204642
:10569000616C88471DE0E06BD8B12046E16B88471C
:1056A00017E02068006800F4807068B9206800681E
:1056B00020F0100021680860012084F8350000BF48
:1056C000002084F8340000BFE06B10B12046E16B8D
:1056D0008847606D38B3606D00F00100F0B10520BF
:1056E00084F835002068006820F001002168086017
:1056F00000BF0098401C0090B84200D905E0206827
:10570000006800F001000028F3D100BF012084F8F8
:10571000350000BF002084F8340000BFE06C10B1F9
:105720002046E16C884700BFA4E700001400002079
:105730002DE9F0410446002500F000FA074614B9AF
:105740000120BDE8F081606A00B100BF022084F84A
:10575000350000BF002084F8340000BF20680068D6
:1057600020F00100216808600AE000F0E7F9C01BA2
:10577000052805D920206065032084F83500E0E77E
:105780002068006800F001000028EED1206805685C
:1057900021480540D4E901010843E1680843216933
:1057A000084361690843A1690843E1690843216A24
:1057B00008430543606A042803D1D4E90B01084378
:1057C0000543206805602068456925F00705606A83
:1057D0000543606A04280DD1A06A0543E06A48B118
:1057E0002046FEF7AFF828B140206065012084F81C
:1057F0003500A6E7206845612046FEF789F8064691
:1058000094F85C103F208840B06000206065012063
:1058100084F83500002094E73F8010F02DE9F04730
:1058200004460D4616461F464FF00008D4F858901F
:1058300000BF94F83400012802D10220BDE8F087AF
:10584000012084F8340000BF94F83500012825D1E8
:10585000022084F83500002060653B463246294628
:105860002046FEF7C4F894F85C103F208840C9F841
:1058700008002068006840F0160021680860206C6D
:1058800028B12068006840F008002168086020689E
:10589000006840F001002168086006E000BF0020B9
:1058A00084F8340000BF4FF002084046C6E700000D
:1058B00070B5044600F042F906462546681C10B152
:1058C00004480078054400BF00F038F9801BA84266
:1058D000FAD370BD1000002070B50546002412E018
:1058E0000A4850F824004068A8420AD1074850F8F6
:1058F0002400007A052804D1044951F82410C8680E
:105900008047601CC4B20A2CEADB70BD9C4E0020AC
:1059100010B5044604480068204020B102480460E5
:105920002046FFF7D9FF10BD143C0140F8B50246F0
:105930000B460025002400200021D6E0012606FAAF
:1059400001F51E6806EA0504AC4274D11E7906F022
:105950000306012E04D01E7906F00306022E13D191
:1059600090684F000326BE40B0434F00DE68BE4043
:1059700030439060506801268E40B0431E79C6F3D4
:1059800000168E40304350601E7906F00306032E49
:1059900009D0D0684F000326BE40B0434F009E6838
:1059A000BE403043D0601E7906F00306022E13D1AC
:1059B000CF0802F1200656F827004E07F70E0F26F3
:1059C000BE40B0434F07FF0E1E69BE403043CF08B4
:1059D00002F1200646F8270010684F000326BE405B
:1059E000B0431E7906F003064F00BE4030431060FE
:1059F0005E6806F44036002E76D000BF0026009682
:105A00003C4E366846F480463A4F3E603E46366825
:105A100006F48046009600BF00BF374E8F0856F848
:105A200027008E07370F0F26BE40B043334EB242D9
:105A300002D1002624E057E0314EB24201D10126C6
:105A40001EE0304EB24201D1022619E02E4EB24283
:105A500001D1032614E02D4EB24201D104260FE0FD
:105A60002B4EB24201D105260AE02A4EB24201D1A4
:105A7000062605E0284EB24201D1072600E008269E
:105A80008F073F0FBE4030431B4E8F0846F827005C
:105A9000224E3068A0435E6806F4801606B12043AB
:105AA0001E4E3060361D3068A0435E6806F4001656
:105AB00006B12043194E361D3060184E361F30682F
:105AC000A0435E6806F4003606B12043134E361F2D
:105AD0003060361F3068A0435E6806F4803606B139
