:020000040800F2
:1000000048E200205D02000817BC00082B9E000893
:100010008BBA000875250008310A010800000000AD
:100020000000000000000000000000009D0100082A
:10003000D545000800000000F901000845D200087D
:1000400077020008770200087702000877020008AC
:10005000770200087702000877020008770200089C
:1000600077020008C9460008D34600087702000856
:100070005144000877020008770200087702000860
:100080007702000877020008770200088926000836
:10009000952500087702000877020008DD46000871
:1000A000770200087702000877020008770200084C
:1000B000770200087702000877020008770200083C
:1000C000770200087702000877020008770200082C
:1000D000770200080DE100087702000821E100081E
:1000E000770200087702000877020008770200080C
:1000F00077020008770200087702000877020008FC
:1001000077020008770200087702000877020008EB
:10011000770200087702000849D300087702000838
:10012000770200086144000877020008770200089F
:10013000770200087702000877020008E927000824
:10014000D126000877020008770200081DBC0008CD
:1001500071440008814400089144000835E100081A
:10016000770200087702000877020008770200088B
:1001700077020008770200087702000800000000FC
:100180007702000877020008DFF80CD000F08EFC40
:10019000004800471B46010848E200202C4B196824
:1001A0000868B0E8F04F80F30988BFF36F8F4FF015
:1001B000000080F3118870470000000008480068C4
:1001C000006880F308884FF0000080F3148862B65E
:1001D00061B6BFF34F8FBFF36F8F00DF00BF00BF6B
:1001E00008ED00E0DFF80C00016841F470010160E7
:1001F000704700BF88ED00E0EFF30980BFF36F8F19
:10020000134B1A681EF0100F08BF20ED108A20E96A
:10021000F04F106009B44FF0500080F31188BFF325
:100220004F8FBFF36F8F16F063FC4FF0000080F329
:10023000118809BC19680868B0E8F04F1EF0100F6B
:1002400008BFB0EC108A80F30988BFF36F8F704746
:1002500038000020EFF30580704700000648804713
:1002600006480047FEE7FEE7FEE7FEE7FEE7FEE79B
:10027000FEE7FEE7FEE7FEE72DD300088901000850
:100280009FED1A1AF5EE000A40EE010ABDEEE00AF3
:10029000F5EEC00A10EE100AF1EE10FA38BF401E5B
:1002A00000EE100A1349F7EE001AB8EEC00A30EE5D
:1002B000C00ADFED0F0A20EE200AFCEEC00A10EEA5
:1002C000900AC0F3080000EE900A01EB8000F8EEFF
:1002D000600A90ED011A70EE600A90ED000A71EE6E
:1002E000E01A21EE800A00EE810A704783F9223E6F
:1002F0000000004484810108DFED190AB5EEC00A50
:1003000060EE200ABDEEE01A11EE100AF1EE10FACE
:1003100038BF401E00EE100A1349F7EE001AB8EE7F
:10032000C00A30EEC00ADFED0F0A60EE200ABCEE14
:10033000E00A10EE100AC0F3080000EE100A01EB0C
:100340008000B8EE400A90ED011A70EEC00A90ED00
:10035000000A71EEE01A21EE800A00EE810A704771
:1003600083F9223E00000044848101082DE9F05FFA
:100370000546002092469B46884606468146402414
:100380001BE0284641464746224600F072FA534693
:100390005A46C01A914110D311461846224600F021
:1003A00059FA2D1A67EB01084F4622460120002119
:1003B00000F050FA17EB00094E41201EA4F1010491
:1003C000DFDC484631462A464346BDE8F09F40EA16
:1003D00001039B0703D009E008C9121F08C0042AC3
:1003E000FAD203E011F8013B00F8013B521EF9D2AA
:1003F0007047D2B201E000F8012B491EFBD27047D2
:100400000022F6E710B513460A4604461946FFF7E0
:10041000F0FF204610BD421C10F8011B0029FBD143
:10042000801A7047034611F8012B00F8012B002AAF
:10043000F9D1184670472DE9FE4F804681EA030046
:10044000C00F0C46009021F0004123F00045B8EBAE
:100450000200A94105D24046214690461C460B4663
:10046000024623F00040104347D0270DC7F30A008F
:10047000C3F30A510290401A019040286BDAC3F38B
:10048000130040F4801B0098924620B10023D2EB69
:10049000030A63EB0B0B01985946C0F1400250462A
:1004A00000F0D8F906460D4650465946019A00F02C
:1004B000F0F910EB08006141002487EA115284EA48
:1004C000E7731A4340D0009A62B3019A012A4FEAB7
:1004D000075215DC001B61EB02014FF0004202EAFB
:1004E0000752CDE90042001C41F5801132462B46EF
:1004F00000F076FA03B0BDE8F08F40462146F9E7F8
:10050000001B61EB0201001C41F5801300185B41E8
:100510002018A2F5001747EB030140EAD570B61981
:100520006D4111E06D084FEA360645EAC0754FEAA5
:100530000752001B61EB0201001C41F580114908C4
:100540004FEA30000019514132462B4603B0BDE856
:10055000F04F00F036BA0098012240000023D0EBA3
:10056000020263EBE073009821464FEAE074B8EBB7
:10057000000061EB0401E9E783F000435BE781F0F1
:10058000004158E72DE9FE4F81EA030404F00044DE
:1005900021F0004100944FF0000B23F0004350EA9B
:1005A00001045ED052EA03045BD0C3F30A54C1F3E2
:1005B0000A552C44A4F2F3340194A0FB0254C1F375
:1005C000130141F48011C3F3130343F4801301FBBF
:1005D000024400FB034E840A970A44EA815447EA26
:1005E0008357A4FB076802958D0A05FB07854FEA30
:1005F000932C04FB0C542705029D4FEA065847EA4A
:100600001637B5EB08056EEB070C870E920E47EA1E
:10061000811742EA8312A7FB0201B6EB0B0164EBE0
:1006200000042B0D43EA0C335E1844EB1C50DA46F1
:100630005146E7FB0201C5F313044FEA0B3343EACB
:1006400014534FEA0432019C43EA0603A4F10C045C
:100650000294009CCDE900B400F0C2F903B0BDE8FB
:10066000F08F00200146F9E72DE9F04D81EA0304FF
:1006700004F0004B21F0004514464FF0000A23F02F
:10068000004150EA050220D054EA01021DD0C5F312
:100690000A570246C5F31303C1F31300C1F30A5608
:1006A00040F4801543F48013A7EB0608101BD646D0
:1006B00008F2FD3873EB050002D308F1010801E0F0
:1006C00092185B41B8F1000F03DA00200146BDE843
:1006D000F08D00204FF48011064684460EE0171B73
:1006E00073EB050705D3121B63EB050306434CEAC6
:1006F000010C49084FEA300092185B4150EA0107AB
:10070000EDD152EA030012D082EA040083EA050127
:10071000084305D0101BAB4106D20122002306E09E
:1007200000224FF0004302E06FF0010253101AEB79
:1007300006004CEB085110EB0A0041EB0B01BDE841
:10074000F04D00F03EB90EB5C10F80EAE0700844EC
:10075000CA07002140F233438DE80E000A460B46DB
:1007600000F03EF903B000BD00F0004230F0004060
:100770000AD0C10D01F56071C0F3160042EA0151C3
:10078000C20840071143704700200146704700002F
:1007900030B5041E71F1000404DB4FF00044404208
:1007A00064EB0101141E73F1000405DB1C464FF0DD
:1007B0000043524263EB04038B4208BF824230BDC8
:1007C00030B5041E71F1000404DB4FF000444042D8
:1007D00064EB0101141E73F1000405DB1C464FF0AD
:1007E0000043524263EB0403994208BF904230BD7C
:1007F00001F0004330B421F0004150EA010206D07C
:100800000A0DA2F56072C1F31301002A02DC30BCAC
:1008100000207047440F44EAC104C100E01830BC16
:1008200000EBC25000F096B830B50B4601460020F0
:100830002022012409E021FA02F59D4205D303FAA2
:1008400002F5491B04FA02F52844151EA2F1010223
:10085000F1DC30BD202A04DB203A00FA02F100204E
:1008600070479140C2F1200320FA03F319439040EE
:100870007047202A04DB203A21FA02F00021704759
:1008800021FA02F3D040C2F12002914008431946F8
:100890007047202A06DBCB17203A41FA02F043EAE0
:1008A000E07306E041FA02F3D040C2F12002914029
:1008B00008431946704700000FB4002300B589B003
:1008C0000CA900910B996FF00042CB601E4B069370
:1008D0001E4B07930423CDE901321D4A08920246BC
:1008E0006B46002000F07AF909B05DF814FB70B592
:1008F00086B006464FF0FF300091CDE9010100209F
:1009000015460C4604903246694604A8FFF7D4FF0A
:1009100002460498211825B108B1084600E0204697
:100920002860049800280DD0002A02DD0098884233
:1009300008D0081B0094CDE901043246694604A89A
:10094000FFF7BAFF06B070BD150E0008330E0008A1
:10095000D10A00080029A8BF7047401C490008BF01
:1009600020F00100704710B4B0FA80FC00FA0CF0DF
:1009700050EA010404BF10BC704749B1CCF1200417
:1009800021FA04F411FA0CF118BF012121430843A4
:10099000A3EB0C01CB1D4FEA00614FEA102042BFD0
:1009A000002010BC704700EBC35010440029A4BFC6
:1009B00010BC7047401C490008BF20F0010010BC6B
:1009C000704710B5141E73F1000408DA401C41F1A1
:1009D000000192185B411A4301D120F0010010BDC3
:1009E0002DE9F04D92469B4611B1B1FA81F202E039
:1009F000B0FA80F220329046FFF72CFF04460F46F3
:100A000040EA0A0041EA0B0153465A46084313D014
:100A1000114653EA010019D0C8F140025046FFF7D1
:100A200028FF05460E46504659464246FFF712FF3C
:100A3000084305D0012004E020463946BDE8F08D8A
:100A40000020054346EAE0762C4337430A986305C5
:100A5000E40AA0EB08000022FD0A44EA47540A30E9
:100A600002D500200146E9E7010510196941DDE9D9
:100A7000084500196941BDE8F04DA2E7C1F30A52EB
:100A8000C1F3130140F2FF3341F480119A4202DABC
:100A900000200146704740F233439A42A2F23342AB
:100AA00002DC5242FFF7E5BEFFF7D4BE064C074D0D
:100AB00006E0E06840F0010394E80700984710342E
:100AC000AC42F6D3FFF764FB9C8C0108BC8C010898
:100AD000C0B24FF4F05100F0E9B900002DE9FF4F2A
:100AE000087881B09946FF2805D0491C2D2804D0EC
:100AF0000024002308E000230BE00124F9E703EBC6
:100B0000830300EB4303491C0878FF28F7D104B1A5
:100B10005B4200200090147801462D2C01D02B2C34
:100B200004D1521C2D2C12D00024009400251678DC
:100B3000FF2E0ED00A24A0FB04C801FB048100276D
:100B400000FB0711521C16EB0C006941EFE7012472
:100B5000EBE7994450EA01020ED00024AA4D264644
:100B6000DFF8A88200F0B6F982468B46B9F10000A2
:100B700009DAC9F100071BE001980021C0E9001162
:100B800005B0BDE8F08F074612E0F80707D022460F
:100B90002B4630464146FFF7F5FC0646884622467E
:100BA0002B4610461946FFF7EDFC04460D467F1014
:100BB000002FEAD1B9F1000F32464346504659465C
:100BC00002DAFFF751FD01E0FFF7DCFC009A0AB101
:100BD00081F00041019AC2E90001D1E72DE9FF4F00
:100BE0001F468DB0D7E901464FF0FF382E2045460D
:100BF0004FF000090B90B9696D1C0E988847396A4F
:100C0000824688470028F6D1BAF1FF3F0AD024F483
:100C1000D064002E11DDBAF12B0F08D0BAF12D0FE0
:100C20000BD102E0404611B0ABE744F48064B969EF
:100C30006D1C0E9888478246761E6946600501D570
:100C40002D2000E02B208DF8000001F1010B0DF1AB
:100C5000200809E0B9696D1C0E98884782460F98F4
:100C600044F40074761E0560002E02DDBAF1300FE8
:100C7000F0D00B998A453ED144F0800406E00F99EC
:100C8000681CA9F1010944F400740860B9696D1C7D
:100C9000761E0E98884782463028F0D02BE00B99BC
:100CA0008A4505D1200603D444F08004761E18E05E
:100CB000504611F0ABFB08B30DF11301761E44F45E
:100CC00000748B4508D2AAF130000BF8010B200606
:100CD00007D5A9F1010003E0200602D409F10100C3
:100CE0008146A00502D50F99681C0860B9696D1C82
:100CF0000E9888478246002ED1DC53E0002E51DD4D
:100D0000BAF1650F02D0BAF1450F4BD1A00549D514
:100D1000B9696D1C24F44074761E0E98884782468B
:100D2000002E0CDD2B2804D0BAF12D0F07D144F48E
:100D30008074B9696D1C0E9888478246761EE0055E
:100D400001D52D2100E02B2108F8011BCDF82C80C6
:100D500021E00DF12901761E44F4007488450CD27F
:100D6000AAF1300010F0FF0088F8000002D10B99C2
:100D7000884509D908F1010806E0E00501D52448B5
:100D800001E042F20F708146B9696D1C0E988847E8
:100D900082460F980560002E04DD504611F036FBA8
:100DA0000028D6D1F9690E988847FF208BF80000FB
:100DB00088F800000020069007904B466A4608A974
:100DC00006A8FFF78BFEA00502D46FF001002AE70A
:100DD00014F0240F0AD0E00714D1DDE906123868B8
:100DE000031D3B600068C0E900120BE0DDE906016D
:100DF000FFF7FEFC0146E00704D13868021D3A60A7
:100E00000068016028460EE7000024400000F03F23
:100E1000F1D8FFFF426842B1016811F8013B23B1EC
:100E2000521EC0E90012184670470121C160881E99
:100E3000704742685AB1C368016843B983688B42FE
:100E400005D0491E521CC0E90012002070474FF027
:100E5000FF3070470EB540F2334102910021CDE9D9
:100E600000110A460B46FFF7BBFD03B000BD70B58D
:100E7000C1F30A5201F000450024C1F3130140F20E
:100E8000FF3341F480119A4201DA002070BD40F234
:100E900033439A42A2F2334203DC5242FFF7E9FCA9
:100EA00000E090402C43F1D0404270BD7F2801D932
:100EB000002208E0064A02EB5002C007127800D177
:100EC000120902F00F020120904008407047000014
:100ED000688B01080EB540F2334202920022CDE940
:100EE00000221346FFF77CFD03B000BD70B58C18DF
:100EF00010F8015B15F0070301D110F8013B2A112E
:100F000006D110F8012B03E010F8016B01F8016B1A
:100F10005B1EF9D12B0705D40023521E0DD401F816
:100F2000013BFAE710F8013BCB1A921C03E013F8DF
:100F3000015B01F8015B521EF9D5A142D8D3002014
:100F400070BD10B52DED028BB0EE408AB0EE480AB0
:100F50000FF000FEBDEC028B10BD10B52DED028B25
:100F6000B0EE408AF0EE608AF0EE680AB0EE480A11
:100F700010F0EAF8BDEC028B10BD10B52DED028B20
:100F8000B0EE408AB0EE480AFFF77AF9BDEC028B6A
:100F900010BDF0EE400AF5EEC00AF1EE10FA02DDE7
:100FA000B0EE600A7047B1EE600AFBE718B19FED42
:100FB000020A80ED000A70470000000018B19FEDA2
:100FC000020A80ED000A704700001E4270B52DED48
:100FD0000C8B84B006460C4615469FED990AF0EE40
:100FE000408A9FED970AB0EE409A9FED950AF0EE89
:100FF00040BA9FED930AF0EE409A9FED910AB0EE51
:1010000040AA0EB104B11DB904B0BDEC0C8B70BD8B
:101010008C48FFF7CBFF8C48FFF7D0FF8A48D0ED14
:10102000000A9FED8A1A60EE810AB0EE600A00F0B5
:101030002DF9F0EE408A28EEA80AF0EE408A8248A8
:10104000D0ED000AB0EE001A60EE810A9FED7F1A23
:1010500060EE810AB0EE600A00F018F9B0EE409A36
:1010600029EE090AB0EE409ADFED790AB7EE000AE0
:1010700000EEA80ADFED770A00EEC90ADFED760A76
:1010800020EE200A754880ED000A6E4890ED000AB7
:10109000DFED730A80EE201AB7EE000A31EE000A87
:1010A00020EE000A6D48D0ED000A80EE801A6D48EF
:1010B00080ED001A94ED000AB5EEC00AF1EE10FAC8
:1010C0000DD194ED010AB5EEC00AF1EE10FA06D189
:1010D00094ED020AB5EEC00AF1EE10FA46D09FED8B
:1010E000580AB0EE408A0020019002900390D4ED9F
:1010F000000A60EEA00A94ED011AD4ED011A41EE47
:10110000210A94ED021AD4ED021A41EE210AB0EE42
:10111000600A00F0A9F8B0EE408A94ED000A20EED3
:10112000080A8DED010A94ED010A20EE080A8DED02
:10113000020A94ED020A20EE080A8DED030ADDEDA5
:10114000010AF1EE600AB0EE600AFFF7FAFEF0EE77
:10115000409A9DED031AF0EE410A9DED021AB0EEA1
:10116000410AFFF7FAFEB0EE40AA07E09FED340A0D
:10117000F0EE409A9FED320AB0EE40AA95ED000ADB
:10118000B5EEC00AF1EE10FA0DD195ED010AB5EEFB
:10119000C00AF1EE10FA06D195ED020AB5EEC00ACA
:1011A000F1EE10FA3CD0B0EE690A00F06FF8B0EE44
:1011B000408AB0EE690AFFF7E0FEB0EE40DAB0EE2A
:1011C0004A0A00F063F8F0EE40AAB0EE4A0AFFF7D0
:1011D000D4FEB0EE40BA28EE2A0AD5ED010A20EE80
:1011E000200AD5ED000A0DEE200A68EE0B0A95EDF7
:1011F000021A00EE810AB0EE40CA95ED010A20EE17
:101200000B0AD5ED020A0AEEE00AF0EE40CAF0EE53
:101210006C0AB0EE4C0AFFF7A0FEF0EE40BA03E015
:101220009FED070AF0EE40BAB0EE4A1AF0EE690AF6
:10123000B0EE6B0A304611F08DFE00BFE4E6000010
:1012400000000000AC040020B004002035FA8E3C01
:10125000C1BFAD3B9DF8C5362F7C1C41B4040020B6
:10126000506CC24AB804002010B52DED028BB0EED0
:10127000408AB0EE480A10F0EFFAB7EE001AC1EE5D
:10128000000AB0EE600ABDEC028B10BD10B52DED6A
:10129000028BB0EE408AB0EE480AFFF72DF8BDECA5
:1012A000028B10BD2DE9F0412DED028B9AB0054661
:1012B000B0EE408A0E4617469846002017901890C8
:1012C00019901490159016904DB146B13FB1B8F1F8
:1012D000000F04D0B5EEC08AF1EE10FA05D100205F
:1012E0001AB0BDEC028BBDE8F08196ED000A8DEDE1
:1012F000170A96ED010A8DED180A96ED020A8DED9A
:10130000190A97ED000A8DED140A97ED010A8DED8B
:10131000150A97ED020A8DED160A17AA14A9284698
:1013200011F06AFC402104A8FFF76AF80020009041
:10133000019002900390002417A904A815F03AF830
:1013400000BF30E004A800EB041090ED000AD5EDDA
:10135000000A20EE200A04A800EB0410D0ED010AD8
:1013600095ED011A00EE810A04A800EB0410D0EDFF
:10137000020A95ED021A00EE810A04A800EB04109F
:10138000D0ED030A95ED031A00EE810A20EE080A5B
:10139000F0EE000A80EE201A684600EB840080ED33
:1013A000001A601CC4B2042CCCDB002410E005EB56
:1013B000840090ED000A684600EB8400D0ED000A3E
:1013C00030EE200A05EB840080ED000A601CC4B2F8
:1013D000042CECDB284614F085FB012080E700009C
:1013E000F0EE401A9FED310AB0EE401A9FED2F0A41
:1013F000B0EE402A9FED2D0AF0EE402A00BFBDEE70
:10140000E10AB8EEC00A31EEC00AF0EE402ABDEEA5
:10141000E10A10EE100A4FF4B47190FBF1F201FBF7
:10142000120000EE100AB8EEC00A30EE220AF0EE0A
:10143000402A00BF00BFBDEEE00AB8EEC00A30EEA1
:10144000C00AB0EE402ABDEEE00A10EE100A90FB92
:10145000F1F201FB120000EE100AB8EEC00A30EE05
:10146000020AB0EE402A00BF32EEC20AB0EE401AC5
:101470009FED0F0AB4EEC01AF1EE10FA06DD9FEDF3
:101480000D0A31EE400AB0EE401A0CE09FED0A0A58
:10149000B4EEC01AF1EE10FA05D29FED060A31EE55
:1014A000000AB0EE401A30EE810A704700000000DA
:1014B000000034430000B443000034C310B500F012
:1014C000E5FD1D4800F0BEFD18B102201B49087063
:1014D00002E001201949087018480078022803D159
:1014E0004FF47A7005F0F8F80BF0A4FD0BF08CFDCA
:1014F00001F0BAFA09F062F902F046FF02F0ACFD21
:1015000003F0CEF80D48007802280CD103F06AFAF7
:1015100003F0D2FE0BF094FA15F0AEFC12F048FA8C
:1015200013F038F907E005480078012803D101F0ED
:1015300057FC01F0BBFF10BD2C7F00206002002093
:1015400005205349487108460068407A012802D1B5
:101550000320887110E04E480068407A032803D1C8
:1015600002204B49887107E049480068407A022808
:1015700002D104204649887145480068B0F902004C
:1015800000EE100AB8EEC00ADFED420A80EE201A23
:101590009FED410A21EE000A3D4880ED020A0068F5
:1015A000B0F9000000EE100AB8EEC00ADFED390A0B
:1015B00080EE201A9FED380A21EE000A344880EDB3
:1015C000030A0068B0F9060000EE100AB8EEC00A7F
:1015D000DFED320A20EE200A2D4880ED070A006870
:1015E000B0F90400404200EE100AB8EEC00ADFED88
:1015F0002C0A20EE200A264880ED080A40790528AA
:1016000044D101202249C8710846C079022806D178
:10161000244880780D2839D10120C87136E01C4853
:10162000C079012832D11F4880780D2803D10220CB
:101630001749C8712AE01B4880780E2804D01A4840
:1016400090F80D04012804D10120114981F83000DF
:101650001CE014480078022812D114480068401C8D
:101660001249086008460068322804D90120084958
:1016700081F830000AE00020054981F8300005E0DB
:101680000020034981F830000849086070470000D5
:10169000809200200000254400007A456F12833AB2
:1016A0006F12033BFF0100203C9600203402002013
:1016B00005205249487108460068407A012802D145
:1016C0000320887110E04D480068407A032803D158
:1016D00002204A49887107E048480068407A022899
:1016E00002D104204549887144480068B0F90200DD
:1016F00000EE100AB8EEC00ADFED410A80EE201AB3
:101700009FED400A21EE000A3C4880ED020A006885
:10171000B0F9000000EE100AB8EEC00A9FED381ACA
:10172000C0EE010A9FED370A20EE800A334880EDB3
:10173000030A0068B0F9060000EE100AB8EEC00A0D
:10174000DFED310A20EE200A2C4880ED070A006800
:10175000B0F90400404200EE100AB8EEC00ADFED16
:101760002B0A20EE200A254880ED080A407905283A
:1017700042D12248C079022807D1254880780D2817
:101780003AD101201D49C87136E01C48C0790128B2
:1017900032D11F4880780D2803D102201749C87123
:1017A0002AE01B4880780E2804D01A4890F80D04CF
:1017B000012804D10120114981F830001CE01448AF
:1017C0000078022812D114480068401C12490860B1
:1017D00008460068322804D90120084981F8300001
:1017E0000AE00020054981F8300005E000200349A7
:1017F00081F830000849086070470000809200209E
:101800000000254400007A456F12833A6F12033BB3
:10181000FF0100203C9600203802002010B5012274
:101820001021024805F05AF910BD000000000240E6
:1018300010B500221021024805F050F910BD00003B
:10184000000002407047000010B501221146024816
:1018500005F044F910BD00000004024010B500225C
:101860000121024805F03AF910BD000000040240D1
:10187000704710B50446204612F0A6FF10BD10B503
:101880000446204600F024FA10BD10B50024FFF7EE
:10189000D9FFFFF7EDFF11F0DFFC10B144F0800439
:1018A00002E011F03FFC044311F0CEFE10B144F011
:1018B000400402E011F04EFE0443204610BD00003B
:1018C0002DE9FC4105460E46174600200090019088
:1018D000FFF7AEFF922000F0D1F8062269461220F1
:1018E00000F0ACF8FFF79AFF9DF80100000200B28B
:1018F0009DF8001040EA010400EE104AB8EEC00A5C
:101900004C48D0ED000A20EE200A86ED000A9DF832
:101910000300000200B29DF8021040EA010400EE4C
:10192000104AB8EEC00A4348D0ED000A20EE200A63
:1019300086ED010A9DF80500000200B29DF8041032
:1019400040EA010400EE104AB8EEC00A3948D0ED72
:10195000000A20EE200A86ED020AFFF77FFF082228
:101960006946002000F06AF8FFF76EFF9DF800005E
:101970000F2838D19DF80300000200B29DF8021034
:1019800040EA010400EE104AB8EEC00A2A48D0ED41
:10199000000A20EE200A85ED000A9DF805000002ED
:1019A00000B29DF8041040EA010400EE104AB8EEBF
:1019B000C00A2148D0ED000A20EE200A85ED010A78
:1019C0009DF80700000200B29DF8061040EA0104ED
:1019D00000EE104AB8EEC00A1748D0ED000A20EE1B
:1019E000200A85ED020AFFF723FFA22000F046F847
:1019F00002226946222000F021F8FFF70FFF9DF830
:101A00000000C0009DF8011040EA6114B4F5806F39
:101A100002DBA4F5006004B200EE104AF8EEC00A42
:101A2000B4EE001AB3EE070A00EE810A87ED000A51
:101A3000BDE8FC81300100203401002070B506466D
:101A40000C46154646F0800000F018F806E05520D8
:101A500000F014F82070641C681EC5B2002DF6D189
:101A600070BD70B504460D4644F0800000F006F8E5
:101A7000552000F003F8287070BD000001B582B059
:101A80004FF47A70012301AA02A90090024807F0DE
:101A90000FF89DF804000EBD0C0C002070B5054633
:101AA0000C462846FFF7EAFF2046FFF7E7FF70BD28
:101AB00030B58BB005460C460694002007900120F7
:101AC000089000200190029003900490059001205E
:101AD00009900E200A9001A9284603F0B3FE08B130
:101AE00002F001FE0BB030BD70B504460D460F4943
:101AF0002068884204D100212046FFF7D9FF07E083
:101B00000B492068884203D10E212046FFF7D0FF01
:101B1000204604F018FB08B102F0E5FD29462046F6
:101B200003F0D6FD08B102F0DEFD70BD0064004098
:101B3000006800402DE9F04104460E4617469846DD
:101B400014B90120BDE8F0812660002084F824004B
:101B50002762C4F828804FF4807310223946201D74
:101B600012F02AF900250EE0094850F8250040B986
:101B700003213046FFF7B8FF054840F82540002014
:101B8000E0E7681CC5B2022DEEDB0120DAE70000B9
:101B9000B400002002460AB90120704709B90120AB
:101BA000FBE791620020F8E72DE9FF5F04468946D4
:101BB00092461D464FF0010B5746CDF80090002687
:101BC00000BF00BFEFF31080804600BF72B600BFB9
:101BD00025E0201D12F005F918B1002084F824003A
:101BE0001FE0A81B082803DB08208DF8040003E091
:101BF000A81BC0B28DF804003868CDF805007968DC
:101C0000CDF809109DF8040007449DF80400304405
:101C100086B26946201D12F0EBF84FF0000BAE4281
:101C2000D7DB00BF00BF00BF88F3108800BF00BF34
:101C300000BF94F8240030B9201D12F0CBF810B981
:101C4000204600F0D9FD584604B0BDE8F09F0000E2
:101C5000074800680749B0FBF1F0074908700448DD
:101C600000684FF47A71B0FBF1F0044908607047E6
:101C70003400002040420F00BC000020C0000020C3
:101C800070B50346002400210020002200254FF0FB
:101C9000E02675690D4E366803FB06F44FF0E0262A
:101CA000B16910E04FF0E026B06988420BD088425D
:101CB00002D20E1A324402E02E1A0E443244014679
:101CC000A24200D300E0EDE700BF70BDC0000020DD
:101CD00070B50346002400210020002200254FF0AB
:101CE000E02675690D4E367803FB06F44FF0E026CA
:101CF000B16910E04FF0E026B06988420BD088420D
:101D000002D20E1A324402E02E1A0E443244014628
:101D1000A24200D300E0EDE700BF70BDBC00002090
:101D200030B587B005460C46284600F011F80490FF
:101D30000020029002200690059404F089FD01A97C
:101D400002A804F0DDFC04F031FD07B030BD000056
:101D500001460020304A914203D2B1F1006F00D316
:101D600058E02E4A914204D22B4A914201D30120DD
:101D700050E02B4A914204D2284A914201D30220DA
:101D800048E0284A914204D2254A914201D30320D7
:101D900040E0254A914204D2224A914201D30420D4
:101DA00038E0224A914204D21F4A914201D30520D1
:101DB00030E01F4A914204D21C4A914201D30620CE
:101DC00028E01C4A914204D2194A914201D30720CB
:101DD00020E0194A914204D2164A914201D30820C8
:101DE00018E0164A914204D2134A914201D30920C5
:101DF00010E0134A914204D2104A914201D30A20C2
:101E000008E0B1F1016F04D20D4A914201D30B20D9
:101E100000E00B2070470000004000080080000830
:101E200000C00008000001080000020800000408CB
:101E3000000006080000080800000A0800000C085E
:101E400000000E08014600202D4A914204D2B1F153
:101E5000006F01D3104651E02A4A914204D2284A29
:101E6000914201D3274849E0274A914204D2254AAA
:101E7000914201D3244841E0244A914204D2224AAB
:101E8000914201D3214839E0214A914204D21F4AAC
:101E9000914201D31E4831E01E4A914204D21C4AAD
:101EA000914201D31B4829E01B4A914204D2194AAE
:101EB000914201D3184821E0184A914204D2164AAF
:101EC000914201D3154819E0154A914204D2134AB0
:101ED000914201D3124811E0124A914204D2104AB1
:101EE000914201D30F4809E00F4A914204D20D4AB2
:101EF000914201D30C4801E04FF0016070470000AF
:101F0000004000080080000800C000080000010830
:101F1000000002080000040800000608000008088D
:101F200000000A0800000C0800000E0870B5044606
:101F30000D461646B20021462846FEF748FA70BD07
:101F40002DE9F04104460D46164604F081FC1E487A
:101F500004602046FFF776FF1C4908601C480560B6
:101F600000201C49086023E01948006807683A46C9
:101F7000002315480168022004F022FC98B9124899
:101F80000068001D1049086011480068001D1049D4
:101F9000086010480068401C0E4908600846006848
:101FA000B04205D10AE004F001FC0120BDE8F08157
:101FB00005480068054909688842D5D900BF04F082
:101FC000F5FB0020F2E70000C4000020C80000205C
:101FD000CC000020D000002010B504460CB9012030
:101FE00010BD2260636021720020F9E730B504461D
:101FF0000D460CB9012030BD2560626005202072BD
:10200000E36000210AE0074850F8210020B90548A4
:1020100040F821400020EEE7481CC1B20A29F2DB5B
:102020000120E8E7E44E002070B504460D46164650
:102030002560666004202072D4E9000107F054FA9C
:10204000002070BD10B50446A28891B2206804F04B
:102050003DFD10BD42681AB902681268516310E074
:102060004268042A03D102681268916309E0426859
:10207000082A03D102681268D16302E0026812687C
:102080001164704710B504F02FFD10BD08B5FFF7BF
:10209000DFFD4FF48053344A03213448FFF79CFF9F
:1020A000334B012233493448FFF7A0FF082233495C
:1020B0003348FFF7B9FF042230493248FFF7B4FF35
:1020C00000222E493048FFF7AFFF00222F49304849
:1020D000FFF7AAFF08222F492F48FFF7A5FF082284
:1020E0002E492F48FFF7A0FF2E492F4800F0DEF8B9
:1020F0004FF480602D4B42102D4900902A4800F08B
:1021000026F900234FF400722A49274800F0ECF822
:1021100029492A4800F0CAF84FF48060284B421041
:1021200028490090254800F012F900234FF400726E
:102130002549224800F0D8F82449254800F0B6F88F
:1021400000231E222349224800F0CEF80023224A11
:1021500022492348FFF7EEFC0023224A2249234864
:10216000FFF7E8FC08BD0000000402402C7F0020BF
:10217000D1450108000002409C7F00203C0D00205A
:102180003C7F00204C7F00205C7F0020840D0020DD
:102190006C7F0020F40C00207C7F0020AC0C002021
:1021A0008C7F00205C0E0020AC7F00200C510020B2
:1021B0000C4F00200C550020CC0D0020E87F0020A3
:1021C0000C5900200C5700200C5D0020140E00203C
:1021D000248000200C5F00202A5F0020680B002074
:1021E000608000202A6F0020900B00208C8000204F
:1021F000F8B5044600262068006800F0100010289A
:1022000046D12068C06800F01000002840D0E06B84
:102210000068006820F00100E16B09680860002593
:102220002CE0214850F825000068006821688842A9
:1022300022D11D4850F82500C088E16B0968496823
:10224000401A86B2184850F82500C06848B11649AF
:1022500051F825108868144951F82510CA6831468C
:102260009047114850F82500C2880F4850F82500C3
:102270008168204607F036FD681CC5B2032DD0DB0F
:10228000E06B0068006840F00100E16B09680860DD
:1022900000BF00200090206800680090206840681F
:1022A000009000BF00BFF8BDB880002070B50446A4
:1022B0000D460CB9012070BD3C212046FEF7A0F868
:1022C000256000210AE0074850F8210020B90548A0
:1022D00040F821400020EEE7481CC1B20329F2DBA0
:1022E0000120E8E7B8800020F8B504460D46164600
:1022F0001F460CB90120F8BD01202071A560E680C1
:10230000E76000BF0020009020680068006800902F
:10231000206800684068009000BF00BF2068006827
:10232000C06840F0100021680968C860E288A168B0
:10233000206807F0D7FC0020DDE702460AB901203B
:10234000704709B90120FBE7D1600020F8E72DE9CB
:10235000F04104460E4617461D46DDF8188014B9B4
:102360000120BDE8F0810120207466612783656348
:10237000A4F83880002084F83A004246294604F147
:102380001C0011F0CDFD0020EBE72DE9F0470446DD
:102390008846174614B90120BDE8F087207C08B9AB
:1023A0000120F9E794F83A0090B9208BB84202DD99
:1023B0003D46002614E0208B218F0844B84204DDFE
:1023C000258B208B381A86B20AE0258B268F07E0F2
:1023D000208FB84202DD00253E4601E00025268F11
:1023E000002D0CDD2A4641466069FDF7F0FF012013
:1023F00084F83A002A466169206807F0A9FC002E9B
:102400000DDD08EB0501324604F11C0011F093FDCF
:1024100000F0FF09B14501D00120BDE700BF002059
:10242000BAE7000010B5FFF72DFE04464FF47A70AE
:10243000B4FBF0F0032800D210BD1C480068201A3D
:1024400040F6C411884208D9194800781949087023
:10245000164804601848046025E01648007810B358
:1024600015480068201A15490988884205D2962126
:102470004FF4FA7000F080F815E00F480068201A59
:102480000E4909880E4A12881144884204D200215C
:10249000084600F071F806E006480078401E05493D
:1024A00008700548046000BFC6E700002401002052
:1024B0001C0100202C010020280100201E0100200A
:1024C00020010020024A1080024A1180704700005B
:1024D0001E01002020010020014908707047000003
:1024E0001C01002070B52DED068B0446B0EE408A2D
:1024F00002F062FA0546606828B965602560002030
:10250000BDEC068B70BD6068281A2169884202D92B
:10251000A5600120F4E718EE100AFEF725F941EC5A
:102520001A0BB0EE4A0AF0EE6A0A0FF05DF8B0EE50
:10253000409AF0EE609A9FED0A0B53EC102B51EC91
:10254000190BFEF725F907D22068281AE16888429E
:1025500003D9A5600120D3E725600020D0E7000063
:102560000000000000004940002343608360C16018
:102570000261704700BFFEE770B504460D4604488F
:1025800000680068C46229460148FFF763FD70BD1A
:102590007C7F002010B5024803F0CFFA10BD000088
:1025A000680B002070B505460E461446281E09D05B
:1025B000A0F2052000B3A0F2FB2038B3B0F5007FF5
:1025C00036D12CE031461C4811F0EEFA062009F015
:1025D0004BFB194890ED080A184880ED7E0A164812
:1025E00090ED090A154880ED7F0A134890ED0A0A1C
:1025F000124880ED800A1CE01049D1F808023146EB
:1026000009F045FA052009F02FFB12E0A2B231468D
:102610000B4801F0C4FC0F2009F026FB09E0A2B230
:102620003146084801F0BBFC0E2009F01DFB00E01C
:1026300000BF00BF70BD0000D08500203C96002088
:10264000089F0020B4A3002070B504460E4615462E
:10265000B4F5C06F05D1AAB23146034801F09FFC22
:1026600000E000BF00BF70BDF8B4002070B50446A4
:102670000D462B4622464FF4E0610248FFF794FADC
:1026800070BD00006080002010B5024803F055FACC
:1026900010BD0000680B002070B504460D462B46A7
:1026A00022464FF4C0610248FFF77EFA70BD000079
:1026B0006080002070B504460D462B4622464FF43C
:1026C000A0610248FFF770FA70BD00006080002032
:1026D00010B5024803F031FA10BD0000900B002045
:1026E0002DE9F04104460D461746A4F201200828C2
:1026F00041D2DFE800F0040E182240402C3602F0F0
:1027000047F90646294609F0C2F9082009F0ACFA53
:1027100032E002F041F90646294609F0B8F90920ED
:1027200009F0A2FA28E002F03BF90646294609F032
:10273000AEF90A2009F098FA1EE002F035F90646D3
:10274000294609F0A4F90B2009F08EFA14E00BF0E9
:1027500055F90646294609F09AF90C2009F084FA41
:102760000AE00BF04FF90646294609F090F90C20D3
:1027700009F07AFA00E000BF00BFBDE8F081000078
:102780002DE9F04104460D46164640F20321601A39
:102790008C420DD005DCA4F2012038B101281DD1F6
:1027A00005E0012805D00E2818D112E000BF00BFB7
:1027B00000BF601EC7B2C7EBC7020A4901EB021196
:1027C0000868294609F063F9791CC8B209F04CFA87
:1027D00005E0F1B228460AF06BFC00E000BF00BF44
:1027E000BDE8F081DCAD002010B5024803F0A5F98A
:1027F00010BD0000900B002030B58BB004460CB922
:102800000BB030BD00BF00BFEFF31080054600BF26
:1028100072B600BF201D11F0DDFA00BB15E007A95C
:10282000201D11F0AAFA079801900020039004904F
:102830009DF820000590012084F824006B460DF1DE
:10284000210201A9206802F058FF206803F05AF91C
:1028500040B1201D11F0BEFA0028E0D002E00020B7
:1028600084F8240000BF00BF85F3108800BF00BFBC
:1028700000BF00BFC4E70346042B15D007DC7BB1C3
:10288000012B0ED0022B0DD0032B12D10BE0202BED
:102890000BD0212B0AD0222B09D0232B09D107E002
:1028A00008E007E006E005E004E003E002E001E004
:1028B00000E000BF00BF002070470020704700000C
:1028C00010B50022044905480BF0D7FE044903481F
:1028D0000BF0C4FE002010BD44CF002068C20020D1
:1028E00044C7002070B505460C460F4800682168B3
:1028F00008440D490860084600683C280AD208468A
:1029000000680A4A81180A480BF0A8FE08480BF034
:1029100071FE06E001200449087100200968034A9D
:102920005054002070BD00000004002044C7002067
:1029300068C200202DE9F04104460D460948D0F850
:10294000BC62D6F8140210B10120BDE8F0812A461D
:10295000214604480BF091FE02480BF041FF074668
:102960003846F2E768C2002010B503460C46002145
:10297000084610BD70B504460D46204614F034F9E3
:1029800070BD000070B504460D462A462146034836
:1029900001F005FB0E2009F067F970BD50BC002066
:1029A00070B500EB40040C4D05EB8404647862F3D1
:1029B000060400EB4005084E06EB85056C7000EB45
:1029C0004004354605EB8404616000EB400405EBF0
:1029D0008404A36070BD00009894002000BF2049CB
:1029E000086800F0FFF8002432E004EB44001D49C1
:1029F00001EB80004078C00940B304EB440001EBD8
:102A00008000806810B304EB4401164B03EB810196
:102A1000486804EB440103EB81018A680121904777
:102A2000A0B1552004EB44010E4A02F8210004EB4A
:102A30004400114601EB8000407820F0800004EB58
:102A4000440102EB8101487000F08CF9601CC4B2B3
:102A5000042CCADBFFF7E6FC0A2011F0B5FEBEE746
:102A6000809200209894002010B588B00024294B53
:102A70000C2229490120FFF793FF00F05BF800BF0B
:102A80001BE004EB4400254911F82000552812D121
:102A900004EB440001EB8000806860B104EB44016A
:102AA0001E4B03EB8101486804EB440103EB8101F9
:102AB0008A6800219047601CC4B2042CE1DB4FF40B
:102AC0007A7011F081FE16480068007A022811D150
:102AD00013480068407A02280CD11248006811F0AF
:102AE000CBFE1148006811F0C7FE00200C49487168
:102AF000887101E008B010BD1C220C4901A8FDF747
:102B000066FC002101A811F088FE0949086000BF99
:102B1000F0E7000089560008749400209894002083
:102B200080920020F401002050020020C0800108A3
:102B300064020020F8B50024002500BF4AE004EB41
:102B40004400264901EB8000407800F07F06F3172F
:102B500006EB93739A1004EB44030F4607EB8303D1
:102B600059681F4BE818FFF7E1F904EB44003946B8
:102B700001EB8000407800F07F00284485B21849BE
:102B8000681801226946FFF7D1F99DF8000004EBAF
:102B900044013A4602F82100681C85B204EB440067
:102BA000114611F82000552812D004EB440001EB27
:102BB0008000806860B104EB440001EB8000407845
:102BC00020F08000803004EB440102EB810148706A
:102BD000601CC4B2042CB2DBF8BD00009894002045
:102BE00000000A0870B5054600205749087012E039
:102BF0005548007800EB4000544901EB80004078D4
:102C0000C00918B100205249086070BD4E480078D4
:102C1000401C4D4908704C4800780428E8DB2846E1
:102C200009F0EEF904464B480078052823D2DFE886
:102C300000F0032356637800012C05D14448006856
:102C4000401C4349086002E00020414908604048B8
:102C50000068C82805D901203E49087000203C4979
:102C6000086032210846FFF72DFC1920FFF734FCDD
:102C700039480FF06FFF64E04FF4FA710846FFF730
:102C800021FC0120FFF728FC33480FF063FF022CE2
:102C900003D0032C01D0042C05D12D480068401C22
:102CA0002B49086002E00020294908602848006894
:102CB000C82813D9022C03D10220264908700AE043
:102CC000032C03D103202349087004E0042C02D113
:102CD00004202049087000201D49086031E00220CE
:102CE000FFF7FAFB1D480FF035FF00201849086078
:102CF00001201849087024E00320FFF7EDFB4FF096
:102D0000FF200FF027FF0020114908600120114922
:102D100008700E48407B20F0800080300B494873DB
:102D20000FE000200A49086001200A4908700C4899
:102D300008F01CFF0A4808F019FF094808F016FFC0
:102D400000BF00BF00BF60E7680200209894002029
:102D50006C02002070020020FF0000FF0000FFFF57
:102D60008C80002070B50024002500BF25E004EB16
:102D70004403184E06EB83035B7803F07F0204EBF9
:102D8000440306EB83035968134B5819FDF71FFBE7
:102D900004EB4400314601EB8000407800F07F00F6
:102DA000284485B20C4804EB4401324612F8211045
:102DB0004155681C85B2601CC4B2042CD7DB0121CC
:102DC0000648FEF7ADFF192203490448FFF7B8F89B
:102DD00070BD000098940020C894002000000A08EC
:102DE00038B501F001FB5D49086007F00BFC5B4959
:102DF00048605B488860002008739FED5A0A0846C7
:102E000080ED040A9FED580A80ED050A9FED560AF1
:102E100080ED060A9FED550A80ED070A9FED530AE3
:102E200080ED080A002421E0204600F093F9C4EB6D
:102E3000C4024A49243101EB02110860C4EBC40208
:102E40004649243101EB0211081DDFED482A9FEDB0
:102E5000472ADFED471AB1EE0A1ADFED460A9FED69
:102E6000460A032111F066FF601CC4B2042CDBDBB0
:102E7000DFED3E2AB0EE002ADFED3C1AB1EE001A7B
:102E8000DFED3E0A9FED3E0A03213E4811F052FF5E
:102E90000023642201210E2008F0C8FE03236422CF
:102EA0000121102008F0C2FE00236422012111201C
:102EB00008F0BCFE344B4FF480623449344801F0D2
:102EC0003FF934484FF48063334AAA2100903348D5
:102ED00001F08AF8324B4FF400723249324801F067
:102EE0002FF932484FF40073314AA5210090314840
:102EF00001F07AF80A2200212F480AF01BF80A2272
:102F000000212E480AF016F8642200212C480AF00D
:102F100011F82C4B4FF400722B492C4801F010F99A
:102F20001E2200212A480AF005F8284800F0F0FE89
:102F300028492948FFF701FA28492948FFF7FDF9F0
:102F400028492948FFF7F9F928492948FEF722FEC0
:102F500028490348FEF71EFE38BD0000B8AD00202A
:102F60008C800020D053FB430080A243000000006F
:102F7000CDCCCC3D0000FA4400007A460000484227
:102F8000000096439CAF0020B5260008F8B0002052
:102F90004CB00020350A0108A4B50020F8B4002088
:102FA0006D26000850BA0020A4B9002051C20008C4
:102FB000FCBC002050BC00209DD90008A1300008B6
:102FC00095D10008393F0008A8BF0020FCBE0020B2
:102FD0006D3900082144000824800020852900085C
:102FE000AC7F0020E1BE0008E87F002049260008F1
:102FF000608000208127000813480068807918B994
:103000000020114908731EE00F48006880790128EC
:1030100002D10D49087316E00B4800688079022838
:1030200002D1094908730EE0074800688079032837
:1030300002D10549087306E0034800688079042836
:1030400001D1014908737047B8AD002010B512488E
:10305000006890ED020A1048D0ED920A30EE200A86
:1030600080ED950A006890ED030A0B48D0ED930AB5
:1030700030EE200A80ED960AD0EDA00AF1EE600A4B
:10308000B0EE600ADFED050A00F5F27011F02CFDDC
:10309000014880ED970A10BDB8AD00200000000087
:1030A00030B52DED048B81B0054600F03BF80446A9
:1030B0001848D0F85402C4F801001648D0F8580255
:1030C000C4F805001348007B20701248406890ED5A
:1030D000020A10EE101A0846FDF746FB41EC190BE8
:1030E0009FED0D0B53EC102BFDF74CFA41EC180B38
:1030F000FDF77EFBC4F809000D2023460222AA2119
:103100000090074800F0BCFF002001B0BDEC048B2C
:1031100030BD0000B8AD00206666666666A64C400D
:103120004CB00020004870470A8100202DE9FC4186
:1031300004460D4616461F460549CDE900672B4655
:10314000224688684FF4007108F03AFDBDE8FC8122
:10315000B8AD0020014601EBC100024A02EB80003D
:1031600070470000E083002070B501F02FFE044698
:103170000DF090FC054654F8050F00EE100AB1EE74
:10318000400A174880EDA00A4068D0ED5A0A6068EE
:1031900000EE100A30EEC00A114880EDA20A406825
:1031A00090ED5B0A0E4880EDA30A4068D0ED5C0A02
:1031B000A06800EE100A30EEC00A094880EDA10AAE
:1031C000D4F815000649C1F84802D4F81900C1F82E
:1031D0004C02D4F81D00641FC1F8500270BD0000FD
:1031E000B8AD00200848006890ED020A0648D0ED0E
:1031F000920A30EE200A80ED950A006890ED040AEC
:10320000014880ED970A7047B8AD002010B52DED4C
:10321000048B4E48006890ED020A4C48D0ED920AAB
:1032200030EE200A80ED950A006890ED030A4748C9
:10323000D0ED930A30EE200A80ED960A90ED950AC3
:1032400010EE101A0846FDF78FFA41EC190BB0EE9C
:10325000490AF0EE690A0EF0C7F9B0EE408AF0EEC6
:10326000608A9FED3B0B53EC102B51EC180BFDF7D4
:103270008FFA22D2354890ED960A10EE101A0846C1
:10328000FDF772FA41EC190BB0EE490AF0EE690A4B
:103290000EF0AAF9B0EE408AF0EE608A9FED2C0B9A
:1032A00053EC102B51EC180BFDF772FA05D29FED81
:1032B0002A0A264880ED970A44E0244890ED950AB2
:1032C00010EE101A0846FDF74FFA41EC190BB0EE5C
:1032D000490AF0EE690A0EF087F9B0EE408AF0EE86
:1032E000608A9FED1E0B53EC102B51EC180BFDF771
:1032F0004FFA22D2154890ED960A10EE101A0846A1
:10330000FDF732FA41EC190BB0EE490AF0EE690A0A
:103310000EF06AF9B0EE408AF0EE608A9FED0F0B76
:1033200053EC102B51EC180BFDF732FA05D29FED40
:103330000A0A064880ED970A04E09FED070A034851
:1033400080ED970ABDEC048B10BD0000B8AD0020E5
:103350000000000000407F400000FA430000000031
:1033600000408F409FED060A064880ED950A9FEDCC
:10337000040A80ED960A9FED020A80ED970A7047D5
:1033800000000000B8AD002000BFFFF7EDFEFFF722
:1033900033FE4348007B012806D0022807D00328CB
:1033A00008D004280CD108E0FFF7DCFF09E0FFF7A4
:1033B0004DFE06E0FFF716FF03E0FFF727FF00E0F2
:1033C00000BF00BF364800F085F800243DE03548D6
:1033D00000EB840090ED000AC4EBC40130482430B7
:1033E00000EB011080ED1A0AC4EBC4022C49243111
:1033F00001EB021191ED1A1AF0EE410AC4EBC4027E
:103400002749243101EB02110968B1F9041001EEDA
:10341000101AB8EEC11AB0EE410AC4EBC40220493A
:10342000243101EB0211081D11F05EFBBDEEC00A54
:1034300010EE100A01B2C4EBC4021948243000EBAC
:103440000210A0F86C10601CC4B2042CBFDB14483E
:1034500000F05AF81248007B70B900200AE0002200
:10346000C0EBC0030E49243101EB0311A1F86C201D
:10347000411CC8B20428F2DB094CB4F9E031B4F9BC
:103480007021B4F90011B4F99000FFF74FFE0A2043
:1034900011F09AF9002012F0DFFF0349086074E789
:1034A000B8AD002018B000205803002000B587B048
:1034B0001C2206496846FCF78AFF0021684611F085
:1034C000ACF90349086007B000BD00001C81010889
:1034D0005403002010B50446094A0A49204600F06A
:1034E00019F994ED970AB0EE401A0548D0ED000A9C
:1034F000044890ED000A204608F068F810BD00006E
:10350000500300204C03002070B52DED0E8B0446B7
:103510009FED780AB0EE40EA9FED760AB0EE408A61
:103520009FED740AF0EE408A9FED720AB0EE409A69
:103530009FED700AF0EE409A08F084FE05461DB13A
:103540000E2000F035F920B19FED6B0AB0EE40EA95
:103550005AE0022D01D00C2D04D19FED680AB0EE87
:1035600040EA51E008F000FF008900EE100AB8EED2
:10357000400AB0EE409A08F0FBFE408900EE100AC7
:10358000B8EE400AF0EE409A9FED5D0AB4EEC09AA4
:10359000F1EE10FA14D2F1EE040AB4EEE09AF1EE74
:1035A00010FA04DDDFED560A89EE200A01E09FEDF6
:1035B000550ADFED510A60EE200AB0EE60EA23E022
:1035C0009FED510AF4EEC08AF1EE10FA18DDF4EE28
:1035D000E98AF1EE10FA08D279EEE80A9FED4A1A6C
:1035E00039EEC11A80EE810A01E09FED420ADFED5B
:1035F000420A9FED461A41EE000AB0EE60EA03E08F
:103600009FED430AB0EE40EA002627E0C6EBC60273
:1036100004F1240101EB0211B1F96C00FDF793F8FC
:1036200041EC1D0BB0EE4D0AF0EE6D0A0DF0DCFF23
:10363000B0EE40BAF0EE60BA18EE100AFDF794F85A
:1036400041EC1C0B53EC1B2BFCF7F5FE41EC1A0B69
:10365000FDF7CEF808EE100A701CC6B2042ED5DBBA
:10366000B4EECE8AF1EE10FA40DDCEEE080AB0EEEE
:10367000600AB4F9900000EE900AF8EEE00A60EEFD
:10368000800AFDEEE00A10EE900A01B2A4F8901054
:10369000B4F9000100EE900AF8EEE00A60EE800A4C
:1036A000FDEEE00A10EE900A01B2A4F80011B4F9A0
:1036B000700100EE900AF8EEE00A60EE800AFDEE7E
:1036C000E00A10EE900A01B2A4F87011B4F9E0011A
:1036D00000EE900AF8EEE00A60EE800AFDEEE00AE5
:1036E00010EE900A01B2A4F8E01100BFBDEC0E8B01
:1036F00070BD00000000000000007A4600007A471C
:1037000000004842CDCCCC3D0000204200409C4609
:1037100000A00C4770B52DED028B04460D461646F1
:1037200094EDA00ADFED1F0A80EE201AB0EE418A68
:10373000B0EE480AFCF7E0FD1B4880ED000A94ED6E
:10374000A00ADFED180A80EE201AB0EE418AB0EE32
:10375000480AFCF795FD154880ED000A94ED950A9E
:103760001148D0ED000AF1EE600A20EE200AD4EDF7
:10377000960A0E4890ED001A01EE200A86ED000A26
:1037800094ED950AD0ED000A20EE200AD4ED960AB9
:10379000054890ED001A01EE200A85ED000ABDEC07
:1037A000028B70BD333365423003002034030020A8
:1037B0000146044800EB0110C078012800D1704791
:1037C0000020FCE73093002038B505460C464FF446
:1037D000807000F0C5FA8DF800508DF8014002218C
:1037E000684600F0F1FA38BD2DE9F05F2DED028B4F
:1037F00004460D4616461F46B0EE408ADDE90EAB84
:10380000DDE90C891CB9BDEC028BBDE8F09F0F21EE
:103810002046FCF7F5FD2846FCF7FDFD032800D9FE
:10382000F1E729462046FCF7FDFD14F8030F20F0D0
:103830000700401C2070207820F0380028302070CD
:10384000208866F38910208007F57070B4F80510A1
:1038500060F38C01A4F8051008F51670E18860F398
:103860004F11E180B4F8010069F38E10A4F8010053
:103870000121608861F3CF106080A0886AF309009D
:10388000A08060786BF3850060709FED0A0A28EED7
:10389000000ABDEEC00A10EE100AA060E41E40F25D
:1038A000011000F05DFA0F21204600F08DFA00BFF4
:1038B000A9E7000000007A442DE9F05F04460D46B8
:1038C00016461F46DDE90CABDDE90A890CB9BDE8F7
:1038D000F09F0F212046FCF793FD2846FCF79BFD47
:1038E000032800D9F3E729462046FCF79BFD14F88E
:1038F000030F20F00700401C2070207820F03800D3
:103900002070208866F38910208007F57070B4F865
:10391000051060F38C01A4F8051008F51670E18815
:1039200060F34F11E18009F57070B4F8091060F38D
:103930008C01A4F809100AF51670618960F34F1123
:103940006181A0886BF30900A08061780E9860F314
:1039500085016170E41E40F2011000F001FA0F21B0
:10396000204600F031FA00BFB1E70000F0B52DEDC0
:10397000028B83B0074608F065FC0446204600F041
:10398000FBF904F5807000F0F1F912F049FB01F049
:103990001DFA06466948008801287BD168484078AE
:1039A00001280CD10221674800F0BAF9B7EE000AED
:1039B000644800F0BFF90220614948700EE0604899
:1039C000407858B904215F4800F0AAF99FED5E0ADB
:1039D0005C4800F0AFF90220594948705848807897
:1039E00001280CD10221594800F09AF9B7EE000ADB
:1039F000564800F09FF90220514988700EE0504867
:103A0000807858B90421514800F08AF99FED4E0A98
:103A10004E4800F08FF902204949887048480078E4
:103A200001280CD102214A4800F07AF9B7EE000AC9
:103A3000474800F07FF90220414908700EE04048F5
:103A4000007858B90421424800F06AF99FED3E0A17
:103A50003F4800F06FF90220394908703D4890ED69
:103A6000000ADFED3D0A30EE600A9FED3C1AC0EE21
:103A7000010A9FED3B1A9FED3B0A10EE810A3A487E
:103A800080ED000A334890ED000ADFED330A30EE96
:103A9000600A00E04CE0DFED310A80EE201A11EE02
:103AA000105A2846FCF760FE41EC180B9FED2F0BD7
:103AB00053EC102BFCF76CFE04D204212D4800F0CF
:103AC0002FF903E002212B4800F02AF9214890ED5C
:103AD000000ADFED210A30EE600ADFED200A80EEF9
:103AE000201AB5EEC01AF1EE10FA04D29FED220AA8
:103AF0001D4880ED000A6FF4ED7000901A4890EDBB
:103B0000000ABDEEC00A10EE100A03B26FF4ED72A7
:103B10001A49184800F036F919480146094A0C4B71
:103B2000CDE900210290094A1649124800F072F9C5
:103B3000002003B0BDEC028BF0BD00007602002037
:103B4000FC0100209595002000000000A4950020B5
:103B5000B3950020E401002000007A440000C8442E
:103B60000000434400009143840200203333333388
:103B70003333D33F2C950020000091C3DEFEFFFFBE
:103B80001C960020FE9500202DE9F05F04460D46AE
:103B900016461F46DDE90CABDDE90A890CB9BDE824
:103BA000F09F0F212046FCF72BFC2846FCF733FC46
:103BB000032800D9F3E729462046FCF733FC14F824
:103BC000030F20F00700401C2070207820F0380000
:103BD00008302070208866F38910208007F5707007
:103BE000B4F8051060F38C01A4F8051008F5167000
:103BF000E18860F34F11E18009F57070B4F80910A5
:103C000060F38C01A4F809100AF51670618960F35D
:103C10004F116181A0886BF30900A08061780E9834
:103C200060F385016170E41E40F2011000F098F825
:103C30000F21204600F0C8F800BFB0E72DE9F05F83
:103C400004460D4616461F46DDE90B8ADDF828902E
:103C50000CB9BDE8F09F2D212046FCF7D1FB28468A
:103C6000FCF7D9FB032804D84046FCF7D4FB1E28F8
:103C700000D9EEE729462046FCF7D4FB14F8030FE1
:103C800020F00700401C2070207820F038003830E9
:103C90002070208866F38910208007F57070B4F8D2
:103CA000051060F38C01A4F8051009F51670E18881
:103CB00060F34F11E180B4F801006AF38E10A4F8AC
:103CC00001004046FCF7A7FB618860F3CF116180DB
:103CD000A1880D9860F30901A18061780E9860F3C6
:103CE00085016170E41E414604F10F00FCF79AFB68
:103CF0004FF4887000F034F84046FCF78CFB0F302E
:103D00001FFA80FB5946204600F05EF800BFA0E78E
:103D100000B970470149086000BFFAE718010020A8
:103D200008B1082900DD7047027961F3850202714C
:103D300000BFF8E720B1C178C1F3C201052900D066
:103D40007047DFED060A60EE200AFDEEE00A10EE95
:103D5000901AC0F80B1000BFF2E7000000007A4490
:103D60000149088070470000100100200149888047
:103D70007047000010010020014948807047000092
:103D80001001002070B5049C00B970BD01F570757C
:103D9000068965F38C06068102F51675B0F8096090
:103DA00065F34F16A0F8096003F57075868965F311
:103DB0008C06868104F51675B0F80D6065F34F1614
:103DC000A0F80D6000BFE0E738B505460C460E4888
:103DD000006800B938BD0D480D490A68026089883D
:103DE000818022462946801DFCF7F1FAA01D80B291
:103DF000064B40F20132A52100900348006800F014
:103E00003FF900BFE6E700001801002061810020B3
:103E1000100100202DE9F04F8BB0074688469146EF
:103E20009A460024A3460497CDF81480CDF8189044
:103E3000CDF81CA0149808901598099016980A902F
:103E40003A4E002007E004A951F8201009B1611C86
:103E5000CCB2411CC8B20728F5DB012C05D1A34622
:103E600040F20110FFF77CFF1CE0022C05D1A346B5
:103E70004FF48170FFF774FF14E0052C06DC4FF05F
:103E8000050B40F20310FFF76BFF0BE0072C06DC7D
:103E90004FF0070B4FF48270FFF762FF02E00BB0A8
:103EA000BDE8F08F2248016831608088B080B61D7F
:103EB000002518E004A850F8250090B104A850F897
:103EC0002500C07820F00700801C04A951F82510B7
:103ED000C87004A850F825100F223046FCF777FA76
:103EE0000F36681CC5B2072DE4DB5C4510DA0020F4
:103EF000009001900290039007E00F22694630463F
:103F0000FCF765FA0F36601CC4B25C45F5DB00BFF8
:103F1000C4EB0410801D054B40F20132A521009036
:103F20000448006800F0ACF800BFB8E761810020E9
:103F3000100100201801002070B504460D462A46E5
:103F400021460248FEF721FA70BD0000AC7F002038
:103F50002DE9FF470446884699460C9D05F1090066
:103F600086B2802E03DD002004B0BDE8F08704F1A6
:103F7000210787F80080A7F801503846BDF80810DF
:103F8000E18405210FF0B2F82A464946F81DFCF7F6
:103F90001EFA314638460FF093F83046E4E770B524
:103FA00004460E46154604B970BD04F108000FF032
:103FB0003EFFA84205DD2A46314604F108000FF015
:103FC000BAFF00BFF0E7000070B50648456804E09E
:103FD0002C46204600F0D8F86D6802488542F7D19B
:103FE00070BD0000E00000202DE9F04704460E46B9
:103FF00017469846DDF820900CB9BDE8F0870D48CB
:10400000456803E0A54200D1F7E76D68094885429D
:10401000F8D10146204610F0F9FA84F820604246B3
:10402000394604F108000FF07BFFC4F8A89000BFE8
:10403000E3E70000E000002000BFFFF7C5FF00F04D
:1040400041F8012010F0C0FB002012F005FA0149F0
:104050000860F2E75C02002000B587B01C22064928
:104060006846FCF7B4F90021684610F0D6FB034916
:10407000086007B000BD0000A480010858020020BD
:104080002DE9F84304460E4617469846089D0CB99C
:10409000BDE8F88304F108000FF0C9FEA8420FDD67
:1040A00043463A46314620460095FFF751FF814688
:1040B0004A4604F1210104F108000FF03CFF00BF63
:1040C00000BFE5E72DE9F041A0B080216846FCF78C
:1040D00097F90026B04600271848456827E02C4687
:1040E00004F108000FF07AFF86B2FEB1D4F8A80000
:1040F00050B1D4F8A80080478046B04501DA404668
:1041000000E03046074600E03746802F00DD80277C
:104110003A46694604F108000FF0B2FED4F8A40054
:1041200020B139466846D4F8A42090476D6803480A
:104130008542D4D120B0BDE8F0810000E800002025
:104140002DE9F04104460F4690461E460CB9BDE8E5
:10415000F0810C48456803E0A54200D1F7E76D689F
:1041600008488542F8D10146204610F04FFA4246F1
:10417000394604F108000FF0D3FEC4F8A46000BF74
:10418000E5E70000E800002070B5044600258AE05D
:1041900004F108000FF04EFE054694F821000628B1
:1041A0007BD2DFE800F003141F353F5794F820005E
:1041B000A84209D1012084F82100618C481C608448
:1041C00004F12600455401E0002060846AE0A584E3
:1041D000618C481C608404F126004554022084F858
:1041E00021005FE0A08C40EA0520A084618C481C7F
:1041F000608404F126004554A08C772803D2032064
:1042000084F8210003E0002084F82100608449E064
:10421000618C481C608404F126004554042084F815
:1042200021003FE0618C481C608404F12600455465
:10423000608C05280DD1052104F1260012F0BCFC8C
:1042400018B1052084F8210003E0002084F8210043
:10425000608427E0618CA08C0930814205D2618C9A
:10426000481C608404F126004554618CA08C093000
:10427000814210D3002084F821006084A08C00F1DA
:10428000090104F1260012F079FC20B104F12601A5
:1042900020460CF0B7FB05E0FFE7002084F8210082
:1042A000608400BF00BF04F108000FF097FE0028F3
:1042B0007FF46EAF70BD000000BF08F05DF82F48BE
:1042C000007920B101281BD002283FD130E000F056
:1042D0007DFD007801280CD000F078FD007840B119
:1042E0000120264908710420487102208871C87194
:1042F00005E001202149487188710220C87126E03B
:104300001E480068007A032802D108F069F80EE020
:104310001A480068007A012802D1FDF7C9F906E0C1
:1043200016480068007A022801D1FDF709F90EE06D
:104330001120FFF73DFA18B900201049087104E078
:1043400000200E4948718871C87100E000BF00BFAD
:104350001120FFF72DFA10B1022008490871074813
:10436000162201680648FCF732F8142010F02CFAE7
:10437000002012F071F8034908609EE78092002047
:10438000B4920020F801002000B587B007F04CFF80
:1043900010490860002008710120887148710220CE
:1043A000C871002081F830004B210B4811F0FCFB54
:1043B0004B210A4811F0F8FB1C2209496846FCF71A
:1043C00006F80021684610F028FA0649086007B090
:1043D00000BD00008092002004020020180200208E
:1043E00050800108F40100200048704780920020AE
:1043F000F8B504460D4607F017FF06462A46214643
:1044000007F059FE23460122AA2104480095FFF730
:1044100037FE112007F028FCF8BD00005C9A002050
:10442000F8B504460D4607F0FFFE06462A4621462B
:1044300007F041FE23460122AA2104480095FFF718
:104440001FFE112007F010FCF8BD00004CB000204A
:1044500010B5024801F060FF10BD0000640F00209D
:1044600010B5024801F058FF10BD0000C40F002035
:1044700010B5024801F050FF10BD0000A40E00204E
:1044800010B5024801F048FF10BD000024100020C4
:1044900010B5024801F040FF10BD0000040F0020DD
:1044A0000146087810381823B0FBF3F20848805C06
:1044B000C865032A05D908686FF30900001D8865DF
:1044C00003E008686FF309008865886D7047000095
:1044D000E47C0108014600208A6A8B69CBB932B1BD
:1044E000012A0DD0022A03D0032A10D10EE000BF0A
:1044F000CB6A03F08073B3F1807F00D1012007E025
:10450000CB6AB3F1C07F00D1012001E000E000BF21
:1045100034E08B69B3F5005F1AD132B1012A07D0BC
:10452000022A03D0032A11D10AE000BF01200EE0C5
:10453000CB6A03F08073B3F1807F00D1012006E0E5
:10454000CB6AB3F1C07F00D1012000E000BF15E0CD
:1045500032B1012A05D0022A04D0032A0CD103E08B
:1045600000BF00BF012008E0CB6A03F08073B3F105
:10457000807F00D1012000E000BF00BF704730B550
:104580000468246824F4802405682C60046863604F
:104590008468402C04D10468A2600468E16003E0F0
:1045A0000468A1600468E26030BD0000F0EE400ADB
:1045B0009FED061AB0EE410A9FED051A20EE811A12
:1045C000F0EE410AB0EE600A704700000000000003
:1045D000E02E65427047000000BFFDF753FD054621
:1045E000FF260024012026E02A4901EB001149683A
:1045F000691A284A02EB00129268914215D925499E
:1046000001EB0011097881B10121224A02EB00126D
:10461000D170204901EB00118978B1420ADA1D49B5
:1046200001EB00118E78C4B204E00021194A02EBBC
:104630000012D170401C1328D6DBCCB1154901EB18
:104640000411087BFDF748FF124800EB0410807846
:1046500018B911480EF07EFA11E00E4800EB041074
:10466000807801280BD16FF0FF000EF073FA06E09E
:104670004FF0FF200EF06EFA0020FDF72DFFFDF742
:10468000D1FE0A2010F0A0F8002011F0E5FE034949
:104690000860A2E7309300200000FFFF54020020D2
:1046A00000B587B01C2206496846FBF790FE002142
:1046B000684610F0B2F80349086007B000BD00007A
:1046C000888001085002002010B5082002F0F6F89A
:1046D00010BD10B5102002F0F1F810BD10B520206B
:1046E00002F0ECF810BD72B600BFFEE710B5002274
:1046F00001B909E0012901D10A0205E0022901D12D
:104700000A0201E04FF440720E4B1B6823F4407321
:104710000C4C236023461B681343236023461B680D
:1047200023F07803236023461B68022444EAC00474
:104730002343044C236023461B6843F480332360E7
:1047400010BD0000103C02401C48006800F40070DE
:10475000B0B11A48006820F400701849086000BF22
:104760000846006840F4006008600846006820F4CD
:104770000060086000BF0846006840F400700860F0
:104780000E48006800F48060B0B10C48006820F466
:1047900080600A49086000BF0846006840F4805005
:1047A00008600846006820F48050086000BF084692
:1047B000006840F48060086070470000003C0240E0
:1047C0000A4A126822F44072084B1A601A461268AC
:1047D00042F004021A601A4612684FF4803343EA2A
:1047E00000231A43014B1A6070470000103C02403E
:1047F000074A126822F44072054B1A601A46126882
:104800001A601A46126842F001021A60017070477D
:10481000103C024010B50A49096821F44071084C67
:1048200021602146096841F44071216021460968F0
:1048300041F0010121600260BFF36F8F436010BD42
:10484000103C0240084A126822F44072064B1A607B
:104850001A46126842F480721A601A46126842F0D0
:1048600001021A6001807047103C0240084A126839
:1048700022F44072064B1A601A46126842F4007223
:104880001A601A46126842F001021A60016070470D
:10489000103C02402348006800F0100040B122485C
:1048A000C06940F010002049C86110201D4908600F
:1048B0001C48006800F0200040B11B48C06940F06F
:1048C00008001949C8612020164908601548006889
:1048D00000F0400040B11448C06940F004001249A3
:1048E000C86140200F4908600E48006800F0800051
:1048F00040B10D48C06940F002000B49C8618020FA
:10490000084908600748006800F0020040B1064806
:10491000C06940F020000449C861022001490860D4
:10492000704700000C3C02400800002070B50446AF
:10493000002500201449C86102F0D6F8054609E0B8
:10494000601C38B124B102F0CFF8401BA04201D95D
:10495000032070BD0D48006800F480300028EFD1BE
:104960000A48006800F0010010B101200749086002
:104970000648006800F0F20018B1FFF78BFF012035
:10498000E7E70020E5E70000080000200C3C0240BB
:1049900000487047BC84002000487047E084002035
:1049A0000048704704850020004870472885002093
:1049B00000487047C480002010B502F095F810BD83
:1049C00010B52C4454B108220549204606F022FABD
:1049D000042203491031304606F01CFA10BD0000D5
:1049E000E603002008B5FFF7FFFC5649086005F014
:1049F00009FE54494860544888600120487300F01B
:104A0000D5FA5049486100F0BBFA4E49C1F8080296
:104A100040F6F8014B48018341F25421A0F81012EE
:104A20009FED4A0A80ED070A9FED480A80ED850A4E
:104A30009FED470A80ED080A9FED460A80ED090ABE
:104A4000B3EE0E0A80ED860ABAEE0A0A80ED870AF6
:104A5000DFED412A9FED402ADFED3F1A9FED3F1A1F
:104A6000DFED3D0A9FED3E0A032100F5267010F0B0
:104A700061F9DFED392A9FED382ADFED371A9FED16
:104A8000391ADFED390A9FED390A0321384810F051
:104A900051F9DFED382A9FED302ADFED371A9FED0F
:104AA000371ADFED370AB3EE0E0A0321354810F04E
:104AB00041F90FF0D5F80023642201210E2007F000
:104AC000B5F804234FF4FA720121122007F0AEF872
:104AD000002364220121112007F0A8F82A4B4FF48B
:104AE00080622A492A48FFF72BFB2A484FF480634B
:104AF000294AAA2100902948FFF776FA14220021BA
:104B0000274808F017FA27484FF40073264AA521D2
:104B100000902648FFF768FA25492648FDF70DFC66
:104B200025492648FDF709FC25492648FDF705FCDF
:104B300025490548FDF72EF824492548FDF72AF8B0
:104B400008BD00003C960020608000200000343D3D
:104B50000000B4420000B4C2000000000000204287
:104B60000000FA44000070420000FA4500007A4656
:104B700038990020000048420AD7233C9A99193EF0
:104B8000CDCCCC3DC497002099260008089B00207E
:104B90005C9A0020350A0108B49F0020089F00207D
:104BA000154D000851C2000860A40020B4A30020E5
:104BB000F14300082480002075290008AC7F002004
:104BC000E1BE0008E87F0020A5250008E1260008D6
:104BD0008C8000201D48407B1C4988730846006873
:104BE000407910B9002048732EE0184800684079D9
:104BF000012802D11549487326E01448006840791D
:104C0000022802D1114948731EE01048006840791B
:104C1000032802D10D49487316E00C48006840791A
:104C2000042802D1094948730EE008480068407919
:104C3000052802D10549487306E004480068407918
:104C4000062801D101494873704700003C960020B6
:104C500010B52DED028B03212C4880F8281001217E
:104C600080F820129FED2A0AB0EE408A9FED280AB4
:104C7000F0EE408A90ED0B0A0068D0ED080A30EEA5
:104C8000200AB0EE408A214890ED890A0068D0EDF4
:104C9000070A30EE200AF0EE408A1C4890ED0D0A1B
:104CA000F0EE400AB0EE480AFCF79AFB174880ED98
:104CB0000B0A90ED8B0AF0EE400AB0EE680AFCF7A2
:104CC0008FFB124880ED890A00BF90ED890AD0ED74
:104CD000870AB4EEE00AF1EE10FA04D890ED870AE4
:104CE00080ED890A0DE0094890ED890AD0ED860A29
:104CF000B4EEE00AF1EE10FA03DB90ED860A80EDE7
:104D0000890A00BFBDEC028B10BD00003C9600205C
:104D100000000000F8B5074600F058F804460BF014
:104D2000B9FE0546FEF7FEF906462348407B207093
:104D30002148D0F82802C4F80100307804280BD1AB
:104D40001D4890ED0C0ADFED1D0A30EE200A10EE32
:104D5000100AC4F8050003E01748006BC4F805000A
:104D60001548D0F82C0244F8090F1348406B6060D6
:104D70001148D0F83002A0600F4890ED7F0ADFEDB7
:104D8000100A60EE200A9FED0F1A80EE810A10EEE5
:104D9000100AE060084890F80E042074A868C4F86F
:104DA0001D00093C2A2023460322AA210090064820
:104DB000FFF766F90020F8BD3C960020E17A8C41AF
:104DC00000003443DB0F49405C9A002000487047E4
:104DD0001781002010B52948807B012807D0FA21CF
:104DE000274810F0E1FEFA21264810F0DDFE0221EE
:104DF000224880F82012042180F828100146886893
:104E000021490EF0A6FE1D4890ED0C0A80ED0B0A1C
:104E10001C4810F0A9FEF7EE000A30EEC00A174851
:104E2000D0ED8A0A20EE200A80ED890A90ED8A0AE8
:104E3000B0EEC00AF0EE000AB4EEE00AF1EE10FAAD
:104E40001BD80F4810F090FEF7EE000A30EEC00AB3
:104E50000A48D0ED0C0A20EE200A80ED0B0A90EDF6
:104E60000C0AB0EEC00AF0EE080AB4EEE00AF1EE69
:104E700010FA02D804200149487310BD3C96002066
:104E8000A0020020B4020020D0850020417E027ED6
:104E900091421FD0017E41B9B0F9F41100EE101A11
:104EA000B8EEC00A80ED070A14E0017E012902D0A5
:104EB000017E032904D190ED090A80ED070A09E07B
:104EC000017E022902D0017E042903D190ED080A57
:104ED00080ED070A017E4176704710B504462046F2
:104EE000FFF7D4FF207E68B994ED070ABDEEC00A33
:104EF00010EE100A00B2A4F8F40104F12C0000F046
:104F000073FB3CE0207E01281BD194ED782AF0EE63
:104F1000421A94ED0A2AB0EE421A94ED092AF0EEF4
:104F2000420A94ED072AB0EE420A04F12C0000F088
:104F300066FBBDEEC00A10EE100A00B2A4F8F40140
:104F40001DE0207E02281AD194ED782AF0EE421A54
:104F500094ED0A2AB0EE421A94ED082AF0EE420AC5
:104F600094ED072AB0EE420A04F12C0000F047FB52
:104F7000BDEEC00A10EE100A00B2A4F8F40110BD94
:104F800000487047988400207CB505460C460020F8
:104F900000900549019000232246886840F2FF11E5
:104FA00006F00EFE7CBD00003C96002000487047D5
:104FB0007084002010B52DED028B9FED320AB0EE0B
:104FC000408A9FED300AF0EE408A03212E4880F897
:104FD0002810012180F82012FEF7A4F804462A4880
:104FE000006890ED080A2848D0ED0B0A30EE200A40
:104FF000B0EE408A207804280CD1234890ED0D0AA9
:10500000F0EE400AB0EE480AFCF7EAF91E4880EDDF
:105010000B0A0BE01C4890ED0D0AF0EE400AB0EED2
:10502000480AFCF7DDF9184880ED0B0A164890EDA8
:10503000890A0068D0ED070A30EE200A124880ED98
:10504000890A00BF90ED890AD0ED870AB4EEE00A24
:10505000F1EE10FA04D890ED870A80ED890A0DE090
:10506000094890ED890AD0ED860AB4EEE00AF1EE27
:1050700010FA03DB90ED860A80ED890A00BFBDECD3
:10508000028B10BD000000003C96002003212C483C
:1050900080F82810012180F8201290ED0B0A00689A
:1050A000D0ED080A30EE200A254880ED0B0A90ED7D
:1050B000890A0068D0ED070A30EE200A204880ED0A
:1050C000890A00BF90ED0B0AD0ED090AB4EEE00AA0
:1050D000F1EE10FA04D890ED090A80ED0B0A0DE00C
:1050E000174890ED0B0AD0ED080AB4EEE00AF1EE95
:1050F00010FA03DB90ED080A80ED0B0A00BF00BF39
:105100000F4890ED890AD0ED870AB4EEE00AF1EE7F
:1051100010FA04D890ED870A80ED890A0DE008485E
:1051200090ED890AD0ED860AB4EEE00AF1EE10FAAD
:1051300003DB90ED860A80ED890A00BF704700000E
:105140003C96002010B52048D0ED7E0AB0EE600AF3
:10515000FFF72CFA1C4880ED0C0A0246B2F8102228
:1051600011B20246D2F80822128810B206F00BFDE6
:1051700000EE100AB8EEC00A1348D0ED850A20EE02
:10518000200A80ED8A0A406890ED5C0A0E4880EDA6
:105190000D0A406890ED5A0A0B4880ED8B0A406872
:1051A00090ED020ADFED090A20EE200A064880EDA4
:1051B0000E0A406890ED010ADFED040A20EE200A95
:1051C000014880ED8C0A10BD3C960020E12E65421E
:1051D00000BFFFF7B7FFFFF7FDFC3048407B072813
:1051E00017D2DFE800F01604070A0D101300FFF7CE
:1051F000F1FD0FE0FFF72CFD0CE0FFF747FF09E0A2
:10520000FFF7D8FE06E000F077F803E005F004FDB4
:1052100000BF00BF00BF0120214908701F481030A7
:10522000FFF75BFE1F48FFF758FE1C48407B28BB7A
:105230001A48A0300FF060FD1B480FF05DFD1948C3
:1052400090300FF059FD1748F4300FF055FD154818
:1052500080380FF051FD00211048A0F80412A0F88A
:10526000FC130146886811490EF045FC01211048E5
:1052700001F02CFC10B9012001F004FB074AB2F93F
:10528000FC13B2F90402FFF77FFE0A200FF09CFA2C
:10529000002011F0E1F8074908609AE73C960020E9
:1052A000F00200204498002040970020D085002084
:1052B000000002409002002000B587B0FA210A48A1
:1052C00010F072FCFA21094810F06EFC1C2208490B
:1052D0006846FBF77CF8002168460FF09EFA054906
:1052E000086007B000BD0000A0020020B40200204A
:1052F000DC8001088802002010B52DED068B03210B
:10530000AB4880F82810012180F820129FEDA90AEF
:10531000B0EE408A9FEDA70AF0EE408A0BF0BAFB90
:105320000446207F012877D1207F18B10020A24AAF
:1053300010605060A07F01283BD19FED9E0A9F48DE
:1053400080ED000A9A48006890ED070A30EE280ABE
:10535000F0EE408A9A4890ED010A954880EDF90AEE
:105360009FED940A80EDFA0A606800EE100AF0EEF4
:10537000080A08EEA00A8E4880ED890A206800EE2F
:10538000100A8B480068D0ED080A30EE200A8848E1
:1053900080ED0B0AE07F012803D1854981F80D04D7
:1053A00003E00020824981F80D040120854908703E
:1053B000DBE000207E4981F80D04084690ED0B0AE1
:1053C0000068D0ED080A30EE200AB0EE408A0846A8
:1053D00090ED0D0AF0EE400AB0EE480AFCF700F836
:1053E000734880ED0B0A90ED890A0068D0ED070A3A
:1053F00030EE200A6E4880ED890A00BF90ED890AE0
:10540000D0ED870AB4EEE00AF1EE10FA05D890ED7F
:10541000870A80ED890A0EE00EE0654890ED890A62
:10542000D0ED860AB4EEE00AF1EE10FA03DB90ED5F
:10543000860A80ED890A98E000205D4981F80D0414
:105440005D48D0E90020521C40F100005A49C1E9F2
:1054500000200846D0E9003032229A1A70F100008C
:1054600054D30020574908703221534AC2E9001032
:1054700055480068FBF778F99FED540B53EC102B5F
:10548000FAF7D9FFFBF7B4F94F4908604B480068B9
:10549000FBF76AF99FED4F0B53EC102BFAF7CBFF9C
:1054A000FBF7A6F945490860084690ED000AFAF7AF
:1054B00023FFF1EE080AB2EE041A51EE000A474843
:1054C000C0ED000A3A4890ED0B0A0068D0ED080ADA
:1054D00030EE200AB0EE408A18EE100AFBF744F9CD
:1054E0009FED3F0B53EC102BFAF7A5FFFBF780F96C
:1054F00008EE100A2E4890ED0D0AF0EE400AB0EECC
:10550000480AFBF76DFF2A4880ED0B0A284890ED0A
:10551000890A0068D0ED070A30EE200A244880EDA1
:10552000890A2E4890ED000A214880ED890A00BFC3
:1055300090ED890AD0ED870AB4EEE00AF1EE10FA98
:1055400004D890ED870A80ED890A0DE0184890EDA7
:10555000890AD0ED860AB4EEE00AF1EE10FA03DB18
:1055600090ED860A80ED890A00BF00BF104890EDDB
:10557000890AD0ED870AB4EEE00AF1EE10FA04D8F9
:1055800090ED870A80ED890A0DE0094890ED890ABF
:10559000D0ED860AB4EEE00AF1EE10FA03DB90EDEE
:1055A000860A80ED890A00BFBDEC068B10BD0000A5
:1055B0003C9600200000000098020020F402002029
:1055C0003C9A002000030020F802002000000000A8
:1055D000000000007B14AE47E17AB43FFC020020DB
:1055E0009A9999999999E93F10B5044604F1640094
:1055F0000FF082FB04F1C8000FF07EFB10BD10B568
:105600002DED048B0446B0EE408AF0EE608AB0EED9
:10561000419AF0EE619A84ED4B8AC4ED4C8A2046A3
:1056200010F0ECFB94ED1C0AD4ED510A20EE200A98
:1056300084ED260A94ED4B1AF0EE410A94ED4C1AD3
:10564000B0EE410A04F164000FF04EFA94ED270A1F
:10565000D4ED260A30EE200A30EE290A84ED4D0AF8
:1056600084ED4E9A94ED4D1AF0EE410A94ED4E1AE7
:10567000B0EE410A04F1C8000FF036FA94ED400A8A
:10568000BDEC048B10BD000070B505460C462E46DF
:1056900024B9304605F04CF8002070BD012C12D121
:1056A000304604F097FF09480088401C07490880ED
:1056B00008460088B0F5FA6F03DD0020088001205D
:1056C000EBE70020E9E70020E7E700007202002096
:1056D00010B5024692F82030012B01D0022B06D1E2
:1056E00010684069084314686061002010BD506A6A
:1056F00040F4802050620120F8E7F0B504460D46E2
:105700001E4694F8207020688368A86800B900E0FD
:1057100000BF012F01D0022F7DD103F0806030B98E
:1057200003F0006018B903F0805000287ED0C3F366
:105730000161012088403060A86860B9B5F800C0F8
:10574000E86840EA4C5C206800F5C07000EB01108E
:10575000C0F800C00FE0D5E901C040EACC00D5F8A0
:105760000CC040EA0C00D4F800C00CF5C07C0CEB77
:10577000011CCCF80000D5F810C0206800F5C070FE
:1057800000EB0110C0F804C0287D01280ED120686C
:1057900000F5C07000EB0110406840F4807C206888
:1057A00000F5C07000EB0110C0F804C0D07900060D
:1057B00092F806C040EA0C4092F805C040EA0C207E
:1057C00092F804C040EA0C00D4F800C00CF5C07C8C
:1057D0000CEB011CCCF80C00D078000692F802C04B
:1057E00040EA0C4092F801C040EA0C2092F800C058
:1057F00040EA0C00D4F800C00CF5C07C0CEB011C96
:10580000CCF80800206800F5C07000EB01100068BB
:1058100040F0010C01E00FE008E0206800F5C070E6
:1058200000EB0110C0F800C00020F0BD606A40F439
:10583000001060620120F8E7606A40F48020606236
:105840000120F2E7F0B504460A4694F82050012DF5
:1058500001D0022D7ED1424901F50071086840F067
:1058600001000860086820F47C5008600868566AE7
:1058700040EA06200860107D00F01F06012000FAB3
:1058800006F3C8699843C861A1F50071D069C8B929
:10589000D1F80C029843C1F80C02908880B2968926
:1058A00040EA064601F51070576940F837601088E5
:1058B00080B2168940EA064601F51070576900EB80
:1058C000C7004660D069012819D1D1F80C021843ED
:1058D000C1F80C02908880B2168840EA064601F5AD
:1058E0001070576940F83760908980B2168940EA95
:1058F000064601F51070576900EBC70046609069D5
:1059000028B9D1F804029843C1F8040204E0D1F8A0
:1059100004021843C1F80402106928B9D1F814022E
:105920009843C1F8140204E0D1F814021843C1F8F6
:105930001402106A012804D1D1F81C021843C1F8DE
:105940001C02D1F8000220F00100C1F80002002082
:10595000F0BDFFE7606A40F4802060620120F7E755
:105960000064004010B50446204600F087FB10BDDF
:1059700070B5044694F82050012D01D0022D7DD140
:1059800051B92068C06800F0030080B9606A40F433
:1059900000106062012070BD2068006900F0030003
:1059A00028B9606A40F4001060620120F3E72068C3
:1059B00000F5D87000EB0110006800F00400906062
:1059C000906840B9206800F5D87000EB01100068BD
:1059D000400D106007E0206800F5D87000EB011062
:1059E0000068C0085060206800F5D87000EB011016
:1059F000006800F00200D060206800F5D87000EB6D
:105A00000110406800F00F00082802D30820106140
:105A100008E0206800F5D87000EB0110406800F045
:105A20000F001061206800F5D87000EB011040688D
:105A300000F47F40000A9061206800F5D87000EB08
:105A400001104068000C5061206800F5D87000EB30
:105A5000011080681870206800F5D87000EB011004
:105A6000806800F47F40000A5870206800F5D87004
:105A700000EB0110806800F47F0000E03CE0000CC7
:105A80009870206800F5D87000EB01108068000E57
:105A9000D870206800F5D87000EB0110C06818714C
:105AA000206800F5D87000EB0110C06800F47F405A
:105AB000000A5871206800F5D87000EB0110C0682A
:105AC00000F47F00000C9871206800F5D87000EB9E
:105AD0000110C068000ED87131B92068C06840F06C
