:020000040800F2
:1000000060E200205D020008CBBE0008DFA000080F
:100010003FBD000819260008D50C010800000000AB
:100020000000000000000000000000009D0100082A
:100030007946000800000000F9010008F9D4000822
:1000400077020008770200087702000877020008AC
:10005000770200087702000877020008770200089C
:10006000770200086D47000877470008770200080C
:10007000F5440008770200087702000877020008BC
:100080007702000877020008770200082D27000891
:100090003926000877020008770200088147000827
:1000A000770200087702000877020008770200084C
:1000B000770200087702000877020008770200083C
:1000C000770200087702000877020008770200082C
:1000D00077020008B1E3000877020008C5E30008D2
:1000E000770200087702000877020008770200080C
:1000F00077020008770200087702000877020008FC
:1001000077020008770200087702000877020008EB
:100110007702000877020008FDD500087702000882
:1001200077020008054500087702000877020008FA
:100130007702000877020008770200088D2800087F
:10014000752700087702000877020008D1BE000872
:10015000154500082545000835450008D9E3000885
:10016000770200087702000877020008770200088B
:1001700077020008770200087702000800000000FC
:100180007702000877020008DFF80CD000F08EFC40
:1001900000480047234C010860E200202C4B1968FE
:1001A0000868B0E8F04F80F30988BFF36F8F4FF015
:1001B000000080F3118870470000000008480068C4
:1001C000006880F308884FF0000080F3148862B65E
:1001D00061B6BFF34F8FBFF36F8F00DF00BF00BF6B
:1001E00008ED00E0DFF80C00016841F470010160E7
:1001F000704700BF88ED00E0EFF30980BFF36F8F19
:10020000134B1A681EF0100F08BF20ED108A20E96A
:10021000F04F106009B44FF0500080F31188BFF325
:100220004F8FBFF36F8F16F09DFF4FF0000080F3EC
:10023000118809BC19680868B0E8F04F1EF0100F6B
:1002400008BFB0EC108A80F30988BFF36F8F704746
:1002500038000020EFF30580704700000648804713
:1002600006480047FEE7FEE7FEE7FEE7FEE7FEE79B
:10027000FEE7FEE7FEE7FEE7E1D50008890100089A
:100280009FED1A1AF5EE000A40EE010ABDEEE00AF3
:10029000F5EEC00A10EE100AF1EE10FA38BF401E5B
:1002A00000EE100A1349F7EE001AB8EEC00A30EE5D
:1002B000C00ADFED0F0A20EE200AFCEEC00A10EEA5
:1002C000900AC0F3080000EE900A01EB8000F8EEFF
:1002D000600A90ED011A70EE600A90ED000A71EE6E
:1002E000E01A21EE800A00EE810A704783F9223E6F
:1002F000000000442C880108DFED190AB5EEC00AA1
:1003000060EE200ABDEEE01A11EE100AF1EE10FACE
:1003100038BF401E00EE100A1349F7EE001AB8EE7F
:10032000C00A30EEC00ADFED0F0A60EE200ABCEE14
:10033000E00A10EE100AC0F3080000EE100A01EB0C
:100340008000B8EE400A90ED011A70EEC00A90ED00
:10035000000A71EEE01A21EE800A00EE810A704771
:1003600083F9223E000000442C8801082DE9F05F4B
:100370000546002092469B46884606468146402414
:100380001BE0284641464746224600F072FA534693
:100390005A46C01A914110D311461846224600F021
:1003A00059FA2D1A67EB01084F4622460120002119
:1003B00000F050FA17EB00094E41201EA4F1010491
:1003C000DFDC484631462A464346BDE8F09F40EA16
:1003D00001039B0703D009E008C9121F08C0042AC3
:1003E000FAD203E011F8013B00F8013B521EF9D2AA
:1003F0007047D2B201E000F8012B491EFBD27047D2
:100400000022F6E710B513460A4604461946FFF7E0
:10041000F0FF204610BD421C10F8011B0029FBD143
:10042000801A7047034611F8012B00F8012B002AAF
:10043000F9D1184670472DE9FE4F804681EA030046
:10044000C00F0C46009021F0004123F00045B8EBAE
:100450000200A94105D24046214690461C460B4663
:10046000024623F00040104347D0270DC7F30A008F
:10047000C3F30A510290401A019040286BDAC3F38B
:10048000130040F4801B0098924620B10023D2EB69
:10049000030A63EB0B0B01985946C0F1400250462A
:1004A00000F0D8F906460D4650465946019A00F02C
:1004B000F0F910EB08006141002487EA115284EA48
:1004C000E7731A4340D0009A62B3019A012A4FEAB7
:1004D000075215DC001B61EB02014FF0004202EAFB
:1004E0000752CDE90042001C41F5801132462B46EF
:1004F00000F076FA03B0BDE8F08F40462146F9E7F8
:10050000001B61EB0201001C41F5801300185B41E8
:100510002018A2F5001747EB030140EAD570B61981
:100520006D4111E06D084FEA360645EAC0754FEAA5
:100530000752001B61EB0201001C41F580114908C4
:100540004FEA30000019514132462B4603B0BDE856
:10055000F04F00F036BA0098012240000023D0EBA3
:10056000020263EBE073009821464FEAE074B8EBB7
:10057000000061EB0401E9E783F000435BE781F0F1
:10058000004158E72DE9FE4F81EA030404F00044DE
:1005900021F0004100944FF0000B23F0004350EA9B
:1005A00001045ED052EA03045BD0C3F30A54C1F3E2
:1005B0000A552C44A4F2F3340194A0FB0254C1F375
:1005C000130141F48011C3F3130343F4801301FBBF
:1005D000024400FB034E840A970A44EA815447EA26
:1005E0008357A4FB076802958D0A05FB07854FEA30
:1005F000932C04FB0C542705029D4FEA065847EA4A
:100600001637B5EB08056EEB070C870E920E47EA1E
:10061000811742EA8312A7FB0201B6EB0B0164EBE0
:1006200000042B0D43EA0C335E1844EB1C50DA46F1
:100630005146E7FB0201C5F313044FEA0B3343EACB
:1006400014534FEA0432019C43EA0603A4F10C045C
:100650000294009CCDE900B400F0C2F903B0BDE8FB
:10066000F08F00200146F9E72DE9F04D81EA0304FF
:1006700004F0004B21F0004514464FF0000A23F02F
:10068000004150EA050220D054EA01021DD0C5F312
:100690000A570246C5F31303C1F31300C1F30A5608
:1006A00040F4801543F48013A7EB0608101BD646D0
:1006B00008F2FD3873EB050002D308F1010801E0F0
:1006C00092185B41B8F1000F03DA00200146BDE843
:1006D000F08D00204FF48011064684460EE0171B73
:1006E00073EB050705D3121B63EB050306434CEAC6
:1006F000010C49084FEA300092185B4150EA0107AB
:10070000EDD152EA030012D082EA040083EA050127
:10071000084305D0101BAB4106D20122002306E09E
:1007200000224FF0004302E06FF0010253101AEB79
:1007300006004CEB085110EB0A0041EB0B01BDE841
:10074000F04D00F03EB90EB5C10F80EAE0700844EC
:10075000CA07002140F233438DE80E000A460B46DB
:1007600000F03EF903B000BD00F0004230F0004060
:100770000AD0C10D01F56071C0F3160042EA0151C3
:10078000C20840071143704700200146704700002F
:1007900030B5041E71F1000404DB4FF00044404208
:1007A00064EB0101141E73F1000405DB1C464FF0DD
:1007B0000043524263EB04038B4208BF824230BDC8
:1007C00030B5041E71F1000404DB4FF000444042D8
:1007D00064EB0101141E73F1000405DB1C464FF0AD
:1007E0000043524263EB0403994208BF904230BD7C
:1007F00001F0004330B421F0004150EA010206D07C
:100800000A0DA2F56072C1F31301002A02DC30BCAC
:1008100000207047440F44EAC104C100E01830BC16
:1008200000EBC25000F096B830B50B4601460020F0
:100830002022012409E021FA02F59D4205D303FAA2
:1008400002F5491B04FA02F52844151EA2F1010223
:10085000F1DC30BD202A04DB203A00FA02F100204E
:1008600070479140C2F1200320FA03F319439040EE
:100870007047202A04DB203A21FA02F00021704759
:1008800021FA02F3D040C2F12002914008431946F8
:100890007047202A06DBCB17203A41FA02F043EAE0
:1008A000E07306E041FA02F3D040C2F12002914029
:1008B00008431946704700000FB4002300B589B003
:1008C0000CA900910B996FF00042CB601E4B069370
:1008D0001E4B07930423CDE901321D4A08920246BC
:1008E0006B46002000F07AF909B05DF814FB70B592
:1008F00086B006464FF0FF300091CDE9010100209F
:1009000015460C4604903246694604A8FFF7D4FF0A
:1009100002460498211825B108B1084600E0204697
:100920002860049800280DD0002A02DD0098884233
:1009300008D0081B0094CDE901043246694604A89A
:10094000FFF7BAFF06B070BD150E0008330E0008A1
:10095000D10A00080029A8BF7047401C490008BF01
:1009600020F00100704710B4B0FA80FC00FA0CF0DF
:1009700050EA010404BF10BC704749B1CCF1200417
:1009800021FA04F411FA0CF118BF012121430843A4
:10099000A3EB0C01CB1D4FEA00614FEA102042BFD0
:1009A000002010BC704700EBC35010440029A4BFC6
:1009B00010BC7047401C490008BF20F0010010BC6B
:1009C000704710B5141E73F1000408DA401C41F1A1
:1009D000000192185B411A4301D120F0010010BDC3
:1009E0002DE9F04D92469B4611B1B1FA81F202E039
:1009F000B0FA80F220329046FFF72CFF04460F46F3
:100A000040EA0A0041EA0B0153465A46084313D014
:100A1000114653EA010019D0C8F140025046FFF7D1
:100A200028FF05460E46504659464246FFF712FF3C
:100A3000084305D0012004E020463946BDE8F08D8A
:100A40000020054346EAE0762C4337430A986305C5
:100A5000E40AA0EB08000022FD0A44EA47540A30E9
:100A600002D500200146E9E7010510196941DDE9D9
:100A7000084500196941BDE8F04DA2E7C1F30A52EB
:100A8000C1F3130140F2FF3341F480119A4202DABC
:100A900000200146704740F233439A42A2F23342AB
:100AA00002DC5242FFF7E5BEFFF7D4BE064C074D0D
:100AB00006E0E06840F0010394E80700984710342E
:100AC000AC42F6D3FFF764FB94930108B49301089A
:100AD000C0B24FF4F05100F03BBA00002DE9FF4FD7
:100AE000087881B09946FF2805D0491C2D2804D0EC
:100AF0000024002308E000230BE00124F9E703EBC6
:100B0000830300EB4303491C0878FF28F7D104B1A5
:100B10005B4200200090147801462D2C01D02B2C34
:100B200004D1521C2D2C12D00024009400251678DC
:100B3000FF2E0ED00A24A0FB04C801FB048100276D
:100B400000FB0711521C16EB0C006941EFE7012472
:100B5000EBE7994450EA01020ED00024AA4D264644
:100B6000DFF8A88200F008FA82468B46B9F100004F
:100B700009DAC9F100071BE001980021C0E9001162
:100B800005B0BDE8F08F074612E0F80707D022460F
:100B90002B4630464146FFF7F5FC0646884622467E
:100BA0002B4610461946FFF7EDFC04460D467F1014
:100BB000002FEAD1B9F1000F32464346504659465C
:100BC00002DAFFF751FD01E0FFF7DCFC009A0AB101
:100BD00081F00041019AC2E90001D1E72DE9FF4F00
:100BE0001F468DB0D7E901464FF0FF382E2045460D
:100BF0004FF000090B90B9696D1C0E988847396A4F
:100C0000824688470028F6D1BAF1FF3F0AD024F483
:100C1000D064002E11DDBAF12B0F08D0BAF12D0FE0
:100C20000BD102E0404611B0ABE744F48064B969EF
:100C30006D1C0E9888478246761E6946600501D570
:100C40002D2000E02B208DF8000001F1010B0DF1AB
:100C5000200809E0B9696D1C0E98884782460F98F4
:100C600044F40074761E0560002E02DDBAF1300FE8
:100C7000F0D00B998A453ED144F0800406E00F99EC
:100C8000681CA9F1010944F400740860B9696D1C7D
:100C9000761E0E98884782463028F0D02BE00B99BC
:100CA0008A4505D1200603D444F08004761E18E05E
:100CB000504611F0AFFE08B30DF11301761E44F457
:100CC00000748B4508D2AAF130000BF8010B200606
:100CD00007D5A9F1010003E0200602D409F10100C3
:100CE0008146A00502D50F99681C0860B9696D1C82
:100CF0000E9888478246002ED1DC53E0002E51DD4D
:100D0000BAF1650F02D0BAF1450F4BD1A00549D514
:100D1000B9696D1C24F44074761E0E98884782468B
:100D2000002E0CDD2B2804D0BAF12D0F07D144F48E
:100D30008074B9696D1C0E9888478246761EE0055E
:100D400001D52D2100E02B2108F8011BCDF82C80C6
:100D500021E00DF12901761E44F4007488450CD27F
:100D6000AAF1300010F0FF0088F8000002D10B99C2
:100D7000884509D908F1010806E0E00501D52448B5
:100D800001E042F20F708146B9696D1C0E988847E8
:100D900082460F980560002E04DD504611F03AFEA1
:100DA0000028D6D1F9690E988847FF208BF80000FB
:100DB00088F800000020069007904B466A4608A974
:100DC00006A8FFF78BFEA00502D46FF001002AE70A
:100DD00014F0240F0AD0E00714D1DDE906123868B8
:100DE000031D3B600068C0E900120BE0DDE906016D
:100DF000FFF7FEFC0146E00704D13868021D3A60A7
:100E00000068016028460EE7000024400000F03F23
:100E1000F1D8FFFF426842B1016811F8013B23B1EC
:100E2000521EC0E90012184670470121C160881E99
:100E3000704742685AB1C368016843B983688B42FE
:100E400005D0491E521CC0E90012002070474FF027
:100E5000FF3070472DE9F04D00231A461B1A8A41D6
:100E600003DB00200146BDE8F08DC1F30A52C1F357
:100E7000130141F480154FF0000BD10702D1001887
:100E80006D41521E0027044640F2FF11384601EB27
:100E9000620A3E468046024600204FF48011FFF76A
:100EA000E8FCC2197141BB1846EB0100B4EB030C1E
:100EB00075EB000C04D3E41A65EB000517460E46EB
:100EC000241908F101006D4180463428E3DDF91949
:100ED00046EB0600091BA84103D24FF0FF32134630
:100EE00001E0002213461BEB070046EB0A51BDE868
:100EF000F04DFFF766BD0EB540F23341029100217F
:100F0000CDE900110A460B46FFF76AFD03B000BDAC
:100F100070B5C1F30A5201F000450024C1F313017A
:100F200040F2FF3341F480119A4201DA002070BD93
:100F300040F233439A42A2F2334203DC5242FFF7BB
:100F400098FC00E090402C43F1D0404270BD00007E
:100F50007F2801D9002208E0064A02EB5002C007B0
:100F6000127800D1120902F00F02012090400840CF
:100F700070470000609201080EB540F233420292C1
:100F80000022CDE900221346FFF72AFD03B000BD81
:100F900070B58C1810F8015B15F0070301D110F83B
:100FA000013B2A1106D110F8012B03E010F8016B68
:100FB00001F8016B5B1EF9D12B0705D40023521EEB
:100FC0000DD401F8013BFAE710F8013BCB1A921C53
:100FD00003E013F8015B01F8015B521EF9D5A14251
:100FE000D8D3002070BD10B52DED028BB0EE408A35
:100FF000B0EE480A10F0B0F8BDEC028B10BD10B591
:101000002DED028BB0EE408AF0EE608AF0EE680AB9
:10101000B0EE480A10F09CFBBDEC028B10BD10B581
:101020002DED028BB0EE408AB0EE480AFFF728F9AA
:10103000BDEC028B10BDF0EE400AF5EEC00AF1EEF9
:1010400010FA02DDB0EE600A7047B1EE600AFBE70D
:1010500018B19FED020A80ED000A70470000000001
:1010600018B19FED020A80ED000A704700001E4291
:1010700070B52DED0C8B84B006460C4615469FEDE1
:10108000990AF0EE408A9FED970AB0EE409A9FEDE4
:10109000950AF0EE40BA9FED930AF0EE409A9FED6C
:1010A000910AB0EE40AA0EB104B11DB904B0BDEC76
:1010B0000C8B70BD8C48FFF7CBFF8C48FFF7D0FF3F
:1010C0008A48D0ED000A9FED8A1A60EE810AB0EEE0
:1010D000600A00F02DF9F0EE408A28EEA80AF0EE42
:1010E000408A8248D0ED000AB0EE001A60EE810A14
:1010F0009FED7F1A60EE810AB0EE600A00F018F9E9
:10110000B0EE409A29EE090AB0EE409ADFED790A76
:10111000B7EE000A00EEA80ADFED770A00EEC90A72
:10112000DFED760A20EE200A754880ED000A6E4851
:1011300090ED000ADFED730A80EE201AB7EE000A88
:1011400031EE000A20EE000A6D48D0ED000A80EE74
:10115000801A6D4880ED001A94ED000AB5EEC00AC1
:10116000F1EE10FA0DD194ED010AB5EEC00AF1EEE0
:1011700010FA06D194ED020AB5EEC00AF1EE10FAAB
:1011800046D09FED580AB0EE408A002001900290B0
:101190000390D4ED000A60EEA00A94ED011AD4ED9C
:1011A000011A41EE210A94ED021AD4ED021A41EE21
:1011B000210AB0EE600A00F0A9F8B0EE408A94ED82
:1011C000000A20EE080A8DED010A94ED010A20EED6
:1011D000080A8DED020A94ED020A20EE080A8DED50
:1011E000030ADDED010AF1EE600AB0EE600AFFF7D6
:1011F000FAFEF0EE409A9DED031AF0EE410A9DEDE5
:10120000021AB0EE410AFFF7FAFEB0EE40AA07E07C
:101210009FED340AF0EE409A9FED320AB0EE40AAFC
:1012200095ED000AB5EEC00AF1EE10FA0DD195ED7C
:10123000010AB5EEC00AF1EE10FA06D195ED020AE8
:10124000B5EEC00AF1EE10FA3CD0B0EE690A00F03B
:101250006FF8B0EE408AB0EE690AFFF7E0FEB0EE3C
:1012600040DAB0EE4A0A00F063F8F0EE40AAB0EEC1
:101270004A0AFFF7D4FEB0EE40BA28EE2A0AD5EDAE
:10128000010A20EE200AD5ED000A0DEE200A68EED4
:101290000B0A95ED021A00EE810AB0EE40CA95EDF8
:1012A000010A20EE0B0AD5ED020A0AEEE00AF0EE82
:1012B00040CAF0EE6C0AB0EE4C0AFFF7A0FEF0EE6A
:1012C00040BA03E09FED070AF0EE40BAB0EE4A1ACA
:1012D000F0EE690AB0EE6B0A304612F03FF900BF3B
:1012E000E4E6000000000000C4040020C804002060
:1012F00035FA8E3CC1BFAD3B9DF8C5362F7C1C41F5
:10130000CC040020506CC24AD004002010B52DED52
:10131000028BB0EE408AB0EE480A10F0A1FDB7EEA5
:10132000001AC1EE000AB0EE600ABDEC028B10BDDF
:1013300010B52DED028BB0EE408AB0EE480AFEF7F4
:10134000DBFFBDEC028B10BD2DE9F0412DED028BD2
:101350009AB00546B0EE408A0E46174698460020E1
:101360001790189019901490159016904DB146B1A1
:101370003FB1B8F1000F04D0B5EEC08AF1EE10FA1B
:1013800005D100201AB0BDEC028BBDE8F08196EDCE
:10139000000A8DED170A96ED010A8DED180A96EDFB
:1013A000020A8DED190A97ED000A8DED140A97EDEA
:1013B000010A8DED150A97ED020A8DED160A17AA9E
:1013C00014A9284611F01CFF402104A8FFF718F8C3
:1013D00000200090019002900390002417A904A817
:1013E00015F022FB00BF30E004A800EB041090EDE4
:1013F000000AD5ED000A20EE200A04A800EB041034
:10140000D0ED010A95ED011A00EE810A04A800EB67
:101410000410D0ED020A95ED021A00EE810A04A82C
:1014200000EB0410D0ED030A95ED031A00EE810ADB
:1014300020EE080AF0EE000A80EE201A684600EB63
:10144000840080ED001A601CC4B2042CCCDB0024A4
:1014500010E005EB840090ED000A684600EB840084
:10146000D0ED000A30EE200A05EB840080ED000A82
:10147000601CC4B2042CECDB284614F037FE0120BB
:1014800080E70000F0EE401A9FED310AB0EE401AFE
:101490009FED2F0AB0EE402A9FED2D0AF0EE402A74
:1014A00000BFBDEEE10AB8EEC00A31EEC00AF0EEB0
:1014B000402ABDEEE10A10EE100A4FF4B47190FB21
:1014C000F1F201FB120000EE100AB8EEC00A30EE95
:1014D000220AF0EE402A00BF00BFBDEEE00AB8EEDF
:1014E000C00A30EEC00AB0EE402ABDEEE00A10EEAF
:1014F000100A90FBF1F201FB120000EE100AB8EEA8
:10150000C00A30EE020AB0EE402A00BF32EEC20A34
:10151000B0EE401A9FED0F0AB4EEC01AF1EE10FAC9
:1015200006DD9FED0D0A31EE400AB0EE401A0CE0E8
:101530009FED0A0AB4EEC01AF1EE10FA05D29FED43
:10154000060A31EE000AB0EE401A30EE810A70470A
:1015500000000000000034430000B443000034C326
:1015600010B500F0E5FD1D4800F0BEFD18B10220E9
:101570001B49087002E001201949087018480078DA
:10158000022803D14FF47A7005F000FA0BF0ACFE9C
:101590000BF094FE01F0BAFA09F06AFA02F046FF85
:1015A00002F0ACFD03F0CEF80D48007802280CD113
:1015B00003F06AFA03F0FCFE0BF09CFB15F0B0FFA1
:1015C00012F0FAFC13F0EAFB07E005480078012866
:1015D00003D101F057FC01F0BBFF10BD447F002098
:1015E0006002002005205349487108460068407A8F
:1015F000012802D10320887110E04E480068407A2B
:10160000032803D102204B49887107E0494800684C
:10161000407A022802D10420464988714548006872
:10162000B0F9020000EE100AB8EEC00ADFED420A7F
:1016300080EE201A9FED410A21EE000A3D4880ED20
:10164000020A0068B0F9000000EE100AB8EEC00A05
:10165000DFED390A80EE201A9FED380A21EE000AEC
:10166000344880ED030A0068B0F9060000EE100A65
:10167000B8EEC00ADFED320A20EE200A2D4880EDD8
:10168000070A0068B0F90400404200EE100AB8EE04
:10169000C00ADFED2C0A20EE200A264880ED080A59
:1016A0004079052844D101202249C8710846C079F3
:1016B000022806D1244880780D2839D10120C8712C
:1016C00036E01C48C079012832D11F4880780D28A7
:1016D00003D102201749C8712AE01B4880780E28E0
:1016E00004D01A4890F80D04012804D101201149B2
:1016F00081F830001CE014480078022812D1144808
:101700000068401C1249086008460068322804D965
:101710000120084981F830000AE00020054981F8DD
:10172000300005E00020034981F8300008490860D6
:1017300070470000989200200000254400007A4580
:101740006F12833A6F12033BFF0100205496002072
:101750003402002005205249487108460068407A4A
:10176000012802D10320887110E04D480068407ABA
:10177000032803D102204A49887107E048480068DD
:10178000407A022802D10420454988714448006803
:10179000B0F9020000EE100AB8EEC00ADFED410A0F
:1017A00080EE201A9FED400A21EE000A3C4880EDB1
:1017B000020A0068B0F9000000EE100AB8EEC00A94
:1017C0009FED381AC0EE010A9FED370A20EE800A1D
:1017D000334880ED030A0068B0F9060000EE100AF5
:1017E000B8EEC00ADFED310A20EE200A2C4880ED69
:1017F000070A0068B0F90400404200EE100AB8EE93
:10180000C00ADFED2B0A20EE200A254880ED080AE9
:101810004079052842D12248C079022807D12548BD
:1018200080780D283AD101201D49C87136E01C4846
:10183000C079012832D11F4880780D2803D10220B9
:101840001749C8712AE01B4880780E2804D01A482E
:1018500090F80D04012804D10120114981F83000CD
:101860001CE014480078022812D114480068401C7B
:101870001249086008460068322804D90120084946
:1018800081F830000AE00020054981F8300005E0C9
:101890000020034981F830000849086070470000C3
:1018A000989200200000254400007A456F12833A88
:1018B0006F12033BFF0100205496002038020020E5
:1018C00010B501221021024805F062FA10BD000097
:1018D0000000024010B500221021024805F058FA1D
:1018E00010BD0000000002407047000010B501224A
:1018F0001146024805F04CFA10BD000000040240F9
:1019000010B500220121024805F042FA10BD000086
:1019100000040240704710B50446204613F058FA00
:1019200010BD10B50446204600F024FA10BD10B5D5
:101930000024FFF7D9FFFFF7EDFF11F091FF10B181
:1019400044F0800402E011F0F1FE044312F080F94B
:1019500010B144F0400402E012F000F904432046C4
:1019600010BD00002DE9FC4105460E46174600203B
:1019700000900190FFF7AEFF922000F0D1F8062210
:101980006946122000F0ACF8FFF79AFF9DF80100BD
:10199000000200B29DF8001040EA010400EE104A77
:1019A000B8EEC00A4C48D0ED000A20EE200A86EDC1
:1019B000000A9DF80300000200B29DF8021040EA00
:1019C000010400EE104AB8EEC00A4348D0ED000A08
:1019D00020EE200A86ED010A9DF80500000200B203
:1019E0009DF8041040EA010400EE104AB8EEC00A67
:1019F0003948D0ED000A20EE200A86ED020AFFF7F2
:101A00007FFF08226946002000F06AF8FFF76EFFAA
:101A10009DF800000F2838D19DF80300000200B2A5
:101A20009DF8021040EA010400EE104AB8EEC00A28
:101A30002A48D0ED000A20EE200A85ED000A9DF824
:101A40000500000200B29DF8041040EA010400EE17
:101A5000104AB8EEC00A2148D0ED000A20EE200A54
:101A600085ED010A9DF80700000200B29DF80610FE
:101A700040EA010400EE104AB8EEC00A1748D0ED63
:101A8000000A20EE200A85ED020AFFF723FFA220BC
:101A900000F046F802226946222000F021F8FFF704
:101AA0000FFF9DF80000C0009DF8011040EA61148E
:101AB000B4F5806F02DBA4F5006004B200EE104ABA
:101AC000F8EEC00AB4EE001AB3EE070A00EE810A7F
:101AD00087ED000ABDE8FC813001002034010020C0
:101AE00070B506460C46154646F0800000F018F822
:101AF00006E0552000F014F82070641C681EC5B282
:101B0000002DF6D170BD70B504460D4644F080003E
:101B100000F006F8552000F003F8287070BD0000B2
:101B200001B582B04FF47A70012301AA02A9009096
:101B3000024807F017F99DF804000EBD240C0020A0
:101B400070B505460C462846FFF7EAFF2046FFF72A
:101B5000E7FF70BD30B58BB005460C4606940020FB
:101B600007900120089000200190029003900490BB
:101B70000590012009900E200A9001A9284603F043
:101B8000BBFF08B102F001FE0BB030BD70B50446DA
:101B90000D460F492068884204D100212046FFF7F6
:101BA000D9FF07E00B492068884203D10E21204667
:101BB000FFF7D0FF204604F020FC08B102F0E5FD5D
:101BC0002946204603F0DEFE08B102F0DEFD70BDBE
:101BD00000640040006800402DE9F04104460E46D4
:101BE0001746984614B90120BDE8F0812660002010
:101BF00084F824002762C4F828804FF480731022F0
:101C00003946201D12F0DCFB00250EE0094850F893
:101C1000250040B903213046FFF7B8FF054840F8DA
:101C200025400020E0E7681CC5B2022DEEDB012054
:101C3000DAE70000B400002002460AB9012070472C
:101C400009B90120FBE791620020F8E72DE9FF5F69
:101C50000446894692461D464FF0010B5746CDF883
:101C60000090002600BF00BFEFF31080804600BF49
:101C700072B600BF25E0201D12F0B7FB18B100209E
:101C800084F824001FE0A81B082803DB08208DF837
:101C9000040003E0A81BC0B28DF804003868CDF83A
:101CA00005007968CDF809109DF8040007449DF8F7
:101CB0000400304486B26946201D12F09DFB4FF0AF
:101CC000000BAE42D7DB00BF00BF00BF88F3108817
:101CD00000BF00BF00BF94F8240030B9201D12F0EF
:101CE0007DFB10B9204600F0D9FD584604B0BDE890
:101CF000F09F0000074800680749B0FBF1F0074972
:101D00000870044800684FF47A71B0FBF1F00449A0
:101D1000086070473400002040420F00BC000020E3
:101D2000C000002070B503460024002100200022DE
:101D300000254FF0E02675690D4E366803FB06F46A
:101D40004FF0E026B16910E04FF0E026B06988421C
:101D50000BD0884202D20E1A324402E02E1A0E44F0
:101D600032440146A24200D300E0EDE700BF70BD5F
:101D7000C000002070B5034600240021002000228E
:101D800000254FF0E02675690D4E367803FB06F40A
:101D90004FF0E026B16910E04FF0E026B0698842CC
:101DA0000BD0884202D20E1A324402E02E1A0E44A0
:101DB00032440146A24200D300E0EDE700BF70BD0F
:101DC000BC00002030B587B005460C46284600F020
:101DD00011F804900020029002200690059404F06F
:101DE00091FE01A902A804F0E5FD04F039FE07B058
:101DF00030BD000001460020304A914203D2B1F1CB
:101E0000006F00D358E02E4A914204D22B4A9142EF
:101E100001D3012050E02B4A914204D2284A91423A
:101E200001D3022048E0284A914204D2254A914237
:101E300001D3032040E0254A914204D2224A914234
:101E400001D3042038E0224A914204D21F4A914231
:101E500001D3052030E01F4A914204D21C4A91422E
:101E600001D3062028E01C4A914204D2194A91422B
:101E700001D3072020E0194A914204D2164A914228
:101E800001D3082018E0164A914204D2134A914225
:101E900001D3092010E0134A914204D2104A914222
:101EA00001D30A2008E0B1F1016F04D20D4A91423A
:101EB00001D30B2000E00B20704700000040000819
:101EC0000080000800C000080000010800000208AF
:101ED00000000408000006080000080800000A08C6
:101EE00000000C0800000E08014600202D4A914217
:101EF00004D2B1F1006F01D3104651E02A4A914259
:101F000004D2284A914201D3274849E0274A914206
:101F100004D2254A914201D3244841E0244A914207
:101F200004D2224A914201D3214839E0214A914208
:101F300004D21F4A914201D31E4831E01E4A914209
:101F400004D21C4A914201D31B4829E01B4A91420A
:101F500004D2194A914201D3184821E0184A91420B
:101F600004D2164A914201D3154819E0154A91420C
:101F700004D2134A914201D3124811E0124A91420D
:101F800004D2104A914201D30F4809E00F4A91420E
:101F900004D20D4A914201D30C4801E04FF0016098
:101FA00070470000004000080080000800C00008E2
:101FB00000000108000002080000040800000608F4
:101FC0000000080800000A0800000C0800000E08C5
:101FD00070B504460D461646B20021462846FEF767
:101FE000F6F970BD2DE9F04104460D46164604F0A1
:101FF00089FD1E4804602046FFF776FF1C490860F3
:102000001C48056000201C49086023E0194800684E
:1020100007683A46002315480168022004F02AFDAB
:1020200098B912480068001D1049086011480068FE
:10203000001D1049086010480068401C0E490860E7
:1020400008460068B04205D10AE004F009FD01200D
:10205000BDE8F08105480068054909688842D5D97E
:1020600000BF04F0FDFC0020F2E70000C4000020E7
:10207000C8000020CC000020D000002010B504468D
:102080000CB9012010BD2260636021720020F9E7C5
:1020900030B504460D460CB9012030BD25606260A4
:1020A00005202072E36000210AE0074850F8210073
:1020B00020B9054840F821400020EEE7481CC1B295
:1020C0000A29F2DB0120E8E7FC4E002070B5044647
:1020D0000D4616462560666004202072D4E9000192
:1020E00007F05CFB002070BD10B50446A28891B2D9
:1020F000206804F045FE10BD42681AB902681268F3
:10210000516310E04268042A03D1026812689163A7
:1021100009E04268082A03D102681268D16302E02C
:10212000026812681164704710B504F037FE10BDE4
:1021300008B5FFF7DFFD4FF48053344A03213448DC
:10214000FFF79CFF334B012233493448FFF7A0FFD0
:10215000082233493348FFF7B9FF04223049324897
:10216000FFF7B4FF00222E493048FFF7AFFF0022EF
:102170002F493048FFF7AAFF08222F492F48FFF7C1
:10218000A5FF08222E492F48FFF7A0FF2E492F4810
:1021900000F0DEF84FF480602D4B42102D49009086
:1021A0002A4800F026F900234FF400722A492748F4
:1021B00000F0ECF829492A4800F0CAF84FF4806092
:1021C000284B421028490090254800F012F90023BE
:1021D0004FF400722549224800F0D8F824492548D8
:1021E00000F0B6F800231E222349224800F0CEF862
:1021F0000023224A22492348FFF7EEFC0023224A0B
:1022000022492348FFF7E8FC08BD00000004024013
:10221000447F0020D94B010800000240B47F002019
:10222000540D0020547F0020647F0020747F002024
:102230009C0D0020847F00200C0D0020947F002046
:10224000C40C0020A47F0020740E0020C47F002056
:1022500024510020244F002024550020E40D0020AC
:10226000008000202459002024570020245D0020F5
:102270002C0E00203C800020245F0020425F0020C4
:10228000800B002078800020426F0020A80B0020E7
:10229000A4800020F8B5044600262068006800F0FD
:1022A0001000102846D12068C06800F010000028F7
:1022B00040D0E06B0068006820F00100E16B096825
:1022C000086000252CE0214850F8250000680068CF
:1022D0002168884222D11D4850F82500C088E16B52
:1022E00009684968401A86B2184850F82500C06845
:1022F00048B1164951F825108868144951F825103D
:10230000CA6831469047114850F82500C2880F48E6
:1023100050F825008168204607F03EFE681CC5B2D3
:10232000032DD0DBE06B0068006840F00100E16B3A
:102330000968086000BF00200090206800680090D5
:1023400020684068009000BF00BFF8BDD08000202A
:1023500070B504460D460CB9012070BD3C212046E5
:10236000FEF74EF8256000210AE0074850F82100EA
:1023700020B9054840F821400020EEE7481CC1B2D2
:102380000329F2DB0120E8E7D0800020F8B50446FD
:102390000D4616461F460CB90120F8BD01202071DC
:1023A000A560E680E76000BF00200090206800681C
:1023B00000680090206800684068009000BF00BF7F
:1023C00020680068C06840F0100021680968C86093
:1023D000E288A168206807F0DFFD0020DDE7024603
:1023E0000AB90120704709B90120FBE7D16000203C
:1023F000F8E72DE9F04104460E4617461D46DDF884
:10240000188014B90120BDE8F081012020746661B4
:1024100027836563A4F83880002084F83A00424698
:10242000294604F11C0012F07FF80020EBE72DE9AB
:10243000F04704468846174614B90120BDE8F087E6
:10244000207C08B90120F9E794F83A0090B9208B74
:10245000B84202DD3D46002614E0208B218F08445F
:10246000B84204DD258B208B381A86B20AE0258B12
:10247000268F07E0208FB84202DD00253E4601E0AE
:102480000025268F002D0CDD2A4641466069FDF7A8
:102490009EFF012084F83A002A466169206807F00F
:1024A000B1FD002E0DDD08EB0501324604F11C00E4
:1024B00012F045F800F0FF09B14501D00120BDE759
:1024C00000BF0020BAE7000010B5FFF72DFE04465C
:1024D0004FF47A70B4FBF0F0032800D210BD1C4812
:1024E0000068201A40F6C411884208D919480078BB
:1024F00019490870164804601848046025E0164819
:10250000007810B315480068201A154909888842D8
:1025100005D296214FF4FA7000F080F815E00F48CC
:102520000068201A0E4909880E4A12881144884210
:1025300004D20021084600F071F806E00648007851
:10254000401E054908700548046000BFC6E700004A
:10255000240100201C0100202C0100202801002063
:102560001E01002020010020024A1080024A118032
:10257000704700001E010020200100200149087062
:10258000704700001C01002070B52DED068B04463D
:10259000B0EE408A02F062FA0546606828B96560CC
:1025A00025600020BDEC068B70BD6068281A21698B
:1025B000884202D9A5600120F4E718EE100AFEF760
:1025C000D3F841EC1A0BB0EE4A0AF0EE6A0A0FF0AB
:1025D0000FFBB0EE409AF0EE609A9FED0A0B53ECC1
:1025E000102B51EC190BFEF7D3F807D22068281AEC
:1025F000E168884203D9A5600120D3E72560002067
:10260000D0E70000000000000000494000234360C4
:102610008360C1600261704700BFFEE770B5044689
:102620000D46044800680068C46229460148FFF767
:1026300063FD70BD947F002010B5024803F0D7FB06
:1026400010BD0000800B002070B505460E461446F4
:10265000281E09D0A0F2052000B3A0F2FB2038B359
:10266000B0F5007F36D12CE031461C4811F0A0FDBA
:10267000062009F053FC194890ED080A184880ED2F
:102680007E0A164890ED090A154880ED7F0A134826
:1026900090ED0A0A124880ED800A1CE01049D1F83A
:1026A0000802314609F04DFB052009F037FC12E025
:1026B000A2B231460B4801F0C4FC0F2009F02EFCF9
:1026C00009E0A2B23146084801F0BBFC0E2009F037
:1026D00025FC00E000BF00BF70BD0000E8850020C1
:1026E00054960020209F0020CCA3002070B5044603
:1026F0000E461546B4F5C06F05D1AAB2314603485F
:1027000001F09FFC00E000BF00BF70BD10B50020CD
:1027100070B504460D462B4622464FF4E061024850
:10272000FFF794FA70BD00007880002010B50248D1
:1027300003F05DFB10BD0000800B002070B5044667
:102740000D462B4622464FF4C0610248FFF77EFA41
:1027500070BD00007880002070B504460D462B4601
:1027600022464FF4A0610248FFF770FA70BD0000E6
:102770007880002010B5024803F039FB10BD00003E
:10278000A80B00202DE9F04104460D461746A4F29F
:102790000120082841D2DFE800F0040E1822404052
:1027A0002C3602F047F90646294609F0CAFA0820F5
:1027B00009F0B4FB32E002F041F90646294609F07F
:1027C000C0FA092009F0AAFB28E002F03BF906460E
:1027D000294609F0B6FA0A2009F0A0FB1EE002F033
:1027E00035F90646294609F0ACFA0B2009F096FBAC
:1027F00014E00BF055FA0646294609F0A2FA0C201F
:1028000009F08CFB0AE00BF04FFA0646294609F066
:1028100098FA0C2009F082FB00E000BF00BFBDE881
:10282000F08100002DE9F04104460D46164640F2C5
:102830000321601A8C420DD005DCA4F2012038B1CE
:1028400001281DD105E0012805D00E2818D112E07D
:1028500000BF00BF00BF601EC7B2C7EBC7020A4976
:1028600001EB02110868294609F06BFA791CC8B21D
:1028700009F054FB05E0F1B228460AF073FD00E0D0
:1028800000BF00BFBDE8F081F4AD002010B50248E4
:1028900003F0ADFA10BD0000A80B002030B58BB0DE
:1028A00004460CB90BB030BD00BF00BFEFF3108081
:1028B000054600BF72B600BF201D11F08FFD00BBA2
:1028C00015E007A9201D11F05CFD0798019000207C
:1028D000039004909DF820000590012084F82400C6
:1028E0006B460DF1210201A9206803F060F8206811
:1028F00003F062FA40B1201D11F070FD0028E0D015
:1029000002E0002084F8240000BF00BF85F3108897
:1029100000BF00BF00BF00BFC4E70346042B15D0B3
:1029200007DC7BB1012B0ED0022B0DD0032B12D173
:102930000BE0202B0BD0212B0AD0222B09D0232BEC
:1029400009D107E008E007E006E005E004E003E065
:1029500002E001E000E000BF00BF0020704700205F
:102960007047000010B50022044905480BF0D7FF5E
:10297000044903480BF0C4FF002010BD5CCF0020C9
:1029800080C200205CC7002070B505460C460F4889
:102990000068216808440D490860084600683C2822
:1029A0000AD2084600680A4A81180A480BF0A8FFB4
:1029B00008480BF071FF06E001200449087100206F
:1029C0000968034A5054002070BD0000180400201C
:1029D0005CC7002080C200202DE9F04104460D466E
:1029E0000948D0F8BC62D6F8140210B10120BDE845
:1029F000F0812A46214604480BF091FF02480CF072
:102A000041F807463846F2E780C2002010B5034679
:102A10000C460021084610BD70B504460D46204600
:102A200014F01CFC70BD000070B504460D462A462B
:102A30002146034801F005FB0E2009F06FFA70BD36
:102A400068BC002070B500EB40040C4D05EB84041D
:102A5000647862F3060400EB4005084E06EB85053A
:102A60006C7000EB4004354605EB8404616000EBBC
:102A7000400405EB8404A36070BD0000B094002006
:102A800000BF2049086800F0FFF8002432E004EBA2
:102A900044001D4901EB80004078C00940B304EBBD
:102AA000440001EB8000806810B304EB4401164B36
:102AB00003EB8101486804EB440103EB81018A6860
:102AC00001219047A0B1552004EB44010E4A02F8C1
:102AD000210004EB4400114601EB8000407820F017
:102AE000800004EB440102EB8101487000F08CF996
:102AF000601CC4B2042CCADBFFF7E6FC0A2012F00B
:102B000067F9BEE798920020B094002010B588B015
:102B10000024294B0C2229490120FFF793FF00F0E4
:102B20005BF800BF1BE004EB4400254911F82000CE
:102B3000552812D104EB440001EB8000806860B19D
:102B400004EB44011E4B03EB8101486804EB440194
:102B500003EB81018A6800219047601CC4B2042CF9
:102B6000E1DB4FF47A7012F033F916480068007A0E
:102B7000022811D113480068407A02280CD112486B
:102B8000006812F07DF91148006812F079F9002010
:102B90000C494871887101E008B010BD1C220C4935
:102BA00001A8FDF714FC002101A812F03AF9094927
:102BB000086000BFF0E700003D5900088C94002039
:102BC000B094002098920020F401002050020020D0
:102BD0006887010864020020F8B50024002500BFC2
:102BE0004AE004EB4400264901EB8000407800F005
:102BF0007F06F31706EB93739A1004EB44030F461A
:102C000007EB830359681F4BE818FFF7E1F904EB62
:102C10004400394601EB8000407800F07F002844F2
:102C200085B21849681801226946FFF7D1F99DF865
:102C3000000004EB44013A4602F82100681C85B20A
:102C400004EB4400114611F82000552812D004EB83
:102C5000440001EB8000806860B104EB440001EBAC
:102C60008000407820F08000803004EB440102EBCB
:102C700081014870601CC4B2042CB2DBF8BD0000B6
:102C8000B094002000000A0870B50546002057499E
:102C9000087012E05548007800EB4000544901EB01
:102CA00080004078C00918B100205249086070BD0A
:102CB0004E480078401C4D4908704C480078042864
:102CC000E8DB284609F0F6FA04464B480078052868
:102CD00023D2DFE800F0032356637800012C05D1EE
:102CE00044480068401C4349086002E00020414914
:102CF000086040480068C82805D901203E4908708E
:102D000000203C49086032210846FFF72DFC1920BD
:102D1000FFF734FC394810F021FA64E04FF4FA71FF
:102D20000846FFF721FC0120FFF728FC334810F08C
:102D300015FA022C03D0032C01D0042C05D12D4808
:102D40000068401C2B49086002E000202949086007
:102D500028480068C82813D9022C03D1022026492C
:102D600008700AE0032C03D103202349087004E013
:102D7000042C02D104202049087000201D4908605D
:102D800031E00220FFF7FAFB1D4810F0E7F90020C0
:102D90001849086001201849087024E00320FFF753
:102DA000EDFB4FF0FF2010F0D9F900201149086029
:102DB0000120114908700E48407B20F080008030CF
:102DC0000B4948730FE000200A49086001200A49B6
:102DD00008700C4809F024F80A4809F021F809485D
:102DE00009F01EF800BF00BF00BF60E768020020C6
:102DF000B09400206C02002070020020FF0000FF51
:102E00000000FFFFA480002070B50024002500BF53
:102E100025E004EB4403184E06EB83035B7803F0D4
:102E20007F0204EB440306EB83035968134B5819E4
:102E3000FDF7CDFA04EB4400314601EB8000407809
:102E400000F07F00284485B20C4804EB4401324670
:102E500012F821104155681C85B2601CC4B2042CC4
:102E6000D7DB01210648FEF7ADFF192203490448CC
:102E7000FFF7B8F870BD0000B0940020E094002087
:102E800000000A0838B501F001FB5D49086007F051
:102E900013FD5B4948605B488860002008739FED24
:102EA0005A0A084680ED040A9FED580A80ED050A8B
:102EB0009FED560A80ED060A9FED550A80ED070A40
:102EC0009FED530A80ED080A002421E0204600F01F
:102ED00093F9C4EBC4024A49243101EB02110860A2
:102EE000C4EBC4024649243101EB0211081DDFED99
:102EF000482A9FED472ADFED471AB1EE0A1ADFEDA7
:102F0000460A9FED460A032112F018FA601CC4B26B
:102F1000042CDBDBDFED3E2AB0EE002ADFED3C1AAD
:102F2000B1EE001ADFED3E0A9FED3E0A03213E4856
:102F300012F004FA0023642201210E2008F0D0FFD1
:102F4000032364220121102008F0CAFF0023642219
:102F50000121112008F0C4FF344B4FF48062344942
:102F6000344801F03FF934484FF48063334AAA21D2
:102F70000090334801F08AF8324B4FF40072324926
:102F8000324801F02FF932484FF40073314AA5213D
:102F90000090314801F07AF80A2200212F480AF007
:102FA00023F90A2200212E480AF01EF9642200218A
:102FB0002C480AF019F92C4B4FF400722B492C487D
:102FC00001F010F91E2200212A480AF00DF92848C4
:102FD00000F0F0FE28492948FFF701FA284929485E
:102FE000FFF7FDF928492948FFF7F9F92849294849
:102FF000FEF722FE28490348FEF71EFE38BD0000FA
:10300000D0AD0020A4800020D053FB430080A24319
:1030100000000000CDCCCC3D0000FA4400007A4610
:103020000000484200009643B4AF00205927000832
:1030300010B1002064B00020D90C0108BCB50020FC
:1030400010B500201127000868BA0020BCB9002084
:1030500005C5000814BD002068BC002041DC000844
:103060004531000849D40008DD3F0008C0BF0020FA
:1030700014BF0020113A0008C54400083C8000201D
:10308000292A0008C47F002095C100080080002084
:10309000ED260008788000202528000813480068E5
:1030A000807918B90020114908731EE00F480068A4
:1030B0008079012802D10D49087316E00B48006899
:1030C0008079022802D1094908730EE00748006898
:1030D0008079032802D10549087306E00348006897
:1030E0008079042801D1014908737047D0AD0020D0
:1030F00010B51248006890ED020A1048D0ED920A0F
:1031000030EE200A80ED950A006890ED030A0B4826
:10311000D0ED930A30EE200A80ED960AD0EDA00A99
:10312000F1EE600AB0EE600ADFED050A00F5F2701C
:1031300011F0DEFF014880ED970A10BDD0AD0020F0
:103140000000000030B52DED048B81B0054600F085
:103150003BF804461848D0F85402C4F80100164859
:10316000D0F85802C4F805001348007B20701248BC
:10317000406890ED020A10EE101A0846FDF7F4FAC6
:1031800041EC190B9FED0D0B53EC102BFDF7FAF9E9
:1031900041EC180BFDF72CFBC4F809000D20234669
:1031A0000222AA210090074800F0BCFF002001B0D5
:1031B000BDEC048B30BD0000D0AD002066666666B5
:1031C00066A64C4064B00020004870472281002071
:1031D0002DE9FC4104460D4616461F460549CDE93A
:1031E00000672B46224688684FF4007108F042FEC3
:1031F000BDE8FC81D0AD0020014601EBC100024AD0
:1032000002EB800070470000F883002070B501F0E9
:103210002BFE04460DF090FD054654F8050F00EE18
:10322000100AB1EE400A174880EDA00A4068D0EDC0
:103230005A0A606800EE100A30EEC00A114880EDAC
:10324000A20A406890ED5B0A0E4880EDA30A406830
:10325000D0ED5C0AA06800EE100A30EEC00A094802
:1032600080EDA10AD4F815000649C1F84802D4F847
:103270001900C1F84C02D4F81D00641FC1F85002B7
:1032800070BD0000D0AD00200848006890ED020A33
:103290000648D0ED920A30EE200A80ED950A0068CB
:1032A00090ED040A014880ED970A7047D0AD0020E8
:1032B00010B52DED048B4E48006890ED020A4C4885
:1032C000D0ED920A30EE200A80ED950A006890ED6C
:1032D000030A4748D0ED930A30EE200A80ED960AA3
:1032E00090ED950A10EE101A0846FDF73DFA41ECF4
:1032F000190BB0EE490AF0EE690A0EF079FCB0EE57
:10330000408AF0EE608A9FED3B0B53EC102B51ECA2
:10331000180BFDF73DFA22D2354890ED960A10EED3
:10332000101A0846FDF720FA41EC190BB0EE490AD5
:10333000F0EE690A0EF05CFCB0EE408AF0EE608AB6
:103340009FED2C0B53EC102B51EC180BFDF720FAD2
:1033500005D29FED2A0A264880ED970A44E02448CA
:1033600090ED950A10EE101A0846FDF7FDF941ECB4
:10337000190BB0EE490AF0EE690A0EF039FCB0EE16
:10338000408AF0EE608A9FED1E0B53EC102B51EC3F
:10339000180BFDF7FDF922D2154890ED960A10EEB4
:1033A000101A0846FDF7E0F941EC190BB0EE490A96
:1033B000F0EE690A0EF01CFCB0EE408AF0EE608A76
:1033C0009FED0F0B53EC102B51EC180BFDF7E0F9B0
:1033D00005D29FED0A0A064880ED970A04E09FEDAA
:1033E000070A034880ED970ABDEC048B10BD00006E
:1033F000D0AD00200000000000407F400000FA43F4
:103400000000000000408F409FED060A064880ED56
:10341000950A9FED040A80ED960A9FED020A80ED61
:10342000970A704700000000D0AD002000BFFFF7F2
:10343000EDFEFFF733FE4348007B012806D002284B
:1034400007D0032808D004280CD108E0FFF7DCFFE0
:1034500009E0FFF74DFE06E0FFF716FF03E0FFF778
:1034600027FF00E000BF00BF364800F085F80024C9
:103470003DE0354800EB840090ED000AC4EBC40148
:103480003048243000EB011080ED1A0AC4EBC4026E
:103490002C49243101EB021191ED1A1AF0EE410A88
:1034A000C4EBC4022749243101EB02110968B1F9C8
:1034B000041001EE101AB8EEC11AB0EE410AC4EBC6
:1034C000C4022049243101EB0211081D11F010FE45
:1034D000BDEEC00A10EE100A01B2C4EBC4021948D6
:1034E000243000EB0210A0F86C10601CC4B2042C55
:1034F000BFDB144800F05AF81248007B70B9002076
:103500000AE00022C0EBC0030E49243101EB031195
:10351000A1F86C20411CC8B20428F2DB094CB4F9B4
:10352000E031B4F97021B4F90011B4F99000FFF75B
:103530004FFE0A2011F04CFC002013F0C7FA03499B
:10354000086074E7D0AD002030B000207003002088
:1035500000B587B01C2206496846FCF738FF0021F9
:10356000684611F05EFC0349086007B000BD00002A
:10357000C48701086C03002010B50446094A0A49B3
:10358000204600F019F994ED970AB0EE401A05486C
:10359000D0ED000A044890ED000A204608F070F9CA
:1035A00010BD0000680300206403002070B52DEDFD
:1035B0000E8B04469FED780AB0EE40EA9FED760A46
:1035C000B0EE408A9FED740AF0EE408A9FED720AD9
:1035D000B0EE409A9FED700AF0EE409A08F08CFF32
:1035E00005461DB10E2000F035F920B19FED6B0AA4
:1035F000B0EE40EA5AE0022D01D00C2D04D19FED2F
:10360000680AB0EE40EA51E009F008F8008900EEDF
:10361000100AB8EE400AB0EE409A09F003F840896B
:1036200000EE100AB8EE400AF0EE409A9FED5D0AF7
:10363000B4EEC09AF1EE10FA14D2F1EE040AB4EE30
:10364000E09AF1EE10FA04DDDFED560A89EE200A69
:1036500001E09FED550ADFED510A60EE200AB0EE61
:1036600060EA23E09FED510AF4EEC08AF1EE10FA11
:1036700018DDF4EEE98AF1EE10FA08D279EEE80AE4
:103680009FED4A1A39EEC11A80EE810A01E09FEDE2
:10369000420ADFED420A9FED461A41EE000AB0EE03
:1036A00060EA03E09FED430AB0EE40EA002627E01F
:1036B000C6EBC60204F1240101EB0211B1F96C0062
:1036C000FDF741F841EC1D0BB0EE4D0AF0EE6D0A2E
:1036D0000EF08EFAB0EE40BAF0EE60BA18EE100AB4
:1036E000FDF742F841EC1C0B53EC1B2BFCF7A3FE3F
:1036F00041EC1A0BFDF77CF808EE100A701CC6B2FC
:10370000042ED5DBB4EECE8AF1EE10FA40DDCEEE1B
:10371000080AB0EE600AB4F9900000EE900AF8EEE4
:10372000E00A60EE800AFDEEE00A10EE900A01B2B7
:10373000A4F89010B4F9000100EE900AF8EEE00A47
:1037400060EE800AFDEEE00A10EE900A01B2A4F8E5
:103750000011B4F9700100EE900AF8EEE00A60EE94
:10376000800AFDEEE00A10EE900A01B2A4F8701192
:10377000B4F9E00100EE900AF8EEE00A60EE800A8B
:10378000FDEEE00A10EE900A01B2A4F8E01100BFCD
:10379000BDEC0E8B70BD00000000000000007A46FA
:1037A00000007A4700004842CDCCCC3D00002042CA
:1037B00000409C4600A00C4770B52DED028B0446DE
:1037C0000D46164694EDA00ADFED1F0A80EE201A82
:1037D000B0EE418AB0EE480AFCF78EFD1B4880ED42
:1037E000000A94EDA00ADFED180A80EE201AB0EE70
:1037F000418AB0EE480AFCF743FD154880ED000A07
:1038000094ED950A1148D0ED000AF1EE600A20EE21
:10381000200AD4ED960A0E4890ED001A01EE200A17
:1038200086ED000A94ED950AD0ED000A20EE200AFC
:10383000D4ED960A054890ED001A01EE200A85EDB8
:10384000000ABDEC028B70BD333365424803002093
:103850004C0300200146044800EB0110C078012809
:1038600000D170470020FCE74893002038B505469A
:103870000C464FF4807000F0C5FA8DF800508DF8BA
:1038800001400221684600F0F1FA38BD2DE9F05FF1
:103890002DED028B04460D4616461F46B0EE408ABB
:1038A000DDE90EABDDE90C891CB9BDEC028BBDE88E
:1038B000F09F0F212046FCF7A3FD2846FCF7ABFD47
:1038C000032800D9F1E729462046FCF7ABFD14F8A0
:1038D000030F20F00700401C2070207820F03800F3
:1038E00028302070208866F38910208007F57070DA
:1038F000B4F8051060F38C01A4F8051008F51670F3
:10390000E18860F34F11E180B4F8010069F38E1093
:10391000A4F801000121608861F3CF106080A088C5
:103920006AF30900A08060786BF3850060709FEDFA
:103930000A0A28EE000ABDEEC00A10EE100AA060C6
:10394000E41E40F2011000F05DFA0F21204600F065
:103950008DFA00BFA9E7000000007A442DE9F05F6E
:1039600004460D4616461F46DDE90CABDDE90A8923
:103970000CB9BDE8F09F0F212046FCF741FD284619
:10398000FCF749FD032800D9F3E729462046FCF758
:1039900049FD14F8030F20F00700401C2070207828
:1039A00020F038002070208866F38910208007F509
:1039B0007070B4F8051060F38C01A4F8051008F5D8
:1039C0001670E18860F34F11E18009F57070B4F86A
:1039D000091060F38C01A4F809100AF516706189CA
:1039E00060F34F116181A0886BF30900A0806178BA
:1039F0000E9860F385016170E41E40F2011000F042
:103A000001FA0F21204600F031FA00BFB1E70000B3
:103A1000F0B52DED028B83B0074608F06DFD04462E
:103A2000204600F0FBF904F5807000F0F1F912F087
:103A300031FE01F019FA06466948008801287BD159
:103A40006848407801280CD10221674800F0BAF993
:103A5000B7EE000A644800F0BFF9022061494870DF
:103A60000EE06048407858B904215F4800F0AAF998
:103A70009FED5E0A5C4800F0AFF90220594948709A
:103A80005848807801280CD10221594800F09AF951
:103A9000B7EE000A564800F09FF90220514988709D
:103AA0000EE05048807858B90421514800F08AF956
:103AB0009FED4E0A4E4800F08FF902204949887068
:103AC0004848007801280CD102214A4800F07AF9D0
:103AD000B7EE000A474800F07FF90220414908701C
:103AE0000EE04048007858B90421424800F06AF9D5
:103AF0009FED3E0A3F4800F06FF9022039490870F7
:103B00003D4890ED000ADFED3D0A30EE600A9FED82
:103B10003C1AC0EE010A9FED3B1A9FED3B0A10EEE6
:103B2000810A3A4880ED000A334890ED000ADFED43
:103B3000330A30EE600A00E04CE0DFED310A80EE3F
:103B4000201A11EE105A2846FCF70EFE41EC180B15
:103B50009FED2F0B53EC102BFCF71AFE04D204211F
:103B60002D4800F02FF903E002212B4800F02AF93C
:103B7000214890ED000ADFED210A30EE600ADFED0A
:103B8000200A80EE201AB5EEC01AF1EE10FA04D227
:103B90009FED220A1D4880ED000A6FF4ED70009041
:103BA0001A4890ED000ABDEEC00A10EE100A03B2EA
:103BB0006FF4ED721A49184800F036F919480146B9
:103BC000094A0C4BCDE900210290094A16491248D6
:103BD00000F072F9002003B0BDEC028BF0BD0000D4
:103BE00076020020FC010020AD95002000000000BE
:103BF000BC950020CB950020E401002000007A4411
:103C00000000C844000043440000914384020020A7
:103C1000333333333333D33F44950020000091C313
:103C2000DEFEFFFF34960020169600202DE9F05F9F
:103C300004460D4616461F46DDE90CABDDE90A8950
:103C40000CB9BDE8F09F0F212046FCF7D9FB2846B0
:103C5000FCF7E1FB032800D9F3E729462046FCF7EF
:103C6000E1FB14F8030F20F00700401C20702078BF
:103C700020F0380008302070208866F389102080FA
:103C800007F57070B4F8051060F38C01A4F8051006
:103C900008F51670E18860F34F11E18009F5707046
:103CA000B4F8091060F38C01A4F809100AF5167035
:103CB000618960F34F116181A0886BF30900A080D6
:103CC00061780E9860F385016170E41E40F2011086
:103CD00000F098F80F21204600F0C8F800BFB0E7C8
:103CE0002DE9F05F04460D4616461F46DDE90B8AB6
:103CF000DDF828900CB9BDE8F09F2D212046FCF797
:103D00007FFB2846FCF787FB032804D84046FCF7D6
:103D100082FB1E2800D9EEE729462046FCF782FBED
:103D200014F8030F20F00700401C2070207820F0CA
:103D3000380038302070208866F38910208007F51D
:103D40007070B4F8051060F38C01A4F8051009F543
:103D50001670E18860F34F11E180B4F801006AF356
:103D60008E10A4F801004046FCF755FB618860F313
:103D7000CF116180A1880D9860F30901A18061785D
:103D80000E9860F385016170E41E414604F10F0056
:103D9000FCF748FB4FF4887000F034F84046FCF71D
:103DA0003AFB0F301FFA80FB5946204600F05EF8C0
:103DB00000BFA0E700B970470149086000BFFAE7FB
:103DC0001801002008B1082900DD7047027961F36D
:103DD0008502027100BFF8E720B1C178C1F3C201CA
:103DE000052900D07047DFED060A60EE200AFDEEDF
:103DF000E00A10EE901AC0F80B1000BFF2E70000C6
:103E000000007A440149088070470000100100203A
:103E10000149888070470000100100200149488056
:103E2000704700001001002070B5049C00B970BDFF
:103E300001F57075068965F38C06068102F5167525
:103E4000B0F8096065F34F16A0F8096003F57075C6
:103E5000868965F38C06868104F51675B0F80D60C9
:103E600065F34F16A0F80D6000BFE0E738B50546D2
:103E70000C460E48006800B938BD0D480D490A6867
:103E800002608988818022462946801DFCF79FFABE
:103E9000A01D80B2064B40F20132A52100900348DC
:103EA000006800F03FF900BFE6E7000018010020BD
:103EB00079810020100100202DE9F04F8BB00746DA
:103EC000884691469A460024A3460497CDF814806C
:103ED000CDF81890CDF81CA014980890159809906A
:103EE00016980A903A4E002007E004A951F82010D5
:103EF00009B1611CCCB2411CC8B20728F5DB012C0A
:103F000005D1A34640F20110FFF77CFF1CE0022C14
:103F100005D1A3464FF48170FFF774FF14E0052C20
:103F200006DC4FF0050B40F20310FFF76BFF0BE0D0
:103F3000072C06DC4FF0070B4FF48270FFF762FF8F
:103F400002E00BB0BDE8F08F224801683160808844
:103F5000B080B61D002518E004A850F8250090B1E7
:103F600004A850F82500C07820F00700801C04A9A0
:103F700051F82510C87004A850F825100F223046BB
:103F8000FCF725FA0F36681CC5B2072DE4DB5C454B
:103F900010DA0020009001900290039007E00F22B9
:103FA00069463046FCF713FA0F36601CC4B25C4514
:103FB000F5DB00BFC4EB0410801D054B40F201325D
:103FC000A52100900448006800F0ACF800BFB8E7F5
:103FD00079810020100100201801002070B50446EE
:103FE0000D462A4621460248FEF721FA70BD000020
:103FF000C47F00202DE9FF470446884699460C9D62
:1040000005F1090086B2802E03DD002004B0BDE872
:10401000F08704F1210787F80080A7F8015038469F
:10402000BDF80810E18405210FF064FB2A464946DB
:10403000F81DFCF7CCF9314638460FF045FB304609
:10404000E4E770B504460E46154604B970BD04F1A8
:10405000080010F0F0F9A84205DD2A46314604F1C7
:10406000080010F06CFA00BFF0E7000070B50648D9
:10407000456804E02C46204600F0D8F86D680248F8
:104080008542F7D170BD0000E00000202DE9F04727
:1040900004460E4617469846DDF820900CB9BDE858
:1040A000F0870D48456803E0A54200D1F7E76D6849
:1040B00009488542F8D10146204610F0ABFD84F84E
:1040C00020604246394604F1080010F02DFAC4F889
:1040D000A89000BFE3E70000E000002000BFFFF76A
:1040E000C5FF00F041F8012010F072FE002012F030
:1040F000EDFC01490860F2E75C02002000B587B0E2
:104100001C2206496846FCF762F90021684610F057
:1041100088FE0349086007B000BD00004C87010815
:10412000580200202DE9F84304460E4617469846EB
:10413000089D0CB9BDE8F88304F1080010F07BF984
:10414000A8420FDD43463A46314620460095FFF728
:1041500051FF81464A4604F1210104F1080010F0A4
:10416000EEF900BF00BFE5E72DE9F041A0B08021E6
:104170006846FCF745F90026B04600271848456810
:1041800027E02C4604F1080010F02CFA86B2FEB1AC
:10419000D4F8A80050B1D4F8A80080478046B045B4
:1041A00001DA404600E03046074600E03746802FFF
:1041B00000DD80273A46694604F1080010F064F9F2
:1041C000D4F8A40020B139466846D4F8A42090471A
:1041D0006D6803488542D4D120B0BDE8F08100006D
:1041E000E80000202DE9F04104460F4690461E46A7
:1041F0000CB9BDE8F0810C48456803E0A54200D148
:10420000F7E76D6808488542F8D10146204610F06E
:1042100001FD4246394604F1080010F085F9C4F862
:10422000A46000BFE5E70000E800002070B5044688
:1042300000258AE004F1080010F000F9054694F822
:10424000210006287BD2DFE800F003141F353F571A
:1042500094F82000A84209D1012084F82100618C43
:10426000481C608404F12600455401E0002060846D
:104270006AE0A584618C481C608404F126004554E2
:10428000022084F821005FE0A08C40EA0520A08491
:10429000618C481C608404F126004554A08C77286A
:1042A00003D2032084F8210003E0002084F82100D9
:1042B000608449E0618C481C608404F12600455408
:1042C000042084F821003FE0618C481C608404F1E4
:1042D00026004554608C05280DD1052104F12600E7
:1042E00012F0A4FF18B1052084F8210003E000209B
:1042F00084F82100608427E0618CA08C0930814221
:1043000005D2618C481C608404F126004554618C00
:10431000A08C0930814210D3002084F821006084F1
:10432000A08C00F1090104F1260012F061FF20B118
:1043300004F1260120460CF0B7FC05E0FFE7002061
:1043400084F82100608400BF00BF04F1080010F071
:1043500049F900287FF46EAF70BD000000BF08F07F
:1043600065F92F48007920B101281BD002283FD1E0
:1043700030E000F079FD007801280CD000F074FDE9
:10438000007840B1012026490871042048710220BC
:104390008871C87105E001202149487188710220A7
:1043A000C87126E01E480068007A032802D108F090
:1043B00071F90EE01A480068007A012802D1FDF771
:1043C000C9F906E016480068007A022801D1FDF715
:1043D00009F90EE01120FFF73DFA18B90020104945
:1043E000087104E000200E4948718871C87100E02E
:1043F00000BF00BF1120FFF72DFA10B102200849BD
:1044000008710748162201680648FBF7E0FF1420F0
:1044100010F0DEFC002012F059FB034908609EE713
:1044200098920020CC920020F801002000B587B0BF
:1044300008F054F8104908600020087101208871C4
:1044400048710220C871002081F830004B210B48D0
:1044500011F0AEFE4B210A4811F0AAFE1C220949B8
:104460006846FBF7B4FF0021684610F0DAFC064905
:10447000086007B000BD00009892002004020020F0
:1044800018020020F8860108F40100200048704757
:1044900098920020F8B504460D4608F01FF806462D
:1044A0002A46214607F061FF23460122AA2104483B
:1044B0000095FFF737FE112007F030FDF8BD000032
:1044C000749A0020F8B504460D4608F007F8064631
:1044D0002A46214607F049FF23460122AA21044823
:1044E0000095FFF71FFE112007F018FDF8BD000032
:1044F00064B0002010B5024802F068F810BD00005A
:104500007C0F002010B5024802F060F810BD0000DA
:10451000DC0F002010B5024802F058F810BD000072
:10452000BC0E002010B5024802F050F810BD00008B
:104530003C10002010B5024802F048F810BD000001
:104540001C0F00200146087810381823B0FBF3F246
:104550000848805CC865032A05D908686FF309001C
:10456000001D886503E008686FF309008865886DA1
:10457000704700008C830108014600208A6A8B691D
:10458000CBB932B1012A0DD0022A03D0032A10D1AF
:104590000EE000BFCB6A03F08073B3F1807F00D1DF
:1045A000012007E0CB6AB3F1C07F00D1012001E018
:1045B00000E000BF34E08B69B3F5005F1AD132B17F
:1045C000012A07D0022A03D0032A11D10AE000BF32
:1045D00001200EE0CB6A03F08073B3F1807F00D13D
:1045E000012006E0CB6AB3F1C07F00D1012000E0DA
:1045F00000BF15E032B1012A05D0022A04D0032AF7
:104600000CD103E000BF00BF012008E0CB6A03F03B
:104610008073B3F1807F00D1012000E000BF00BFB4
:10462000704730B50468246824F4802405682C6041
:10463000046863608468402C04D10468A260046844
:10464000E16003E00468A1600468E26030BD00003E
:10465000F0EE400A9FED061AB0EE410A9FED051AF2
:1046600020EE811AF0EE410AB0EE600A70470000B9
:1046700000000000E02E65427047000000BFFDF71B
:1046800053FD0546FF260024012026E02A4901EBC0
:1046900000114968691A284A02EB00129268914297
:1046A00015D9254901EB0011097881B10121224A70
:1046B00002EB0012D170204901EB00118978B14260
:1046C0000ADA1D4901EB00118E78C4B204E0002122
:1046D000194A02EB0012D170401C1328D6DBCCB172
:1046E000154901EB0411087BFDF748FF124800EB68
:1046F0000410807818B911480EF030FD11E00E4812
:1047000000EB0410807801280BD16FF0FF000EF051
:1047100025FD06E04FF0FF200EF020FD0020FDF704
:104720002DFFFDF7D1FE0A2010F052FB002012F001
:10473000CDF903490860A2E7489300200000FFFF7D
:104740005402002000B587B01C2206496846FBF7DA
:104750003EFE0021684610F064FB0349086007B084
:1047600000BD0000308701085002002010B508206D
:1047700002F0FEF910BD10B5102002F0F9F910BDDD
:1047800010B5202002F0F4F910BD72B600BFFEE7AC
:1047900010B5002201B909E0012901D10A0205E0A2
:1047A000022901D10A0201E04FF440720E4B1B684E
:1047B00023F440730C4C236023461B68134323608F
:1047C00023461B6823F07803236023461B680224DA
:1047D00044EAC0042343044C236023461B6843F48B
:1047E0008033236010BD0000103C02401C4800686C
:1047F00000F40070B0B11A48006820F40070184945
:10480000086000BF0846006840F400600860084681
:10481000006820F40060086000BF0846006840F4AB
:10482000007008600E48006800F48060B0B10C4869
:10483000006820F480600A49086000BF08460068EC
:1048400040F4805008600846006820F480500860FA
:1048500000BF0846006840F48060086070470000B0
:10486000003C02400A4A126822F44072084B1A6067
:104870001A46126842F004021A601A4612684FF48F
:10488000803343EA00231A43014B1A60704700004B
:10489000103C0240074A126822F44072054B1A602D
:1048A0001A4612681A601A46126842F001021A602B
:1048B00001707047103C024010B50A49096821F4A4
:1048C0004071084C21602146096841F44071216023
:1048D0002146096841F0010121600260BFF36F8F3A
:1048E000436010BD103C0240084A126822F4407236
:1048F000064B1A601A46126842F480721A601A4611
:10490000126842F001021A6001807047103C0240B8
:10491000084A126822F44072064B1A601A4612685E
:1049200042F400721A601A46126842F001021A60DC
:1049300001607047103C02402348006800F01000FE
:1049400040B12248C06940F010002049C8611020E1
:104950001D4908601C48006800F0200040B11B4859
:10496000C06940F008001949C86120201649086054
:104970001548006800F0400040B11448C06940F09C
:1049800004001249C86140200F4908600E480068C1
:1049900000F0800040B10D48C06940F002000B49B2
:1049A000C8618020084908600748006800F00200DC
:1049B00040B10648C06940F020000449C8610220A7
:1049C00001490860704700000C3C024008000020CC
:1049D00070B50446002500201449C86102F0DEF9D4
:1049E000054609E0601C38B124B102F0D7F9401B3C
:1049F000A04201D9032070BD0D48006800F480304A
:104A00000028EFD10A48006800F0010010B1012031
:104A1000074908600648006800F0F20018B1FFF787
:104A20008BFF0120E7E70020E5E7000008000020F9
:104A30000C3C024000487047D48400200048704776
:104A4000F8840020004870471C850020004870470B
:104A50004085002000487047DC80002010B502F03F
:104A60009DF910BD10B52C4454B1082205492046CB
:104A700006F02AFB042203491031304606F024FBDD
:104A800010BD0000FE03002008B5FFF7FFFC5649EB
:104A9000086005F011FF54494860544888600120BF
:104AA000487300F0FFFA5049486100F0E5FA4E49BA
:104AB000C1F8080240F6F8014B48018341F2542145
:104AC000A0F810129FED4A0A80ED070A9FED480AF0
:104AD00080ED850A9FED470A80ED080A9FED460AA2
:104AE00080ED090AB3EE0E0A80ED860ABBEE020ADB
:104AF00080ED870ADFED412A9FED402AF7EE001A8C
:104B0000B3EE041ADFED3D0A9FED3D0A032100F5E7
:104B1000267010F013FCDFED392A9FED382ADFED07
:104B2000371A9FED381ADFED380A9FED380A032156
:104B3000374810F003FCDFED332A9FED302ADFED1C
:104B4000351A9FED351ADFED350AB3EE0E0A032153
:104B5000334810F0F3FB0FF087FB002364220121A0
:104B60000E2007F0BDF904234FF4FA720121122040
:104B700007F0B6F9002364220121112007F0B0F9F3
:104B8000284B4FF4806228492848FFF72BFB284820
:104B90004FF48063274AAA2100902748FFF776FA4E
:104BA00014220021254808F01FFB25484FF400730C
:104BB000244AA52100902448FFF768FA2349244895
:104BC000FDF70DFC23492448FDF709FC234924483F
:104BD000FDF705FC23490548FDF72EF82249234837
:104BE000FDF72AF808BD00005496002078800020C8
:104BF0000000343D0000B4420000B4C200000000D8
:104C00000000FA44000048420000FA4500007A46DD
:104C1000509900200AD7233C9A99193ECDCCCC3D1F
:104C2000DC9700203D270008209B0020749A00207C
:104C3000D90C0108CC9F0020209F0020B14D000816
:104C400005C5000878A40020CCA3002095440008E6
:104C50003C800020192A0008C47F002095C100086C
:104C6000008000204926000885270008A480002035
:104C70001D48407B1C49887308460068407910B97C
:104C8000002048732EE0184800684079012802D1BE
:104C90001549487326E0144800684079022802D17B
:104CA000114948731EE0104800684079032802D17A
:104CB0000D49487316E00C4800684079042802D179
:104CC000094948730EE0084800684079052802D178
:104CD0000549487306E0044800684079062801D178
:104CE00001494873704700005496002010B52DED1F
:104CF000028B03212C4880F82810012180F8201213
:104D00009FED2A0AB0EE408A9FED280AF0EE408A15
:104D100090ED0B0A0068D0ED080A30EE200AB0EEE4
:104D2000408A214890ED890A0068D0ED070A30EEEC
:104D3000200AF0EE408A1C4890ED0D0AF0EE400A81
:104D4000B0EE480AFCF79EFB174880ED0B0A90ED89
:104D50008B0AF0EE400AB0EE680AFCF793FB1248AB
:104D600080ED890A00BF90ED890AD0ED870AB4EE84
:104D7000E00AF1EE10FA04D890ED870A80ED890A76
:104D80000DE0094890ED890AD0ED860AB4EEE00AFC
:104D9000F1EE10FA03DB90ED860A80ED890A00BF80
:104DA000BDEC028B10BD00005496002000000000F6
:104DB000F8B5074600F058F804460BF0BDFF05466D
:104DC000FEF702FA06462348407B20702148D0F8BF
:104DD0002802C4F80100307804280BD11D4890ED5A
:104DE0000C0ADFED1D0A30EE200A10EE100AC4F89E
:104DF000050003E01748006BC4F805001548D0F81B
:104E00002C0244F8090F1348406B60601148D0F839
:104E10003002A0600F4890ED7F0ADFED100A60EECF
:104E2000200A9FED0F1A80EE810A10EE100AE06052
:104E3000084890F80E042074A868C4F81D00093CC6
:104E40002A2023460322AA2100900648FFF76AF988
:104E50000020F8BD54960020E17A8C4100003443D4
:104E6000DB0F4940749A0020004870472F810020D2
:104E700010B52948807B012807D0FA21274811F076
:104E800097F9FA21264811F093F90221224880F877
:104E90002012042180F828100146886821490FF06B
:104EA0005CF91D4890ED0C0A80ED0B0A1C4811F0CE
:104EB0005FF9F7EE000A30EEC00A1748D0ED8A0A13
:104EC00020EE200A80ED890A90ED8A0AB0EEC00A31
:104ED000F0EE000AB4EEE00AF1EE10FA1BD80F482B
:104EE00011F046F9F7EE000A30EEC00A0A48D0ED9C
:104EF0000C0A20EE200A80ED0B0A90ED0C0AB0EEB1
:104F0000C00AF0EE080AB4EEE00AF1EE10FA02D898
:104F100004200149487310BD54960020B0020020BF
:104F2000C4020020E8850020417E027E91421FD00D
:104F3000017E41B9B0F9F41100EE101AB8EEC00AC2
:104F400080ED070A14E0017E012902D0017E0329C9
:104F500004D190ED090A80ED070A09E0017E0229DB
:104F600002D0017E042903D190ED080A80ED070AE2
:104F7000017E41767047000010B52DED028B04468E
:104F80002046FFF7D1FF207E68B994ED070ABDEEF9
:104F9000C00A10EE100A00B2A4F8F40104F12C00CB
:104FA00000F07CFC60E0207E01282DD194ED782A71
:104FB000F0EE421A94ED0A2AB0EE421A94ED092A54
:104FC000F0EE420A94ED072AB0EE420A04F12C00FA
:104FD00000F06FFCF0EE408A94ED090ADFED240A40
:104FE00080EE201AB0EE418AB0EE480A0CF058FD6F
:104FF000DFED200A40EE208ABDEEE80A10EE100A2E
:1050000000B2A4F8F4012FE0207E02282CD194ED08
:10501000782AF0EE421A94ED0A2AB0EE421A94ED84
:10502000082AF0EE420A94ED072AB0EE420A04F193
:105030002C0000F03EFCF0EE408A94ED090ADFED12
:105040000C0A80EE201AB0EE418AB0EE480A0CF04D
:1050500027FDDFED080A40EE208ABDEEE80A10EEDB
:10506000100A00B2A4F8F401BDEC028B10BD0000E0
:10507000333365420040834500487047B0840020C8
:105080007CB505460C4600200090054901900023A0
:105090002246886840F2FF1106F0ECFE7CBD00005D
:1050A00054960020004870478884002010B52DEDEC
:1050B000028B9FED320AB0EE408A9FED300AF0EE8F
:1050C000408A03212E4880F82810012180F8201200
:1050D000FEF77AF804462A48006890ED080A284846
:1050E000D0ED0B0A30EE200AB0EE408A207804287A
:1050F0000CD1234890ED0D0AF0EE400AB0EE480ABC
:10510000FCF7C0F91E4880ED0B0A0BE01C4890ED3F
:105110000D0AF0EE400AB0EE480AFCF7B3F9184861
:1051200080ED0B0A164890ED890A0068D0ED070A59
:1051300030EE200A124880ED890A00BF90ED890AFE
:10514000D0ED870AB4EEE00AF1EE10FA04D890ED43
:10515000870A80ED890A0DE0094890ED890AD0EDB3
:10516000860AB4EEE00AF1EE10FA03DB90ED860A4F
:1051700080ED890A00BFBDEC028B10BD000000006D
:105180005496002003212C4880F82810012180F833
:10519000201290ED0B0A0068D0ED080A30EE200ACC
:1051A000254880ED0B0A90ED890A0068D0ED070ACA
:1051B00030EE200A204880ED890A00BF90ED0B0AEE
:1051C000D0ED090AB4EEE00AF1EE10FA04D890ED41
:1051D000090A80ED0B0A0DE0174890ED0B0AD0ED9F
:1051E000080AB4EEE00AF1EE10FA03DB90ED080ACB
:1051F00080ED0B0A00BF00BF0F4890ED890AD0ED8B
:10520000870AB4EEE00AF1EE10FA04D890ED870AAE
:1052100080ED890A0DE0084890ED890AD0ED860AF4
:10522000B4EEE00AF1EE10FA03DB90ED860A80EDB1
:10523000890A00BF704700005496002010B520482E
:10524000D0ED7E0AB0EE600AFFF702FA1C4880ED4E
:105250000C0A0246B2F8102211B20246D2F8082215
:10526000128810B206F0E9FD00EE100AB8EEC00A8E
:105270001348D0ED850A20EE200A80ED8A0A4068A6
:1052800090ED5C0A0E4880ED0D0A406890ED5A0AD8
:105290000B4880ED8B0A406890ED020ADFED090AA9
:1052A00020EE200A064880ED0E0A406890ED010AC3
:1052B000DFED040A20EE200A014880ED8C0A10BDC3
:1052C00054960020E12E654200BFFFF7B7FFFFF7BD
:1052D000CFFC3048407B072817D2DFE800F01604E7
:1052E000070A0D101300FFF7C3FD0FE0FFF7FEFCE8
:1052F0000CE0FFF747FF09E0FFF7D8FE06E000F0FB
:1053000077F803E005F0E2FD00BF00BF00BF012019
:10531000214908701F481030FFF72EFE1F48FFF785
:105320002BFE1C48407B28BB1A48A0300FF0E8FF3A
:105330001B480FF0E5FF194890300FF0E1FF1748C8
:10534000F4300FF0DDFF154880380FF0D9FF002151
:105350001048A0F80412A0F8FC130146886811490F
:105360000EF0CDFE0121104801F00AFD10B9012018
:1053700001F0E2FB074AB2F9FC13B2F90402FFF7AD
:105380007FFE0A200FF024FD002011F09FFB07494B
:1053900008609AE754960020000300205C980020E3
:1053A00058970020E885002000000240A00200205D
:1053B00000B587B0FA210A4810F0FAFEFA21094830
:1053C00010F0F6FE1C2208496846FBF700F80021A1
:1053D00068460FF026FD0549086007B000BD0000D3
:1053E000B0020020C4020020848701089802002037
:1053F00070B52DED0C8B0321FE4880F8281001219B
:1054000080F820129FEDFC0AB0EE408A9FEDFA0A68
:10541000F0EE408A0BF090FC0446207F01287DD1FD
:10542000207F18B10021F54A11605160A07F01284A
:1054300075D19FEDF10AF24880ED000AED48006851
:1054400090ED070A30EE280AF0EE408AED4890ED24
:10545000010AE84880EDF90A9FEDE70A80EDFA0AB3
:10546000606800EE100AF0EE080A08EEA00AE148B3
:1054700080ED890A206800EE100ADE480068D0ED51
:10548000080A30EE200ADB4880ED0B0A90ED890A0D
:10549000DD4880ED000AE07F01287DD1A06800EEA4
:1054A000100ADFEDDA0A20EE200ADFEDD90A80EEDD
:1054B000801A11EE105A2846FBF756F941EC1D0BE5
:1054C000B0EE4D0AF0EE6D0A0BF0DEFEB0EE40CA13
:1054D000F0EE60CA9FEDCF0B53EC102B51EC1C0B80
:1054E000FBF750F841EC1B0B9FEDCC0B53EC102B52
:1054F000FBF748F841EC190B206800EE100ABD4894
:10550000D0ED0D0A30EE600A10EE101A0846FBF7D7
:105510002BF941EC1B0BB0EE4B0A01E0AEE06BE067
:10552000F0EE6B0A0CF064FBB0EE40AAF0EE60AA5D
:1055300053EC192B51EC1A0BFBF72AF954D2A06843
:1055400000EE100ADFEDB10A20EE200ADFEDB50A09
:1055500080EE801A11EE105A2846FBF705F941EC4F
:105560001D0BB0EE4D0AF0EE6D0A0BF08DFEB0EEA5
:1055700040CAF0EE60CA9FEDAC0B53EC102B51EC1F
:105580001C0BFAF7FFFF41EC1B0B9FEDA40B53EC38
:10559000102BFAF7F7FF00E026E041EC190B6068EA
:1055A00000EE100A9348D0ED8B0A30EE600A10EE40
:1055B000101A0846FBF7D8F841EC1B0BB0EE4B0A6B
:1055C000F0EE6B0A0CF014FBB0EE40AAF0EE60AA0D
:1055D00053EC192B51EC1A0BFBF7DAF804D201202B
:1055E000844981F80D0403E00020824981F80D040C
:1055F00001208F490870F9E000207E4981F80D04F0
:10560000084690ED0B0A0068D0ED080A30EE200A3B
:10561000B0EE408A084690ED0D0AF0EE400AB0EE7A
:10562000480AFBF72FFF734880ED0B0A90ED890ABB
:105630000068D0ED070A30EE200A6E4880ED890A36
:1056400000BF90ED890AD0ED870AB4EEE00AF1EED2
:1056500010FA04D890ED870A80ED890A0DE06548BC
:1056600090ED890AD0ED860AB4EEE00AF1EE10FA68
:1056700003DB90ED860A80ED890AB7E000205D49E2
:1056800081F80D045D48D0E90010491C40F100008C
:105690005A4AC2E900101046D0E90010323970F1C0
:1056A000000075D31046D0E900103222514001436A
:1056B00019D1504890ED8B0A10EE101A0846FBF7EE
:1056C00053F841EC1A0BB0EE4A0AF0EE6A0A0BF0FE
:1056D00093FBB0EE409AF0EE609A51EC190BFBF799
:1056E00087F854490860002051490870342000218F
:1056F000424A03C250480068FBF736F89FED4F0B53
:1057000053EC102BFAF797FEFBF772F84A49086042
:1057100048480068FBF728F89FED4A0B53EC102B24
:10572000FAF789FEFBF764F842490860084690EDF5
:10573000000AFAF7E1FDF1EE080AB2EE041A51EEA2
:10574000000A4248C0ED000A2A4890ED0B0A0068A2
:10575000D0ED080A30EE200AB0EE408A18EE100AAA
:10576000FBF702F89FED3A0B53EC102BFAF763FEB0
:10577000FBF73EF808EE100A1E4890ED0D0AF0EE19
:10578000400AB0EE480AFBF77DFE1A4880ED0B0A8E
:105790002E4890ED000A174880ED890A90ED890A9D
:1057A0000068D0ED070A30EE200A124880ED890A21
:1057B00000BF90ED890AD0ED870AB4EEE00AF1EE61
:1057C00010FA04D890ED870A80ED890A0DE00948A7
:1057D00090ED890AD0ED860AB4EEE00AF1EE10FAF7
:1057E00003DB90ED860A80ED890A00BF00BF014807
:1057F00032E000005496002000000000A8020020C3
:1058000004030020549A00201803002000007A446A
:10581000000082429A9999999999F93F666666665D
:1058200066A64C4000005C42000000000000004002
:10583000100300201C0300200803002000000000CB
:10584000000000007B14AE47E17AB43F0C03002057
:105850009A9999999999E93F90ED890AD0ED870A2B
:10586000B4EEE00AF1EE10FA04D890ED870A80ED6C
:10587000890A0DE0084890ED890AD0ED860AB4EE59
:10588000E00AF1EE10FA03DB90ED860A80ED890A5A
:1058900000BFBDEC0C8B70BD5496002010B50446C3
:1058A00004F164000FF02CFD04F1C8000FF028FD96
:1058B00010BD10B52DED048B0446B0EE408AF0EE1D
:1058C000608AB0EE419AF0EE619A84ED4B8AC4EDA5
:1058D0004C8A204610F0CCFD94ED1C0AD4ED510A00
:1058E00020EE200A84ED260A94ED4B1AF0EE410AD0
:1058F00094ED4C1AB0EE410A04F164000FF0F8FB8D
:1059000094ED270AD4ED260A30EE200A30EE290A5B
:1059100084ED4D0A84ED4E9A94ED4D1AF0EE410A55
:1059200094ED4E1AB0EE410A04F1C8000FF0E0FB0E
:1059300094ED400ABDEC048B10BD000070B5054627
:105940000C462E4624B9304605F04CF8002070BDB8
:10595000012C12D1304604F097FF09480088401C02
:105960000749088008460088B0F5FA6F03DD00207B
:1059700008800120EBE70020E9E70020E7E70000CE
:105980007202002010B5024692F82030012B01D09F
:10599000022B06D11068406908431468606100203A
:1059A00010BD506A40F4802050620120F8E7F0B545
:1059B00004460D461E4694F8207020688368A86847
:1059C00000B900E000BF012F01D0022F7DD103F00C
:1059D000806030B903F0006018B903F080500028EF
:1059E0007ED0C3F30161012088403060A86860B9AF
:1059F000B5F800C0E86840EA4C5C206800F5C0706B
:105A000000EB0110C0F800C00FE0D5E901C040EA8A
:105A1000CC00D5F80CC040EA0C00D4F800C00CF55E
:105A2000C07C0CEB011CCCF80000D5F810C020683D
:105A300000F5C07000EB0110C0F804C0287D0128FB
:105A40000ED1206800F5C07000EB0110406840F4F2
:105A5000807C206800F5C07000EB0110C0F804C025
:105A6000D079000692F806C040EA0C4092F805C0D2
:105A700040EA0C2092F804C040EA0C00D4F800C0C0
:105A80000CF5C07C0CEB011CCCF80C00D0780006A7
:105A900092F802C040EA0C4092F801C040EA0C20A3
:105AA00092F800C040EA0C00D4F800C00CF5C07CAD
:105AB0000CEB011CCCF80800206800F5C07000EB6E
:105AC0000110006840F0010C01E00FE008E02068E0
:105AD00000F5C07000EB0110C0F800C00020F0BD60
